{
  "contractName": "LearnerLearningProvider",
  "abi": [
    {
      "constant": false,
      "inputs": [
        {
          "name": "participantAddress",
          "type": "address"
        },
        {
          "name": "read",
          "type": "bool"
        },
        {
          "name": "write",
          "type": "bool"
        },
        {
          "name": "admin",
          "type": "bool"
        }
      ],
      "name": "grantAccess",
      "outputs": [
        {
          "name": "",
          "type": "bool"
        }
      ],
      "payable": true,
      "stateMutability": "payable",
      "type": "function"
    },
    {
      "constant": true,
      "inputs": [],
      "name": "getRecordType",
      "outputs": [
        {
          "name": "",
          "type": "bytes"
        }
      ],
      "payable": false,
      "stateMutability": "view",
      "type": "function"
    },
    {
      "constant": true,
      "inputs": [
        {
          "name": "queryString",
          "type": "string"
        }
      ],
      "name": "isDuplicate",
      "outputs": [
        {
          "name": "",
          "type": "bool"
        }
      ],
      "payable": false,
      "stateMutability": "view",
      "type": "function"
    },
    {
      "constant": true,
      "inputs": [],
      "name": "getPendingRequestsCount",
      "outputs": [
        {
          "name": "",
          "type": "uint256"
        }
      ],
      "payable": false,
      "stateMutability": "view",
      "type": "function"
    },
    {
      "constant": true,
      "inputs": [],
      "name": "getLearningRecordsCount",
      "outputs": [
        {
          "name": "",
          "type": "uint256"
        }
      ],
      "payable": false,
      "stateMutability": "view",
      "type": "function"
    },
    {
      "constant": true,
      "inputs": [
        {
          "name": "participantAddress",
          "type": "address"
        }
      ],
      "name": "canGrant",
      "outputs": [
        {
          "name": "",
          "type": "bool"
        }
      ],
      "payable": false,
      "stateMutability": "view",
      "type": "function"
    },
    {
      "constant": true,
      "inputs": [
        {
          "name": "participantAddress",
          "type": "address"
        }
      ],
      "name": "canWrite",
      "outputs": [
        {
          "name": "",
          "type": "bool"
        }
      ],
      "payable": false,
      "stateMutability": "view",
      "type": "function"
    },
    {
      "constant": true,
      "inputs": [
        {
          "name": "participantAddress",
          "type": "address"
        }
      ],
      "name": "canRead",
      "outputs": [
        {
          "name": "",
          "type": "bool"
        }
      ],
      "payable": false,
      "stateMutability": "view",
      "type": "function"
    },
    {
      "constant": true,
      "inputs": [],
      "name": "getProvider",
      "outputs": [
        {
          "name": "",
          "type": "address"
        }
      ],
      "payable": false,
      "stateMutability": "view",
      "type": "function"
    },
    {
      "constant": false,
      "inputs": [
        {
          "name": "participantIndex",
          "type": "uint256"
        },
        {
          "name": "read",
          "type": "bool"
        },
        {
          "name": "write",
          "type": "bool"
        },
        {
          "name": "admin",
          "type": "bool"
        }
      ],
      "name": "grantAccess",
      "outputs": [
        {
          "name": "",
          "type": "bool"
        }
      ],
      "payable": true,
      "stateMutability": "payable",
      "type": "function"
    },
    {
      "constant": true,
      "inputs": [],
      "name": "getPendingRequests",
      "outputs": [
        {
          "name": "",
          "type": "address[]"
        }
      ],
      "payable": false,
      "stateMutability": "view",
      "type": "function"
    },
    {
      "constant": true,
      "inputs": [],
      "name": "getOwner",
      "outputs": [
        {
          "name": "",
          "type": "address"
        }
      ],
      "payable": false,
      "stateMutability": "view",
      "type": "function"
    },
    {
      "constant": false,
      "inputs": [
        {
          "name": "queryString",
          "type": "string"
        },
        {
          "name": "queryResultHash",
          "type": "string"
        }
      ],
      "name": "insertLearningRecord",
      "outputs": [],
      "payable": true,
      "stateMutability": "payable",
      "type": "function"
    },
    {
      "constant": true,
      "inputs": [
        {
          "name": "index",
          "type": "uint256"
        }
      ],
      "name": "getLearningRecord",
      "outputs": [
        {
          "name": "",
          "type": "string"
        },
        {
          "name": "",
          "type": "string"
        },
        {
          "name": "",
          "type": "address"
        }
      ],
      "payable": false,
      "stateMutability": "view",
      "type": "function"
    },
    {
      "constant": false,
      "inputs": [],
      "name": "requestAccess",
      "outputs": [],
      "payable": true,
      "stateMutability": "payable",
      "type": "function"
    },
    {
      "inputs": [
        {
          "name": "_owner",
          "type": "address"
        },
        {
          "name": "_learner",
          "type": "address"
        },
        {
          "name": "_recordType",
          "type": "bytes"
        }
      ],
      "payable": false,
      "stateMutability": "nonpayable",
      "type": "constructor"
    }
  ],
  "bytecode": "0x606060405234156200001057600080fd5b60405162001ab038038062001ab083398101604052808051906020019091908051906020019091908051820191905050826000806101000a81548173ffffffffffffffffffffffffffffffffffffffff021916908373ffffffffffffffffffffffffffffffffffffffff16021790555080600590805190602001906200009892919062000271565b5060606040519081016040528060011515815260200160011515815260200160011515815250600160008473ffffffffffffffffffffffffffffffffffffffff1673ffffffffffffffffffffffffffffffffffffffff16815260200190815260200160002060008201518160000160006101000a81548160ff02191690831515021790555060208201518160000160016101000a81548160ff02191690831515021790555060408201518160000160026101000a81548160ff02191690831515021790555090505060606040519081016040528060011515815260200160011515815260200160011515815250600160003373ffffffffffffffffffffffffffffffffffffffff1673ffffffffffffffffffffffffffffffffffffffff16815260200190815260200160002060008201518160000160006101000a81548160ff02191690831515021790555060208201518160000160016101000a81548160ff02191690831515021790555060408201518160000160026101000a81548160ff02191690831515021790555090505033600660006101000a81548173ffffffffffffffffffffffffffffffffffffffff021916908373ffffffffffffffffffffffffffffffffffffffff16021790555050505062000320565b828054600181600116156101000203166002900490600052602060002090601f016020900481019282601f10620002b457805160ff1916838001178555620002e5565b82800160010185558215620002e5579182015b82811115620002e4578251825591602001919060010190620002c7565b5b509050620002f49190620002f8565b5090565b6200031d91905b8082111562000319576000816000905550600101620002ff565b5090565b90565b61178080620003306000396000f3006060604052600436106100db576000357c0100000000000000000000000000000000000000000000000000000000900463ffffffff1680630458d201146100e05780630781f5c9146101475780630cab81e5146101d5578063188c26cc1461024a57806319ed0018146102735780631ff2c99c1461029c5780633239b71b146102ed57806342087d4f1461033e578063483d45bd1461038f57806359f62841146103e457806380a1f71214610435578063893d20e81461049f5780638e0777a7146104f4578063dbaf557f14610589578063eb2f4817146106c4575b600080fd5b61012d600480803573ffffffffffffffffffffffffffffffffffffffff169060200190919080351515906020019091908035151590602001909190803515159060200190919050506106ce565b604051808215151515815260200191505060405180910390f35b341561015257600080fd5b61015a6108b5565b6040518080602001828103825283818151815260200191508051906020019080838360005b8381101561019a57808201518184015260208101905061017f565b50505050905090810190601f1680156101c75780820380516001836020036101000a031916815260200191505b509250505060405180910390f35b34156101e057600080fd5b610230600480803590602001908201803590602001908080601f0160208091040260200160405190810160405280939291908181526020018383808284378201915050505050509190505061095d565b604051808215151515815260200191505060405180910390f35b341561025557600080fd5b61025d6109df565b6040518082815260200191505060405180910390f35b341561027e57600080fd5b6102866109ec565b6040518082815260200191505060405180910390f35b34156102a757600080fd5b6102d3600480803573ffffffffffffffffffffffffffffffffffffffff16906020019091905050610a58565b604051808215151515815260200191505060405180910390f35b34156102f857600080fd5b610324600480803573ffffffffffffffffffffffffffffffffffffffff16906020019091905050610ab1565b604051808215151515815260200191505060405180910390f35b341561034957600080fd5b610375600480803573ffffffffffffffffffffffffffffffffffffffff16906020019091905050610b0a565b604051808215151515815260200191505060405180910390f35b341561039a57600080fd5b6103a2610b63565b604051808273ffffffffffffffffffffffffffffffffffffffff1673ffffffffffffffffffffffffffffffffffffffff16815260200191505060405180910390f35b61041b6004808035906020019091908035151590602001909190803515159060200190919080351515906020019091905050610b8d565b604051808215151515815260200191505060405180910390f35b341561044057600080fd5b610448610ec8565b6040518080602001828103825283818151815260200191508051906020019060200280838360005b8381101561048b578082015181840152602081019050610470565b505050509050019250505060405180910390f35b34156104aa57600080fd5b6104b2610f5c565b604051808273ffffffffffffffffffffffffffffffffffffffff1673ffffffffffffffffffffffffffffffffffffffff16815260200191505060405180910390f35b610587600480803590602001908201803590602001908080601f0160208091040260200160405190810160405280939291908181526020018383808284378201915050505050509190803590602001908201803590602001908080601f01602080910402602001604051908101604052809392919081815260200183838082843782019150505050505091905050610f85565b005b341561059457600080fd5b6105aa60048080359060200190919050506111c8565b6040518080602001806020018473ffffffffffffffffffffffffffffffffffffffff1673ffffffffffffffffffffffffffffffffffffffff168152602001838103835286818151815260200191508051906020019080838360005b83811015610620578082015181840152602081019050610605565b50505050905090810190601f16801561064d5780820380516001836020036101000a031916815260200191505b50838103825285818151815260200191508051906020019080838360005b8381101561068657808201518184015260208101905061066b565b50505050905090810190601f1680156106b35780820380516001836020036101000a031916815260200191505b509550505050505060405180910390f35b6106cc6113fb565b005b60006106d861153f565b600160003373ffffffffffffffffffffffffffffffffffffffff1673ffffffffffffffffffffffffffffffffffffffff16815260200190815260200160002060000160029054906101000a900460ff16156108a757600160008773ffffffffffffffffffffffffffffffffffffffff1673ffffffffffffffffffffffffffffffffffffffff168152602001908152602001600020606060405190810160405290816000820160009054906101000a900460ff161515151581526020016000820160019054906101000a900460ff161515151581526020016000820160029054906101000a900460ff161515151581525050905082816040019015159081151581525050848160000190151590811515815250508381602001901515908115158152505080600160008873ffffffffffffffffffffffffffffffffffffffff1673ffffffffffffffffffffffffffffffffffffffff16815260200190815260200160002060008201518160000160006101000a81548160ff02191690831515021790555060208201518160000160016101000a81548160ff02191690831515021790555060408201518160000160026101000a81548160ff021916908315150217905550905050600191506108ac565b600091505b50949350505050565b6108bd611567565b60058054600181600116156101000203166002900480601f0160208091040260200160405190810160405280929190818152602001828054600181600116156101000203166002900480156109535780601f1061092857610100808354040283529160200191610953565b820191906000526020600020905b81548152906001019060200180831161093657829003601f168201915b5050505050905090565b60006004826040518082805190602001908083835b6020831015156109975780518252602082019150602081019050602083039250610972565b6001836020036101000a038019825116818451168082178552505050505050905001915050908152602001604051809103902060009054906101000a900460ff169050919050565b6000600280549050905090565b6000600160003373ffffffffffffffffffffffffffffffffffffffff1673ffffffffffffffffffffffffffffffffffffffff16815260200190815260200160002060000160009054906101000a900460ff1615610a50576003805490509050610a55565b600090505b90565b6000600160008373ffffffffffffffffffffffffffffffffffffffff1673ffffffffffffffffffffffffffffffffffffffff16815260200190815260200160002060000160029054906101000a900460ff169050919050565b6000600160008373ffffffffffffffffffffffffffffffffffffffff1673ffffffffffffffffffffffffffffffffffffffff16815260200190815260200160002060000160019054906101000a900460ff169050919050565b6000600160008373ffffffffffffffffffffffffffffffffffffffff1673ffffffffffffffffffffffffffffffffffffffff16815260200190815260200160002060000160009054906101000a900460ff169050919050565b6000600660009054906101000a900473ffffffffffffffffffffffffffffffffffffffff16905090565b6000610b9761153f565b600160003373ffffffffffffffffffffffffffffffffffffffff1673ffffffffffffffffffffffffffffffffffffffff16815260200190815260200160002060000160029054906101000a900460ff1615610eba5760016000600288815481101515610bff57fe5b906000526020600020900160009054906101000a900473ffffffffffffffffffffffffffffffffffffffff1673ffffffffffffffffffffffffffffffffffffffff1673ffffffffffffffffffffffffffffffffffffffff168152602001908152602001600020606060405190810160405290816000820160009054906101000a900460ff161515151581526020016000820160019054906101000a900460ff161515151581526020016000820160029054906101000a900460ff16151515158152505090508281604001901515908115158152505084816000019015159081151581525050838160200190151590811515815250508060016000600289815481101515610d0857fe5b906000526020600020900160009054906101000a900473ffffffffffffffffffffffffffffffffffffffff1673ffffffffffffffffffffffffffffffffffffffff1673ffffffffffffffffffffffffffffffffffffffff16815260200190815260200160002060008201518160000160006101000a81548160ff02191690831515021790555060208201518160000160016101000a81548160ff02191690831515021790555060408201518160000160026101000a81548160ff0219169083151502179055509050506002600160028054905003815481101515610de857fe5b906000526020600020900160009054906101000a900473ffffffffffffffffffffffffffffffffffffffff16600287815481101515610e2357fe5b906000526020600020900160006101000a81548173ffffffffffffffffffffffffffffffffffffffff021916908373ffffffffffffffffffffffffffffffffffffffff1602179055506002600160028054905003815481101515610e8357fe5b906000526020600020900160006101000a81549073ffffffffffffffffffffffffffffffffffffffff021916905560019150610ebf565b600091505b50949350505050565b610ed061157b565b6002805480602002602001604051908101604052809291908181526020018280548015610f5257602002820191906000526020600020905b8160009054906101000a900473ffffffffffffffffffffffffffffffffffffffff1673ffffffffffffffffffffffffffffffffffffffff1681526020019060010190808311610f08575b5050505050905090565b60008060009054906101000a900473ffffffffffffffffffffffffffffffffffffffff16905090565b600160003373ffffffffffffffffffffffffffffffffffffffff1673ffffffffffffffffffffffffffffffffffffffff16815260200190815260200160002060000160019054906101000a900460ff16156111c457600015156004836040518082805190602001908083835b6020831015156110165780518252602082019150602081019050602083039250610ff1565b6001836020036101000a038019825116818451168082178552505050505050905001915050908152602001604051809103902060009054906101000a900460ff16151514156111c35760038054806001018281611073919061158f565b916000526020600020906003020160006060604051908101604052808581526020018681526020013373ffffffffffffffffffffffffffffffffffffffff16815250909190915060008201518160000190805190602001906110d69291906115c1565b5060208201518160010190805190602001906110f39291906115c1565b5060408201518160020160006101000a81548173ffffffffffffffffffffffffffffffffffffffff021916908373ffffffffffffffffffffffffffffffffffffffff16021790555050505060016004836040518082805190602001908083835b6020831015156111785780518252602082019150602081019050602083039250611153565b6001836020036101000a038019825116818451168082178552505050505050905001915050908152602001604051809103902060006101000a81548160ff0219169083151502179055505b5b5050565b6111d0611641565b6111d8611641565b6000600160003373ffffffffffffffffffffffffffffffffffffffff1673ffffffffffffffffffffffffffffffffffffffff16815260200190815260200160002060000160009054906101000a900460ff16156113f35760038481548110151561123e57fe5b906000526020600020906003020160000160038581548110151561125e57fe5b906000526020600020906003020160010160038681548110151561127e57fe5b906000526020600020906003020160020160009054906101000a900473ffffffffffffffffffffffffffffffffffffffff16828054600181600116156101000203166002900480601f0160208091040260200160405190810160405280929190818152602001828054600181600116156101000203166002900480156113455780601f1061131a57610100808354040283529160200191611345565b820191906000526020600020905b81548152906001019060200180831161132857829003601f168201915b50505050509250818054600181600116156101000203166002900480601f0160208091040260200160405190810160405280929190818152602001828054600181600116156101000203166002900480156113e15780601f106113b6576101008083540402835291602001916113e1565b820191906000526020600020905b8154815290600101906020018083116113c457829003601f168201915b505050505091509250925092506113f4565b5b9193909250565b61140361153f565b600160003373ffffffffffffffffffffffffffffffffffffffff1673ffffffffffffffffffffffffffffffffffffffff168152602001908152602001600020606060405190810160405290816000820160009054906101000a900460ff161515151581526020016000820160019054906101000a900460ff161515151581526020016000820160029054906101000a900460ff1615151515815250509050600015158160400151151514806114c057506000151581600001511515145b806114d357506000151581602001511515145b1561153c57600280548060010182816114ec9190611655565b9160005260206000209001600033909190916101000a81548173ffffffffffffffffffffffffffffffffffffffff021916908373ffffffffffffffffffffffffffffffffffffffff160217905550505b50565b6060604051908101604052806000151581526020016000151581526020016000151581525090565b602060405190810160405280600081525090565b602060405190810160405280600081525090565b8154818355818115116115bc576003028160030283600052602060002091820191016115bb9190611681565b5b505050565b828054600181600116156101000203166002900490600052602060002090601f016020900481019282601f1061160257805160ff1916838001178555611630565b82800160010185558215611630579182015b8281111561162f578251825591602001919060010190611614565b5b50905061163d91906116e7565b5090565b602060405190810160405280600081525090565b81548183558181151161167c5781836000526020600020918201910161167b91906116e7565b5b505050565b6116e491905b808211156116e057600080820160006116a0919061170c565b6001820160006116b0919061170c565b6002820160006101000a81549073ffffffffffffffffffffffffffffffffffffffff021916905550600301611687565b5090565b90565b61170991905b808211156117055760008160009055506001016116ed565b5090565b90565b50805460018160011615610100020316600290046000825580601f106117325750611751565b601f01602090049060005260206000209081019061175091906116e7565b5b505600a165627a7a723058205a1f76533b1eb46d90e5a86ade5da284f2c7aa09c2ca2d26ead2506bd7f157120029",
  "source": "pragma solidity ^0.4.17;\n\ncontract LearnerLearningProvider {\n\n    struct LearningRecord {\n        string queryResultHash;\n        string queryHash;\n        address writer;\n    }\n    \n    struct Permissions {\n        bool canRead;\n        bool canWrite;\n        bool canGrant;\n    }\n    \n    address owner;\n    mapping(address => Permissions) permissions;\n    address[] pendingRequests;\n    LearningRecord[] learningRecords;\n    mapping(string => bool) duplicateLearningLogTracker;\n    bytes recordType;\n    address provider;\n\n    function getOwner() public view returns (address) {\n        return owner;\n    }\n\n    function getRecordType() public view returns (bytes) {\n        return recordType;\n    }\n\n    function isDuplicate(string queryString) public view returns (bool) {\n        return duplicateLearningLogTracker[queryString];\n    }\n\n    function getProvider() public view returns (address) {\n        return provider;\n    }\n    \n    function LearnerLearningProvider(address _owner, address _learner, bytes _recordType) public {\n        owner = _owner;\n        recordType = _recordType;\n        permissions[_learner] = Permissions(true, true, true);\n        permissions[msg.sender] = Permissions(true, true, true);\n        provider = msg.sender;\n    }\n\n    function insertLearningRecord(string queryString, string queryResultHash) public payable {\n        if (permissions[msg.sender].canWrite) {\n            if(duplicateLearningLogTracker[queryString] == false) {\n                learningRecords.push(LearningRecord(queryResultHash, queryString, msg.sender));\n                duplicateLearningLogTracker[queryString] = true;\n            }\n        }\n    }\n    \n    function requestAccess() public payable {\n        Permissions memory permsn = permissions[msg.sender];\n        if(permsn.canGrant == false || permsn.canRead == false || permsn.canWrite == false ){\n            pendingRequests.push(msg.sender);\n        }\n    }\n\n    function getPendingRequestsCount() public view returns (uint) {\n        return pendingRequests.length;\n    }\n\n    function getPendingRequests() public view returns(address[]) {\n        return pendingRequests;\n    }\n\n    function grantAccess(address participantAddress, bool read, bool write, bool admin) public payable returns (bool) {\n        if (permissions[msg.sender].canGrant ) {\n            Permissions memory perm = permissions[participantAddress];\n            perm.canGrant = admin;\n            perm.canRead = read;\n            perm.canWrite = write;\n            permissions[participantAddress] = perm;\n            return true;\n        }else {\n            return false;\n        }\n    }\n\n    function grantAccess(uint participantIndex, bool read, bool write, bool admin) public payable returns (bool) {\n        if (permissions[msg.sender].canGrant) {\n            Permissions memory perm = permissions[pendingRequests[participantIndex]];\n            perm.canGrant = admin;\n            perm.canRead = read;\n            perm.canWrite = write;\n            permissions[pendingRequests[participantIndex]] = perm;\n            pendingRequests[participantIndex] = pendingRequests[pendingRequests.length-1];\n            delete pendingRequests[pendingRequests.length-1];\n            return true;\n        }else {\n            return false;\n        }\n    }\n\n    function getLearningRecordsCount() public view returns (uint) {\n        if (permissions[msg.sender].canRead) {\n            return learningRecords.length;\n        }else {\n            return 0;\n        }\n    }\n\n    function getLearningRecord(uint index) public view returns (string, string, address) {\n        if (permissions[msg.sender].canRead) {\n            return (learningRecords[index].queryResultHash,learningRecords[index].queryHash,\n            learningRecords[index].writer);\n        }\n    }\n\n    function canGrant(address participantAddress) public constant returns (bool) {\n        return permissions[participantAddress].canGrant;\n    }\n\n    function canWrite(address participantAddress) public constant returns (bool) {\n        return permissions[participantAddress].canWrite;\n    }\n\n    function canRead(address participantAddress) public constant returns (bool) {\n        return permissions[participantAddress].canRead;\n    }\n}\n",
  "sourcePath": "/Users/admin/truffle-codes/contracts/LearnerLearningProvider.sol",
  "compiler": {
    "name": "solc",
    "version": "0.4.18+commit.9cf6e910.Emscripten.clang"
  },
  "schemaVersion": "1.0.1",
  "updatedAt": "2018-01-14T10:30:09.355Z"
}