{
  "contractName": "LearnerLearningProvider",
  "abi": [
    {
      "constant": true,
      "inputs": [
        {
          "name": "",
          "type": "address"
        }
      ],
      "name": "permissions",
      "outputs": [
        {
          "name": "canRead",
          "type": "bool"
        },
        {
          "name": "canWrite",
          "type": "bool"
        },
        {
          "name": "canGrant",
          "type": "bool"
        }
      ],
      "payable": false,
      "stateMutability": "view",
      "type": "function"
    },
    {
      "constant": true,
      "inputs": [],
      "name": "getRecordType",
      "outputs": [
        {
          "name": "",
          "type": "string"
        }
      ],
      "payable": false,
      "stateMutability": "view",
      "type": "function"
    },
    {
      "constant": true,
      "inputs": [],
      "name": "getLearningRecordsCount",
      "outputs": [
        {
          "name": "",
          "type": "uint256"
        }
      ],
      "payable": false,
      "stateMutability": "view",
      "type": "function"
    },
    {
      "constant": true,
      "inputs": [
        {
          "name": "participantAddress",
          "type": "address"
        }
      ],
      "name": "canGrant",
      "outputs": [
        {
          "name": "",
          "type": "bool"
        }
      ],
      "payable": false,
      "stateMutability": "view",
      "type": "function"
    },
    {
      "constant": true,
      "inputs": [
        {
          "name": "participantAddress",
          "type": "address"
        }
      ],
      "name": "canWrite",
      "outputs": [
        {
          "name": "",
          "type": "bool"
        }
      ],
      "payable": false,
      "stateMutability": "view",
      "type": "function"
    },
    {
      "constant": true,
      "inputs": [
        {
          "name": "participantAddress",
          "type": "address"
        }
      ],
      "name": "canRead",
      "outputs": [
        {
          "name": "",
          "type": "bool"
        }
      ],
      "payable": false,
      "stateMutability": "view",
      "type": "function"
    },
    {
      "constant": true,
      "inputs": [],
      "name": "getProvider",
      "outputs": [
        {
          "name": "",
          "type": "address"
        }
      ],
      "payable": false,
      "stateMutability": "view",
      "type": "function"
    },
    {
      "constant": true,
      "inputs": [],
      "name": "getOwner",
      "outputs": [
        {
          "name": "",
          "type": "address"
        }
      ],
      "payable": false,
      "stateMutability": "view",
      "type": "function"
    },
    {
      "constant": false,
      "inputs": [
        {
          "name": "queryString",
          "type": "string"
        },
        {
          "name": "queryResultHash",
          "type": "string"
        }
      ],
      "name": "insertLearningRecord",
      "outputs": [],
      "payable": true,
      "stateMutability": "payable",
      "type": "function"
    },
    {
      "constant": true,
      "inputs": [
        {
          "name": "index",
          "type": "uint256"
        }
      ],
      "name": "getLearningRecord",
      "outputs": [
        {
          "name": "",
          "type": "string"
        },
        {
          "name": "",
          "type": "string"
        },
        {
          "name": "",
          "type": "string"
        }
      ],
      "payable": false,
      "stateMutability": "view",
      "type": "function"
    },
    {
      "constant": false,
      "inputs": [
        {
          "name": "registrarAddress",
          "type": "address"
        },
        {
          "name": "participantAddress",
          "type": "address"
        },
        {
          "name": "indexContract",
          "type": "address"
        },
        {
          "name": "read",
          "type": "bool"
        },
        {
          "name": "write",
          "type": "bool"
        },
        {
          "name": "admin",
          "type": "bool"
        }
      ],
      "name": "grantAccess",
      "outputs": [
        {
          "name": "",
          "type": "bool"
        }
      ],
      "payable": true,
      "stateMutability": "payable",
      "type": "function"
    },
    {
      "inputs": [
        {
          "name": "_owner",
          "type": "address"
        },
        {
          "name": "_learner",
          "type": "address"
        },
        {
          "name": "_recordType",
          "type": "string"
        }
      ],
      "payable": false,
      "stateMutability": "nonpayable",
      "type": "constructor"
    }
  ],
  "bytecode": "0x6060604052341561000f57600080fd5b604051620014263803806200142683398101604052808051906020019091908051906020019091908051820191905050826000806101000a81548173ffffffffffffffffffffffffffffffffffffffff021916908373ffffffffffffffffffffffffffffffffffffffff160217905550806004908051906020019061009592919061026d565b5060606040519081016040528060011515815260200160011515815260200160011515815250600160008473ffffffffffffffffffffffffffffffffffffffff1673ffffffffffffffffffffffffffffffffffffffff16815260200190815260200160002060008201518160000160006101000a81548160ff02191690831515021790555060208201518160000160016101000a81548160ff02191690831515021790555060408201518160000160026101000a81548160ff02191690831515021790555090505060606040519081016040528060011515815260200160011515815260200160011515815250600160003373ffffffffffffffffffffffffffffffffffffffff1673ffffffffffffffffffffffffffffffffffffffff16815260200190815260200160002060008201518160000160006101000a81548160ff02191690831515021790555060208201518160000160016101000a81548160ff02191690831515021790555060408201518160000160026101000a81548160ff02191690831515021790555090505033600560006101000a81548173ffffffffffffffffffffffffffffffffffffffff021916908373ffffffffffffffffffffffffffffffffffffffff160217905550505050610312565b828054600181600116156101000203166002900490600052602060002090601f016020900481019282601f106102ae57805160ff19168380011785556102dc565b828001600101855582156102dc579182015b828111156102db5782518255916020019190600101906102c0565b5b5090506102e991906102ed565b5090565b61030f91905b8082111561030b5760008160009055506001016102f3565b5090565b90565b61110480620003226000396000f3006060604052600436106100af576000357c0100000000000000000000000000000000000000000000000000000000900463ffffffff16806301e88208146100b45780630781f5c91461011b57806319ed0018146101a95780631ff2c99c146101d25780633239b71b1461022357806342087d4f14610274578063483d45bd146102c5578063893d20e81461031a5780638e0777a71461036f578063dbaf557f14610404578063df86ffcb14610578575b600080fd5b34156100bf57600080fd5b6100eb600480803573ffffffffffffffffffffffffffffffffffffffff1690602001909190505061061d565b60405180841515151581526020018315151515815260200182151515158152602001935050505060405180910390f35b341561012657600080fd5b61012e61066e565b6040518080602001828103825283818151815260200191508051906020019080838360005b8381101561016e578082015181840152602081019050610153565b50505050905090810190601f16801561019b5780820380516001836020036101000a031916815260200191505b509250505060405180910390f35b34156101b457600080fd5b6101bc610716565b6040518082815260200191505060405180910390f35b34156101dd57600080fd5b610209600480803573ffffffffffffffffffffffffffffffffffffffff16906020019091905050610782565b604051808215151515815260200191505060405180910390f35b341561022e57600080fd5b61025a600480803573ffffffffffffffffffffffffffffffffffffffff169060200190919050506107db565b604051808215151515815260200191505060405180910390f35b341561027f57600080fd5b6102ab600480803573ffffffffffffffffffffffffffffffffffffffff16906020019091905050610834565b604051808215151515815260200191505060405180910390f35b34156102d057600080fd5b6102d861088d565b604051808273ffffffffffffffffffffffffffffffffffffffff1673ffffffffffffffffffffffffffffffffffffffff16815260200191505060405180910390f35b341561032557600080fd5b61032d6108b7565b604051808273ffffffffffffffffffffffffffffffffffffffff1673ffffffffffffffffffffffffffffffffffffffff16815260200191505060405180910390f35b610402600480803590602001908201803590602001908080601f0160208091040260200160405190810160405280939291908181526020018383808284378201915050505050509190803590602001908201803590602001908080601f016020809104026020016040519081016040528093929190818152602001838380828437820191505050505050919050506108e0565b005b341561040f57600080fd5b6104256004808035906020019091905050610abf565b60405180806020018060200180602001848103845287818151815260200191508051906020019080838360005b8381101561046d578082015181840152602081019050610452565b50505050905090810190601f16801561049a5780820380516001836020036101000a031916815260200191505b50848103835286818151815260200191508051906020019080838360005b838110156104d35780820151818401526020810190506104b8565b50505050905090810190601f1680156105005780820380516001836020036101000a031916815260200191505b50848103825285818151815260200191508051906020019080838360005b8381101561053957808201518184015260208101905061051e565b50505050905090810190601f1680156105665780820380516001836020036101000a031916815260200191505b50965050505050505060405180910390f35b610603600480803573ffffffffffffffffffffffffffffffffffffffff1690602001909190803573ffffffffffffffffffffffffffffffffffffffff1690602001909190803573ffffffffffffffffffffffffffffffffffffffff16906020019091908035151590602001909190803515159060200190919080351515906020019091905050610d55565b604051808215151515815260200191505060405180910390f35b60016020528060005260406000206000915090508060000160009054906101000a900460ff16908060000160019054906101000a900460ff16908060000160029054906101000a900460ff16905083565b610676610f3e565b60048054600181600116156101000203166002900480601f01602080910402602001604051908101604052809291908181526020018280546001816001161561010002031660029004801561070c5780601f106106e15761010080835404028352916020019161070c565b820191906000526020600020905b8154815290600101906020018083116106ef57829003601f168201915b5050505050905090565b6000600160003373ffffffffffffffffffffffffffffffffffffffff1673ffffffffffffffffffffffffffffffffffffffff16815260200190815260200160002060000160009054906101000a900460ff161561077a57600280549050905061077f565b600090505b90565b6000600160008373ffffffffffffffffffffffffffffffffffffffff1673ffffffffffffffffffffffffffffffffffffffff16815260200190815260200160002060000160029054906101000a900460ff169050919050565b6000600160008373ffffffffffffffffffffffffffffffffffffffff1673ffffffffffffffffffffffffffffffffffffffff16815260200190815260200160002060000160019054906101000a900460ff169050919050565b6000600160008373ffffffffffffffffffffffffffffffffffffffff1673ffffffffffffffffffffffffffffffffffffffff16815260200190815260200160002060000160009054906101000a900460ff169050919050565b6000600560009054906101000a900473ffffffffffffffffffffffffffffffffffffffff16905090565b60008060009054906101000a900473ffffffffffffffffffffffffffffffffffffffff16905090565b600160003373ffffffffffffffffffffffffffffffffffffffff1673ffffffffffffffffffffffffffffffffffffffff16815260200190815260200160002060000160019054906101000a900460ff1615610abb57600015156003836040518082805190602001908083835b602083101515610971578051825260208201915060208101905060208303925061094c565b6001836020036101000a038019825116818451168082178552505050505050905001915050908152602001604051809103902060009054906101000a900460ff1615151415610aba57600280548060010182816109ce9190610f52565b9160005260206000209060020201600060408051908101604052808581526020018681525090919091506000820151816000019080519060200190610a14929190610f84565b506020820151816001019080519060200190610a31929190610f84565b5050505060016003836040518082805190602001908083835b602083101515610a6f5780518252602082019150602081019050602083039250610a4a565b6001836020036101000a038019825116818451168082178552505050505050905001915050908152602001604051809103902060006101000a81548160ff0219169083151502179055505b5b5050565b610ac7610f3e565b610acf610f3e565b610ad7610f3e565b600160003373ffffffffffffffffffffffffffffffffffffffff1673ffffffffffffffffffffffffffffffffffffffff16815260200190815260200160002060000160009054906101000a900460ff1615610d4d576004600285815481101515610b3d57fe5b9060005260206000209060020201600001600286815481101515610b5d57fe5b9060005260206000209060020201600101828054600181600116156101000203166002900480601f016020809104026020016040519081016040528092919081815260200182805460018160011615610100020316600290048015610c035780601f10610bd857610100808354040283529160200191610c03565b820191906000526020600020905b815481529060010190602001808311610be657829003601f168201915b50505050509250818054600181600116156101000203166002900480601f016020809104026020016040519081016040528092919081815260200182805460018160011615610100020316600290048015610c9f5780601f10610c7457610100808354040283529160200191610c9f565b820191906000526020600020905b815481529060010190602001808311610c8257829003601f168201915b50505050509150808054600181600116156101000203166002900480601f016020809104026020016040519081016040528092919081815260200182805460018160011615610100020316600290048015610d3b5780601f10610d1057610100808354040283529160200191610d3b565b820191906000526020600020905b815481529060010190602001808311610d1e57829003601f168201915b50505050509050925092509250610d4e565b5b9193909250565b6000610d5f611004565b600160003373ffffffffffffffffffffffffffffffffffffffff1673ffffffffffffffffffffffffffffffffffffffff16815260200190815260200160002060000160029054906101000a900460ff1615610f2e57600160008873ffffffffffffffffffffffffffffffffffffffff1673ffffffffffffffffffffffffffffffffffffffff168152602001908152602001600020606060405190810160405290816000820160009054906101000a900460ff161515151581526020016000820160019054906101000a900460ff161515151581526020016000820160029054906101000a900460ff161515151581525050905082816040019015159081151581525050848160000190151590811515815250508381602001901515908115158152505080600160008973ffffffffffffffffffffffffffffffffffffffff1673ffffffffffffffffffffffffffffffffffffffff16815260200190815260200160002060008201518160000160006101000a81548160ff02191690831515021790555060208201518160000160016101000a81548160ff02191690831515021790555060408201518160000160026101000a81548160ff02191690831515021790555090505060019150610f33565b600091505b509695505050505050565b602060405190810160405280600081525090565b815481835581811511610f7f57600202816002028360005260206000209182019101610f7e919061102c565b5b505050565b828054600181600116156101000203166002900490600052602060002090601f016020900481019282601f10610fc557805160ff1916838001178555610ff3565b82800160010185558215610ff3579182015b82811115610ff2578251825591602001919060010190610fd7565b5b509050611000919061106b565b5090565b6060604051908101604052806000151581526020016000151581526020016000151581525090565b61106891905b80821115611064576000808201600061104b9190611090565b60018201600061105b9190611090565b50600201611032565b5090565b90565b61108d91905b80821115611089576000816000905550600101611071565b5090565b90565b50805460018160011615610100020316600290046000825580601f106110b657506110d5565b601f0160209004906000526020600020908101906110d4919061106b565b5b505600a165627a7a7230582095de307c73f0ff1a5971917f5cb6089a3855037c170308e053c389379750ccd90029",
  "source": "pragma solidity ^0.4.11;\n\nimport './Registrar.sol';\n\ncontract LearnerLearningProvider {\n\n    struct LearningRecord {\n        string queryResultHash;\n        string queryHash;\n    }\n    \n    struct Permissions {\n        bool canRead;\n        bool canWrite;\n        bool canGrant;\n    }\n    \n    address owner;\n    mapping(address => Permissions) public permissions;\n    LearningRecord[] learningRecords;\n    mapping(string => bool) duplicateLearningLogTracker;\n    string recordType;\n    address provider;\n\n    function getOwner() public view returns (address) {\n        return owner;\n    }\n\n    function getRecordType() public view returns (string) {\n        return recordType;\n    }\n\n    function getProvider() public view returns (address) {\n        return provider;\n    }\n    \n    function LearnerLearningProvider(address _owner, address _learner, string _recordType) public {\n        owner = _owner;\n        recordType = _recordType;\n        permissions[_learner] = Permissions(true, true, true);\n        permissions[msg.sender] = Permissions(true, true, true);\n        provider = msg.sender;\n    }\n\n    function insertLearningRecord(string queryString, string queryResultHash) public payable {\n        if (permissions[msg.sender].canWrite) {\n            if(duplicateLearningLogTracker[queryString] == false) {\n                learningRecords.push(LearningRecord(queryResultHash, queryString));\n                duplicateLearningLogTracker[queryString] = true;\n            }\n        }\n    }\n    \n\n    function grantAccess(address registrarAddress, address participantAddress,address indexContract, bool read, bool write, bool admin) public payable returns (bool) {\n        if (permissions[msg.sender].canGrant ) {\n            Permissions memory perm = permissions[participantAddress];\n            perm.canGrant = admin;\n            perm.canRead = read;\n            perm.canWrite = write;\n            permissions[participantAddress] = perm;\n            return true;\n        }else {\n            return false;\n        }\n    }\n\n    function getLearningRecordsCount() public view returns (uint) {\n        if (permissions[msg.sender].canRead) {\n            return learningRecords.length;\n        }else {\n            return 0;\n        }\n    }\n\n    function getLearningRecord(uint index) public view returns (string, string, string) {\n        if (permissions[msg.sender].canRead) {\n            return (recordType, learningRecords[index].queryResultHash,learningRecords[index].queryHash);\n        }\n    }\n\n    function canGrant(address participantAddress) public constant returns (bool) {\n        return permissions[participantAddress].canGrant;\n    }\n\n    function canWrite(address participantAddress) public constant returns (bool) {\n        return permissions[participantAddress].canWrite;\n    }\n\n    function canRead(address participantAddress) public constant returns (bool) {\n        return permissions[participantAddress].canRead;\n    }\n}\n",
  "sourcePath": "/Users/admin/truffle-codes/contracts/LearnerLearningProvider.sol",
  "compiler": {
    "name": "solc",
    "version": "0.4.18+commit.9cf6e910.Emscripten.clang"
  },
  "schemaVersion": "1.0.1",
  "updatedAt": "2018-01-07T10:11:36.516Z"
}