{
  "contractName": "LearnerLearningProvider",
  "abi": [
    {
      "inputs": [
        {
          "name": "_owner",
          "type": "address"
        },
        {
          "name": "_learner",
          "type": "address"
        },
        {
          "name": "_recordType",
          "type": "bytes"
        },
        {
          "name": "registrarAddress",
          "type": "address"
        },
        {
          "name": "accessToken",
          "type": "bytes"
        }
      ],
      "payable": false,
      "stateMutability": "nonpayable",
      "type": "constructor"
    },
    {
      "anonymous": false,
      "inputs": [
        {
          "indexed": true,
          "name": "sender",
          "type": "address"
        },
        {
          "indexed": true,
          "name": "participantAddress",
          "type": "address"
        },
        {
          "indexed": false,
          "name": "affectedContractAddress",
          "type": "address"
        },
        {
          "indexed": true,
          "name": "actionType",
          "type": "string"
        }
      ],
      "name": "LearnerLearningProviderContractEvents",
      "type": "event"
    },
    {
      "constant": true,
      "inputs": [],
      "name": "getOwner",
      "outputs": [
        {
          "name": "",
          "type": "address"
        }
      ],
      "payable": false,
      "stateMutability": "view",
      "type": "function"
    },
    {
      "constant": true,
      "inputs": [],
      "name": "getRecordType",
      "outputs": [
        {
          "name": "",
          "type": "bytes"
        }
      ],
      "payable": false,
      "stateMutability": "view",
      "type": "function"
    },
    {
      "constant": true,
      "inputs": [
        {
          "name": "queryString",
          "type": "string"
        }
      ],
      "name": "isDuplicate",
      "outputs": [
        {
          "name": "",
          "type": "bool"
        }
      ],
      "payable": false,
      "stateMutability": "view",
      "type": "function"
    },
    {
      "constant": true,
      "inputs": [],
      "name": "getProvider",
      "outputs": [
        {
          "name": "",
          "type": "address"
        }
      ],
      "payable": false,
      "stateMutability": "view",
      "type": "function"
    },
    {
      "constant": false,
      "inputs": [
        {
          "name": "queryString",
          "type": "string"
        },
        {
          "name": "queryResultHash",
          "type": "string"
        }
      ],
      "name": "insertLearningRecord",
      "outputs": [],
      "payable": true,
      "stateMutability": "payable",
      "type": "function"
    },
    {
      "constant": false,
      "inputs": [
        {
          "name": "grant",
          "type": "bool"
        },
        {
          "name": "write",
          "type": "bool"
        },
        {
          "name": "read",
          "type": "bool"
        }
      ],
      "name": "requestAccess",
      "outputs": [],
      "payable": true,
      "stateMutability": "payable",
      "type": "function"
    },
    {
      "constant": true,
      "inputs": [],
      "name": "getPendingRequestsCount",
      "outputs": [
        {
          "name": "",
          "type": "uint256"
        }
      ],
      "payable": false,
      "stateMutability": "view",
      "type": "function"
    },
    {
      "constant": true,
      "inputs": [],
      "name": "getPendingRequests",
      "outputs": [
        {
          "name": "",
          "type": "address[]"
        }
      ],
      "payable": false,
      "stateMutability": "view",
      "type": "function"
    },
    {
      "constant": false,
      "inputs": [
        {
          "name": "participantAddress",
          "type": "address"
        },
        {
          "name": "read",
          "type": "bool"
        },
        {
          "name": "write",
          "type": "bool"
        },
        {
          "name": "admin",
          "type": "bool"
        }
      ],
      "name": "grantAccess",
      "outputs": [
        {
          "name": "",
          "type": "bool"
        }
      ],
      "payable": true,
      "stateMutability": "payable",
      "type": "function"
    },
    {
      "constant": true,
      "inputs": [],
      "name": "getLearningRecordsCount",
      "outputs": [
        {
          "name": "",
          "type": "uint256"
        }
      ],
      "payable": false,
      "stateMutability": "view",
      "type": "function"
    },
    {
      "constant": true,
      "inputs": [
        {
          "name": "index",
          "type": "uint256"
        }
      ],
      "name": "getLearningRecord",
      "outputs": [
        {
          "name": "",
          "type": "string"
        },
        {
          "name": "",
          "type": "string"
        },
        {
          "name": "",
          "type": "address"
        }
      ],
      "payable": false,
      "stateMutability": "view",
      "type": "function"
    },
    {
      "constant": true,
      "inputs": [
        {
          "name": "participantAddress",
          "type": "address"
        },
        {
          "name": "pendingRequest",
          "type": "bool"
        }
      ],
      "name": "canGrant",
      "outputs": [
        {
          "name": "",
          "type": "bool"
        }
      ],
      "payable": false,
      "stateMutability": "view",
      "type": "function"
    },
    {
      "constant": true,
      "inputs": [
        {
          "name": "participantAddress",
          "type": "address"
        },
        {
          "name": "pendingRequest",
          "type": "bool"
        }
      ],
      "name": "canWrite",
      "outputs": [
        {
          "name": "",
          "type": "bool"
        }
      ],
      "payable": false,
      "stateMutability": "view",
      "type": "function"
    },
    {
      "constant": true,
      "inputs": [
        {
          "name": "participantAddress",
          "type": "address"
        },
        {
          "name": "pendingRequest",
          "type": "bool"
        }
      ],
      "name": "canRead",
      "outputs": [
        {
          "name": "",
          "type": "bool"
        }
      ],
      "payable": false,
      "stateMutability": "view",
      "type": "function"
    }
  ],
  "bytecode": "0x60806040523480156200001157600080fd5b5060405162001eea38038062001eea833981018060405281019080805190602001909291908051906020019092919080518201929190602001805190602001909291908051820192919050505060008290508073ffffffffffffffffffffffffffffffffffffffff1663343fc838836040518263ffffffff167c01000000000000000000000000000000000000000000000000000000000281526004018080602001828103825283818151815260200191508051906020019080838360005b83811015620000ed578082015181840152602081019050620000d0565b50505050905090810190601f1680156200011b5780820380516001836020036101000a031916815260200191505b5092505050602060405180830381600087803b1580156200013b57600080fd5b505af115801562000150573d6000803e3d6000fd5b505050506040513d60208110156200016757600080fd5b810190808051906020019092919050505015620004c057856000806101000a81548173ffffffffffffffffffffffffffffffffffffffff021916908373ffffffffffffffffffffffffffffffffffffffff1602179055508360069080519060200190620001d6929190620004cc565b5060806040519081016040528060011515815260200160011515815260200160011515815260200160001515815250600160008773ffffffffffffffffffffffffffffffffffffffff1673ffffffffffffffffffffffffffffffffffffffff16815260200190815260200160002060008201518160000160006101000a81548160ff02191690831515021790555060208201518160000160016101000a81548160ff02191690831515021790555060408201518160000160026101000a81548160ff02191690831515021790555060608201518160000160036101000a81548160ff02191690831515021790555090505060806040519081016040528060011515815260200160011515815260200160011515815260200160001515815250600160003373ffffffffffffffffffffffffffffffffffffffff1673ffffffffffffffffffffffffffffffffffffffff16815260200190815260200160002060008201518160000160006101000a81548160ff02191690831515021790555060208201518160000160016101000a81548160ff02191690831515021790555060408201518160000160026101000a81548160ff02191690831515021790555060608201518160000160036101000a81548160ff02191690831515021790555090505033600760006101000a81548173ffffffffffffffffffffffffffffffffffffffff021916908373ffffffffffffffffffffffffffffffffffffffff16021790555060405180807f4c4c504300000000000000000000000000000000000000000000000000000000815250600401905060405180910390208673ffffffffffffffffffffffffffffffffffffffff163373ffffffffffffffffffffffffffffffffffffffff167f9910bb8dd749eee7a3558510a6155884984ee1cae27eaa7ff9fd6fb68edd423a30604051808273ffffffffffffffffffffffffffffffffffffffff1673ffffffffffffffffffffffffffffffffffffffff16815260200191505060405180910390a45b5050505050506200057b565b828054600181600116156101000203166002900490600052602060002090601f016020900481019282601f106200050f57805160ff191683800117855562000540565b8280016001018555821562000540579182015b828111156200053f57825182559160200191906001019062000522565b5b5090506200054f919062000553565b5090565b6200057891905b80821115620005745760008160009055506001016200055a565b5090565b90565b61195f806200058b6000396000f3006080604052600436106100d0576000357c0100000000000000000000000000000000000000000000000000000000900463ffffffff1680630458d201146100d557806306998937146101475780630781f5c9146101ae5780630cab81e51461023e578063188c26cc146102bf57806319ed0018146102ea578063483d45bd1461031557806380a1f7121461036c57806382d0482c146103d8578063893d20e81461043f5780638e0777a71461049657806395467d1314610538578063dbaf557f14610572578063edfb28f9146106b7575b600080fd5b61012d600480360381019080803573ffffffffffffffffffffffffffffffffffffffff16906020019092919080351515906020019092919080351515906020019092919080351515906020019092919050505061071e565b604051808215151515815260200191505060405180910390f35b34801561015357600080fd5b50610194600480360381019080803573ffffffffffffffffffffffffffffffffffffffff169060200190929190803515159060200190929190505050610ba9565b604051808215151515815260200191505060405180910390f35b3480156101ba57600080fd5b506101c3610c5e565b6040518080602001828103825283818151815260200191508051906020019080838360005b838110156102035780820151818401526020810190506101e8565b50505050905090810190601f1680156102305780820380516001836020036101000a031916815260200191505b509250505060405180910390f35b34801561024a57600080fd5b506102a5600480360381019080803590602001908201803590602001908080601f0160208091040260200160405190810160405280939291908181526020018383808284378201915050505050509192919290505050610d00565b604051808215151515815260200191505060405180910390f35b3480156102cb57600080fd5b506102d4610d82565b6040518082815260200191505060405180910390f35b3480156102f657600080fd5b506102ff610d8f565b6040518082815260200191505060405180910390f35b34801561032157600080fd5b5061032a610dfb565b604051808273ffffffffffffffffffffffffffffffffffffffff1673ffffffffffffffffffffffffffffffffffffffff16815260200191505060405180910390f35b34801561037857600080fd5b50610381610e25565b6040518080602001828103825283818151815260200191508051906020019060200280838360005b838110156103c45780820151818401526020810190506103a9565b505050509050019250505060405180910390f35b3480156103e457600080fd5b50610425600480360381019080803573ffffffffffffffffffffffffffffffffffffffff169060200190929190803515159060200190929190505050610eb3565b604051808215151515815260200191505060405180910390f35b34801561044b57600080fd5b50610454610f68565b604051808273ffffffffffffffffffffffffffffffffffffffff1673ffffffffffffffffffffffffffffffffffffffff16815260200191505060405180910390f35b610536600480360381019080803590602001908201803590602001908080601f0160208091040260200160405190810160405280939291908181526020018383808284378201915050505050509192919290803590602001908201803590602001908080601f0160208091040260200160405190810160405280939291908181526020018383808284378201915050505050509192919290505050610f91565b005b6105706004803603810190808035151590602001909291908035151590602001909291908035151590602001909291905050506112c0565b005b34801561057e57600080fd5b5061059d600480360381019080803590602001909291905050506115b3565b6040518080602001806020018473ffffffffffffffffffffffffffffffffffffffff1673ffffffffffffffffffffffffffffffffffffffff168152602001838103835286818151815260200191508051906020019080838360005b838110156106135780820151818401526020810190506105f8565b50505050905090810190601f1680156106405780820380516001836020036101000a031916815260200191505b50838103825285818151815260200191508051906020019080838360005b8381101561067957808201518184015260208101905061065e565b50505050905090810190601f1680156106a65780820380516001836020036101000a031916815260200191505b509550505050505060405180910390f35b3480156106c357600080fd5b50610704600480360381019080803573ffffffffffffffffffffffffffffffffffffffff1690602001909291908035151590602001909291905050506117d9565b604051808215151515815260200191505060405180910390f35b6000806000600160003373ffffffffffffffffffffffffffffffffffffffff1673ffffffffffffffffffffffffffffffffffffffff16815260200190815260200160002060000160029054906101000a900460ff1680156107cb5750600260008873ffffffffffffffffffffffffffffffffffffffff1673ffffffffffffffffffffffffffffffffffffffff16815260200190815260200160002060000160039054906101000a900460ff165b15610b9a5760806040519081016040528087151581526020018615158152602001851515815260200160001515815250600160008973ffffffffffffffffffffffffffffffffffffffff1673ffffffffffffffffffffffffffffffffffffffff16815260200190815260200160002060008201518160000160006101000a81548160ff02191690831515021790555060208201518160000160016101000a81548160ff02191690831515021790555060408201518160000160026101000a81548160ff02191690831515021790555060608201518160000160036101000a81548160ff0219169083151502179055509050506108c5610d82565b9150600090505b81811015610aca578673ffffffffffffffffffffffffffffffffffffffff166003828154811015156108fa57fe5b9060005260206000200160009054906101000a900473ffffffffffffffffffffffffffffffffffffffff1673ffffffffffffffffffffffffffffffffffffffff161415610abd5760016003805490500381141515610ab85760036001830381548110151561096457fe5b9060005260206000200160009054906101000a900473ffffffffffffffffffffffffffffffffffffffff1660038281548110151561099e57fe5b9060005260206000200160006101000a81548173ffffffffffffffffffffffffffffffffffffffff021916908373ffffffffffffffffffffffffffffffffffffffff1602179055506003600183038154811015156109f857fe5b9060005260206000200160006101000a81549073ffffffffffffffffffffffffffffffffffffffff0219169055600260008873ffffffffffffffffffffffffffffffffffffffff1673ffffffffffffffffffffffffffffffffffffffff168152602001908152602001600020600080820160006101000a81549060ff02191690556000820160016101000a81549060ff02191690556000820160026101000a81549060ff02191690556000820160036101000a81549060ff021916905550505b610aca565b80806001019150506108cc565b60405180807f6772616e74416363657373000000000000000000000000000000000000000000815250600b01905060405180910390208773ffffffffffffffffffffffffffffffffffffffff163373ffffffffffffffffffffffffffffffffffffffff167f9910bb8dd749eee7a3558510a6155884984ee1cae27eaa7ff9fd6fb68edd423a30604051808273ffffffffffffffffffffffffffffffffffffffff1673ffffffffffffffffffffffffffffffffffffffff16815260200191505060405180910390a460019250610b9f565b600092505b5050949350505050565b600081610c0557600160008473ffffffffffffffffffffffffffffffffffffffff1673ffffffffffffffffffffffffffffffffffffffff16815260200190815260200160002060000160009054906101000a900460ff16610c56565b600260008473ffffffffffffffffffffffffffffffffffffffff1673ffffffffffffffffffffffffffffffffffffffff16815260200190815260200160002060000160009054906101000a900460ff165b905092915050565b606060068054600181600116156101000203166002900480601f016020809104026020016040519081016040528092919081815260200182805460018160011615610100020316600290048015610cf65780601f10610ccb57610100808354040283529160200191610cf6565b820191906000526020600020905b815481529060010190602001808311610cd957829003601f168201915b5050505050905090565b60006005826040518082805190602001908083835b602083101515610d3a5780518252602082019150602081019050602083039250610d15565b6001836020036101000a038019825116818451168082178552505050505050905001915050908152602001604051809103902060009054906101000a900460ff169050919050565b6000600380549050905090565b6000600160003373ffffffffffffffffffffffffffffffffffffffff1673ffffffffffffffffffffffffffffffffffffffff16815260200190815260200160002060000160009054906101000a900460ff1615610df3576004805490509050610df8565b600090505b90565b6000600760009054906101000a900473ffffffffffffffffffffffffffffffffffffffff16905090565b60606003805480602002602001604051908101604052809291908181526020018280548015610ea957602002820191906000526020600020905b8160009054906101000a900473ffffffffffffffffffffffffffffffffffffffff1673ffffffffffffffffffffffffffffffffffffffff1681526020019060010190808311610e5f575b5050505050905090565b600081610f0f57600160008473ffffffffffffffffffffffffffffffffffffffff1673ffffffffffffffffffffffffffffffffffffffff16815260200190815260200160002060000160029054906101000a900460ff16610f60565b600260008473ffffffffffffffffffffffffffffffffffffffff1673ffffffffffffffffffffffffffffffffffffffff16815260200190815260200160002060000160029054906101000a900460ff165b905092915050565b60008060009054906101000a900473ffffffffffffffffffffffffffffffffffffffff16905090565b600160003373ffffffffffffffffffffffffffffffffffffffff1673ffffffffffffffffffffffffffffffffffffffff16815260200190815260200160002060000160019054906101000a900460ff16156112bc57600015156005836040518082805190602001908083835b6020831015156110225780518252602082019150602081019050602083039250610ffd565b6001836020036101000a038019825116818451168082178552505050505050905001915050908152602001604051809103902060009054906101000a900460ff16151514156112bb5760046060604051908101604052808381526020018481526020013373ffffffffffffffffffffffffffffffffffffffff168152509080600181540180825580915050906001820390600052602060002090600302016000909192909190915060008201518160000190805190602001906110e692919061188e565b50602082015181600101908051906020019061110392919061188e565b5060408201518160020160006101000a81548173ffffffffffffffffffffffffffffffffffffffff021916908373ffffffffffffffffffffffffffffffffffffffff16021790555050505060016005836040518082805190602001908083835b6020831015156111885780518252602082019150602081019050602083039250611163565b6001836020036101000a038019825116818451168082178552505050505050905001915050908152602001604051809103902060006101000a81548160ff02191690831515021790555060405180807f696e736572744c6561726e696e675265636f7264000000000000000000000000815250601401905060405180910390206000809054906101000a900473ffffffffffffffffffffffffffffffffffffffff1673ffffffffffffffffffffffffffffffffffffffff163373ffffffffffffffffffffffffffffffffffffffff167f9910bb8dd749eee7a3558510a6155884984ee1cae27eaa7ff9fd6fb68edd423a30604051808273ffffffffffffffffffffffffffffffffffffffff1673ffffffffffffffffffffffffffffffffffffffff16815260200191505060405180910390a45b5b5050565b60001515600160003373ffffffffffffffffffffffffffffffffffffffff1673ffffffffffffffffffffffffffffffffffffffff16815260200190815260200160002060000160029054906101000a900460ff1615151480611375575060001515600160003373ffffffffffffffffffffffffffffffffffffffff1673ffffffffffffffffffffffffffffffffffffffff16815260200190815260200160002060000160009054906101000a900460ff161515145b806113d3575060001515600160003373ffffffffffffffffffffffffffffffffffffffff1673ffffffffffffffffffffffffffffffffffffffff16815260200190815260200160002060000160019054906101000a900460ff161515145b156115ae5760806040519081016040528082151581526020018315158152602001841515815260200160011515815250600260003373ffffffffffffffffffffffffffffffffffffffff1673ffffffffffffffffffffffffffffffffffffffff16815260200190815260200160002060008201518160000160006101000a81548160ff02191690831515021790555060208201518160000160016101000a81548160ff02191690831515021790555060408201518160000160026101000a81548160ff02191690831515021790555060608201518160000160036101000a81548160ff02191690831515021790555090505060405180807f7265717565737441636365737300000000000000000000000000000000000000815250600d01905060405180910390206000809054906101000a900473ffffffffffffffffffffffffffffffffffffffff1673ffffffffffffffffffffffffffffffffffffffff163373ffffffffffffffffffffffffffffffffffffffff167f9910bb8dd749eee7a3558510a6155884984ee1cae27eaa7ff9fd6fb68edd423a30604051808273ffffffffffffffffffffffffffffffffffffffff1673ffffffffffffffffffffffffffffffffffffffff16815260200191505060405180910390a45b505050565b6060806000600160003373ffffffffffffffffffffffffffffffffffffffff1673ffffffffffffffffffffffffffffffffffffffff16815260200190815260200160002060000160009054906101000a900460ff16156117d15760048481548110151561161c57fe5b906000526020600020906003020160000160048581548110151561163c57fe5b906000526020600020906003020160010160048681548110151561165c57fe5b906000526020600020906003020160020160009054906101000a900473ffffffffffffffffffffffffffffffffffffffff16828054600181600116156101000203166002900480601f0160208091040260200160405190810160405280929190818152602001828054600181600116156101000203166002900480156117235780601f106116f857610100808354040283529160200191611723565b820191906000526020600020905b81548152906001019060200180831161170657829003601f168201915b50505050509250818054600181600116156101000203166002900480601f0160208091040260200160405190810160405280929190818152602001828054600181600116156101000203166002900480156117bf5780601f10611794576101008083540402835291602001916117bf565b820191906000526020600020905b8154815290600101906020018083116117a257829003601f168201915b505050505091509250925092506117d2565b5b9193909250565b60008161183557600160008473ffffffffffffffffffffffffffffffffffffffff1673ffffffffffffffffffffffffffffffffffffffff16815260200190815260200160002060000160019054906101000a900460ff16611886565b600260008473ffffffffffffffffffffffffffffffffffffffff1673ffffffffffffffffffffffffffffffffffffffff16815260200190815260200160002060000160019054906101000a900460ff165b905092915050565b828054600181600116156101000203166002900490600052602060002090601f016020900481019282601f106118cf57805160ff19168380011785556118fd565b828001600101855582156118fd579182015b828111156118fc5782518255916020019190600101906118e1565b5b50905061190a919061190e565b5090565b61193091905b8082111561192c576000816000905550600101611914565b5090565b905600a165627a7a723058202624e5205d900c16d2037b83d9009cc9c8a9a58c535b5d16b3d3ea8024020b110029",
  "source": "pragma solidity ^0.4.17;\nimport './Registrar.sol';\n\ncontract LearnerLearningProvider {\n    event LearnerLearningProviderContractEvents(address indexed sender, address indexed participantAddress,\n        address affectedContractAddress, string indexed actionType);\n    struct LearningRecord {\n        string queryResultHash;\n        string queryHash;\n        address writer;\n    }\n    \n    struct Permissions {\n        bool canRead;\n        bool canWrite;\n        bool canGrant;\n        bool isPendingRequest;\n    }\n    \n    address owner;\n    mapping(address => Permissions) permissions;\n    mapping(address => Permissions) permissionsRequests;\n    address[] pendingRequests;\n    LearningRecord[] learningRecords;\n    mapping(string => bool) duplicateLearningLogTracker;\n    bytes recordType;\n    address provider;\n\n    function getOwner() public view returns (address) {\n        return owner;\n    }\n\n    function getRecordType() public view returns (bytes) {\n        return recordType;\n    }\n\n    function isDuplicate(string queryString) public view returns (bool) {\n        return duplicateLearningLogTracker[queryString];\n    }\n\n    function getProvider() public view returns (address) {\n        return provider;\n    }\n    \n    constructor(address _owner, address _learner, bytes _recordType, address registrarAddress, bytes accessToken) public {\n        Registrar registrar = Registrar(registrarAddress);\n        if(registrar.isApprovedInstitute(accessToken)){\n            owner = _owner;\n            recordType = _recordType;\n            permissions[_learner] = Permissions(true, true, true, false);\n            permissions[msg.sender] = Permissions(true, true, true, false);\n            provider = msg.sender;\n            emit LearnerLearningProviderContractEvents(msg.sender, _owner, address(this), \"LLPC\");\n        }\n    }\n\n    function insertLearningRecord(string queryString, string queryResultHash) public payable {\n        if (permissions[msg.sender].canWrite) {\n            if(duplicateLearningLogTracker[queryString] == false) {\n                learningRecords.push(LearningRecord(queryResultHash, queryString, msg.sender));\n                duplicateLearningLogTracker[queryString] = true;\n                emit LearnerLearningProviderContractEvents(msg.sender, owner, address(this), \"insertLearningRecord\");\n            }\n        }\n    }\n    \n    function requestAccess(bool grant, bool write, bool read) public payable {\n        if((permissions[msg.sender].canGrant == false || permissions[msg.sender].canRead == false\n          || permissions[msg.sender].canWrite == false)){\n            permissionsRequests[msg.sender] = Permissions(read, write, grant, true);\n            emit LearnerLearningProviderContractEvents(msg.sender, owner, address(this), \"requestAccess\");\n        }\n    }\n\n    function getPendingRequestsCount() public view returns (uint) {\n        return pendingRequests.length;\n    }\n\n    function getPendingRequests() public view returns(address[]) {\n        return pendingRequests;\n    }\n\n    function grantAccess(address participantAddress, bool read, bool write, bool admin) public payable returns (bool) {\n        if (permissions[msg.sender].canGrant && permissionsRequests[participantAddress].isPendingRequest) {\n            permissions[participantAddress] = Permissions(read, write, admin, false);\n            uint arrayLen = getPendingRequestsCount();\n            for(uint i = 0; i < arrayLen; i++) {\n                if(pendingRequests[i] == participantAddress) {\n                    if(i != (pendingRequests.length-1)) {\n                        pendingRequests[i] = pendingRequests[arrayLen-1];\n                        delete pendingRequests[arrayLen-1];\n                        delete permissionsRequests[participantAddress];\n                    }\n                    break;\n                }\n            }\n            emit LearnerLearningProviderContractEvents(msg.sender, participantAddress, address(this), \"grantAccess\");\n            return true;\n        }else {\n            return false;\n        }\n    }\n\n    function getLearningRecordsCount() public view returns (uint) {\n        if (permissions[msg.sender].canRead) {\n            return learningRecords.length;\n        }else {\n            return 0;\n        }\n    }\n\n    function getLearningRecord(uint index) public view returns (string, string, address) {\n        if (permissions[msg.sender].canRead) {\n            return (learningRecords[index].queryResultHash,learningRecords[index].queryHash,\n            learningRecords[index].writer);\n        }\n    }\n\n    function canGrant(address participantAddress, bool pendingRequest) public constant returns (bool) {\n        return pendingRequest ? permissionsRequests[participantAddress].canGrant : permissions[participantAddress].canGrant;\n    }\n\n    function canWrite(address participantAddress, bool pendingRequest) public constant returns (bool) {\n        return pendingRequest ? permissionsRequests[participantAddress].canWrite : permissions[participantAddress].canWrite;\n    }\n\n    function canRead(address participantAddress, bool pendingRequest) public constant returns (bool) {\n        return pendingRequest ? permissionsRequests[participantAddress].canRead : permissions[participantAddress].canRead;\n    }\n}\n",
  "sourcePath": "/Users/admin 1/truffle-codes/contracts/LearnerLearningProvider.sol",
  "compiler": {
    "name": "solc",
    "version": "0.4.24+commit.e67f0147.Emscripten.clang"
  },
  "schemaVersion": "2.0.1",
  "updatedAt": "2018-11-14T15:15:40.623Z"
}