{
  "contractName": "LearnerLearningProvider",
  "abi": [
    {
      "inputs": [
        {
          "name": "_owner",
          "type": "address"
        },
        {
          "name": "_learner",
          "type": "address"
        },
        {
          "name": "_recordType",
          "type": "bytes"
        }
      ],
      "payable": false,
      "stateMutability": "nonpayable",
      "type": "constructor"
    },
    {
      "anonymous": false,
      "inputs": [
        {
          "indexed": true,
          "name": "sender",
          "type": "address"
        },
        {
          "indexed": true,
          "name": "participantAddress",
          "type": "address"
        },
        {
          "indexed": false,
          "name": "affectedContractAddress",
          "type": "address"
        },
        {
          "indexed": true,
          "name": "actionType",
          "type": "string"
        },
        {
          "indexed": false,
          "name": "index",
          "type": "uint256"
        }
      ],
      "name": "LearnerLearningProviderContractEvents",
      "type": "event"
    },
    {
      "constant": true,
      "inputs": [],
      "name": "getOwner",
      "outputs": [
        {
          "name": "",
          "type": "address"
        }
      ],
      "payable": false,
      "stateMutability": "view",
      "type": "function"
    },
    {
      "constant": true,
      "inputs": [],
      "name": "getRecordType",
      "outputs": [
        {
          "name": "",
          "type": "bytes"
        }
      ],
      "payable": false,
      "stateMutability": "view",
      "type": "function"
    },
    {
      "constant": true,
      "inputs": [
        {
          "name": "queryString",
          "type": "string"
        }
      ],
      "name": "isDuplicate",
      "outputs": [
        {
          "name": "",
          "type": "bool"
        }
      ],
      "payable": false,
      "stateMutability": "view",
      "type": "function"
    },
    {
      "constant": true,
      "inputs": [],
      "name": "getProvider",
      "outputs": [
        {
          "name": "",
          "type": "address"
        }
      ],
      "payable": false,
      "stateMutability": "view",
      "type": "function"
    },
    {
      "constant": false,
      "inputs": [
        {
          "name": "queryString",
          "type": "string"
        },
        {
          "name": "queryResultHash",
          "type": "string"
        }
      ],
      "name": "insertLearningRecord",
      "outputs": [],
      "payable": true,
      "stateMutability": "payable",
      "type": "function"
    },
    {
      "constant": false,
      "inputs": [
        {
          "name": "completion",
          "type": "bool"
        },
        {
          "name": "success",
          "type": "bool"
        },
        {
          "name": "min",
          "type": "uint8"
        },
        {
          "name": "max",
          "type": "uint8"
        },
        {
          "name": "score",
          "type": "uint8"
        },
        {
          "name": "timestamp",
          "type": "uint256"
        },
        {
          "name": "recordIndex",
          "type": "uint256"
        }
      ],
      "name": "insertScore",
      "outputs": [],
      "payable": true,
      "stateMutability": "payable",
      "type": "function"
    },
    {
      "constant": false,
      "inputs": [
        {
          "name": "grant",
          "type": "bool"
        },
        {
          "name": "write",
          "type": "bool"
        },
        {
          "name": "read",
          "type": "bool"
        }
      ],
      "name": "requestAccess",
      "outputs": [],
      "payable": true,
      "stateMutability": "payable",
      "type": "function"
    },
    {
      "constant": true,
      "inputs": [],
      "name": "getPendingRequestsCount",
      "outputs": [
        {
          "name": "",
          "type": "uint256"
        }
      ],
      "payable": false,
      "stateMutability": "view",
      "type": "function"
    },
    {
      "constant": true,
      "inputs": [],
      "name": "getPendingRequests",
      "outputs": [
        {
          "name": "",
          "type": "address[]"
        }
      ],
      "payable": false,
      "stateMutability": "view",
      "type": "function"
    },
    {
      "constant": false,
      "inputs": [
        {
          "name": "participantAddress",
          "type": "address"
        },
        {
          "name": "read",
          "type": "bool"
        },
        {
          "name": "write",
          "type": "bool"
        },
        {
          "name": "admin",
          "type": "bool"
        }
      ],
      "name": "grantAccess",
      "outputs": [
        {
          "name": "",
          "type": "bool"
        }
      ],
      "payable": true,
      "stateMutability": "payable",
      "type": "function"
    },
    {
      "constant": false,
      "inputs": [
        {
          "name": "participantAddress",
          "type": "address"
        },
        {
          "name": "read",
          "type": "bool"
        },
        {
          "name": "write",
          "type": "bool"
        },
        {
          "name": "admin",
          "type": "bool"
        }
      ],
      "name": "updateAccess",
      "outputs": [
        {
          "name": "",
          "type": "bool"
        }
      ],
      "payable": true,
      "stateMutability": "payable",
      "type": "function"
    },
    {
      "constant": true,
      "inputs": [],
      "name": "getLearningRecordsCount",
      "outputs": [
        {
          "name": "",
          "type": "uint256"
        }
      ],
      "payable": false,
      "stateMutability": "view",
      "type": "function"
    },
    {
      "constant": true,
      "inputs": [
        {
          "name": "index",
          "type": "uint256"
        }
      ],
      "name": "getLearningRecord",
      "outputs": [
        {
          "name": "",
          "type": "string"
        },
        {
          "name": "",
          "type": "string"
        },
        {
          "name": "",
          "type": "address"
        }
      ],
      "payable": false,
      "stateMutability": "view",
      "type": "function"
    },
    {
      "constant": true,
      "inputs": [],
      "name": "getScoresCount",
      "outputs": [
        {
          "name": "",
          "type": "uint256"
        }
      ],
      "payable": false,
      "stateMutability": "view",
      "type": "function"
    },
    {
      "constant": true,
      "inputs": [
        {
          "name": "index",
          "type": "uint256"
        }
      ],
      "name": "getScore",
      "outputs": [
        {
          "name": "",
          "type": "bool"
        },
        {
          "name": "",
          "type": "bool"
        },
        {
          "name": "",
          "type": "uint8"
        },
        {
          "name": "",
          "type": "uint8"
        },
        {
          "name": "",
          "type": "uint8"
        },
        {
          "name": "",
          "type": "uint256"
        }
      ],
      "payable": false,
      "stateMutability": "view",
      "type": "function"
    },
    {
      "constant": true,
      "inputs": [
        {
          "name": "participantAddress",
          "type": "address"
        },
        {
          "name": "pendingRequest",
          "type": "bool"
        }
      ],
      "name": "canGrant",
      "outputs": [
        {
          "name": "",
          "type": "bool"
        }
      ],
      "payable": false,
      "stateMutability": "view",
      "type": "function"
    },
    {
      "constant": true,
      "inputs": [
        {
          "name": "participantAddress",
          "type": "address"
        },
        {
          "name": "pendingRequest",
          "type": "bool"
        }
      ],
      "name": "canWrite",
      "outputs": [
        {
          "name": "",
          "type": "bool"
        }
      ],
      "payable": false,
      "stateMutability": "view",
      "type": "function"
    },
    {
      "constant": true,
      "inputs": [
        {
          "name": "participantAddress",
          "type": "address"
        },
        {
          "name": "pendingRequest",
          "type": "bool"
        }
      ],
      "name": "canRead",
      "outputs": [
        {
          "name": "",
          "type": "bool"
        }
      ],
      "payable": false,
      "stateMutability": "view",
      "type": "function"
    }
  ],
  "bytecode": "0x60806040526001600660006101000a81548160ff0219169083151502179055503480156200002c57600080fd5b50604051620026fe380380620026fe833981018060405281019080805190602001909291908051906020019092919080518201929190505050826000806101000a81548173ffffffffffffffffffffffffffffffffffffffff021916908373ffffffffffffffffffffffffffffffffffffffff1602179055508060089080519060200190620000bd929190620003d7565b5060806040519081016040528060011515815260200160011515815260200160011515815260200160001515815250600160008473ffffffffffffffffffffffffffffffffffffffff1673ffffffffffffffffffffffffffffffffffffffff16815260200190815260200160002060008201518160000160006101000a81548160ff02191690831515021790555060208201518160000160016101000a81548160ff02191690831515021790555060408201518160000160026101000a81548160ff02191690831515021790555060608201518160000160036101000a81548160ff02191690831515021790555090505060806040519081016040528060011515815260200160011515815260200160011515815260200160001515815250600160003373ffffffffffffffffffffffffffffffffffffffff1673ffffffffffffffffffffffffffffffffffffffff16815260200190815260200160002060008201518160000160006101000a81548160ff02191690831515021790555060208201518160000160016101000a81548160ff02191690831515021790555060408201518160000160026101000a81548160ff02191690831515021790555060608201518160000160036101000a81548160ff02191690831515021790555090505033600960006101000a81548173ffffffffffffffffffffffffffffffffffffffff021916908373ffffffffffffffffffffffffffffffffffffffff16021790555060405180807f4c4c504300000000000000000000000000000000000000000000000000000000815250600401905060405180910390208373ffffffffffffffffffffffffffffffffffffffff163373ffffffffffffffffffffffffffffffffffffffff167fb8c41d24e02ad7025866da492ff091deedd586343c522398c5bd2e9a499eaf76307fffffffffffffffffffffffffffffffffffffffffffffffffffffffffffffffff604051808373ffffffffffffffffffffffffffffffffffffffff1673ffffffffffffffffffffffffffffffffffffffff1681526020018281526020019250505060405180910390a450505062000486565b828054600181600116156101000203166002900490600052602060002090601f016020900481019282601f106200041a57805160ff19168380011785556200044b565b828001600101855582156200044b579182015b828111156200044a5782518255916020019190600101906200042d565b5b5090506200045a91906200045e565b5090565b6200048391905b808211156200047f57600081600090555060010162000465565b5090565b90565b61226880620004966000396000f3006080604052600436106100fc576000357c0100000000000000000000000000000000000000000000000000000000900463ffffffff1680630458d2011461010157806306998937146101735780630781f5c9146101da5780630cab81e51461026a5780630e1af57b146102eb578063188c26cc1461036957806319ed001814610394578063483d45bd146103bf5780635a005f3a146104165780636ec7f9601461048857806380a1f712146104f157806382d0482c1461055d578063893d20e8146105c45780638e0777a71461061b5780639471aa78146106bd57806395467d13146106e8578063dbaf557f14610722578063edfb28f914610867575b600080fd5b610159600480360381019080803573ffffffffffffffffffffffffffffffffffffffff1690602001909291908035151590602001909291908035151590602001909291908035151590602001909291905050506108ce565b604051808215151515815260200191505060405180910390f35b34801561017f57600080fd5b506101c0600480360381019080803573ffffffffffffffffffffffffffffffffffffffff169060200190929190803515159060200190929190505050610d7f565b604051808215151515815260200191505060405180910390f35b3480156101e657600080fd5b506101ef610e34565b6040518080602001828103825283818151815260200191508051906020019080838360005b8381101561022f578082015181840152602081019050610214565b50505050905090810190601f16801561025c5780820380516001836020036101000a031916815260200191505b509250505060405180910390f35b34801561027657600080fd5b506102d1600480360381019080803590602001908201803590602001908080601f0160208091040260200160405190810160405280939291908181526020018383808284378201915050505050509192919290505050610ed6565b604051808215151515815260200191505060405180910390f35b3480156102f757600080fd5b5061031660048036038101908080359060200190929190505050610f58565b6040518087151515158152602001861515151581526020018560ff1660ff1681526020018460ff1660ff1681526020018360ff1660ff168152602001828152602001965050505050505060405180910390f35b34801561037557600080fd5b5061037e6110ef565b6040518082815260200191505060405180910390f35b3480156103a057600080fd5b506103a96110fc565b6040518082815260200191505060405180910390f35b3480156103cb57600080fd5b506103d4611168565b604051808273ffffffffffffffffffffffffffffffffffffffff1673ffffffffffffffffffffffffffffffffffffffff16815260200191505060405180910390f35b61046e600480360381019080803573ffffffffffffffffffffffffffffffffffffffff169060200190929190803515159060200190929190803515159060200190929190803515159060200190929190505050611192565b604051808215151515815260200191505060405180910390f35b6104ef600480360381019080803515159060200190929190803515159060200190929190803560ff169060200190929190803560ff169060200190929190803560ff16906020019092919080359060200190929190803590602001909291905050506113fc565b005b3480156104fd57600080fd5b50610506611673565b6040518080602001828103825283818151815260200191508051906020019060200280838360005b8381101561054957808201518184015260208101905061052e565b505050509050019250505060405180910390f35b34801561056957600080fd5b506105aa600480360381019080803573ffffffffffffffffffffffffffffffffffffffff169060200190929190803515159060200190929190505050611701565b604051808215151515815260200191505060405180910390f35b3480156105d057600080fd5b506105d96117b6565b604051808273ffffffffffffffffffffffffffffffffffffffff1673ffffffffffffffffffffffffffffffffffffffff16815260200191505060405180910390f35b6106bb600480360381019080803590602001908201803590602001908080601f0160208091040260200160405190810160405280939291908181526020018383808284378201915050505050509192919290803590602001908201803590602001908080601f01602080910402602001604051908101604052809392919081815260200183838082843782019150505050505091929192905050506117df565b005b3480156106c957600080fd5b506106d2611b1e565b6040518082815260200191505060405180910390f35b610720600480360381019080803515159060200190929190803515159060200190929190803515159060200190929190505050611ba1565b005b34801561072e57600080fd5b5061074d60048036038101908080359060200190929190505050611ebc565b6040518080602001806020018473ffffffffffffffffffffffffffffffffffffffff1673ffffffffffffffffffffffffffffffffffffffff168152602001838103835286818151815260200191508051906020019080838360005b838110156107c35780820151818401526020810190506107a8565b50505050905090810190601f1680156107f05780820380516001836020036101000a031916815260200191505b50838103825285818151815260200191508051906020019080838360005b8381101561082957808201518184015260208101905061080e565b50505050905090810190601f1680156108565780820380516001836020036101000a031916815260200191505b509550505050505060405180910390f35b34801561087357600080fd5b506108b4600480360381019080803573ffffffffffffffffffffffffffffffffffffffff1690602001909291908035151590602001909291905050506120e2565b604051808215151515815260200191505060405180910390f35b6000806000600160003373ffffffffffffffffffffffffffffffffffffffff1673ffffffffffffffffffffffffffffffffffffffff16815260200190815260200160002060000160029054906101000a900460ff1615610d705760806040519081016040528087151581526020018615158152602001851515815260200160001515815250600160008973ffffffffffffffffffffffffffffffffffffffff1673ffffffffffffffffffffffffffffffffffffffff16815260200190815260200160002060008201518160000160006101000a81548160ff02191690831515021790555060208201518160000160016101000a81548160ff02191690831515021790555060408201518160000160026101000a81548160ff02191690831515021790555060608201518160000160036101000a81548160ff021916908315150217905550905050600260008873ffffffffffffffffffffffffffffffffffffffff1673ffffffffffffffffffffffffffffffffffffffff16815260200190815260200160002060000160039054906101000a900460ff1615610c7857610a726110ef565b9150600090505b81811015610c77578673ffffffffffffffffffffffffffffffffffffffff16600382815481101515610aa757fe5b9060005260206000200160009054906101000a900473ffffffffffffffffffffffffffffffffffffffff1673ffffffffffffffffffffffffffffffffffffffff161415610c6a5760016003805490500381141515610c6557600360018303815481101515610b1157fe5b9060005260206000200160009054906101000a900473ffffffffffffffffffffffffffffffffffffffff16600382815481101515610b4b57fe5b9060005260206000200160006101000a81548173ffffffffffffffffffffffffffffffffffffffff021916908373ffffffffffffffffffffffffffffffffffffffff160217905550600360018303815481101515610ba557fe5b9060005260206000200160006101000a81549073ffffffffffffffffffffffffffffffffffffffff0219169055600260008873ffffffffffffffffffffffffffffffffffffffff1673ffffffffffffffffffffffffffffffffffffffff168152602001908152602001600020600080820160006101000a81549060ff02191690556000820160016101000a81549060ff02191690556000820160026101000a81549060ff02191690556000820160036101000a81549060ff021916905550505b610c77565b8080600101915050610a79565b5b60405180807f6772616e74416363657373000000000000000000000000000000000000000000815250600b01905060405180910390208773ffffffffffffffffffffffffffffffffffffffff163373ffffffffffffffffffffffffffffffffffffffff167fb8c41d24e02ad7025866da492ff091deedd586343c522398c5bd2e9a499eaf76307fffffffffffffffffffffffffffffffffffffffffffffffffffffffffffffffff604051808373ffffffffffffffffffffffffffffffffffffffff1673ffffffffffffffffffffffffffffffffffffffff1681526020018281526020019250505060405180910390a460019250610d75565b600092505b5050949350505050565b600081610ddb57600160008473ffffffffffffffffffffffffffffffffffffffff1673ffffffffffffffffffffffffffffffffffffffff16815260200190815260200160002060000160009054906101000a900460ff16610e2c565b600260008473ffffffffffffffffffffffffffffffffffffffff1673ffffffffffffffffffffffffffffffffffffffff16815260200190815260200160002060000160009054906101000a900460ff165b905092915050565b606060088054600181600116156101000203166002900480601f016020809104026020016040519081016040528092919081815260200182805460018160011615610100020316600290048015610ecc5780601f10610ea157610100808354040283529160200191610ecc565b820191906000526020600020905b815481529060010190602001808311610eaf57829003601f168201915b5050505050905090565b60006007826040518082805190602001908083835b602083101515610f105780518252602082019150602081019050602083039250610eeb565b6001836020036101000a038019825116818451168082178552505050505050905001915050908152602001604051809103902060009054906101000a900460ff169050919050565b600080600080600080600160003373ffffffffffffffffffffffffffffffffffffffff1673ffffffffffffffffffffffffffffffffffffffff16815260200190815260200160002060000160009054906101000a900460ff1680610fc85750600660009054906101000a900460ff165b156110e557600587815481101515610fdc57fe5b906000526020600020906003020160000160009054906101000a900460ff1660058881548110151561100a57fe5b906000526020600020906003020160000160019054906101000a900460ff1660058981548110151561103857fe5b906000526020600020906003020160000160029054906101000a900460ff1660058a81548110151561106657fe5b906000526020600020906003020160000160039054906101000a900460ff1660058b81548110151561109457fe5b906000526020600020906003020160000160049054906101000a900460ff1660058c8154811015156110c257fe5b9060005260206000209060030201600201549550955095509550955095506110e6565b5b91939550919395565b6000600380549050905090565b6000600160003373ffffffffffffffffffffffffffffffffffffffff1673ffffffffffffffffffffffffffffffffffffffff16815260200190815260200160002060000160009054906101000a900460ff1615611160576004805490509050611165565b600090505b90565b6000600960009054906101000a900473ffffffffffffffffffffffffffffffffffffffff16905090565b6000600160003373ffffffffffffffffffffffffffffffffffffffff1673ffffffffffffffffffffffffffffffffffffffff16815260200190815260200160002060000160029054906101000a900460ff16156113ef5781600160008773ffffffffffffffffffffffffffffffffffffffff1673ffffffffffffffffffffffffffffffffffffffff16815260200190815260200160002060000160026101000a81548160ff02191690831515021790555083600160008773ffffffffffffffffffffffffffffffffffffffff1673ffffffffffffffffffffffffffffffffffffffff16815260200190815260200160002060000160006101000a81548160ff02191690831515021790555082600160008773ffffffffffffffffffffffffffffffffffffffff1673ffffffffffffffffffffffffffffffffffffffff16815260200190815260200160002060000160016101000a81548160ff02191690831515021790555060405180807f7570646174654163636573730000000000000000000000000000000000000000815250600c01905060405180910390208573ffffffffffffffffffffffffffffffffffffffff163373ffffffffffffffffffffffffffffffffffffffff167fb8c41d24e02ad7025866da492ff091deedd586343c522398c5bd2e9a499eaf76307fffffffffffffffffffffffffffffffffffffffffffffffffffffffffffffffff604051808373ffffffffffffffffffffffffffffffffffffffff1673ffffffffffffffffffffffffffffffffffffffff1681526020018281526020019250505060405180910390a4600190506113f4565b600090505b949350505050565b600160003373ffffffffffffffffffffffffffffffffffffffff1673ffffffffffffffffffffffffffffffffffffffff16815260200190815260200160002060000160019054906101000a900460ff161561166a57600560e060405190810160405280891515815260200188151581526020018760ff1681526020018660ff1681526020018560ff168152602001848152602001838152509080600181540180825580915050906001820390600052602060002090600302016000909192909190915060008201518160000160006101000a81548160ff02191690831515021790555060208201518160000160016101000a81548160ff02191690831515021790555060408201518160000160026101000a81548160ff021916908360ff16021790555060608201518160000160036101000a81548160ff021916908360ff16021790555060808201518160000160046101000a81548160ff021916908360ff16021790555060a0820151816001015560c0820151816002015550505060405180807f696e7365727453636f7265000000000000000000000000000000000000000000815250600b01905060405180910390206000809054906101000a900473ffffffffffffffffffffffffffffffffffffffff1673ffffffffffffffffffffffffffffffffffffffff163373ffffffffffffffffffffffffffffffffffffffff167fb8c41d24e02ad7025866da492ff091deedd586343c522398c5bd2e9a499eaf763085604051808373ffffffffffffffffffffffffffffffffffffffff1673ffffffffffffffffffffffffffffffffffffffff1681526020018281526020019250505060405180910390a45b50505050505050565b606060038054806020026020016040519081016040528092919081815260200182805480156116f757602002820191906000526020600020905b8160009054906101000a900473ffffffffffffffffffffffffffffffffffffffff1673ffffffffffffffffffffffffffffffffffffffff16815260200190600101908083116116ad575b5050505050905090565b60008161175d57600160008473ffffffffffffffffffffffffffffffffffffffff1673ffffffffffffffffffffffffffffffffffffffff16815260200190815260200160002060000160029054906101000a900460ff166117ae565b600260008473ffffffffffffffffffffffffffffffffffffffff1673ffffffffffffffffffffffffffffffffffffffff16815260200190815260200160002060000160029054906101000a900460ff165b905092915050565b60008060009054906101000a900473ffffffffffffffffffffffffffffffffffffffff16905090565b600160003373ffffffffffffffffffffffffffffffffffffffff1673ffffffffffffffffffffffffffffffffffffffff16815260200190815260200160002060000160019054906101000a900460ff1615611b1a57600015156007836040518082805190602001908083835b602083101515611870578051825260208201915060208101905060208303925061184b565b6001836020036101000a038019825116818451168082178552505050505050905001915050908152602001604051809103902060009054906101000a900460ff1615151415611b195760046060604051908101604052808381526020018481526020013373ffffffffffffffffffffffffffffffffffffffff16815250908060018154018082558091505090600182039060005260206000209060030201600090919290919091506000820151816000019080519060200190611934929190612197565b506020820151816001019080519060200190611951929190612197565b5060408201518160020160006101000a81548173ffffffffffffffffffffffffffffffffffffffff021916908373ffffffffffffffffffffffffffffffffffffffff16021790555050505060016007836040518082805190602001908083835b6020831015156119d657805182526020820191506020810190506020830392506119b1565b6001836020036101000a038019825116818451168082178552505050505050905001915050908152602001604051809103902060006101000a81548160ff02191690831515021790555060405180807f696e736572744c6561726e696e675265636f7264000000000000000000000000815250601401905060405180910390206000809054906101000a900473ffffffffffffffffffffffffffffffffffffffff1673ffffffffffffffffffffffffffffffffffffffff163373ffffffffffffffffffffffffffffffffffffffff167fb8c41d24e02ad7025866da492ff091deedd586343c522398c5bd2e9a499eaf7630600160048054905003604051808373ffffffffffffffffffffffffffffffffffffffff1673ffffffffffffffffffffffffffffffffffffffff1681526020018281526020019250505060405180910390a45b5b5050565b6000600160003373ffffffffffffffffffffffffffffffffffffffff1673ffffffffffffffffffffffffffffffffffffffff16815260200190815260200160002060000160009054906101000a900460ff1680611b875750600660009054906101000a900460ff165b15611b99576005805490509050611b9e565b600090505b90565b60001515600160003373ffffffffffffffffffffffffffffffffffffffff1673ffffffffffffffffffffffffffffffffffffffff16815260200190815260200160002060000160029054906101000a900460ff1615151480611c56575060001515600160003373ffffffffffffffffffffffffffffffffffffffff1673ffffffffffffffffffffffffffffffffffffffff16815260200190815260200160002060000160009054906101000a900460ff161515145b80611cb4575060001515600160003373ffffffffffffffffffffffffffffffffffffffff1673ffffffffffffffffffffffffffffffffffffffff16815260200190815260200160002060000160019054906101000a900460ff161515145b15611eb75760806040519081016040528082151581526020018315158152602001841515815260200160011515815250600260003373ffffffffffffffffffffffffffffffffffffffff1673ffffffffffffffffffffffffffffffffffffffff16815260200190815260200160002060008201518160000160006101000a81548160ff02191690831515021790555060208201518160000160016101000a81548160ff02191690831515021790555060408201518160000160026101000a81548160ff02191690831515021790555060608201518160000160036101000a81548160ff02191690831515021790555090505060405180807f7265717565737441636365737300000000000000000000000000000000000000815250600d01905060405180910390206000809054906101000a900473ffffffffffffffffffffffffffffffffffffffff1673ffffffffffffffffffffffffffffffffffffffff163373ffffffffffffffffffffffffffffffffffffffff167fb8c41d24e02ad7025866da492ff091deedd586343c522398c5bd2e9a499eaf76307fffffffffffffffffffffffffffffffffffffffffffffffffffffffffffffffff604051808373ffffffffffffffffffffffffffffffffffffffff1673ffffffffffffffffffffffffffffffffffffffff1681526020018281526020019250505060405180910390a45b505050565b6060806000600160003373ffffffffffffffffffffffffffffffffffffffff1673ffffffffffffffffffffffffffffffffffffffff16815260200190815260200160002060000160009054906101000a900460ff16156120da57600484815481101515611f2557fe5b9060005260206000209060030201600001600485815481101515611f4557fe5b9060005260206000209060030201600101600486815481101515611f6557fe5b906000526020600020906003020160020160009054906101000a900473ffffffffffffffffffffffffffffffffffffffff16828054600181600116156101000203166002900480601f01602080910402602001604051908101604052809291908181526020018280546001816001161561010002031660029004801561202c5780601f106120015761010080835404028352916020019161202c565b820191906000526020600020905b81548152906001019060200180831161200f57829003601f168201915b50505050509250818054600181600116156101000203166002900480601f0160208091040260200160405190810160405280929190818152602001828054600181600116156101000203166002900480156120c85780601f1061209d576101008083540402835291602001916120c8565b820191906000526020600020905b8154815290600101906020018083116120ab57829003601f168201915b505050505091509250925092506120db565b5b9193909250565b60008161213e57600160008473ffffffffffffffffffffffffffffffffffffffff1673ffffffffffffffffffffffffffffffffffffffff16815260200190815260200160002060000160019054906101000a900460ff1661218f565b600260008473ffffffffffffffffffffffffffffffffffffffff1673ffffffffffffffffffffffffffffffffffffffff16815260200190815260200160002060000160019054906101000a900460ff165b905092915050565b828054600181600116156101000203166002900490600052602060002090601f016020900481019282601f106121d857805160ff1916838001178555612206565b82800160010185558215612206579182015b828111156122055782518255916020019190600101906121ea565b5b5090506122139190612217565b5090565b61223991905b8082111561223557600081600090555060010161221d565b5090565b905600a165627a7a723058204a6e08f4affa707a7a67827240b3c48e65f31d6af5f626a2c0d8073dec4251100029",
  "source": "pragma solidity ^0.4.17;\nimport './Registrar.sol';\n\n// web3j truffle generate --javaTypes /Users/admin/truffle-codes/build/contracts/LearnerLearningProvider.json -o /Users/admin/repositories/boll-consortium/src/main/java -p jp.ac.kyoto_u.media.let.boll_consortium.contracts\n\ncontract LearnerLearningProvider {\n    event LearnerLearningProviderContractEvents(address indexed sender, address indexed participantAddress,\n        address affectedContractAddress, string indexed actionType, uint index);\n    struct LearningRecord {\n        string queryResultHash;\n        string queryHash;\n        address writer;\n    }\n    \n    struct Permissions {\n        bool canRead;\n        bool canWrite;\n        bool canGrant;\n        bool isPendingRequest;\n    }\n\n    struct Score {\n        bool completion;\n        bool success;\n        uint8 min;\n        uint8 max;\n        uint8 score;\n        uint timestamp;\n        uint recordIndex;\n    }\n    \n    address owner;\n    mapping(address => Permissions) permissions;\n    mapping(address => Permissions) permissionsRequests;\n    address[] pendingRequests;\n    LearningRecord[] learningRecords;\n    Score [] scores;\n    bool makeScoresPublic = true;\n    mapping(string => bool) duplicateLearningLogTracker;\n    bytes recordType;\n    address provider;\n\n    function getOwner() public view returns (address) {\n        return owner;\n    }\n\n    function getRecordType() public view returns (bytes) {\n        return recordType;\n    }\n\n    function isDuplicate(string queryString) public view returns (bool) {\n        return duplicateLearningLogTracker[queryString];\n    }\n\n    function getProvider() public view returns (address) {\n        return provider;\n    }\n    \n    constructor(address _owner, address _learner, bytes _recordType) public {\n        //ToDo Prevent non-registered schools from creating LLPCs. This is a bug which should be fixed.\n        //ToDo Otherwise, the first person to create a smart contract would like retain priority access to it\n       /* Registrar registrar = Registrar(registrarAddress);\n        if(registrar.isApprovedInstitute(accessToken)){*/\n            owner = _owner;\n            recordType = _recordType;\n            permissions[_learner] = Permissions(true, true, true, false);\n            permissions[msg.sender] = Permissions(true, true, true, false);\n            provider = msg.sender;\n            emit LearnerLearningProviderContractEvents(msg.sender, _owner, address(this), \"LLPC\", uint(-1));\n        //}\n    }\n\n    function insertLearningRecord(string queryString, string queryResultHash) public payable {\n        if (permissions[msg.sender].canWrite) {\n            if(duplicateLearningLogTracker[queryString] == false) {\n                learningRecords.push(LearningRecord(queryResultHash, queryString, msg.sender));\n                duplicateLearningLogTracker[queryString] = true;\n                emit LearnerLearningProviderContractEvents(msg.sender, owner, address(this), \"insertLearningRecord\", learningRecords.length - 1);\n            }\n        }\n    }\n\n    function insertScore(bool completion, bool success, uint8 min, uint8 max, uint8 score, uint timestamp, uint recordIndex) public payable {\n        if (permissions[msg.sender].canWrite) {\n            scores.push(Score(completion, success, min, max, score, timestamp, recordIndex));\n            emit LearnerLearningProviderContractEvents(msg.sender, owner, address(this), \"insertScore\", recordIndex);\n\n        }\n    }\n    \n    function requestAccess(bool grant, bool write, bool read) public payable {\n        if((permissions[msg.sender].canGrant == false || permissions[msg.sender].canRead == false\n          || permissions[msg.sender].canWrite == false)){\n            permissionsRequests[msg.sender] = Permissions(read, write, grant, true);\n            emit LearnerLearningProviderContractEvents(msg.sender, owner, address(this), \"requestAccess\", uint(-1));\n        }\n    }\n\n    function getPendingRequestsCount() public view returns (uint) {\n        return pendingRequests.length;\n    }\n\n    function getPendingRequests() public view returns(address[]) {\n        return pendingRequests;\n    }\n\n    function grantAccess(address participantAddress, bool read, bool write, bool admin) public payable returns (bool) {\n        if (permissions[msg.sender].canGrant) {\n            permissions[participantAddress] = Permissions(read, write, admin, false);\n\n            if(permissionsRequests[participantAddress].isPendingRequest) {\n                uint arrayLen = getPendingRequestsCount();\n                for(uint i = 0; i < arrayLen; i++) {\n                    if(pendingRequests[i] == participantAddress) {\n                        if(i != (pendingRequests.length-1)) {\n                            pendingRequests[i] = pendingRequests[arrayLen-1];\n                            delete pendingRequests[arrayLen-1];\n                            delete permissionsRequests[participantAddress];\n                        }\n                        break;\n                    }\n                }\n            }\n\n            emit LearnerLearningProviderContractEvents(msg.sender, participantAddress, address(this), \"grantAccess\", uint(-1));\n            return true;\n        }else {\n            return false;\n        }\n    }\n\n    function updateAccess(address participantAddress, bool read, bool write, bool admin) public payable returns (bool) {\n        if (permissions[msg.sender].canGrant) {\n            permissions[participantAddress].canGrant = admin;\n            permissions[participantAddress].canRead = read;\n            permissions[participantAddress].canWrite = write;\n\n            emit LearnerLearningProviderContractEvents(msg.sender, participantAddress, address(this), \"updateAccess\", uint(-1));\n            return true;\n        }else {\n            return false;\n        }\n    }\n\n    function getLearningRecordsCount() public view returns (uint) {\n        if (permissions[msg.sender].canRead) {\n            return learningRecords.length;\n        }else {\n            return 0;\n        }\n    }\n\n    function getLearningRecord(uint index) public view returns (string, string, address) {\n        if (permissions[msg.sender].canRead) {\n            return (learningRecords[index].queryResultHash,learningRecords[index].queryHash,\n            learningRecords[index].writer);\n        }\n    }\n\n    function getScoresCount() public view returns (uint) {\n        if (permissions[msg.sender].canRead || makeScoresPublic) {\n            return scores.length;\n        }else {\n            return 0;\n        }\n    }\n\n    function getScore(uint index) public view returns (bool, bool, uint8, uint8, uint8, uint) {\n        if (permissions[msg.sender].canRead || makeScoresPublic) {\n            return (scores[index].completion,scores[index].success,\n            scores[index].min, scores[index].max, scores[index].score, scores[index].recordIndex);\n        }\n    }\n\n    function canGrant(address participantAddress, bool pendingRequest) public constant returns (bool) {\n        return pendingRequest ? permissionsRequests[participantAddress].canGrant : permissions[participantAddress].canGrant;\n    }\n\n    function canWrite(address participantAddress, bool pendingRequest) public constant returns (bool) {\n        return pendingRequest ? permissionsRequests[participantAddress].canWrite : permissions[participantAddress].canWrite;\n    }\n\n    function canRead(address participantAddress, bool pendingRequest) public constant returns (bool) {\n        return pendingRequest ? permissionsRequests[participantAddress].canRead : permissions[participantAddress].canRead;\n    }\n}\n",
  "sourcePath": "/Users/admin/truffle-codes/contracts/LearnerLearningProvider.sol",
  "compiler": {
    "name": "solc",
    "version": "0.4.24+commit.e67f0147.Emscripten.clang"
  },
  "schemaVersion": "2.0.1",
  "updatedAt": "2019-07-27T09:09:19.975Z"
}