{
  "contractName": "LearnerLearningProvider",
  "abi": [
    {
      "constant": false,
      "inputs": [
        {
          "name": "participantAddress",
          "type": "address"
        },
        {
          "name": "read",
          "type": "bool"
        },
        {
          "name": "write",
          "type": "bool"
        },
        {
          "name": "admin",
          "type": "bool"
        }
      ],
      "name": "grantAccess",
      "outputs": [
        {
          "name": "",
          "type": "bool"
        }
      ],
      "payable": true,
      "stateMutability": "payable",
      "type": "function"
    },
    {
      "constant": true,
      "inputs": [],
      "name": "getRecordType",
      "outputs": [
        {
          "name": "",
          "type": "bytes"
        }
      ],
      "payable": false,
      "stateMutability": "view",
      "type": "function"
    },
    {
      "constant": true,
      "inputs": [
        {
          "name": "queryString",
          "type": "string"
        }
      ],
      "name": "isDuplicate",
      "outputs": [
        {
          "name": "",
          "type": "bool"
        }
      ],
      "payable": false,
      "stateMutability": "view",
      "type": "function"
    },
    {
      "constant": true,
      "inputs": [],
      "name": "getPendingRequestsCount",
      "outputs": [
        {
          "name": "",
          "type": "uint256"
        }
      ],
      "payable": false,
      "stateMutability": "view",
      "type": "function"
    },
    {
      "constant": true,
      "inputs": [],
      "name": "getLearningRecordsCount",
      "outputs": [
        {
          "name": "",
          "type": "uint256"
        }
      ],
      "payable": false,
      "stateMutability": "view",
      "type": "function"
    },
    {
      "constant": true,
      "inputs": [
        {
          "name": "participantAddress",
          "type": "address"
        }
      ],
      "name": "canGrant",
      "outputs": [
        {
          "name": "",
          "type": "bool"
        }
      ],
      "payable": false,
      "stateMutability": "view",
      "type": "function"
    },
    {
      "constant": true,
      "inputs": [
        {
          "name": "participantAddress",
          "type": "address"
        }
      ],
      "name": "canWrite",
      "outputs": [
        {
          "name": "",
          "type": "bool"
        }
      ],
      "payable": false,
      "stateMutability": "view",
      "type": "function"
    },
    {
      "constant": true,
      "inputs": [
        {
          "name": "participantAddress",
          "type": "address"
        }
      ],
      "name": "canRead",
      "outputs": [
        {
          "name": "",
          "type": "bool"
        }
      ],
      "payable": false,
      "stateMutability": "view",
      "type": "function"
    },
    {
      "constant": true,
      "inputs": [],
      "name": "getProvider",
      "outputs": [
        {
          "name": "",
          "type": "address"
        }
      ],
      "payable": false,
      "stateMutability": "view",
      "type": "function"
    },
    {
      "constant": false,
      "inputs": [
        {
          "name": "participantIndex",
          "type": "uint256"
        },
        {
          "name": "read",
          "type": "bool"
        },
        {
          "name": "write",
          "type": "bool"
        },
        {
          "name": "admin",
          "type": "bool"
        }
      ],
      "name": "grantAccess",
      "outputs": [
        {
          "name": "",
          "type": "bool"
        }
      ],
      "payable": true,
      "stateMutability": "payable",
      "type": "function"
    },
    {
      "constant": true,
      "inputs": [],
      "name": "getOwner",
      "outputs": [
        {
          "name": "",
          "type": "address"
        }
      ],
      "payable": false,
      "stateMutability": "view",
      "type": "function"
    },
    {
      "constant": false,
      "inputs": [
        {
          "name": "queryString",
          "type": "string"
        },
        {
          "name": "queryResultHash",
          "type": "string"
        }
      ],
      "name": "insertLearningRecord",
      "outputs": [],
      "payable": true,
      "stateMutability": "payable",
      "type": "function"
    },
    {
      "constant": false,
      "inputs": [
        {
          "name": "_toRead",
          "type": "bool"
        },
        {
          "name": "_toWrite",
          "type": "bool"
        },
        {
          "name": "_toGrant",
          "type": "bool"
        }
      ],
      "name": "requestAccess",
      "outputs": [],
      "payable": true,
      "stateMutability": "payable",
      "type": "function"
    },
    {
      "constant": true,
      "inputs": [
        {
          "name": "index",
          "type": "uint256"
        }
      ],
      "name": "getPendingRequests",
      "outputs": [
        {
          "name": "",
          "type": "address"
        },
        {
          "name": "",
          "type": "bool"
        },
        {
          "name": "",
          "type": "bool"
        },
        {
          "name": "",
          "type": "bool"
        }
      ],
      "payable": false,
      "stateMutability": "view",
      "type": "function"
    },
    {
      "constant": true,
      "inputs": [
        {
          "name": "index",
          "type": "uint256"
        }
      ],
      "name": "getLearningRecord",
      "outputs": [
        {
          "name": "",
          "type": "string"
        },
        {
          "name": "",
          "type": "string"
        },
        {
          "name": "",
          "type": "address"
        }
      ],
      "payable": false,
      "stateMutability": "view",
      "type": "function"
    },
    {
      "inputs": [
        {
          "name": "_owner",
          "type": "address"
        },
        {
          "name": "_learner",
          "type": "address"
        },
        {
          "name": "_recordType",
          "type": "bytes"
        }
      ],
      "payable": false,
      "stateMutability": "nonpayable",
      "type": "constructor"
    }
  ],
  "bytecode": "0x606060405234156200001057600080fd5b60405162001dd238038062001dd283398101604052808051906020019091908051906020019091908051820191905050826000806101000a81548173ffffffffffffffffffffffffffffffffffffffff021916908373ffffffffffffffffffffffffffffffffffffffff16021790555080600590805190602001906200009892919062000271565b5060606040519081016040528060011515815260200160011515815260200160011515815250600160008473ffffffffffffffffffffffffffffffffffffffff1673ffffffffffffffffffffffffffffffffffffffff16815260200190815260200160002060008201518160000160006101000a81548160ff02191690831515021790555060208201518160000160016101000a81548160ff02191690831515021790555060408201518160000160026101000a81548160ff02191690831515021790555090505060606040519081016040528060011515815260200160011515815260200160011515815250600160003373ffffffffffffffffffffffffffffffffffffffff1673ffffffffffffffffffffffffffffffffffffffff16815260200190815260200160002060008201518160000160006101000a81548160ff02191690831515021790555060208201518160000160016101000a81548160ff02191690831515021790555060408201518160000160026101000a81548160ff02191690831515021790555090505033600660006101000a81548173ffffffffffffffffffffffffffffffffffffffff021916908373ffffffffffffffffffffffffffffffffffffffff16021790555050505062000320565b828054600181600116156101000203166002900490600052602060002090601f016020900481019282601f10620002b457805160ff1916838001178555620002e5565b82800160010185558215620002e5579182015b82811115620002e4578251825591602001919060010190620002c7565b5b509050620002f49190620002f8565b5090565b6200031d91905b8082111562000319576000816000905550600101620002ff565b5090565b90565b611aa280620003306000396000f3006060604052600436106100db576000357c0100000000000000000000000000000000000000000000000000000000900463ffffffff1680630458d201146100e05780630781f5c9146101475780630cab81e5146101d5578063188c26cc1461024a57806319ed0018146102735780631ff2c99c1461029c5780633239b71b146102ed57806342087d4f1461033e578063483d45bd1461038f57806359f62841146103e4578063893d20e8146104355780638e0777a71461048a57806395467d131461051f5780639cbdf5931461054f578063dbaf557f146105d3575b600080fd5b61012d600480803573ffffffffffffffffffffffffffffffffffffffff1690602001909190803515159060200190919080351515906020019091908035151590602001909190505061070e565b604051808215151515815260200191505060405180910390f35b341561015257600080fd5b61015a6108f5565b6040518080602001828103825283818151815260200191508051906020019080838360005b8381101561019a57808201518184015260208101905061017f565b50505050905090810190601f1680156101c75780820380516001836020036101000a031916815260200191505b509250505060405180910390f35b34156101e057600080fd5b610230600480803590602001908201803590602001908080601f0160208091040260200160405190810160405280939291908181526020018383808284378201915050505050509190505061099d565b604051808215151515815260200191505060405180910390f35b341561025557600080fd5b61025d610a1f565b6040518082815260200191505060405180910390f35b341561027e57600080fd5b610286610a2c565b6040518082815260200191505060405180910390f35b34156102a757600080fd5b6102d3600480803573ffffffffffffffffffffffffffffffffffffffff16906020019091905050610a98565b604051808215151515815260200191505060405180910390f35b34156102f857600080fd5b610324600480803573ffffffffffffffffffffffffffffffffffffffff16906020019091905050610af1565b604051808215151515815260200191505060405180910390f35b341561034957600080fd5b610375600480803573ffffffffffffffffffffffffffffffffffffffff16906020019091905050610b4a565b604051808215151515815260200191505060405180910390f35b341561039a57600080fd5b6103a2610ba3565b604051808273ffffffffffffffffffffffffffffffffffffffff1673ffffffffffffffffffffffffffffffffffffffff16815260200191505060405180910390f35b61041b6004808035906020019091908035151590602001909190803515159060200190919080351515906020019091905050610bcd565b604051808215151515815260200191505060405180910390f35b341561044057600080fd5b610448611049565b604051808273ffffffffffffffffffffffffffffffffffffffff1673ffffffffffffffffffffffffffffffffffffffff16815260200191505060405180910390f35b61051d600480803590602001908201803590602001908080601f0160208091040260200160405190810160405280939291908181526020018383808284378201915050505050509190803590602001908201803590602001908080601f01602080910402602001604051908101604052809392919081815260200183838082843782019150505050505091905050611072565b005b61054d60048080351515906020019091908035151590602001909190803515159060200190919050506112b5565b005b341561055a57600080fd5b61057060048080359060200190919050506114a7565b604051808573ffffffffffffffffffffffffffffffffffffffff1673ffffffffffffffffffffffffffffffffffffffff16815260200184151515158152602001831515151581526020018215151515815260200194505050505060405180910390f35b34156105de57600080fd5b6105f4600480803590602001909190505061157b565b6040518080602001806020018473ffffffffffffffffffffffffffffffffffffffff1673ffffffffffffffffffffffffffffffffffffffff168152602001838103835286818151815260200191508051906020019080838360005b8381101561066a57808201518184015260208101905061064f565b50505050905090810190601f1680156106975780820380516001836020036101000a031916815260200191505b50838103825285818151815260200191508051906020019080838360005b838110156106d05780820151818401526020810190506106b5565b50505050905090810190601f1680156106fd5780820380516001836020036101000a031916815260200191505b509550505050505060405180910390f35b60006107186117ae565b600160003373ffffffffffffffffffffffffffffffffffffffff1673ffffffffffffffffffffffffffffffffffffffff16815260200190815260200160002060000160029054906101000a900460ff16156108e757600160008773ffffffffffffffffffffffffffffffffffffffff1673ffffffffffffffffffffffffffffffffffffffff168152602001908152602001600020606060405190810160405290816000820160009054906101000a900460ff161515151581526020016000820160019054906101000a900460ff161515151581526020016000820160029054906101000a900460ff161515151581525050905082816040019015159081151581525050848160000190151590811515815250508381602001901515908115158152505080600160008873ffffffffffffffffffffffffffffffffffffffff1673ffffffffffffffffffffffffffffffffffffffff16815260200190815260200160002060008201518160000160006101000a81548160ff02191690831515021790555060208201518160000160016101000a81548160ff02191690831515021790555060408201518160000160026101000a81548160ff021916908315150217905550905050600191506108ec565b600091505b50949350505050565b6108fd6117d6565b60058054600181600116156101000203166002900480601f0160208091040260200160405190810160405280929190818152602001828054600181600116156101000203166002900480156109935780601f1061096857610100808354040283529160200191610993565b820191906000526020600020905b81548152906001019060200180831161097657829003601f168201915b5050505050905090565b60006004826040518082805190602001908083835b6020831015156109d757805182526020820191506020810190506020830392506109b2565b6001836020036101000a038019825116818451168082178552505050505050905001915050908152602001604051809103902060009054906101000a900460ff169050919050565b6000600280549050905090565b6000600160003373ffffffffffffffffffffffffffffffffffffffff1673ffffffffffffffffffffffffffffffffffffffff16815260200190815260200160002060000160009054906101000a900460ff1615610a90576003805490509050610a95565b600090505b90565b6000600160008373ffffffffffffffffffffffffffffffffffffffff1673ffffffffffffffffffffffffffffffffffffffff16815260200190815260200160002060000160029054906101000a900460ff169050919050565b6000600160008373ffffffffffffffffffffffffffffffffffffffff1673ffffffffffffffffffffffffffffffffffffffff16815260200190815260200160002060000160019054906101000a900460ff169050919050565b6000600160008373ffffffffffffffffffffffffffffffffffffffff1673ffffffffffffffffffffffffffffffffffffffff16815260200190815260200160002060000160009054906101000a900460ff169050919050565b6000600660009054906101000a900473ffffffffffffffffffffffffffffffffffffffff16905090565b6000610bd76117ea565b610bdf6117ae565b600160003373ffffffffffffffffffffffffffffffffffffffff1673ffffffffffffffffffffffffffffffffffffffff16815260200190815260200160002060000160029054906101000a900460ff161561103a57600287815481101515610c4357fe5b9060005260206000209001608060405190810160405290816000820160009054906101000a900473ffffffffffffffffffffffffffffffffffffffff1673ffffffffffffffffffffffffffffffffffffffff1673ffffffffffffffffffffffffffffffffffffffff1681526020016000820160149054906101000a900460ff161515151581526020016000820160159054906101000a900460ff161515151581526020016000820160169054906101000a900460ff161515151581525050915060016000836000015173ffffffffffffffffffffffffffffffffffffffff1673ffffffffffffffffffffffffffffffffffffffff168152602001908152602001600020606060405190810160405290816000820160009054906101000a900460ff161515151581526020016000820160019054906101000a900460ff161515151581526020016000820160029054906101000a900460ff16151515158152505090508381604001901515908115158152505085816000019015159081151581525050848160200190151590811515815250508060016000846000015173ffffffffffffffffffffffffffffffffffffffff1673ffffffffffffffffffffffffffffffffffffffff16815260200190815260200160002060008201518160000160006101000a81548160ff02191690831515021790555060208201518160000160016101000a81548160ff02191690831515021790555060408201518160000160026101000a81548160ff0219169083151502179055509050506002600160028054905003815481101515610e9357fe5b9060005260206000209001600288815481101515610ead57fe5b90600052602060002090016000820160009054906101000a900473ffffffffffffffffffffffffffffffffffffffff168160000160006101000a81548173ffffffffffffffffffffffffffffffffffffffff021916908373ffffffffffffffffffffffffffffffffffffffff1602179055506000820160149054906101000a900460ff168160000160146101000a81548160ff0219169083151502179055506000820160159054906101000a900460ff168160000160156101000a81548160ff0219169083151502179055506000820160169054906101000a900460ff168160000160166101000a81548160ff0219169083151502179055509050506002600160028054905003815481101515610fc057fe5b9060005260206000209001600080820160006101000a81549073ffffffffffffffffffffffffffffffffffffffff02191690556000820160146101000a81549060ff02191690556000820160156101000a81549060ff02191690556000820160166101000a81549060ff021916905550506001925061103f565b600092505b5050949350505050565b60008060009054906101000a900473ffffffffffffffffffffffffffffffffffffffff16905090565b600160003373ffffffffffffffffffffffffffffffffffffffff1673ffffffffffffffffffffffffffffffffffffffff16815260200190815260200160002060000160019054906101000a900460ff16156112b157600015156004836040518082805190602001908083835b60208310151561110357805182526020820191506020810190506020830392506110de565b6001836020036101000a038019825116818451168082178552505050505050905001915050908152602001604051809103902060009054906101000a900460ff16151514156112b05760038054806001018281611160919061182f565b916000526020600020906003020160006060604051908101604052808581526020018681526020013373ffffffffffffffffffffffffffffffffffffffff16815250909190915060008201518160000190805190602001906111c3929190611861565b5060208201518160010190805190602001906111e0929190611861565b5060408201518160020160006101000a81548173ffffffffffffffffffffffffffffffffffffffff021916908373ffffffffffffffffffffffffffffffffffffffff16021790555050505060016004836040518082805190602001908083835b6020831015156112655780518252602082019150602081019050602083039250611240565b6001836020036101000a038019825116818451168082178552505050505050905001915050908152602001604051809103902060006101000a81548160ff0219169083151502179055505b5b5050565b6112bd6117ae565b600160003373ffffffffffffffffffffffffffffffffffffffff1673ffffffffffffffffffffffffffffffffffffffff168152602001908152602001600020606060405190810160405290816000820160009054906101000a900460ff161515151581526020016000820160019054906101000a900460ff161515151581526020016000820160029054906101000a900460ff16151515158152505090506000151581604001511515148061137a57506000151581600001511515145b8061138d57506000151581602001511515145b156114a157600280548060010182816113a691906118e1565b916000526020600020900160006080604051908101604052803373ffffffffffffffffffffffffffffffffffffffff16815260200188151581526020018715158152602001861515815250909190915060008201518160000160006101000a81548173ffffffffffffffffffffffffffffffffffffffff021916908373ffffffffffffffffffffffffffffffffffffffff16021790555060208201518160000160146101000a81548160ff02191690831515021790555060408201518160000160156101000a81548160ff02191690831515021790555060608201518160000160166101000a81548160ff0219169083151502179055505050505b50505050565b6000806000806002858154811015156114bc57fe5b906000526020600020900160000160009054906101000a900473ffffffffffffffffffffffffffffffffffffffff166002868154811015156114fa57fe5b906000526020600020900160000160149054906101000a900460ff1660028781548110151561152557fe5b906000526020600020900160000160159054906101000a900460ff1660028881548110151561155057fe5b906000526020600020900160000160169054906101000a900460ff1693509350935093509193509193565b61158361190d565b61158b61190d565b6000600160003373ffffffffffffffffffffffffffffffffffffffff1673ffffffffffffffffffffffffffffffffffffffff16815260200190815260200160002060000160009054906101000a900460ff16156117a6576003848154811015156115f157fe5b906000526020600020906003020160000160038581548110151561161157fe5b906000526020600020906003020160010160038681548110151561163157fe5b906000526020600020906003020160020160009054906101000a900473ffffffffffffffffffffffffffffffffffffffff16828054600181600116156101000203166002900480601f0160208091040260200160405190810160405280929190818152602001828054600181600116156101000203166002900480156116f85780601f106116cd576101008083540402835291602001916116f8565b820191906000526020600020905b8154815290600101906020018083116116db57829003601f168201915b50505050509250818054600181600116156101000203166002900480601f0160208091040260200160405190810160405280929190818152602001828054600181600116156101000203166002900480156117945780601f1061176957610100808354040283529160200191611794565b820191906000526020600020905b81548152906001019060200180831161177757829003601f168201915b505050505091509250925092506117a7565b5b9193909250565b6060604051908101604052806000151581526020016000151581526020016000151581525090565b602060405190810160405280600081525090565b608060405190810160405280600073ffffffffffffffffffffffffffffffffffffffff1681526020016000151581526020016000151581526020016000151581525090565b81548183558181151161185c5760030281600302836000526020600020918201910161185b9190611921565b5b505050565b828054600181600116156101000203166002900490600052602060002090601f016020900481019282601f106118a257805160ff19168380011785556118d0565b828001600101855582156118d0579182015b828111156118cf5782518255916020019190600101906118b4565b5b5090506118dd9190611987565b5090565b8154818355818115116119085781836000526020600020918201910161190791906119ac565b5b505050565b602060405190810160405280600081525090565b61198491905b8082111561198057600080820160006119409190611a2e565b6001820160006119509190611a2e565b6002820160006101000a81549073ffffffffffffffffffffffffffffffffffffffff021916905550600301611927565b5090565b90565b6119a991905b808211156119a557600081600090555060010161198d565b5090565b90565b611a2b91905b80821115611a2757600080820160006101000a81549073ffffffffffffffffffffffffffffffffffffffff02191690556000820160146101000a81549060ff02191690556000820160156101000a81549060ff02191690556000820160166101000a81549060ff0219169055506001016119b2565b5090565b90565b50805460018160011615610100020316600290046000825580601f10611a545750611a73565b601f016020900490600052602060002090810190611a729190611987565b5b505600a165627a7a72305820e19972988a9c7b74c59f2294b3ddacbcdb6c2bb9aff4d7b5d89ba667fe5eab350029",
  "source": "pragma solidity ^0.4.17;\n\ncontract LearnerLearningProvider {\n\n    struct LearningRecord {\n        string queryResultHash;\n        string queryHash;\n        address writer;\n    }\n    \n    struct Permissions {\n        bool canRead;\n        bool canWrite;\n        bool canGrant;\n    }\n\n    struct PendingRequests {\n        address from;\n        bool toRead;\n        bool toWrite;\n        bool toGrant;\n    }\n    \n    address owner;\n    mapping(address => Permissions) permissions;\n    PendingRequests[] pendingRequests;\n    LearningRecord[] learningRecords;\n    mapping(string => bool) duplicateLearningLogTracker;\n    bytes recordType;\n    address provider;\n\n    function getOwner() public view returns (address) {\n        return owner;\n    }\n\n    function getRecordType() public view returns (bytes) {\n        return recordType;\n    }\n\n    function isDuplicate(string queryString) public view returns (bool) {\n        return duplicateLearningLogTracker[queryString];\n    }\n\n    function getProvider() public view returns (address) {\n        return provider;\n    }\n    \n    function LearnerLearningProvider(address _owner, address _learner, bytes _recordType) public {\n        owner = _owner;\n        recordType = _recordType;\n        permissions[_learner] = Permissions(true, true, true);\n        permissions[msg.sender] = Permissions(true, true, true);\n        provider = msg.sender;\n    }\n\n    function insertLearningRecord(string queryString, string queryResultHash) public payable {\n        if (permissions[msg.sender].canWrite) {\n            if(duplicateLearningLogTracker[queryString] == false) {\n                learningRecords.push(LearningRecord(queryResultHash, queryString, msg.sender));\n                duplicateLearningLogTracker[queryString] = true;\n            }\n        }\n    }\n    \n    function requestAccess(bool _toRead, bool _toWrite, bool _toGrant) public payable {\n        Permissions memory permsn = permissions[msg.sender];\n        if(permsn.canGrant == false || permsn.canRead == false || permsn.canWrite == false ){\n            pendingRequests.push(PendingRequests(msg.sender, _toRead, _toWrite, _toGrant));\n        }\n    }\n\n    function getPendingRequestsCount() public view returns (uint) {\n        return pendingRequests.length;\n    }\n\n    function getPendingRequests(uint index) public view returns(address, bool, bool, bool) {\n        return (pendingRequests[index].from, pendingRequests[index].toRead, pendingRequests[index].toWrite, pendingRequests[index].toGrant);\n    }\n\n    function grantAccess(address participantAddress, bool read, bool write, bool admin) public payable returns (bool) {\n        if (permissions[msg.sender].canGrant ) {\n            Permissions memory perm = permissions[participantAddress];\n            perm.canGrant = admin;\n            perm.canRead = read;\n            perm.canWrite = write;\n            permissions[participantAddress] = perm;\n            return true;\n        }else {\n            return false;\n        }\n    }\n\n    function grantAccess(uint participantIndex, bool read, bool write, bool admin) public payable returns (bool) {\n        if (permissions[msg.sender].canGrant) {\n            PendingRequests memory pr = pendingRequests[participantIndex];\n            Permissions memory perm = permissions[pr.from];\n            perm.canGrant = admin;\n            perm.canRead = read;\n            perm.canWrite = write;\n            permissions[pr.from] = perm;\n            pendingRequests[participantIndex] = pendingRequests[pendingRequests.length-1];\n            delete pendingRequests[pendingRequests.length-1];\n            return true;\n        }else {\n            return false;\n        }\n    }\n\n    function getLearningRecordsCount() public view returns (uint) {\n        if (permissions[msg.sender].canRead) {\n            return learningRecords.length;\n        }else {\n            return 0;\n        }\n    }\n\n    function getLearningRecord(uint index) public view returns (string, string, address) {\n        if (permissions[msg.sender].canRead) {\n            return (learningRecords[index].queryResultHash,learningRecords[index].queryHash,\n            learningRecords[index].writer);\n        }\n    }\n\n    function canGrant(address participantAddress) public constant returns (bool) {\n        return permissions[participantAddress].canGrant;\n    }\n\n    function canWrite(address participantAddress) public constant returns (bool) {\n        return permissions[participantAddress].canWrite;\n    }\n\n    function canRead(address participantAddress) public constant returns (bool) {\n        return permissions[participantAddress].canRead;\n    }\n}\n",
  "sourcePath": "/Users/admin/truffle-codes/contracts/LearnerLearningProvider.sol",
  "compiler": {
    "name": "solc",
    "version": "0.4.18+commit.9cf6e910.Emscripten.clang"
  },
  "schemaVersion": "1.0.1",
  "updatedAt": "2018-01-13T18:37:25.025Z"
}