{
  "contractName": "LearnerLearningProvider",
  "abi": [
    {
      "constant": false,
      "inputs": [
        {
          "name": "participantAddress",
          "type": "address"
        },
        {
          "name": "read",
          "type": "bool"
        },
        {
          "name": "write",
          "type": "bool"
        },
        {
          "name": "admin",
          "type": "bool"
        }
      ],
      "name": "grantAccess",
      "outputs": [
        {
          "name": "",
          "type": "bool"
        }
      ],
      "payable": true,
      "stateMutability": "payable",
      "type": "function"
    },
    {
      "constant": true,
      "inputs": [],
      "name": "getRecordType",
      "outputs": [
        {
          "name": "",
          "type": "bytes"
        }
      ],
      "payable": false,
      "stateMutability": "view",
      "type": "function"
    },
    {
      "constant": true,
      "inputs": [
        {
          "name": "queryString",
          "type": "string"
        }
      ],
      "name": "isDuplicate",
      "outputs": [
        {
          "name": "",
          "type": "bool"
        }
      ],
      "payable": false,
      "stateMutability": "view",
      "type": "function"
    },
    {
      "constant": true,
      "inputs": [],
      "name": "getLearningRecordsCount",
      "outputs": [
        {
          "name": "",
          "type": "uint256"
        }
      ],
      "payable": false,
      "stateMutability": "view",
      "type": "function"
    },
    {
      "constant": true,
      "inputs": [
        {
          "name": "participantAddress",
          "type": "address"
        }
      ],
      "name": "canGrant",
      "outputs": [
        {
          "name": "",
          "type": "bool"
        }
      ],
      "payable": false,
      "stateMutability": "view",
      "type": "function"
    },
    {
      "constant": true,
      "inputs": [
        {
          "name": "participantAddress",
          "type": "address"
        }
      ],
      "name": "canWrite",
      "outputs": [
        {
          "name": "",
          "type": "bool"
        }
      ],
      "payable": false,
      "stateMutability": "view",
      "type": "function"
    },
    {
      "constant": true,
      "inputs": [
        {
          "name": "participantAddress",
          "type": "address"
        }
      ],
      "name": "canRead",
      "outputs": [
        {
          "name": "",
          "type": "bool"
        }
      ],
      "payable": false,
      "stateMutability": "view",
      "type": "function"
    },
    {
      "constant": true,
      "inputs": [],
      "name": "getProvider",
      "outputs": [
        {
          "name": "",
          "type": "address"
        }
      ],
      "payable": false,
      "stateMutability": "view",
      "type": "function"
    },
    {
      "constant": true,
      "inputs": [],
      "name": "getOwner",
      "outputs": [
        {
          "name": "",
          "type": "address"
        }
      ],
      "payable": false,
      "stateMutability": "view",
      "type": "function"
    },
    {
      "constant": false,
      "inputs": [
        {
          "name": "queryString",
          "type": "string"
        },
        {
          "name": "queryResultHash",
          "type": "string"
        }
      ],
      "name": "insertLearningRecord",
      "outputs": [],
      "payable": true,
      "stateMutability": "payable",
      "type": "function"
    },
    {
      "constant": true,
      "inputs": [
        {
          "name": "index",
          "type": "uint256"
        }
      ],
      "name": "getLearningRecord",
      "outputs": [
        {
          "name": "",
          "type": "string"
        },
        {
          "name": "",
          "type": "string"
        },
        {
          "name": "",
          "type": "address"
        }
      ],
      "payable": false,
      "stateMutability": "view",
      "type": "function"
    },
    {
      "inputs": [
        {
          "name": "_owner",
          "type": "address"
        },
        {
          "name": "_learner",
          "type": "address"
        },
        {
          "name": "_recordType",
          "type": "bytes"
        }
      ],
      "payable": false,
      "stateMutability": "nonpayable",
      "type": "constructor"
    }
  ],
  "bytecode": "0x6060604052341561000f57600080fd5b604051620014283803806200142883398101604052808051906020019091908051906020019091908051820191905050826000806101000a81548173ffffffffffffffffffffffffffffffffffffffff021916908373ffffffffffffffffffffffffffffffffffffffff160217905550806004908051906020019061009592919061026d565b5060606040519081016040528060011515815260200160011515815260200160011515815250600160008473ffffffffffffffffffffffffffffffffffffffff1673ffffffffffffffffffffffffffffffffffffffff16815260200190815260200160002060008201518160000160006101000a81548160ff02191690831515021790555060208201518160000160016101000a81548160ff02191690831515021790555060408201518160000160026101000a81548160ff02191690831515021790555090505060606040519081016040528060011515815260200160011515815260200160011515815250600160003373ffffffffffffffffffffffffffffffffffffffff1673ffffffffffffffffffffffffffffffffffffffff16815260200190815260200160002060008201518160000160006101000a81548160ff02191690831515021790555060208201518160000160016101000a81548160ff02191690831515021790555060408201518160000160026101000a81548160ff02191690831515021790555090505033600560006101000a81548173ffffffffffffffffffffffffffffffffffffffff021916908373ffffffffffffffffffffffffffffffffffffffff160217905550505050610312565b828054600181600116156101000203166002900490600052602060002090601f016020900481019282601f106102ae57805160ff19168380011785556102dc565b828001600101855582156102dc579182015b828111156102db5782518255916020019190600101906102c0565b5b5090506102e991906102ed565b5090565b61030f91905b8082111561030b5760008160009055506001016102f3565b5090565b90565b61110680620003226000396000f3006060604052600436106100af576000357c0100000000000000000000000000000000000000000000000000000000900463ffffffff1680630458d201146100b45780630781f5c91461011b5780630cab81e5146101a957806319ed00181461021e5780631ff2c99c146102475780633239b71b1461029857806342087d4f146102e9578063483d45bd1461033a578063893d20e81461038f5780638e0777a7146103e4578063dbaf557f14610479575b600080fd5b610101600480803573ffffffffffffffffffffffffffffffffffffffff169060200190919080351515906020019091908035151590602001909190803515159060200190919050506105b4565b604051808215151515815260200191505060405180910390f35b341561012657600080fd5b61012e61079b565b6040518080602001828103825283818151815260200191508051906020019080838360005b8381101561016e578082015181840152602081019050610153565b50505050905090810190601f16801561019b5780820380516001836020036101000a031916815260200191505b509250505060405180910390f35b34156101b457600080fd5b610204600480803590602001908201803590602001908080601f01602080910402602001604051908101604052809392919081815260200183838082843782019150505050505091905050610843565b604051808215151515815260200191505060405180910390f35b341561022957600080fd5b6102316108c5565b6040518082815260200191505060405180910390f35b341561025257600080fd5b61027e600480803573ffffffffffffffffffffffffffffffffffffffff16906020019091905050610931565b604051808215151515815260200191505060405180910390f35b34156102a357600080fd5b6102cf600480803573ffffffffffffffffffffffffffffffffffffffff1690602001909190505061098a565b604051808215151515815260200191505060405180910390f35b34156102f457600080fd5b610320600480803573ffffffffffffffffffffffffffffffffffffffff169060200190919050506109e3565b604051808215151515815260200191505060405180910390f35b341561034557600080fd5b61034d610a3c565b604051808273ffffffffffffffffffffffffffffffffffffffff1673ffffffffffffffffffffffffffffffffffffffff16815260200191505060405180910390f35b341561039a57600080fd5b6103a2610a66565b604051808273ffffffffffffffffffffffffffffffffffffffff1673ffffffffffffffffffffffffffffffffffffffff16815260200191505060405180910390f35b610477600480803590602001908201803590602001908080601f0160208091040260200160405190810160405280939291908181526020018383808284378201915050505050509190803590602001908201803590602001908080601f01602080910402602001604051908101604052809392919081815260200183838082843782019150505050505091905050610a8f565b005b341561048457600080fd5b61049a6004808035906020019091905050610cd2565b6040518080602001806020018473ffffffffffffffffffffffffffffffffffffffff1673ffffffffffffffffffffffffffffffffffffffff168152602001838103835286818151815260200191508051906020019080838360005b838110156105105780820151818401526020810190506104f5565b50505050905090810190601f16801561053d5780820380516001836020036101000a031916815260200191505b50838103825285818151815260200191508051906020019080838360005b8381101561057657808201518184015260208101905061055b565b50505050905090810190601f1680156105a35780820380516001836020036101000a031916815260200191505b509550505050505060405180910390f35b60006105be610f05565b600160003373ffffffffffffffffffffffffffffffffffffffff1673ffffffffffffffffffffffffffffffffffffffff16815260200190815260200160002060000160029054906101000a900460ff161561078d57600160008773ffffffffffffffffffffffffffffffffffffffff1673ffffffffffffffffffffffffffffffffffffffff168152602001908152602001600020606060405190810160405290816000820160009054906101000a900460ff161515151581526020016000820160019054906101000a900460ff161515151581526020016000820160029054906101000a900460ff161515151581525050905082816040019015159081151581525050848160000190151590811515815250508381602001901515908115158152505080600160008873ffffffffffffffffffffffffffffffffffffffff1673ffffffffffffffffffffffffffffffffffffffff16815260200190815260200160002060008201518160000160006101000a81548160ff02191690831515021790555060208201518160000160016101000a81548160ff02191690831515021790555060408201518160000160026101000a81548160ff02191690831515021790555090505060019150610792565b600091505b50949350505050565b6107a3610f2d565b60048054600181600116156101000203166002900480601f0160208091040260200160405190810160405280929190818152602001828054600181600116156101000203166002900480156108395780601f1061080e57610100808354040283529160200191610839565b820191906000526020600020905b81548152906001019060200180831161081c57829003601f168201915b5050505050905090565b60006003826040518082805190602001908083835b60208310151561087d5780518252602082019150602081019050602083039250610858565b6001836020036101000a038019825116818451168082178552505050505050905001915050908152602001604051809103902060009054906101000a900460ff169050919050565b6000600160003373ffffffffffffffffffffffffffffffffffffffff1673ffffffffffffffffffffffffffffffffffffffff16815260200190815260200160002060000160009054906101000a900460ff161561092957600280549050905061092e565b600090505b90565b6000600160008373ffffffffffffffffffffffffffffffffffffffff1673ffffffffffffffffffffffffffffffffffffffff16815260200190815260200160002060000160029054906101000a900460ff169050919050565b6000600160008373ffffffffffffffffffffffffffffffffffffffff1673ffffffffffffffffffffffffffffffffffffffff16815260200190815260200160002060000160019054906101000a900460ff169050919050565b6000600160008373ffffffffffffffffffffffffffffffffffffffff1673ffffffffffffffffffffffffffffffffffffffff16815260200190815260200160002060000160009054906101000a900460ff169050919050565b6000600560009054906101000a900473ffffffffffffffffffffffffffffffffffffffff16905090565b60008060009054906101000a900473ffffffffffffffffffffffffffffffffffffffff16905090565b600160003373ffffffffffffffffffffffffffffffffffffffff1673ffffffffffffffffffffffffffffffffffffffff16815260200190815260200160002060000160019054906101000a900460ff1615610cce57600015156003836040518082805190602001908083835b602083101515610b205780518252602082019150602081019050602083039250610afb565b6001836020036101000a038019825116818451168082178552505050505050905001915050908152602001604051809103902060009054906101000a900460ff1615151415610ccd5760028054806001018281610b7d9190610f41565b916000526020600020906003020160006060604051908101604052808581526020018681526020013373ffffffffffffffffffffffffffffffffffffffff1681525090919091506000820151816000019080519060200190610be0929190610f73565b506020820151816001019080519060200190610bfd929190610f73565b5060408201518160020160006101000a81548173ffffffffffffffffffffffffffffffffffffffff021916908373ffffffffffffffffffffffffffffffffffffffff16021790555050505060016003836040518082805190602001908083835b602083101515610c825780518252602082019150602081019050602083039250610c5d565b6001836020036101000a038019825116818451168082178552505050505050905001915050908152602001604051809103902060006101000a81548160ff0219169083151502179055505b5b5050565b610cda610ff3565b610ce2610ff3565b6000600160003373ffffffffffffffffffffffffffffffffffffffff1673ffffffffffffffffffffffffffffffffffffffff16815260200190815260200160002060000160009054906101000a900460ff1615610efd57600284815481101515610d4857fe5b9060005260206000209060030201600001600285815481101515610d6857fe5b9060005260206000209060030201600101600286815481101515610d8857fe5b906000526020600020906003020160020160009054906101000a900473ffffffffffffffffffffffffffffffffffffffff16828054600181600116156101000203166002900480601f016020809104026020016040519081016040528092919081815260200182805460018160011615610100020316600290048015610e4f5780601f10610e2457610100808354040283529160200191610e4f565b820191906000526020600020905b815481529060010190602001808311610e3257829003601f168201915b50505050509250818054600181600116156101000203166002900480601f016020809104026020016040519081016040528092919081815260200182805460018160011615610100020316600290048015610eeb5780601f10610ec057610100808354040283529160200191610eeb565b820191906000526020600020905b815481529060010190602001808311610ece57829003601f168201915b50505050509150925092509250610efe565b5b9193909250565b6060604051908101604052806000151581526020016000151581526020016000151581525090565b602060405190810160405280600081525090565b815481835581811511610f6e57600302816003028360005260206000209182019101610f6d9190611007565b5b505050565b828054600181600116156101000203166002900490600052602060002090601f016020900481019282601f10610fb457805160ff1916838001178555610fe2565b82800160010185558215610fe2579182015b82811115610fe1578251825591602001919060010190610fc6565b5b509050610fef919061106d565b5090565b602060405190810160405280600081525090565b61106a91905b8082111561106657600080820160006110269190611092565b6001820160006110369190611092565b6002820160006101000a81549073ffffffffffffffffffffffffffffffffffffffff02191690555060030161100d565b5090565b90565b61108f91905b8082111561108b576000816000905550600101611073565b5090565b90565b50805460018160011615610100020316600290046000825580601f106110b857506110d7565b601f0160209004906000526020600020908101906110d6919061106d565b5b505600a165627a7a72305820a742a62d9836964a71d48549946b7c3c9a0e4a93a78573670184ba8919d7cc2d0029",
  "source": "pragma solidity ^0.4.17;\n\ncontract LearnerLearningProvider {\n\n    struct LearningRecord {\n        string queryResultHash;\n        string queryHash;\n        address writer;\n    }\n    \n    struct Permissions {\n        bool canRead;\n        bool canWrite;\n        bool canGrant;\n    }\n    \n    address owner;\n    mapping(address => Permissions) permissions;\n    LearningRecord[] learningRecords;\n    mapping(string => bool) duplicateLearningLogTracker;\n    bytes recordType;\n    address provider;\n\n    function getOwner() public view returns (address) {\n        return owner;\n    }\n\n    function getRecordType() public view returns (bytes) {\n        return recordType;\n    }\n\n    function isDuplicate(string queryString) public view returns (bool) {\n        return duplicateLearningLogTracker[queryString];\n    }\n\n    function getProvider() public view returns (address) {\n        return provider;\n    }\n    \n    function LearnerLearningProvider(address _owner, address _learner, bytes _recordType) public {\n        owner = _owner;\n        recordType = _recordType;\n        permissions[_learner] = Permissions(true, true, true);\n        permissions[msg.sender] = Permissions(true, true, true);\n        provider = msg.sender;\n    }\n\n    function insertLearningRecord(string queryString, string queryResultHash) public payable {\n        if (permissions[msg.sender].canWrite) {\n            if(duplicateLearningLogTracker[queryString] == false) {\n                learningRecords.push(LearningRecord(queryResultHash, queryString, msg.sender));\n                duplicateLearningLogTracker[queryString] = true;\n            }\n        }\n    }\n\n    function grantAccess(address participantAddress, bool read, bool write, bool admin) public payable returns (bool) {\n        if (permissions[msg.sender].canGrant ) {\n            Permissions memory perm = permissions[participantAddress];\n            perm.canGrant = admin;\n            perm.canRead = read;\n            perm.canWrite = write;\n            permissions[participantAddress] = perm;\n            return true;\n        }else {\n            return false;\n        }\n    }\n\n    function getLearningRecordsCount() public view returns (uint) {\n        if (permissions[msg.sender].canRead) {\n            return learningRecords.length;\n        }else {\n            return 0;\n        }\n    }\n\n    function getLearningRecord(uint index) public view returns (string, string, address) {\n        if (permissions[msg.sender].canRead) {\n            return (learningRecords[index].queryResultHash,learningRecords[index].queryHash,\n            learningRecords[index].writer);\n        }\n    }\n\n    function canGrant(address participantAddress) public constant returns (bool) {\n        return permissions[participantAddress].canGrant;\n    }\n\n    function canWrite(address participantAddress) public constant returns (bool) {\n        return permissions[participantAddress].canWrite;\n    }\n\n    function canRead(address participantAddress) public constant returns (bool) {\n        return permissions[participantAddress].canRead;\n    }\n}\n",
  "sourcePath": "/Users/admin/truffle-codes/contracts/LearnerLearningProvider.sol",
  "compiler": {
    "name": "solc",
    "version": "0.4.18+commit.9cf6e910.Emscripten.clang"
  },
  "schemaVersion": "1.0.1",
  "updatedAt": "2018-01-14T07:47:27.813Z"
}