{
  "contractName": "LearnerLearningProvider",
  "abi": [
    {
      "constant": true,
      "inputs": [
        {
          "name": "",
          "type": "address"
        }
      ],
      "name": "permissions",
      "outputs": [
        {
          "name": "canRead",
          "type": "bool"
        },
        {
          "name": "canWrite",
          "type": "bool"
        },
        {
          "name": "canGrant",
          "type": "bool"
        }
      ],
      "payable": false,
      "stateMutability": "view",
      "type": "function"
    },
    {
      "constant": true,
      "inputs": [],
      "name": "getRecordType",
      "outputs": [
        {
          "name": "",
          "type": "string"
        }
      ],
      "payable": false,
      "stateMutability": "view",
      "type": "function"
    },
    {
      "constant": true,
      "inputs": [],
      "name": "getLearningRecordsCount",
      "outputs": [
        {
          "name": "",
          "type": "uint256"
        }
      ],
      "payable": false,
      "stateMutability": "view",
      "type": "function"
    },
    {
      "constant": true,
      "inputs": [
        {
          "name": "participantAddress",
          "type": "address"
        }
      ],
      "name": "canGrant",
      "outputs": [
        {
          "name": "",
          "type": "bool"
        }
      ],
      "payable": false,
      "stateMutability": "view",
      "type": "function"
    },
    {
      "constant": true,
      "inputs": [
        {
          "name": "participantAddress",
          "type": "address"
        }
      ],
      "name": "canWrite",
      "outputs": [
        {
          "name": "",
          "type": "bool"
        }
      ],
      "payable": false,
      "stateMutability": "view",
      "type": "function"
    },
    {
      "constant": true,
      "inputs": [
        {
          "name": "participantAddress",
          "type": "address"
        }
      ],
      "name": "canRead",
      "outputs": [
        {
          "name": "",
          "type": "bool"
        }
      ],
      "payable": false,
      "stateMutability": "view",
      "type": "function"
    },
    {
      "constant": true,
      "inputs": [],
      "name": "getProvider",
      "outputs": [
        {
          "name": "",
          "type": "address"
        }
      ],
      "payable": false,
      "stateMutability": "view",
      "type": "function"
    },
    {
      "constant": true,
      "inputs": [],
      "name": "getOwner",
      "outputs": [
        {
          "name": "",
          "type": "address"
        }
      ],
      "payable": false,
      "stateMutability": "view",
      "type": "function"
    },
    {
      "constant": false,
      "inputs": [
        {
          "name": "queryString",
          "type": "string"
        },
        {
          "name": "queryResultHash",
          "type": "string"
        }
      ],
      "name": "insertLearningRecord",
      "outputs": [],
      "payable": true,
      "stateMutability": "payable",
      "type": "function"
    },
    {
      "constant": true,
      "inputs": [
        {
          "name": "index",
          "type": "uint256"
        }
      ],
      "name": "getLearningRecord",
      "outputs": [
        {
          "name": "",
          "type": "string"
        },
        {
          "name": "",
          "type": "string"
        },
        {
          "name": "",
          "type": "string"
        }
      ],
      "payable": false,
      "stateMutability": "view",
      "type": "function"
    },
    {
      "constant": false,
      "inputs": [
        {
          "name": "registrarAddress",
          "type": "address"
        },
        {
          "name": "participantAddress",
          "type": "address"
        },
        {
          "name": "indexContract",
          "type": "address"
        },
        {
          "name": "read",
          "type": "bool"
        },
        {
          "name": "write",
          "type": "bool"
        },
        {
          "name": "admin",
          "type": "bool"
        }
      ],
      "name": "grantAccess",
      "outputs": [
        {
          "name": "",
          "type": "bool"
        }
      ],
      "payable": true,
      "stateMutability": "payable",
      "type": "function"
    },
    {
      "inputs": [
        {
          "name": "_owner",
          "type": "address"
        },
        {
          "name": "_learner",
          "type": "address"
        },
        {
          "name": "_queryString",
          "type": "string"
        },
        {
          "name": "_queryResult",
          "type": "string"
        },
        {
          "name": "_recordType",
          "type": "string"
        }
      ],
      "payable": false,
      "stateMutability": "nonpayable",
      "type": "constructor"
    }
  ],
  "bytecode": "0x606060405234156200001057600080fd5b6040516200166438038062001664833981016040528080519060200190919080519060200190919080518201919060200180518201919060200180518201919050506200005c62000435565b6200006662000435565b866000806101000a81548173ffffffffffffffffffffffffffffffffffffffff021916908373ffffffffffffffffffffffffffffffffffffffff1602179055508260039080519060200190620000be9291906200045d565b5060028054806001018281620000d59190620004e4565b91600052602060002090600202016000604080519081016040528088815260200189815250909190915060008201518160000190805190602001906200011d92919062000519565b5060208201518160010190805190602001906200013c92919062000519565b50505050600160008773ffffffffffffffffffffffffffffffffffffffff1673ffffffffffffffffffffffffffffffffffffffff168152602001908152602001600020606060405190810160405290816000820160009054906101000a900460ff161515151581526020016000820160019054906101000a900460ff161515151581526020016000820160029054906101000a900460ff161515151581525050915060018260400190151590811515815250506001826000019015159081151581525050600182602001901515908115158152505081600160008873ffffffffffffffffffffffffffffffffffffffff1673ffffffffffffffffffffffffffffffffffffffff16815260200190815260200160002060008201518160000160006101000a81548160ff02191690831515021790555060208201518160000160016101000a81548160ff02191690831515021790555060408201518160000160026101000a81548160ff021916908315150217905550905050600160003373ffffffffffffffffffffffffffffffffffffffff1673ffffffffffffffffffffffffffffffffffffffff168152602001908152602001600020606060405190810160405290816000820160009054906101000a900460ff161515151581526020016000820160019054906101000a900460ff161515151581526020016000820160029054906101000a900460ff161515151581525050905060018160400190151590811515815250506001816000019015159081151581525050600181602001901515908115158152505080600160003373ffffffffffffffffffffffffffffffffffffffff1673ffffffffffffffffffffffffffffffffffffffff16815260200190815260200160002060008201518160000160006101000a81548160ff02191690831515021790555060208201518160000160016101000a81548160ff02191690831515021790555060408201518160000160026101000a81548160ff021916908315150217905550905050505050505050506200065a565b6060604051908101604052806000151581526020016000151581526020016000151581525090565b828054600181600116156101000203166002900490600052602060002090601f016020900481019282601f10620004a057805160ff1916838001178555620004d1565b82800160010185558215620004d1579182015b82811115620004d0578251825591602001919060010190620004b3565b5b509050620004e09190620005a0565b5090565b8154818355818115116200051457600202816002028360005260206000209182019101620005139190620005c8565b5b505050565b828054600181600116156101000203166002900490600052602060002090601f016020900481019282601f106200055c57805160ff19168380011785556200058d565b828001600101855582156200058d579182015b828111156200058c5782518255916020019190600101906200056f565b5b5090506200059c9190620005a0565b5090565b620005c591905b80821115620005c1576000816000905550600101620005a7565b5090565b90565b6200060b91905b80821115620006075760008082016000620005eb91906200060e565b600182016000620005fd91906200060e565b50600201620005cf565b5090565b90565b50805460018160011615610100020316600290046000825580601f1062000636575062000657565b601f016020900490600052602060002090810190620006569190620005a0565b5b50565b610ffa806200066a6000396000f3006060604052600436106100af576000357c0100000000000000000000000000000000000000000000000000000000900463ffffffff16806301e88208146100b45780630781f5c91461011b57806319ed0018146101a95780631ff2c99c146101d25780633239b71b1461022357806342087d4f14610274578063483d45bd146102c5578063893d20e81461031a5780638e0777a71461036f578063dbaf557f14610404578063df86ffcb14610578575b600080fd5b34156100bf57600080fd5b6100eb600480803573ffffffffffffffffffffffffffffffffffffffff1690602001909190505061061d565b60405180841515151581526020018315151515815260200182151515158152602001935050505060405180910390f35b341561012657600080fd5b61012e61066e565b6040518080602001828103825283818151815260200191508051906020019080838360005b8381101561016e578082015181840152602081019050610153565b50505050905090810190601f16801561019b5780820380516001836020036101000a031916815260200191505b509250505060405180910390f35b34156101b457600080fd5b6101bc610716565b6040518082815260200191505060405180910390f35b34156101dd57600080fd5b610209600480803573ffffffffffffffffffffffffffffffffffffffff16906020019091905050610782565b604051808215151515815260200191505060405180910390f35b341561022e57600080fd5b61025a600480803573ffffffffffffffffffffffffffffffffffffffff169060200190919050506107db565b604051808215151515815260200191505060405180910390f35b341561027f57600080fd5b6102ab600480803573ffffffffffffffffffffffffffffffffffffffff16906020019091905050610834565b604051808215151515815260200191505060405180910390f35b34156102d057600080fd5b6102d861088d565b604051808273ffffffffffffffffffffffffffffffffffffffff1673ffffffffffffffffffffffffffffffffffffffff16815260200191505060405180910390f35b341561032557600080fd5b61032d6108b7565b604051808273ffffffffffffffffffffffffffffffffffffffff1673ffffffffffffffffffffffffffffffffffffffff16815260200191505060405180910390f35b610402600480803590602001908201803590602001908080601f0160208091040260200160405190810160405280939291908181526020018383808284378201915050505050509190803590602001908201803590602001908080601f016020809104026020016040519081016040528093929190818152602001838380828437820191505050505050919050506108e0565b005b341561040f57600080fd5b61042560048080359060200190919050506109b5565b60405180806020018060200180602001848103845287818151815260200191508051906020019080838360005b8381101561046d578082015181840152602081019050610452565b50505050905090810190601f16801561049a5780820380516001836020036101000a031916815260200191505b50848103835286818151815260200191508051906020019080838360005b838110156104d35780820151818401526020810190506104b8565b50505050905090810190601f1680156105005780820380516001836020036101000a031916815260200191505b50848103825285818151815260200191508051906020019080838360005b8381101561053957808201518184015260208101905061051e565b50505050905090810190601f1680156105665780820380516001836020036101000a031916815260200191505b50965050505050505060405180910390f35b610603600480803573ffffffffffffffffffffffffffffffffffffffff1690602001909190803573ffffffffffffffffffffffffffffffffffffffff1690602001909190803573ffffffffffffffffffffffffffffffffffffffff16906020019091908035151590602001909190803515159060200190919080351515906020019091905050610c4b565b604051808215151515815260200191505060405180910390f35b60016020528060005260406000206000915090508060000160009054906101000a900460ff16908060000160019054906101000a900460ff16908060000160029054906101000a900460ff16905083565b610676610e34565b60038054600181600116156101000203166002900480601f01602080910402602001604051908101604052809291908181526020018280546001816001161561010002031660029004801561070c5780601f106106e15761010080835404028352916020019161070c565b820191906000526020600020905b8154815290600101906020018083116106ef57829003601f168201915b5050505050905090565b6000600160003373ffffffffffffffffffffffffffffffffffffffff1673ffffffffffffffffffffffffffffffffffffffff16815260200190815260200160002060000160009054906101000a900460ff161561077a57600280549050905061077f565b600090505b90565b6000600160008373ffffffffffffffffffffffffffffffffffffffff1673ffffffffffffffffffffffffffffffffffffffff16815260200190815260200160002060000160029054906101000a900460ff169050919050565b6000600160008373ffffffffffffffffffffffffffffffffffffffff1673ffffffffffffffffffffffffffffffffffffffff16815260200190815260200160002060000160019054906101000a900460ff169050919050565b6000600160008373ffffffffffffffffffffffffffffffffffffffff1673ffffffffffffffffffffffffffffffffffffffff16815260200190815260200160002060000160009054906101000a900460ff169050919050565b6000600460009054906101000a900473ffffffffffffffffffffffffffffffffffffffff16905090565b60008060009054906101000a900473ffffffffffffffffffffffffffffffffffffffff16905090565b600160003373ffffffffffffffffffffffffffffffffffffffff1673ffffffffffffffffffffffffffffffffffffffff16815260200190815260200160002060000160019054906101000a900460ff16156109b157600280548060010182816109499190610e48565b916000526020600020906002020160006040805190810160405280858152602001868152509091909150600082015181600001908051906020019061098f929190610e7a565b5060208201518160010190805190602001906109ac929190610e7a565b505050505b5050565b6109bd610e34565b6109c5610e34565b6109cd610e34565b600160003373ffffffffffffffffffffffffffffffffffffffff1673ffffffffffffffffffffffffffffffffffffffff16815260200190815260200160002060000160009054906101000a900460ff1615610c43576003600285815481101515610a3357fe5b9060005260206000209060020201600001600286815481101515610a5357fe5b9060005260206000209060020201600101828054600181600116156101000203166002900480601f016020809104026020016040519081016040528092919081815260200182805460018160011615610100020316600290048015610af95780601f10610ace57610100808354040283529160200191610af9565b820191906000526020600020905b815481529060010190602001808311610adc57829003601f168201915b50505050509250818054600181600116156101000203166002900480601f016020809104026020016040519081016040528092919081815260200182805460018160011615610100020316600290048015610b955780601f10610b6a57610100808354040283529160200191610b95565b820191906000526020600020905b815481529060010190602001808311610b7857829003601f168201915b50505050509150808054600181600116156101000203166002900480601f016020809104026020016040519081016040528092919081815260200182805460018160011615610100020316600290048015610c315780601f10610c0657610100808354040283529160200191610c31565b820191906000526020600020905b815481529060010190602001808311610c1457829003601f168201915b50505050509050925092509250610c44565b5b9193909250565b6000610c55610efa565b600160003373ffffffffffffffffffffffffffffffffffffffff1673ffffffffffffffffffffffffffffffffffffffff16815260200190815260200160002060000160029054906101000a900460ff1615610e2457600160008873ffffffffffffffffffffffffffffffffffffffff1673ffffffffffffffffffffffffffffffffffffffff168152602001908152602001600020606060405190810160405290816000820160009054906101000a900460ff161515151581526020016000820160019054906101000a900460ff161515151581526020016000820160029054906101000a900460ff161515151581525050905082816040019015159081151581525050848160000190151590811515815250508381602001901515908115158152505080600160008973ffffffffffffffffffffffffffffffffffffffff1673ffffffffffffffffffffffffffffffffffffffff16815260200190815260200160002060008201518160000160006101000a81548160ff02191690831515021790555060208201518160000160016101000a81548160ff02191690831515021790555060408201518160000160026101000a81548160ff02191690831515021790555090505060019150610e29565b600091505b509695505050505050565b602060405190810160405280600081525090565b815481835581811511610e7557600202816002028360005260206000209182019101610e749190610f22565b5b505050565b828054600181600116156101000203166002900490600052602060002090601f016020900481019282601f10610ebb57805160ff1916838001178555610ee9565b82800160010185558215610ee9579182015b82811115610ee8578251825591602001919060010190610ecd565b5b509050610ef69190610f61565b5090565b6060604051908101604052806000151581526020016000151581526020016000151581525090565b610f5e91905b80821115610f5a5760008082016000610f419190610f86565b600182016000610f519190610f86565b50600201610f28565b5090565b90565b610f8391905b80821115610f7f576000816000905550600101610f67565b5090565b90565b50805460018160011615610100020316600290046000825580601f10610fac5750610fcb565b601f016020900490600052602060002090810190610fca9190610f61565b5b505600a165627a7a72305820baf65872633ef553ff09afc306a555f12bd8290f6de5faefc8551cb877d2b1590029",
  "source": "pragma solidity ^0.4.0;\n\nimport './Registrar.sol';\n\ncontract LearnerLearningProvider {\n\n    struct LearningRecord {\n        string queryResultHash;\n        string queryHash;\n    }\n    \n    struct Permissions {\n        bool canRead;\n        bool canWrite;\n        bool canGrant;\n    }\n    \n    address owner;\n    mapping(address => Permissions) public permissions;\n    LearningRecord[] learningRecords;\n    string recordType;\n    address provider;\n\n    function getOwner() public view returns (address) {\n        return owner;\n    }\n\n    function getRecordType() public view returns (string) {\n        return recordType;\n    }\n\n    function getProvider() public view returns (address) {\n        return provider;\n    }\n    \n    function LearnerLearningProvider(address _owner, address _learner, \n    string _queryString, string _queryResult, string _recordType) public {\n        owner = _owner;\n        recordType = _recordType;\n        learningRecords.push(LearningRecord(_queryResult, _queryString));\n        Permissions memory perm = permissions[_learner];\n        perm.canGrant = true;\n        perm.canRead = true;\n        perm.canWrite = true;\n        permissions[_learner] = perm;\n        Permissions memory permp = permissions[msg.sender];\n        permp.canGrant = true;\n        permp.canRead = true;\n        permp.canWrite = true;\n        permissions[msg.sender] = permp;\n    }\n\n    function insertLearningRecord(string queryString, string queryResultHash) public payable {\n        if (permissions[msg.sender].canWrite) {\n            learningRecords.push(LearningRecord(queryResultHash, queryString));\n        }\n    }\n    \n\n    function grantAccess(address registrarAddress, address participantAddress,address indexContract, bool read, bool write, bool admin) public payable returns (bool) {\n        if (permissions[msg.sender].canGrant ) {\n            Permissions memory perm = permissions[participantAddress];\n            perm.canGrant = admin;\n            perm.canRead = read;\n            perm.canWrite = write;\n            permissions[participantAddress] = perm;\n            return true;\n        }else {\n            return false;\n        }\n    }\n\n    function getLearningRecordsCount() public view returns (uint) {\n        if (permissions[msg.sender].canRead) {\n            return learningRecords.length;\n        }else {\n            return 0;\n        }\n    }\n\n    function getLearningRecord(uint index) public view returns (string, string, string) {\n        if (permissions[msg.sender].canRead) {\n            return (recordType, learningRecords[index].queryResultHash,learningRecords[index].queryHash);\n        }\n    }\n\n    function canGrant(address participantAddress) public constant returns (bool) {\n        return permissions[participantAddress].canGrant;\n    }\n\n    function canWrite(address participantAddress) public constant returns (bool) {\n        return permissions[participantAddress].canWrite;\n    }\n\n    function canRead(address participantAddress) public constant returns (bool) {\n        return permissions[participantAddress].canRead;\n    }\n}\n",
  "sourcePath": "/Users/admin/truffle-codes/contracts/LearnerLearningProvider.sol",
  "compiler": {
    "name": "solc",
    "version": "0.4.18+commit.9cf6e910.Emscripten.clang"
  },
  "schemaVersion": "1.0.1",
  "updatedAt": "2017-12-10T08:46:24.075Z"
}