{
  "contractName": "ProviderIndex",
  "abi": [
    {
      "constant": false,
      "inputs": [
        {
          "name": "learner",
          "type": "address"
        }
      ],
      "name": "insertLearner",
      "outputs": [],
      "payable": true,
      "stateMutability": "payable",
      "type": "function"
    },
    {
      "constant": true,
      "inputs": [
        {
          "name": "learners",
          "type": "address[]"
        },
        {
          "name": "start",
          "type": "uint256"
        },
        {
          "name": "end",
          "type": "uint256"
        },
        {
          "name": "recordType",
          "type": "bytes"
        }
      ],
      "name": "getLearningRecordsByRecordTypeAndLearners",
      "outputs": [
        {
          "name": "",
          "type": "address[]"
        }
      ],
      "payable": false,
      "stateMutability": "view",
      "type": "function"
    },
    {
      "constant": false,
      "inputs": [
        {
          "name": "learner",
          "type": "address"
        },
        {
          "name": "llpcContract",
          "type": "address"
        },
        {
          "name": "recordType",
          "type": "bytes"
        }
      ],
      "name": "insertLearningRecord",
      "outputs": [],
      "payable": true,
      "stateMutability": "payable",
      "type": "function"
    },
    {
      "constant": true,
      "inputs": [
        {
          "name": "learner",
          "type": "address"
        },
        {
          "name": "start",
          "type": "uint256"
        },
        {
          "name": "end",
          "type": "uint256"
        }
      ],
      "name": "getLearningRecordsByLearner",
      "outputs": [
        {
          "name": "",
          "type": "address[]"
        }
      ],
      "payable": false,
      "stateMutability": "view",
      "type": "function"
    },
    {
      "constant": true,
      "inputs": [
        {
          "name": "",
          "type": "address"
        }
      ],
      "name": "duplicateLearnerTracker",
      "outputs": [
        {
          "name": "",
          "type": "bool"
        }
      ],
      "payable": false,
      "stateMutability": "view",
      "type": "function"
    },
    {
      "constant": true,
      "inputs": [],
      "name": "getOwner",
      "outputs": [
        {
          "name": "_owner",
          "type": "address"
        }
      ],
      "payable": false,
      "stateMutability": "view",
      "type": "function"
    },
    {
      "constant": true,
      "inputs": [],
      "name": "owner",
      "outputs": [
        {
          "name": "",
          "type": "address"
        }
      ],
      "payable": false,
      "stateMutability": "view",
      "type": "function"
    },
    {
      "constant": true,
      "inputs": [
        {
          "name": "learner",
          "type": "address"
        },
        {
          "name": "start",
          "type": "uint256"
        },
        {
          "name": "end",
          "type": "uint256"
        },
        {
          "name": "recordType",
          "type": "bytes"
        }
      ],
      "name": "getLearningRecordsByRecordType",
      "outputs": [
        {
          "name": "",
          "type": "address[]"
        }
      ],
      "payable": false,
      "stateMutability": "view",
      "type": "function"
    },
    {
      "constant": true,
      "inputs": [],
      "name": "getLearners",
      "outputs": [
        {
          "name": "",
          "type": "address[]"
        }
      ],
      "payable": false,
      "stateMutability": "view",
      "type": "function"
    },
    {
      "constant": true,
      "inputs": [
        {
          "name": "",
          "type": "address"
        }
      ],
      "name": "duplicateTracker",
      "outputs": [
        {
          "name": "",
          "type": "bool"
        }
      ],
      "payable": false,
      "stateMutability": "view",
      "type": "function"
    },
    {
      "inputs": [
        {
          "name": "_owner",
          "type": "address"
        }
      ],
      "payable": false,
      "stateMutability": "nonpayable",
      "type": "constructor"
    }
  ],
  "bytecode": "0x6060604052341561000f57600080fd5b6040516020806113db8339810160405280805190602001909190505080600460006101000a81548173ffffffffffffffffffffffffffffffffffffffff021916908373ffffffffffffffffffffffffffffffffffffffff1602179055505061135f8061007c6000396000f3006060604052600436106100a4576000357c0100000000000000000000000000000000000000000000000000000000900463ffffffff1680632c773a51146100a95780633c1c7eb7146100d757806357cf4860146101db57806363b3db421461026b57806383c6c4831461030b578063893d20e81461035c5780638da5cb5b146103b15780639767d70d1461040657806399870471146104e9578063b4b1241914610553575b600080fd5b6100d5600480803573ffffffffffffffffffffffffffffffffffffffff169060200190919050506105a4565b005b34156100e257600080fd5b61018460048080359060200190820180359060200190808060200260200160405190810160405280939291908181526020018383602002808284378201915050505050509190803590602001909190803590602001909190803590602001908201803590602001908080601f01602080910402602001604051908101604052809392919081815260200183838082843782019150505050505091905050610664565b6040518080602001828103825283818151815260200191508051906020019060200280838360005b838110156101c75780820151818401526020810190506101ac565b505050509050019250505060405180910390f35b610269600480803573ffffffffffffffffffffffffffffffffffffffff1690602001909190803573ffffffffffffffffffffffffffffffffffffffff1690602001909190803590602001908201803590602001908080601f0160208091040260200160405190810160405280939291908181526020018383808284378201915050505050509190505061096d565b005b341561027657600080fd5b6102b4600480803573ffffffffffffffffffffffffffffffffffffffff16906020019091908035906020019091908035906020019091905050610bf9565b6040518080602001828103825283818151815260200191508051906020019060200280838360005b838110156102f75780820151818401526020810190506102dc565b505050509050019250505060405180910390f35b341561031657600080fd5b610342600480803573ffffffffffffffffffffffffffffffffffffffff16906020019091905050610d69565b604051808215151515815260200191505060405180910390f35b341561036757600080fd5b61036f610d89565b604051808273ffffffffffffffffffffffffffffffffffffffff1673ffffffffffffffffffffffffffffffffffffffff16815260200191505060405180910390f35b34156103bc57600080fd5b6103c4610db3565b604051808273ffffffffffffffffffffffffffffffffffffffff1673ffffffffffffffffffffffffffffffffffffffff16815260200191505060405180910390f35b341561041157600080fd5b610492600480803573ffffffffffffffffffffffffffffffffffffffff1690602001909190803590602001909190803590602001909190803590602001908201803590602001908080601f01602080910402602001604051908101604052809392919081815260200183838082843782019150505050505091905050610dd9565b6040518080602001828103825283818151815260200191508051906020019060200280838360005b838110156104d55780820151818401526020810190506104ba565b505050509050019250505060405180910390f35b34156104f457600080fd5b6104fc611080565b6040518080602001828103825283818151815260200191508051906020019060200280838360005b8381101561053f578082015181840152602081019050610524565b505050509050019250505060405180910390f35b341561055e57600080fd5b61058a600480803573ffffffffffffffffffffffffffffffffffffffff16906020019091905050611114565b604051808215151515815260200191505060405180910390f35b60001515600260008373ffffffffffffffffffffffffffffffffffffffff1673ffffffffffffffffffffffffffffffffffffffff16815260200190815260200160002060009054906101000a900460ff161515141561066157600380548060010182816106119190611134565b9160005260206000209001600083909190916101000a81548173ffffffffffffffffffffffffffffffffffffffff021916908373ffffffffffffffffffffffffffffffffffffffff160217905550505b50565b61066c611160565b610674611160565b6000808686036040518059106106875750595b908082528060200260200182016040525092508691505b87518211151561095f578690505b60008089848151811015156106bd57fe5b9060200190602002015173ffffffffffffffffffffffffffffffffffffffff1673ffffffffffffffffffffffffffffffffffffffff16815260200190815260200160002080549050811080156107135750858111155b1561095257846040518082805190602001908083835b60208310151561074e5780518252602082019150602081019050602083039250610729565b6001836020036101000a0380198251168184511680821785525050505050509050019150506040518091039020600019166000808a8581518110151561079057fe5b9060200190602002015173ffffffffffffffffffffffffffffffffffffffff1673ffffffffffffffffffffffffffffffffffffffff168152602001908152602001600020828154811015156107e157fe5b9060005260206000209060020201600101604051808280546001816001161561010002031660029004801561084d5780601f1061082b57610100808354040283529182019161084d565b820191906000526020600020905b815481529060010190602001808311610839575b5050915050604051809103902060001916141561094557600080898481518110151561087557fe5b9060200190602002015173ffffffffffffffffffffffffffffffffffffffff1673ffffffffffffffffffffffffffffffffffffffff168152602001908152602001600020818154811015156108c657fe5b906000526020600020906002020160000160009054906101000a900473ffffffffffffffffffffffffffffffffffffffff168382890381518110151561090857fe5b9060200190602002019073ffffffffffffffffffffffffffffffffffffffff16908173ffffffffffffffffffffffffffffffffffffffff16815250505b80806001019150506106ac565b818060010192505061069e565b829350505050949350505050565b6000610977611174565b83915060001515600160008673ffffffffffffffffffffffffffffffffffffffff1673ffffffffffffffffffffffffffffffffffffffff16815260200190815260200160002060009054906101000a900460ff161515148015610a9b5750600115158273ffffffffffffffffffffffffffffffffffffffff16633239b71b336000604051602001526040518263ffffffff167c0100000000000000000000000000000000000000000000000000000000028152600401808273ffffffffffffffffffffffffffffffffffffffff1673ffffffffffffffffffffffffffffffffffffffff168152602001915050602060405180830381600087803b1515610a7c57600080fd5b6102c65a03f11515610a8d57600080fd5b505050604051805190501515145b15610bf25760408051908101604052808573ffffffffffffffffffffffffffffffffffffffff1681526020018481525090506000808673ffffffffffffffffffffffffffffffffffffffff1673ffffffffffffffffffffffffffffffffffffffff1681526020019081526020016000208054806001018281610b1d91906111aa565b9160005260206000209060020201600083909190915060008201518160000160006101000a81548173ffffffffffffffffffffffffffffffffffffffff021916908373ffffffffffffffffffffffffffffffffffffffff1602179055506020820151816001019080519060200190610b969291906111dc565b5050505060018060008673ffffffffffffffffffffffffffffffffffffffff1673ffffffffffffffffffffffffffffffffffffffff16815260200190815260200160002060006101000a81548160ff0219169083151502179055505b5050505050565b610c01611160565b610c09611160565b6000848403604051805910610c1b5750595b908082528060200260200182016040525091508490505b6000808773ffffffffffffffffffffffffffffffffffffffff1673ffffffffffffffffffffffffffffffffffffffff1681526020019081526020016000208054905081108015610c825750838111155b15610d5d576000808773ffffffffffffffffffffffffffffffffffffffff1673ffffffffffffffffffffffffffffffffffffffff16815260200190815260200160002081815481101515610cd257fe5b906000526020600020906002020160000160009054906101000a900473ffffffffffffffffffffffffffffffffffffffff1682828703815181101515610d1457fe5b9060200190602002019073ffffffffffffffffffffffffffffffffffffffff16908173ffffffffffffffffffffffffffffffffffffffff16815250508080600101915050610c32565b81925050509392505050565b60026020528060005260406000206000915054906101000a900460ff1681565b6000600460009054906101000a900473ffffffffffffffffffffffffffffffffffffffff16905090565b600460009054906101000a900473ffffffffffffffffffffffffffffffffffffffff1681565b610de1611160565b610de9611160565b6000858503604051805910610dfb5750595b908082528060200260200182016040525091508590505b6000808873ffffffffffffffffffffffffffffffffffffffff1673ffffffffffffffffffffffffffffffffffffffff1681526020019081526020016000208054905081108015610e625750848111155b1561107357836040518082805190602001908083835b602083101515610e9d5780518252602082019150602081019050602083039250610e78565b6001836020036101000a0380198251168184511680821785525050505050509050019150506040518091039020600019166000808973ffffffffffffffffffffffffffffffffffffffff1673ffffffffffffffffffffffffffffffffffffffff16815260200190815260200160002082815481101515610f1957fe5b90600052602060002090600202016001016040518082805460018160011615610100020316600290048015610f855780601f10610f63576101008083540402835291820191610f85565b820191906000526020600020905b815481529060010190602001808311610f71575b50509150506040518091039020600019161415611066576000808873ffffffffffffffffffffffffffffffffffffffff1673ffffffffffffffffffffffffffffffffffffffff16815260200190815260200160002081815481101515610fe757fe5b906000526020600020906002020160000160009054906101000a900473ffffffffffffffffffffffffffffffffffffffff168282880381518110151561102957fe5b9060200190602002019073ffffffffffffffffffffffffffffffffffffffff16908173ffffffffffffffffffffffffffffffffffffffff16815250505b8080600101915050610e12565b8192505050949350505050565b611088611160565b600380548060200260200160405190810160405280929190818152602001828054801561110a57602002820191906000526020600020905b8160009054906101000a900473ffffffffffffffffffffffffffffffffffffffff1673ffffffffffffffffffffffffffffffffffffffff16815260200190600101908083116110c0575b5050505050905090565b60016020528060005260406000206000915054906101000a900460ff1681565b81548183558181151161115b5781836000526020600020918201910161115a919061125c565b5b505050565b602060405190810160405280600081525090565b6040805190810160405280600073ffffffffffffffffffffffffffffffffffffffff1681526020016111a4611281565b81525090565b8154818355818115116111d7576002028160020283600052602060002091820191016111d69190611295565b5b505050565b828054600181600116156101000203166002900490600052602060002090601f016020900481019282601f1061121d57805160ff191683800117855561124b565b8280016001018555821561124b579182015b8281111561124a57825182559160200191906001019061122f565b5b509050611258919061125c565b5090565b61127e91905b8082111561127a576000816000905550600101611262565b5090565b90565b602060405190810160405280600081525090565b6112e891905b808211156112e457600080820160006101000a81549073ffffffffffffffffffffffffffffffffffffffff02191690556001820160006112db91906112eb565b5060020161129b565b5090565b90565b50805460018160011615610100020316600290046000825580601f106113115750611330565b601f01602090049060005260206000209081019061132f919061125c565b5b505600a165627a7a72305820a291f5a2facbee2af20a18610efa911dc72c78da499d81bbeb266539dbc93ca30029",
  "source": "pragma solidity ^0.4.11;\nimport './LearnerLearningProvider.sol';\n\ncontract ProviderIndex {\n    struct LearningRecordDescriptor {\n        address llpcAddress;\n        bytes recordType;\n    }\n\n    mapping(address => LearningRecordDescriptor[]) private learners2LearningRecords;\n    mapping(address => bool) public duplicateTracker;\n    mapping(address => bool) public duplicateLearnerTracker;\n    address[] private myLearners;\n    address public owner;\n\n    function ProviderIndex(address _owner) public {\n        owner = _owner;\n    }\n\n    function insertLearningRecord(address learner, address llpcContract, bytes recordType) public payable {\n        LearnerLearningProvider llpc = LearnerLearningProvider(llpcContract);\n        if ( duplicateTracker[llpcContract] == false && llpc.canWrite(msg.sender) == true) {\n            LearningRecordDescriptor memory ld = LearningRecordDescriptor(llpcContract, recordType);\n            learners2LearningRecords[learner].push(ld);\n            duplicateTracker[llpcContract] = true;\n        }\n    }\n\n    function insertLearner(address learner) public payable {\n            if (duplicateLearnerTracker[learner] == false) {\n                myLearners.push(learner);\n                //duplicateLearnerTracker[learner] = true;\n            }\n    }\n\n    function getOwner() public view returns (address _owner) {\n        return owner;\n    }\n\n    function getLearners() public view returns (address[]) {\n        return myLearners;\n    }\n\n    function getLearningRecordsByLearner(address learner, uint start, uint end) public view returns (address[]) {\n        address[] memory res = new address[](end-start);\n        for (var index = start; index<learners2LearningRecords[learner].length && index <= end; index++) {\n            res[(start-index)] = learners2LearningRecords[learner][index].llpcAddress;\n        }\n        return res;\n    }\n\n    function getLearningRecordsByRecordType(address learner, uint start, uint end, bytes recordType) public view returns (address[]) {\n        address[] memory res = new address[](end-start);\n        for (var index = start; index<learners2LearningRecords[learner].length && index<=end; index++) {\n            if (keccak256(learners2LearningRecords[learner][index].recordType) == keccak256(recordType)) {\n                res[(start-index)] = learners2LearningRecords[learner][index].llpcAddress;\n            }\n        }\n        return res;\n    }\n\n    function getLearningRecordsByRecordTypeAndLearners(address[] learners, uint start, uint end, bytes recordType) public view returns (address[]) {\n        address[] memory res = new address[](end-start);\n        for (var index2 = start; index2 <= learners.length; index2++) {\n            for (var index = start; index < learners2LearningRecords[learners[index2]].length && index <= end; index++) {\n            if (keccak256(learners2LearningRecords[learners[index2]][index].recordType) == keccak256(recordType)) {\n                res[(start-index)] = learners2LearningRecords[learners[index2]][index].llpcAddress;\n            }\n        }\n        }\n        return res;\n    }\n    \n}\n",
  "sourcePath": "/Users/admin/truffle-codes/contracts/ProviderIndex.sol",
  "compiler": {
    "name": "solc",
    "version": "0.4.18+commit.9cf6e910.Emscripten.clang"
  },
  "schemaVersion": "1.0.1",
  "updatedAt": "2018-01-10T03:09:15.613Z"
}