{
  "contractName": "ProviderIndex",
  "abi": [
    {
      "constant": false,
      "inputs": [
        {
          "name": "learner",
          "type": "address"
        }
      ],
      "name": "insertLearner",
      "outputs": [],
      "payable": true,
      "stateMutability": "payable",
      "type": "function"
    },
    {
      "constant": true,
      "inputs": [
        {
          "name": "learners",
          "type": "address[]"
        },
        {
          "name": "start",
          "type": "uint256"
        },
        {
          "name": "end",
          "type": "uint256"
        },
        {
          "name": "recordType",
          "type": "bytes"
        }
      ],
      "name": "getLearningRecordsByRecordTypeAndLearners",
      "outputs": [
        {
          "name": "",
          "type": "address[]"
        }
      ],
      "payable": false,
      "stateMutability": "view",
      "type": "function"
    },
    {
      "constant": false,
      "inputs": [
        {
          "name": "learner",
          "type": "address"
        },
        {
          "name": "llpcContract",
          "type": "address"
        },
        {
          "name": "recordType",
          "type": "bytes"
        }
      ],
      "name": "insertLearningRecord",
      "outputs": [],
      "payable": true,
      "stateMutability": "payable",
      "type": "function"
    },
    {
      "constant": true,
      "inputs": [
        {
          "name": "learner",
          "type": "address"
        },
        {
          "name": "start",
          "type": "uint256"
        },
        {
          "name": "end",
          "type": "uint256"
        }
      ],
      "name": "getLearningRecordsByLearner",
      "outputs": [
        {
          "name": "",
          "type": "address[]"
        }
      ],
      "payable": false,
      "stateMutability": "view",
      "type": "function"
    },
    {
      "constant": true,
      "inputs": [
        {
          "name": "",
          "type": "address"
        }
      ],
      "name": "duplicateLearnerTracker",
      "outputs": [
        {
          "name": "",
          "type": "bool"
        }
      ],
      "payable": false,
      "stateMutability": "view",
      "type": "function"
    },
    {
      "constant": true,
      "inputs": [],
      "name": "getOwner",
      "outputs": [
        {
          "name": "_owner",
          "type": "address"
        }
      ],
      "payable": false,
      "stateMutability": "view",
      "type": "function"
    },
    {
      "constant": true,
      "inputs": [],
      "name": "owner",
      "outputs": [
        {
          "name": "",
          "type": "address"
        }
      ],
      "payable": false,
      "stateMutability": "view",
      "type": "function"
    },
    {
      "constant": true,
      "inputs": [
        {
          "name": "learner",
          "type": "address"
        },
        {
          "name": "start",
          "type": "uint256"
        },
        {
          "name": "end",
          "type": "uint256"
        },
        {
          "name": "recordType",
          "type": "bytes"
        }
      ],
      "name": "getLearningRecordsByRecordType",
      "outputs": [
        {
          "name": "",
          "type": "address[]"
        }
      ],
      "payable": false,
      "stateMutability": "view",
      "type": "function"
    },
    {
      "constant": true,
      "inputs": [],
      "name": "getLearners",
      "outputs": [
        {
          "name": "",
          "type": "address[]"
        }
      ],
      "payable": false,
      "stateMutability": "view",
      "type": "function"
    },
    {
      "constant": true,
      "inputs": [
        {
          "name": "",
          "type": "address"
        }
      ],
      "name": "duplicateTracker",
      "outputs": [
        {
          "name": "",
          "type": "bool"
        }
      ],
      "payable": false,
      "stateMutability": "view",
      "type": "function"
    },
    {
      "inputs": [
        {
          "name": "_owner",
          "type": "address"
        }
      ],
      "payable": false,
      "stateMutability": "nonpayable",
      "type": "constructor"
    }
  ],
  "bytecode": "0x6060604052341561000f57600080fd5b6040516020806113a48339810160405280805190602001909190505080600460006101000a81548173ffffffffffffffffffffffffffffffffffffffff021916908373ffffffffffffffffffffffffffffffffffffffff160217905550506113288061007c6000396000f3006060604052600436106100a4576000357c0100000000000000000000000000000000000000000000000000000000900463ffffffff1680632c773a51146100a95780633c1c7eb7146100d757806357cf4860146101db57806363b3db421461026b57806383c6c4831461030b578063893d20e81461035c5780638da5cb5b146103b15780639767d70d1461040657806399870471146104e9578063b4b1241914610553575b600080fd5b6100d5600480803573ffffffffffffffffffffffffffffffffffffffff169060200190919050506105a4565b005b34156100e257600080fd5b61018460048080359060200190820180359060200190808060200260200160405190810160405280939291908181526020018383602002808284378201915050505050509190803590602001909190803590602001909190803590602001908201803590602001908080601f01602080910402602001604051908101604052809392919081815260200183838082843782019150505050505091905050610659565b6040518080602001828103825283818151815260200191508051906020019060200280838360005b838110156101c75780820151818401526020810190506101ac565b505050509050019250505060405180910390f35b610269600480803573ffffffffffffffffffffffffffffffffffffffff1690602001909190803573ffffffffffffffffffffffffffffffffffffffff1690602001909190803590602001908201803590602001908080601f01602080910402602001604051908101604052809392919081815260200183838082843782019150505050505091905050610962565b005b341561027657600080fd5b6102b4600480803573ffffffffffffffffffffffffffffffffffffffff16906020019091908035906020019091908035906020019091905050610bee565b6040518080602001828103825283818151815260200191508051906020019060200280838360005b838110156102f75780820151818401526020810190506102dc565b505050509050019250505060405180910390f35b341561031657600080fd5b610342600480803573ffffffffffffffffffffffffffffffffffffffff16906020019091905050610d5e565b604051808215151515815260200191505060405180910390f35b341561036757600080fd5b61036f610d7e565b604051808273ffffffffffffffffffffffffffffffffffffffff1673ffffffffffffffffffffffffffffffffffffffff16815260200191505060405180910390f35b34156103bc57600080fd5b6103c4610da8565b604051808273ffffffffffffffffffffffffffffffffffffffff1673ffffffffffffffffffffffffffffffffffffffff16815260200191505060405180910390f35b341561041157600080fd5b610492600480803573ffffffffffffffffffffffffffffffffffffffff1690602001909190803590602001909190803590602001909190803590602001908201803590602001908080601f01602080910402602001604051908101604052809392919081815260200183838082843782019150505050505091905050610dce565b6040518080602001828103825283818151815260200191508051906020019060200280838360005b838110156104d55780820151818401526020810190506104ba565b505050509050019250505060405180910390f35b34156104f457600080fd5b6104fc611075565b6040518080602001828103825283818151815260200191508051906020019060200280838360005b8381101561053f578082015181840152602081019050610524565b505050509050019250505060405180910390f35b341561055e57600080fd5b61058a600480803573ffffffffffffffffffffffffffffffffffffffff16906020019091905050611109565b604051808215151515815260200191505060405180910390f35b60001515600260008373ffffffffffffffffffffffffffffffffffffffff1673ffffffffffffffffffffffffffffffffffffffff16815260200190815260200160002060009054906101000a900460ff1615151415610656576001600260008373ffffffffffffffffffffffffffffffffffffffff1673ffffffffffffffffffffffffffffffffffffffff16815260200190815260200160002060006101000a81548160ff0219169083151502179055505b50565b610661611129565b610669611129565b60008086860360405180591061067c5750595b908082528060200260200182016040525092508691505b875182111515610954578690505b60008089848151811015156106b257fe5b9060200190602002015173ffffffffffffffffffffffffffffffffffffffff1673ffffffffffffffffffffffffffffffffffffffff16815260200190815260200160002080549050811080156107085750858111155b1561094757846040518082805190602001908083835b602083101515610743578051825260208201915060208101905060208303925061071e565b6001836020036101000a0380198251168184511680821785525050505050509050019150506040518091039020600019166000808a8581518110151561078557fe5b9060200190602002015173ffffffffffffffffffffffffffffffffffffffff1673ffffffffffffffffffffffffffffffffffffffff168152602001908152602001600020828154811015156107d657fe5b906000526020600020906002020160010160405180828054600181600116156101000203166002900480156108425780601f10610820576101008083540402835291820191610842565b820191906000526020600020905b81548152906001019060200180831161082e575b5050915050604051809103902060001916141561093a57600080898481518110151561086a57fe5b9060200190602002015173ffffffffffffffffffffffffffffffffffffffff1673ffffffffffffffffffffffffffffffffffffffff168152602001908152602001600020818154811015156108bb57fe5b906000526020600020906002020160000160009054906101000a900473ffffffffffffffffffffffffffffffffffffffff16838289038151811015156108fd57fe5b9060200190602002019073ffffffffffffffffffffffffffffffffffffffff16908173ffffffffffffffffffffffffffffffffffffffff16815250505b80806001019150506106a1565b8180600101925050610693565b829350505050949350505050565b600061096c61113d565b83915060001515600160008673ffffffffffffffffffffffffffffffffffffffff1673ffffffffffffffffffffffffffffffffffffffff16815260200190815260200160002060009054906101000a900460ff161515148015610a905750600115158273ffffffffffffffffffffffffffffffffffffffff16633239b71b336000604051602001526040518263ffffffff167c0100000000000000000000000000000000000000000000000000000000028152600401808273ffffffffffffffffffffffffffffffffffffffff1673ffffffffffffffffffffffffffffffffffffffff168152602001915050602060405180830381600087803b1515610a7157600080fd5b6102c65a03f11515610a8257600080fd5b505050604051805190501515145b15610be75760408051908101604052808573ffffffffffffffffffffffffffffffffffffffff1681526020018481525090506000808673ffffffffffffffffffffffffffffffffffffffff1673ffffffffffffffffffffffffffffffffffffffff1681526020019081526020016000208054806001018281610b129190611173565b9160005260206000209060020201600083909190915060008201518160000160006101000a81548173ffffffffffffffffffffffffffffffffffffffff021916908373ffffffffffffffffffffffffffffffffffffffff1602179055506020820151816001019080519060200190610b8b9291906111a5565b5050505060018060008673ffffffffffffffffffffffffffffffffffffffff1673ffffffffffffffffffffffffffffffffffffffff16815260200190815260200160002060006101000a81548160ff0219169083151502179055505b5050505050565b610bf6611129565b610bfe611129565b6000848403604051805910610c105750595b908082528060200260200182016040525091508490505b6000808773ffffffffffffffffffffffffffffffffffffffff1673ffffffffffffffffffffffffffffffffffffffff1681526020019081526020016000208054905081108015610c775750838111155b15610d52576000808773ffffffffffffffffffffffffffffffffffffffff1673ffffffffffffffffffffffffffffffffffffffff16815260200190815260200160002081815481101515610cc757fe5b906000526020600020906002020160000160009054906101000a900473ffffffffffffffffffffffffffffffffffffffff1682828703815181101515610d0957fe5b9060200190602002019073ffffffffffffffffffffffffffffffffffffffff16908173ffffffffffffffffffffffffffffffffffffffff16815250508080600101915050610c27565b81925050509392505050565b60026020528060005260406000206000915054906101000a900460ff1681565b6000600460009054906101000a900473ffffffffffffffffffffffffffffffffffffffff16905090565b600460009054906101000a900473ffffffffffffffffffffffffffffffffffffffff1681565b610dd6611129565b610dde611129565b6000858503604051805910610df05750595b908082528060200260200182016040525091508590505b6000808873ffffffffffffffffffffffffffffffffffffffff1673ffffffffffffffffffffffffffffffffffffffff1681526020019081526020016000208054905081108015610e575750848111155b1561106857836040518082805190602001908083835b602083101515610e925780518252602082019150602081019050602083039250610e6d565b6001836020036101000a0380198251168184511680821785525050505050509050019150506040518091039020600019166000808973ffffffffffffffffffffffffffffffffffffffff1673ffffffffffffffffffffffffffffffffffffffff16815260200190815260200160002082815481101515610f0e57fe5b90600052602060002090600202016001016040518082805460018160011615610100020316600290048015610f7a5780601f10610f58576101008083540402835291820191610f7a565b820191906000526020600020905b815481529060010190602001808311610f66575b5050915050604051809103902060001916141561105b576000808873ffffffffffffffffffffffffffffffffffffffff1673ffffffffffffffffffffffffffffffffffffffff16815260200190815260200160002081815481101515610fdc57fe5b906000526020600020906002020160000160009054906101000a900473ffffffffffffffffffffffffffffffffffffffff168282880381518110151561101e57fe5b9060200190602002019073ffffffffffffffffffffffffffffffffffffffff16908173ffffffffffffffffffffffffffffffffffffffff16815250505b8080600101915050610e07565b8192505050949350505050565b61107d611129565b60038054806020026020016040519081016040528092919081815260200182805480156110ff57602002820191906000526020600020905b8160009054906101000a900473ffffffffffffffffffffffffffffffffffffffff1673ffffffffffffffffffffffffffffffffffffffff16815260200190600101908083116110b5575b5050505050905090565b60016020528060005260406000206000915054906101000a900460ff1681565b602060405190810160405280600081525090565b6040805190810160405280600073ffffffffffffffffffffffffffffffffffffffff16815260200161116d611225565b81525090565b8154818355818115116111a05760020281600202836000526020600020918201910161119f9190611239565b5b505050565b828054600181600116156101000203166002900490600052602060002090601f016020900481019282601f106111e657805160ff1916838001178555611214565b82800160010185558215611214579182015b828111156112135782518255916020019190600101906111f8565b5b509050611221919061128f565b5090565b602060405190810160405280600081525090565b61128c91905b8082111561128857600080820160006101000a81549073ffffffffffffffffffffffffffffffffffffffff021916905560018201600061127f91906112b4565b5060020161123f565b5090565b90565b6112b191905b808211156112ad576000816000905550600101611295565b5090565b90565b50805460018160011615610100020316600290046000825580601f106112da57506112f9565b601f0160209004906000526020600020908101906112f8919061128f565b5b505600a165627a7a72305820b43b0d80db854a5c21accb4dcb24d56903022e20427bb9eaf16cf8808bbca13c0029",
  "source": "pragma solidity ^0.4.11;\nimport './LearnerLearningProvider.sol';\n\ncontract ProviderIndex {\n    struct LearningRecordDescriptor {\n        address llpcAddress;\n        bytes recordType;\n    }\n\n    mapping(address => LearningRecordDescriptor[]) learners2LearningRecords;\n    mapping(address => bool) public duplicateTracker;\n    mapping(address => bool) public duplicateLearnerTracker;\n    address[] myLearners;\n    address public owner;\n\n    function ProviderIndex(address _owner) public {\n        owner = _owner;\n    }\n\n    function insertLearningRecord(address learner, address llpcContract, bytes recordType) public payable {\n        LearnerLearningProvider llpc = LearnerLearningProvider(llpcContract);\n        if ( duplicateTracker[llpcContract] == false && llpc.canWrite(msg.sender) == true) {\n            LearningRecordDescriptor memory ld = LearningRecordDescriptor(llpcContract, recordType);\n            learners2LearningRecords[learner].push(ld);\n            duplicateTracker[llpcContract] = true;\n        }\n    }\n\n    function insertLearner(address learner) public payable {\n            if (duplicateLearnerTracker[learner] == false) {\n                //myLearners.push(learner);\n                duplicateLearnerTracker[learner] = true;\n            }\n    }\n\n    function getOwner() public view returns (address _owner) {\n        return owner;\n    }\n\n    function getLearners() public view returns (address[]) {\n        return myLearners;\n    }\n\n    function getLearningRecordsByLearner(address learner, uint start, uint end) public view returns (address[]) {\n        address[] memory res = new address[](end-start);\n        for (var index = start; index<learners2LearningRecords[learner].length && index <= end; index++) {\n            res[(start-index)] = learners2LearningRecords[learner][index].llpcAddress;\n        }\n        return res;\n    }\n\n    function getLearningRecordsByRecordType(address learner, uint start, uint end, bytes recordType) public view returns (address[]) {\n        address[] memory res = new address[](end-start);\n        for (var index = start; index<learners2LearningRecords[learner].length && index<=end; index++) {\n            if (keccak256(learners2LearningRecords[learner][index].recordType) == keccak256(recordType)) {\n                res[(start-index)] = learners2LearningRecords[learner][index].llpcAddress;\n            }\n        }\n        return res;\n    }\n\n    function getLearningRecordsByRecordTypeAndLearners(address[] learners, uint start, uint end, bytes recordType) public view returns (address[]) {\n        address[] memory res = new address[](end-start);\n        for (var index2 = start; index2 <= learners.length; index2++) {\n            for (var index = start; index < learners2LearningRecords[learners[index2]].length && index <= end; index++) {\n            if (keccak256(learners2LearningRecords[learners[index2]][index].recordType) == keccak256(recordType)) {\n                res[(start-index)] = learners2LearningRecords[learners[index2]][index].llpcAddress;\n            }\n        }\n        }\n        return res;\n    }\n    \n}\n",
  "sourcePath": "/Users/admin/truffle-codes/contracts/ProviderIndex.sol",
  "compiler": {
    "name": "solc",
    "version": "0.4.18+commit.9cf6e910.Emscripten.clang"
  },
  "schemaVersion": "1.0.1",
  "updatedAt": "2018-01-10T03:39:18.128Z"
}