{
  "contractName": "ProviderIndex",
  "abi": [
    {
      "constant": false,
      "inputs": [
        {
          "name": "learner",
          "type": "address"
        },
        {
          "name": "llpcContract",
          "type": "address"
        },
        {
          "name": "recordType",
          "type": "string"
        }
      ],
      "name": "insertLearningRecord",
      "outputs": [],
      "payable": true,
      "stateMutability": "payable",
      "type": "function"
    },
    {
      "constant": false,
      "inputs": [
        {
          "name": "learner",
          "type": "address"
        }
      ],
      "name": "insertLearner",
      "outputs": [],
      "payable": true,
      "stateMutability": "payable",
      "type": "function"
    },
    {
      "constant": true,
      "inputs": [
        {
          "name": "learners",
          "type": "address[]"
        },
        {
          "name": "start",
          "type": "uint256"
        },
        {
          "name": "end",
          "type": "uint256"
        },
        {
          "name": "recordType",
          "type": "string"
        }
      ],
      "name": "getLearningRecordsByRecordTypeAndLearners",
      "outputs": [
        {
          "name": "",
          "type": "address[]"
        }
      ],
      "payable": false,
      "stateMutability": "view",
      "type": "function"
    },
    {
      "constant": true,
      "inputs": [
        {
          "name": "learner",
          "type": "address"
        },
        {
          "name": "start",
          "type": "uint256"
        },
        {
          "name": "end",
          "type": "uint256"
        }
      ],
      "name": "getLearningRecordsByLearner",
      "outputs": [
        {
          "name": "",
          "type": "address[]"
        }
      ],
      "payable": false,
      "stateMutability": "view",
      "type": "function"
    },
    {
      "constant": true,
      "inputs": [
        {
          "name": "",
          "type": "address"
        }
      ],
      "name": "duplicateLearnerTracker",
      "outputs": [
        {
          "name": "",
          "type": "bool"
        }
      ],
      "payable": false,
      "stateMutability": "view",
      "type": "function"
    },
    {
      "constant": true,
      "inputs": [],
      "name": "getOwner",
      "outputs": [
        {
          "name": "_owner",
          "type": "address"
        }
      ],
      "payable": false,
      "stateMutability": "view",
      "type": "function"
    },
    {
      "constant": true,
      "inputs": [],
      "name": "owner",
      "outputs": [
        {
          "name": "",
          "type": "address"
        }
      ],
      "payable": false,
      "stateMutability": "view",
      "type": "function"
    },
    {
      "constant": true,
      "inputs": [],
      "name": "getLearners",
      "outputs": [
        {
          "name": "",
          "type": "address[]"
        }
      ],
      "payable": false,
      "stateMutability": "view",
      "type": "function"
    },
    {
      "constant": true,
      "inputs": [
        {
          "name": "",
          "type": "address"
        }
      ],
      "name": "duplicateTracker",
      "outputs": [
        {
          "name": "",
          "type": "bool"
        }
      ],
      "payable": false,
      "stateMutability": "view",
      "type": "function"
    },
    {
      "constant": true,
      "inputs": [
        {
          "name": "learner",
          "type": "address"
        },
        {
          "name": "start",
          "type": "uint256"
        },
        {
          "name": "end",
          "type": "uint256"
        },
        {
          "name": "recordType",
          "type": "string"
        }
      ],
      "name": "getLearningRecordsByRecordType",
      "outputs": [
        {
          "name": "",
          "type": "address[]"
        }
      ],
      "payable": false,
      "stateMutability": "view",
      "type": "function"
    },
    {
      "inputs": [
        {
          "name": "_owner",
          "type": "address"
        }
      ],
      "payable": false,
      "stateMutability": "nonpayable",
      "type": "constructor"
    }
  ],
  "bytecode": "0x6060604052341561000f57600080fd5b6040516020806113ca8339810160405280805190602001909190505080600460006101000a81548173ffffffffffffffffffffffffffffffffffffffff021916908373ffffffffffffffffffffffffffffffffffffffff1602179055505061134e8061007c6000396000f3006060604052600436106100a4576000357c0100000000000000000000000000000000000000000000000000000000900463ffffffff1680631f495096146100a95780632c773a51146101395780635762bc101461016757806363b3db421461026b57806383c6c4831461030b578063893d20e81461035c5780638da5cb5b146103b15780639987047114610406578063b4b1241914610470578063f9ac0e59146104c1575b600080fd5b610137600480803573ffffffffffffffffffffffffffffffffffffffff1690602001909190803573ffffffffffffffffffffffffffffffffffffffff1690602001909190803590602001908201803590602001908080601f016020809104026020016040519081016040528093929190818152602001838380828437820191505050505050919050506105a4565b005b610165600480803573ffffffffffffffffffffffffffffffffffffffff16906020019091905050610817565b005b341561017257600080fd5b61021460048080359060200190820180359060200190808060200260200160405190810160405280939291908181526020018383602002808284378201915050505050509190803590602001909190803590602001909190803590602001908201803590602001908080601f01602080910402602001604051908101604052809392919081815260200183838082843782019150505050505091905050610929565b6040518080602001828103825283818151815260200191508051906020019060200280838360005b8381101561025757808201518184015260208101905061023c565b505050509050019250505060405180910390f35b341561027657600080fd5b6102b4600480803573ffffffffffffffffffffffffffffffffffffffff16906020019091908035906020019091908035906020019091905050610c32565b6040518080602001828103825283818151815260200191508051906020019060200280838360005b838110156102f75780820151818401526020810190506102dc565b505050509050019250505060405180910390f35b341561031657600080fd5b610342600480803573ffffffffffffffffffffffffffffffffffffffff16906020019091905050610da2565b604051808215151515815260200191505060405180910390f35b341561036757600080fd5b61036f610dc2565b604051808273ffffffffffffffffffffffffffffffffffffffff1673ffffffffffffffffffffffffffffffffffffffff16815260200191505060405180910390f35b34156103bc57600080fd5b6103c4610dec565b604051808273ffffffffffffffffffffffffffffffffffffffff1673ffffffffffffffffffffffffffffffffffffffff16815260200191505060405180910390f35b341561041157600080fd5b610419610e12565b6040518080602001828103825283818151815260200191508051906020019060200280838360005b8381101561045c578082015181840152602081019050610441565b505050509050019250505060405180910390f35b341561047b57600080fd5b6104a7600480803573ffffffffffffffffffffffffffffffffffffffff16906020019091905050610ea6565b604051808215151515815260200191505060405180910390f35b34156104cc57600080fd5b61054d600480803573ffffffffffffffffffffffffffffffffffffffff1690602001909190803590602001909190803590602001909190803590602001908201803590602001908080601f01602080910402602001604051908101604052809392919081815260200183838082843782019150505050505091905050610ec6565b6040518080602001828103825283818151815260200191508051906020019060200280838360005b83811015610590578082015181840152602081019050610575565b505050509050019250505060405180910390f35b6000829050600160008473ffffffffffffffffffffffffffffffffffffffff1673ffffffffffffffffffffffffffffffffffffffff16815260200190815260200160002060009054906101000a900460ff161580156106bd57508073ffffffffffffffffffffffffffffffffffffffff16633239b71b336000604051602001526040518263ffffffff167c0100000000000000000000000000000000000000000000000000000000028152600401808273ffffffffffffffffffffffffffffffffffffffff1673ffffffffffffffffffffffffffffffffffffffff168152602001915050602060405180830381600087803b15156106a157600080fd5b6102c65a03f115156106b257600080fd5b505050604051805190505b15610811576000808573ffffffffffffffffffffffffffffffffffffffff1673ffffffffffffffffffffffffffffffffffffffff1681526020019081526020016000208054806001018281610712919061116d565b9160005260206000209060020201600060408051908101604052808773ffffffffffffffffffffffffffffffffffffffff16815260200186815250909190915060008201518160000160006101000a81548173ffffffffffffffffffffffffffffffffffffffff021916908373ffffffffffffffffffffffffffffffffffffffff16021790555060208201518160010190805190602001906107b592919061119f565b5050505060018060008573ffffffffffffffffffffffffffffffffffffffff1673ffffffffffffffffffffffffffffffffffffffff16815260200190815260200160002060006101000a81548160ff0219169083151502179055505b50505050565b600260008273ffffffffffffffffffffffffffffffffffffffff1673ffffffffffffffffffffffffffffffffffffffff16815260200190815260200160002060009054906101000a900460ff161515610926576003805480600101828161087e919061121f565b9160005260206000209001600083909190916101000a81548173ffffffffffffffffffffffffffffffffffffffff021916908373ffffffffffffffffffffffffffffffffffffffff160217905550506001600260008373ffffffffffffffffffffffffffffffffffffffff1673ffffffffffffffffffffffffffffffffffffffff16815260200190815260200160002060006101000a81548160ff0219169083151502179055505b50565b61093161124b565b61093961124b565b60008086860360405180591061094c5750595b908082528060200260200182016040525092508691505b875182111515610c24578690505b600080898481518110151561098257fe5b9060200190602002015173ffffffffffffffffffffffffffffffffffffffff1673ffffffffffffffffffffffffffffffffffffffff16815260200190815260200160002080549050811080156109d85750858111155b15610c1757846040518082805190602001908083835b602083101515610a1357805182526020820191506020810190506020830392506109ee565b6001836020036101000a0380198251168184511680821785525050505050509050019150506040518091039020600019166000808a85815181101515610a5557fe5b9060200190602002015173ffffffffffffffffffffffffffffffffffffffff1673ffffffffffffffffffffffffffffffffffffffff16815260200190815260200160002082815481101515610aa657fe5b90600052602060002090600202016001016040518082805460018160011615610100020316600290048015610b125780601f10610af0576101008083540402835291820191610b12565b820191906000526020600020905b815481529060010190602001808311610afe575b50509150506040518091039020600019161415610c0a576000808984815181101515610b3a57fe5b9060200190602002015173ffffffffffffffffffffffffffffffffffffffff1673ffffffffffffffffffffffffffffffffffffffff16815260200190815260200160002081815481101515610b8b57fe5b906000526020600020906002020160000160009054906101000a900473ffffffffffffffffffffffffffffffffffffffff1683828903815181101515610bcd57fe5b9060200190602002019073ffffffffffffffffffffffffffffffffffffffff16908173ffffffffffffffffffffffffffffffffffffffff16815250505b8080600101915050610971565b8180600101925050610963565b829350505050949350505050565b610c3a61124b565b610c4261124b565b6000848403604051805910610c545750595b908082528060200260200182016040525091508490505b6000808773ffffffffffffffffffffffffffffffffffffffff1673ffffffffffffffffffffffffffffffffffffffff1681526020019081526020016000208054905081108015610cbb5750838111155b15610d96576000808773ffffffffffffffffffffffffffffffffffffffff1673ffffffffffffffffffffffffffffffffffffffff16815260200190815260200160002081815481101515610d0b57fe5b906000526020600020906002020160000160009054906101000a900473ffffffffffffffffffffffffffffffffffffffff1682828703815181101515610d4d57fe5b9060200190602002019073ffffffffffffffffffffffffffffffffffffffff16908173ffffffffffffffffffffffffffffffffffffffff16815250508080600101915050610c6b565b81925050509392505050565b60026020528060005260406000206000915054906101000a900460ff1681565b6000600460009054906101000a900473ffffffffffffffffffffffffffffffffffffffff16905090565b600460009054906101000a900473ffffffffffffffffffffffffffffffffffffffff1681565b610e1a61124b565b6003805480602002602001604051908101604052809291908181526020018280548015610e9c57602002820191906000526020600020905b8160009054906101000a900473ffffffffffffffffffffffffffffffffffffffff1673ffffffffffffffffffffffffffffffffffffffff1681526020019060010190808311610e52575b5050505050905090565b60016020528060005260406000206000915054906101000a900460ff1681565b610ece61124b565b610ed661124b565b6000858503604051805910610ee85750595b908082528060200260200182016040525091508590505b6000808873ffffffffffffffffffffffffffffffffffffffff1673ffffffffffffffffffffffffffffffffffffffff1681526020019081526020016000208054905081108015610f4f5750848111155b1561116057836040518082805190602001908083835b602083101515610f8a5780518252602082019150602081019050602083039250610f65565b6001836020036101000a0380198251168184511680821785525050505050509050019150506040518091039020600019166000808973ffffffffffffffffffffffffffffffffffffffff1673ffffffffffffffffffffffffffffffffffffffff1681526020019081526020016000208281548110151561100657fe5b906000526020600020906002020160010160405180828054600181600116156101000203166002900480156110725780601f10611050576101008083540402835291820191611072565b820191906000526020600020905b81548152906001019060200180831161105e575b50509150506040518091039020600019161415611153576000808873ffffffffffffffffffffffffffffffffffffffff1673ffffffffffffffffffffffffffffffffffffffff168152602001908152602001600020818154811015156110d457fe5b906000526020600020906002020160000160009054906101000a900473ffffffffffffffffffffffffffffffffffffffff168282880381518110151561111657fe5b9060200190602002019073ffffffffffffffffffffffffffffffffffffffff16908173ffffffffffffffffffffffffffffffffffffffff16815250505b8080600101915050610eff565b8192505050949350505050565b81548183558181151161119a57600202816002028360005260206000209182019101611199919061125f565b5b505050565b828054600181600116156101000203166002900490600052602060002090601f016020900481019282601f106111e057805160ff191683800117855561120e565b8280016001018555821561120e579182015b8281111561120d5782518255916020019190600101906111f2565b5b50905061121b91906112b5565b5090565b8154818355818115116112465781836000526020600020918201910161124591906112b5565b5b505050565b602060405190810160405280600081525090565b6112b291905b808211156112ae57600080820160006101000a81549073ffffffffffffffffffffffffffffffffffffffff02191690556001820160006112a591906112da565b50600201611265565b5090565b90565b6112d791905b808211156112d35760008160009055506001016112bb565b5090565b90565b50805460018160011615610100020316600290046000825580601f10611300575061131f565b601f01602090049060005260206000209081019061131e91906112b5565b5b505600a165627a7a72305820644e6a26f234e12588f8178e2cc8e584122918200bca87beaaebd20c040a62b20029",
  "source": "pragma solidity ^0.4.11;\nimport './LearnerLearningProvider.sol';\nimport './UserIndex.sol';\n\ncontract ProviderIndex {\n    struct LearningRecordDescriptor {\n        address llpcAddress;\n        string recordType;\n    }\n\n    mapping(address => LearningRecordDescriptor[]) private learners2LearningRecords;\n    mapping(address => bool) public duplicateTracker;\n    mapping(address => bool) public duplicateLearnerTracker;\n    address[] private myLearners;\n    address public owner;\n\n    function ProviderIndex(address _owner) public {\n        owner = _owner;\n    }\n\n    function insertLearningRecord(address learner, address llpcContract, string recordType) public payable {\n        LearnerLearningProvider llpc = LearnerLearningProvider(llpcContract);\n        if ( !duplicateTracker[llpcContract] && llpc.canWrite(msg.sender)) {\n            learners2LearningRecords[learner].push(LearningRecordDescriptor(llpcContract, recordType));\n            duplicateTracker[llpcContract] = true;\n        }\n    }\n\n    function insertLearner(address learner) public payable {\n            if (!duplicateLearnerTracker[learner]) {\n                myLearners.push(learner);\n                duplicateLearnerTracker[learner] = true;\n            }\n    }\n\n    function getOwner() public view returns (address _owner) {\n        return owner;\n    }\n\n    function getLearners() public view returns (address[]) {\n        return myLearners;\n    }\n\n    function getLearningRecordsByLearner(address learner, uint start, uint end) public view returns (address[]) {\n        address[] memory res = new address[](end-start);\n        for (var index = start; index<learners2LearningRecords[learner].length && index <= end; index++) {\n            res[(start-index)] = learners2LearningRecords[learner][index].llpcAddress;\n        }\n        return res;\n    }\n\n    function getLearningRecordsByRecordType(address learner, uint start, uint end, string recordType) public view returns (address[]) {\n        address[] memory res = new address[](end-start);\n        for (var index = start; index<learners2LearningRecords[learner].length && index<=end; index++) {\n            if (keccak256(learners2LearningRecords[learner][index].recordType) == keccak256(recordType)) {\n                res[(start-index)] = learners2LearningRecords[learner][index].llpcAddress;\n            }\n        }\n        return res;\n    }\n\n    function getLearningRecordsByRecordTypeAndLearners(address[] learners, uint start, uint end, string recordType) public view returns (address[]) {\n        address[] memory res = new address[](end-start);\n        for (var index2 = start; index2 <= learners.length; index2++) {\n            for (var index = start; index < learners2LearningRecords[learners[index2]].length && index <= end; index++) {\n            if (keccak256(learners2LearningRecords[learners[index2]][index].recordType) == keccak256(recordType)) {\n                res[(start-index)] = learners2LearningRecords[learners[index2]][index].llpcAddress;\n            }\n        }\n        }\n        return res;\n    }\n    \n}\n",
  "sourcePath": "/Users/admin/truffle-codes/contracts/ProviderIndex.sol",
  "compiler": {
    "name": "solc",
    "version": "0.4.18+commit.9cf6e910.Emscripten.clang"
  },
  "schemaVersion": "1.0.1",
  "updatedAt": "2018-01-09T06:40:06.924Z"
}