{
  "contractName": "ProviderIndex",
  "abi": [
    {
      "constant": true,
      "inputs": [
        {
          "name": "learner",
          "type": "address"
        }
      ],
      "name": "getLearningRecordsByLearner",
      "outputs": [
        {
          "name": "",
          "type": "address[]"
        }
      ],
      "payable": false,
      "stateMutability": "view",
      "type": "function"
    },
    {
      "constant": false,
      "inputs": [
        {
          "name": "learner",
          "type": "address"
        },
        {
          "name": "llpcContract",
          "type": "address"
        }
      ],
      "name": "insertLearningRecord",
      "outputs": [],
      "payable": true,
      "stateMutability": "payable",
      "type": "function"
    },
    {
      "constant": true,
      "inputs": [],
      "name": "getOwner",
      "outputs": [
        {
          "name": "_owner",
          "type": "address"
        }
      ],
      "payable": false,
      "stateMutability": "view",
      "type": "function"
    },
    {
      "constant": true,
      "inputs": [],
      "name": "getLearners",
      "outputs": [
        {
          "name": "",
          "type": "address[]"
        }
      ],
      "payable": false,
      "stateMutability": "view",
      "type": "function"
    },
    {
      "inputs": [
        {
          "name": "_owner",
          "type": "address"
        }
      ],
      "payable": false,
      "stateMutability": "nonpayable",
      "type": "constructor"
    }
  ],
  "bytecode": "0x6060604052341561000f57600080fd5b6040516020806107de8339810160405280805190602001909190505080600360006101000a81548173ffffffffffffffffffffffffffffffffffffffff021916908373ffffffffffffffffffffffffffffffffffffffff160217905550506107628061007c6000396000f300606060405260043610610062576000357c0100000000000000000000000000000000000000000000000000000000900463ffffffff168063674f2cd81461006757806374b63c5d146100f5578063893d20e8146101425780639987047114610197575b600080fd5b341561007257600080fd5b61009e600480803573ffffffffffffffffffffffffffffffffffffffff16906020019091905050610201565b6040518080602001828103825283818151815260200191508051906020019060200280838360005b838110156100e15780820151818401526020810190506100c6565b505050509050019250505060405180910390f35b610140600480803573ffffffffffffffffffffffffffffffffffffffff1690602001909190803573ffffffffffffffffffffffffffffffffffffffff169060200190919050506102d3565b005b341561014d57600080fd5b6101556105b7565b604051808273ffffffffffffffffffffffffffffffffffffffff1673ffffffffffffffffffffffffffffffffffffffff16815260200191505060405180910390f35b34156101a257600080fd5b6101aa6105e1565b6040518080602001828103825283818151815260200191508051906020019060200280838360005b838110156101ed5780820151818401526020810190506101d2565b505050509050019250505060405180910390f35b6102096106d1565b6000808373ffffffffffffffffffffffffffffffffffffffff1673ffffffffffffffffffffffffffffffffffffffff1681526020019081526020016000208054806020026020016040519081016040528092919081815260200182805480156102c757602002820191906000526020600020905b8160009054906101000a900473ffffffffffffffffffffffffffffffffffffffff1673ffffffffffffffffffffffffffffffffffffffff168152602001906001019080831161027d575b50505050509050919050565b600081905060001515600160008473ffffffffffffffffffffffffffffffffffffffff1673ffffffffffffffffffffffffffffffffffffffff16815260200190815260200160002060009054906101000a900460ff1615151480156103f95750600115158173ffffffffffffffffffffffffffffffffffffffff16633239b71b336000604051602001526040518263ffffffff167c0100000000000000000000000000000000000000000000000000000000028152600401808273ffffffffffffffffffffffffffffffffffffffff1673ffffffffffffffffffffffffffffffffffffffff168152602001915050602060405180830381600087803b15156103da57600080fd5b6102c65a03f115156103eb57600080fd5b505050604051805190501515145b156105b25760018060008473ffffffffffffffffffffffffffffffffffffffff1673ffffffffffffffffffffffffffffffffffffffff16815260200190815260200160002060006101000a81548160ff0219169083151502179055506000808473ffffffffffffffffffffffffffffffffffffffff1673ffffffffffffffffffffffffffffffffffffffff16815260200190815260200160002080548060010182816104a591906106e5565b9160005260206000209001600083909190916101000a81548173ffffffffffffffffffffffffffffffffffffffff021916908373ffffffffffffffffffffffffffffffffffffffff1602179055505060001515600260008573ffffffffffffffffffffffffffffffffffffffff1673ffffffffffffffffffffffffffffffffffffffff16815260200190815260200160002060009054906101000a900460ff16151514156105b1576004805480600101828161056191906106e5565b9160005260206000209001600085909190916101000a81548173ffffffffffffffffffffffffffffffffffffffff021916908373ffffffffffffffffffffffffffffffffffffffff160217905550505b5b505050565b6000600360009054906101000a900473ffffffffffffffffffffffffffffffffffffffff16905090565b6105e96106d1565b600360009054906101000a900473ffffffffffffffffffffffffffffffffffffffff1673ffffffffffffffffffffffffffffffffffffffff163373ffffffffffffffffffffffffffffffffffffffff1614156106cd5760048054806020026020016040519081016040528092919081815260200182805480156106c157602002820191906000526020600020905b8160009054906101000a900473ffffffffffffffffffffffffffffffffffffffff1673ffffffffffffffffffffffffffffffffffffffff1681526020019060010190808311610677575b505050505090506106ce565b5b90565b602060405190810160405280600081525090565b81548183558181151161070c5781836000526020600020918201910161070b9190610711565b5b505050565b61073391905b8082111561072f576000816000905550600101610717565b5090565b905600a165627a7a723058209d9894a81e9b72774391c9ea4dd18976dfa549d9c71c550e5ee6a1578314de2c0029",
  "source": "pragma solidity ^0.4.17;\nimport './LearnerLearningProvider.sol';\n\ncontract ProviderIndex {\n\n    mapping(address => address[]) learners2LearningRecords;\n    mapping(address => bool) duplicateTracker;\n    mapping(address => bool) learnersDuplicateTracker;\n    address owner;\n    address [] learners;\n\n    function ProviderIndex(address _owner) public {\n        owner = _owner;\n    }\n\n    function insertLearningRecord(address learner, address llpcContract) public payable {\n        LearnerLearningProvider llpc = LearnerLearningProvider(llpcContract);\n        if ( duplicateTracker[llpcContract] == false && llpc.canWrite(msg.sender) == true) {\n            duplicateTracker[llpcContract] = true;\n            learners2LearningRecords[learner].push(llpc);\n            if(learnersDuplicateTracker[learner] == false) {\n                learners.push(learner);\n            }\n        }\n    }\n\n    function getOwner() public view returns (address _owner) {\n        return owner;\n    }\n\n    function getLearningRecordsByLearner(address learner) public view returns (address[]) {\n        return learners2LearningRecords[learner];\n    }\n    \n    function getLearners() public view returns (address []) {\n        if(msg.sender == owner) {\n            return learners;\n        }\n    }\n    \n}\n",
  "sourcePath": "/Users/admin/truffle-codes/contracts/ProviderIndex.sol",
  "compiler": {
    "name": "solc",
    "version": "0.4.18+commit.9cf6e910.Emscripten.clang"
  },
  "schemaVersion": "1.0.1",
  "updatedAt": "2018-01-13T20:54:08.967Z"
}