{
  "contractName": "ProviderIndex",
  "abi": [
    {
      "constant": false,
      "inputs": [
        {
          "name": "learner",
          "type": "address"
        },
        {
          "name": "llpcContract",
          "type": "address"
        },
        {
          "name": "recordType",
          "type": "string"
        }
      ],
      "name": "insertLearningRecord",
      "outputs": [],
      "payable": true,
      "stateMutability": "payable",
      "type": "function"
    },
    {
      "constant": true,
      "inputs": [
        {
          "name": "learners",
          "type": "address[]"
        },
        {
          "name": "start",
          "type": "uint256"
        },
        {
          "name": "end",
          "type": "uint256"
        },
        {
          "name": "recordType",
          "type": "string"
        },
        {
          "name": "_recordType",
          "type": "string"
        },
        {
          "name": "learnerIndexContract",
          "type": "address"
        }
      ],
      "name": "getLearningRecordsByRecordTypeAndLearners",
      "outputs": [
        {
          "name": "",
          "type": "address[]"
        }
      ],
      "payable": false,
      "stateMutability": "view",
      "type": "function"
    },
    {
      "constant": true,
      "inputs": [
        {
          "name": "learner",
          "type": "address"
        },
        {
          "name": "start",
          "type": "uint256"
        },
        {
          "name": "end",
          "type": "uint256"
        },
        {
          "name": "recordType",
          "type": "string"
        }
      ],
      "name": "getLearningRecordsByLearner",
      "outputs": [
        {
          "name": "",
          "type": "address[]"
        }
      ],
      "payable": false,
      "stateMutability": "view",
      "type": "function"
    },
    {
      "constant": false,
      "inputs": [
        {
          "name": "_owner",
          "type": "address"
        },
        {
          "name": "_learner",
          "type": "address"
        },
        {
          "name": "_queryString",
          "type": "string"
        },
        {
          "name": "_queryResultHash",
          "type": "string"
        },
        {
          "name": "_recordType",
          "type": "string"
        },
        {
          "name": "learnerIndexContract",
          "type": "address"
        }
      ],
      "name": "createLearnerLearningProviderContract",
      "outputs": [
        {
          "name": "",
          "type": "address"
        }
      ],
      "payable": true,
      "stateMutability": "payable",
      "type": "function"
    },
    {
      "constant": true,
      "inputs": [
        {
          "name": "learner",
          "type": "address"
        },
        {
          "name": "start",
          "type": "uint256"
        },
        {
          "name": "end",
          "type": "uint256"
        },
        {
          "name": "recordType",
          "type": "string"
        },
        {
          "name": "_recordType",
          "type": "string"
        }
      ],
      "name": "getLearners",
      "outputs": [
        {
          "name": "",
          "type": "address[]"
        }
      ],
      "payable": false,
      "stateMutability": "view",
      "type": "function"
    },
    {
      "inputs": [
        {
          "name": "learner",
          "type": "address"
        },
        {
          "name": "start",
          "type": "uint256"
        },
        {
          "name": "end",
          "type": "uint256"
        },
        {
          "name": "recordType",
          "type": "string"
        }
      ],
      "payable": false,
      "stateMutability": "view",
      "type": "function",
      "constant": true,
      "name": "getLearningRecordsByRecordType",
      "outputs": [
        {
          "name": "",
          "type": "address[]"
        }
      ]
    },
    {
      "inputs": [
        {
          "name": "owner",
          "type": "address"
        }
      ],
      "payable": false,
      "stateMutability": "nonpayable",
      "type": "constructor"
    }
  ],
  "bytecode": "0x6060604052341561000f57600080fd5b604051602080612b5a8339810160405280805190602001909190505080600460006101000a81548173ffffffffffffffffffffffffffffffffffffffff021916908373ffffffffffffffffffffffffffffffffffffffff16021790555050612ade8061007c6000396000f3006060604052600436106200007f576000357c0100000000000000000000000000000000000000000000000000000000900463ffffffff1680631f49509614620000845780635762bc10146200011657806363b3db42146200021f57806375e7a82814620002c457806399870471146200043b578063f9ac0e5914620004aa575b600080fd5b62000114600480803573ffffffffffffffffffffffffffffffffffffffff1690602001909190803573ffffffffffffffffffffffffffffffffffffffff1690602001909190803590602001908201803590602001908080601f0160208091040260200160405190810160405280939291908181526020018383808284378201915050505050509190505062000592565b005b34156200012257600080fd5b620001c660048080359060200190820180359060200190808060200260200160405190810160405280939291908181526020018383602002808284378201915050505050509190803590602001909190803590602001909190803590602001908201803590602001908080601f01602080910402602001604051908101604052809392919081815260200183838082843782019150505050505091905050620009f8565b6040518080602001828103825283818151815260200191508051906020019060200280838360005b838110156200020b578082015181840152602081019050620001ee565b505050509050019250505060405180910390f35b34156200022b57600080fd5b6200026b600480803573ffffffffffffffffffffffffffffffffffffffff1690602001909190803590602001909190803590602001909190505062000d18565b6040518080602001828103825283818151815260200191508051906020019060200280838360005b83811015620002b057808201518184015260208101905062000293565b505050509050019250505060405180910390f35b620003f9600480803573ffffffffffffffffffffffffffffffffffffffff1690602001909190803573ffffffffffffffffffffffffffffffffffffffff1690602001909190803590602001908201803590602001908080601f0160208091040260200160405190810160405280939291908181526020018383808284378201915050505050509190803590602001908201803590602001908080601f0160208091040260200160405190810160405280939291908181526020018383808284378201915050505050509190803590602001908201803590602001908080601f0160208091040260200160405190810160405280939291908181526020018383808284378201915050505050509190803573ffffffffffffffffffffffffffffffffffffffff1690602001909190505062000e92565b604051808273ffffffffffffffffffffffffffffffffffffffff1673ffffffffffffffffffffffffffffffffffffffff16815260200191505060405180910390f35b34156200044757600080fd5b6200045162001269565b6040518080602001828103825283818151815260200191508051906020019060200280838360005b838110156200049657808201518184015260208101905062000479565b505050509050019250505060405180910390f35b3415620004b657600080fd5b62000539600480803573ffffffffffffffffffffffffffffffffffffffff1690602001909190803590602001909190803590602001909190803590602001908201803590602001908080601f0160208091040260200160405190810160405280939291908181526020018383808284378201915050505050509190505062001301565b6040518080602001828103825283818151815260200191508051906020019060200280838360005b838110156200057e57808201518184015260208101905062000561565b505050509050019250505060405180910390f35b6000829050600460009054906101000a900473ffffffffffffffffffffffffffffffffffffffff1673ffffffffffffffffffffffffffffffffffffffff168173ffffffffffffffffffffffffffffffffffffffff1663893d20e86000604051602001526040518163ffffffff167c0100000000000000000000000000000000000000000000000000000000028152600401602060405180830381600087803b15156200063d57600080fd5b6102c65a03f115156200064f57600080fd5b5050506040518051905073ffffffffffffffffffffffffffffffffffffffff16148015620006c75750600160008473ffffffffffffffffffffffffffffffffffffffff1673ffffffffffffffffffffffffffffffffffffffff16815260200190815260200160002060009054906101000a900460ff16155b80156200078757508373ffffffffffffffffffffffffffffffffffffffff168173ffffffffffffffffffffffffffffffffffffffff1663483d45bd6000604051602001526040518163ffffffff167c0100000000000000000000000000000000000000000000000000000000028152600401602060405180830381600087803b15156200075357600080fd5b6102c65a03f115156200076557600080fd5b5050506040518051905073ffffffffffffffffffffffffffffffffffffffff16145b15620009f2576000808573ffffffffffffffffffffffffffffffffffffffff1673ffffffffffffffffffffffffffffffffffffffff1681526020019081526020016000208054806001018281620007df9190620015ba565b9160005260206000209060020201600060408051908101604052808773ffffffffffffffffffffffffffffffffffffffff16815260200186815250909190915060008201518160000160006101000a81548173ffffffffffffffffffffffffffffffffffffffff021916908373ffffffffffffffffffffffffffffffffffffffff160217905550602082015181600101908051906020019062000884929190620015ef565b5050505060018060008573ffffffffffffffffffffffffffffffffffffffff1673ffffffffffffffffffffffffffffffffffffffff16815260200190815260200160002060006101000a81548160ff021916908315150217905550600260008573ffffffffffffffffffffffffffffffffffffffff1673ffffffffffffffffffffffffffffffffffffffff16815260200190815260200160002060009054906101000a900460ff161515620009f1576003805480600101828162000949919062001676565b9160005260206000209001600086909190916101000a81548173ffffffffffffffffffffffffffffffffffffffff021916908373ffffffffffffffffffffffffffffffffffffffff160217905550506001600260008673ffffffffffffffffffffffffffffffffffffffff1673ffffffffffffffffffffffffffffffffffffffff16815260200190815260200160002060006101000a81548160ff0219169083151502179055505b5b50505050565b62000a02620016a5565b62000a0c620016a5565b60008086860360405180591062000a205750595b908082528060200260200182016040525092508691505b87518211151562000d0a578690505b600080898481518110151562000a5857fe5b9060200190602002015173ffffffffffffffffffffffffffffffffffffffff1673ffffffffffffffffffffffffffffffffffffffff168152602001908152602001600020805490508110801562000aaf5750858111155b1562000cfc57846040518082805190602001908083835b60208310151562000aed578051825260208201915060208101905060208303925062000ac6565b6001836020036101000a0380198251168184511680821785525050505050509050019150506040518091039020600019166000808a8581518110151562000b3057fe5b9060200190602002015173ffffffffffffffffffffffffffffffffffffffff1673ffffffffffffffffffffffffffffffffffffffff1681526020019081526020016000208281548110151562000b8257fe5b9060005260206000209060020201600101604051808280546001816001161561010002031660029004801562000bf25780601f1062000bcf57610100808354040283529182019162000bf2565b820191906000526020600020905b81548152906001019060200180831162000bdd575b5050915050604051809103902060001916141562000cee57600080898481518110151562000c1c57fe5b9060200190602002015173ffffffffffffffffffffffffffffffffffffffff1673ffffffffffffffffffffffffffffffffffffffff1681526020019081526020016000208181548110151562000c6e57fe5b906000526020600020906002020160000160009054906101000a900473ffffffffffffffffffffffffffffffffffffffff168382890381518110151562000cb157fe5b9060200190602002019073ffffffffffffffffffffffffffffffffffffffff16908173ffffffffffffffffffffffffffffffffffffffff16815250505b808060010191505062000a46565b818060010192505062000a37565b829350505050949350505050565b62000d22620016a5565b62000d2c620016a5565b600084840360405180591062000d3f5750595b908082528060200260200182016040525091508490505b6000808773ffffffffffffffffffffffffffffffffffffffff1673ffffffffffffffffffffffffffffffffffffffff168152602001908152602001600020805490508110801562000da75750838111155b1562000e86576000808773ffffffffffffffffffffffffffffffffffffffff1673ffffffffffffffffffffffffffffffffffffffff1681526020019081526020016000208181548110151562000df957fe5b906000526020600020906002020160000160009054906101000a900473ffffffffffffffffffffffffffffffffffffffff168282870381518110151562000e3c57fe5b9060200190602002019073ffffffffffffffffffffffffffffffffffffffff16908173ffffffffffffffffffffffffffffffffffffffff1681525050808060010191505062000d56565b81925050509392505050565b60008060008089898762000ea5620016b9565b808473ffffffffffffffffffffffffffffffffffffffff1673ffffffffffffffffffffffffffffffffffffffff1681526020018373ffffffffffffffffffffffffffffffffffffffff1673ffffffffffffffffffffffffffffffffffffffff16815260200180602001828103825283818151815260200191508051906020019080838360005b8381101562000f4857808201518184015260208101905062000f2b565b50505050905090810190601f16801562000f765780820380516001836020036101000a031916815260200191505b50945050505050604051809103906000f080151562000f9457600080fd5b92508291508173ffffffffffffffffffffffffffffffffffffffff16638e0777a789896040518363ffffffff167c0100000000000000000000000000000000000000000000000000000000028152600401808060200180602001838103835285818151815260200191508051906020019080838360005b83811015620010285780820151818401526020810190506200100b565b50505050905090810190601f168015620010565780820380516001836020036101000a031916815260200191505b50838103825284818151815260200191508051906020019080838360005b838110156200109157808201518184015260208101905062001074565b50505050905090810190601f168015620010bf5780820380516001836020036101000a031916815260200191505b50945050505050600060405180830381600087803b1515620010e057600080fd5b6102c65a03f11515620010f257600080fd5b5050506200110289848862000592565b8490508073ffffffffffffffffffffffffffffffffffffffff16631f4950968a85896040518463ffffffff167c0100000000000000000000000000000000000000000000000000000000028152600401808473ffffffffffffffffffffffffffffffffffffffff1673ffffffffffffffffffffffffffffffffffffffff1681526020018373ffffffffffffffffffffffffffffffffffffffff1673ffffffffffffffffffffffffffffffffffffffff16815260200180602001828103825283818151815260200191508051906020019080838360005b83811015620011f5578082015181840152602081019050620011d8565b50505050905090810190601f168015620012235780820380516001836020036101000a031916815260200191505b50945050505050600060405180830381600087803b15156200124457600080fd5b6102c65a03f115156200125657600080fd5b5050508293505050509695505050505050565b62001273620016a5565b6003805480602002602001604051908101604052809291908181526020018280548015620012f757602002820191906000526020600020905b8160009054906101000a900473ffffffffffffffffffffffffffffffffffffffff1673ffffffffffffffffffffffffffffffffffffffff1681526020019060010190808311620012ac575b5050505050905090565b6200130b620016a5565b62001315620016a5565b6000858503604051805910620013285750595b908082528060200260200182016040525091508590505b6000808873ffffffffffffffffffffffffffffffffffffffff1673ffffffffffffffffffffffffffffffffffffffff1681526020019081526020016000208054905081108015620013905750848111155b15620015ad57836040518082805190602001908083835b602083101515620013ce5780518252602082019150602081019050602083039250620013a7565b6001836020036101000a0380198251168184511680821785525050505050509050019150506040518091039020600019166000808973ffffffffffffffffffffffffffffffffffffffff1673ffffffffffffffffffffffffffffffffffffffff168152602001908152602001600020828154811015156200144b57fe5b90600052602060002090600202016001016040518082805460018160011615610100020316600290048015620014bb5780601f1062001498576101008083540402835291820191620014bb565b820191906000526020600020905b815481529060010190602001808311620014a6575b505091505060405180910390206000191614156200159f576000808873ffffffffffffffffffffffffffffffffffffffff1673ffffffffffffffffffffffffffffffffffffffff168152602001908152602001600020818154811015156200151f57fe5b906000526020600020906002020160000160009054906101000a900473ffffffffffffffffffffffffffffffffffffffff16828288038151811015156200156257fe5b9060200190602002019073ffffffffffffffffffffffffffffffffffffffff16908173ffffffffffffffffffffffffffffffffffffffff16815250505b80806001019150506200133f565b8192505050949350505050565b815481835581811511620015ea57600202816002028360005260206000209182019101620015e99190620016ca565b5b505050565b828054600181600116156101000203166002900490600052602060002090601f016020900481019282601f106200163257805160ff191683800117855562001663565b8280016001018555821562001663579182015b828111156200166257825182559160200191906001019062001645565b5b50905062001672919062001725565b5090565b815481835581811511620016a0578183600052602060002091820191016200169f919062001725565b5b505050565b602060405190810160405280600081525090565b604051611319806200179a83390190565b6200172291905b808211156200171e57600080820160006101000a81549073ffffffffffffffffffffffffffffffffffffffff02191690556001820160006200171491906200174d565b50600201620016d1565b5090565b90565b6200174a91905b80821115620017465760008160009055506001016200172c565b5090565b90565b50805460018160011615610100020316600290046000825580601f1062001775575062001796565b601f01602090049060005260206000209081019062001795919062001725565b5b5056006060604052341561000f57600080fd5b60405161131938038061131983398101604052808051906020019091908051906020019091908051820191905050826000806101000a81548173ffffffffffffffffffffffffffffffffffffffff021916908373ffffffffffffffffffffffffffffffffffffffff160217905550806003908051906020019061009392919061026b565b5060606040519081016040528060011515815260200160011515815260200160011515815250600160008473ffffffffffffffffffffffffffffffffffffffff1673ffffffffffffffffffffffffffffffffffffffff16815260200190815260200160002060008201518160000160006101000a81548160ff02191690831515021790555060208201518160000160016101000a81548160ff02191690831515021790555060408201518160000160026101000a81548160ff02191690831515021790555090505060606040519081016040528060011515815260200160011515815260200160011515815250600160003373ffffffffffffffffffffffffffffffffffffffff1673ffffffffffffffffffffffffffffffffffffffff16815260200190815260200160002060008201518160000160006101000a81548160ff02191690831515021790555060208201518160000160016101000a81548160ff02191690831515021790555060408201518160000160026101000a81548160ff02191690831515021790555090505033600460006101000a81548173ffffffffffffffffffffffffffffffffffffffff021916908373ffffffffffffffffffffffffffffffffffffffff160217905550505050610310565b828054600181600116156101000203166002900490600052602060002090601f016020900481019282601f106102ac57805160ff19168380011785556102da565b828001600101855582156102da579182015b828111156102d95782518255916020019190600101906102be565b5b5090506102e791906102eb565b5090565b61030d91905b808211156103095760008160009055506001016102f1565b5090565b90565b610ffa8061031f6000396000f3006060604052600436106100af576000357c0100000000000000000000000000000000000000000000000000000000900463ffffffff16806301e88208146100b45780630781f5c91461011b57806319ed0018146101a95780631ff2c99c146101d25780633239b71b1461022357806342087d4f14610274578063483d45bd146102c5578063893d20e81461031a5780638e0777a71461036f578063dbaf557f14610404578063df86ffcb14610578575b600080fd5b34156100bf57600080fd5b6100eb600480803573ffffffffffffffffffffffffffffffffffffffff1690602001909190505061061d565b60405180841515151581526020018315151515815260200182151515158152602001935050505060405180910390f35b341561012657600080fd5b61012e61066e565b6040518080602001828103825283818151815260200191508051906020019080838360005b8381101561016e578082015181840152602081019050610153565b50505050905090810190601f16801561019b5780820380516001836020036101000a031916815260200191505b509250505060405180910390f35b34156101b457600080fd5b6101bc610716565b6040518082815260200191505060405180910390f35b34156101dd57600080fd5b610209600480803573ffffffffffffffffffffffffffffffffffffffff16906020019091905050610782565b604051808215151515815260200191505060405180910390f35b341561022e57600080fd5b61025a600480803573ffffffffffffffffffffffffffffffffffffffff169060200190919050506107db565b604051808215151515815260200191505060405180910390f35b341561027f57600080fd5b6102ab600480803573ffffffffffffffffffffffffffffffffffffffff16906020019091905050610834565b604051808215151515815260200191505060405180910390f35b34156102d057600080fd5b6102d861088d565b604051808273ffffffffffffffffffffffffffffffffffffffff1673ffffffffffffffffffffffffffffffffffffffff16815260200191505060405180910390f35b341561032557600080fd5b61032d6108b7565b604051808273ffffffffffffffffffffffffffffffffffffffff1673ffffffffffffffffffffffffffffffffffffffff16815260200191505060405180910390f35b610402600480803590602001908201803590602001908080601f0160208091040260200160405190810160405280939291908181526020018383808284378201915050505050509190803590602001908201803590602001908080601f016020809104026020016040519081016040528093929190818152602001838380828437820191505050505050919050506108e0565b005b341561040f57600080fd5b61042560048080359060200190919050506109b5565b60405180806020018060200180602001848103845287818151815260200191508051906020019080838360005b8381101561046d578082015181840152602081019050610452565b50505050905090810190601f16801561049a5780820380516001836020036101000a031916815260200191505b50848103835286818151815260200191508051906020019080838360005b838110156104d35780820151818401526020810190506104b8565b50505050905090810190601f1680156105005780820380516001836020036101000a031916815260200191505b50848103825285818151815260200191508051906020019080838360005b8381101561053957808201518184015260208101905061051e565b50505050905090810190601f1680156105665780820380516001836020036101000a031916815260200191505b50965050505050505060405180910390f35b610603600480803573ffffffffffffffffffffffffffffffffffffffff1690602001909190803573ffffffffffffffffffffffffffffffffffffffff1690602001909190803573ffffffffffffffffffffffffffffffffffffffff16906020019091908035151590602001909190803515159060200190919080351515906020019091905050610c4b565b604051808215151515815260200191505060405180910390f35b60016020528060005260406000206000915090508060000160009054906101000a900460ff16908060000160019054906101000a900460ff16908060000160029054906101000a900460ff16905083565b610676610e34565b60038054600181600116156101000203166002900480601f01602080910402602001604051908101604052809291908181526020018280546001816001161561010002031660029004801561070c5780601f106106e15761010080835404028352916020019161070c565b820191906000526020600020905b8154815290600101906020018083116106ef57829003601f168201915b5050505050905090565b6000600160003373ffffffffffffffffffffffffffffffffffffffff1673ffffffffffffffffffffffffffffffffffffffff16815260200190815260200160002060000160009054906101000a900460ff161561077a57600280549050905061077f565b600090505b90565b6000600160008373ffffffffffffffffffffffffffffffffffffffff1673ffffffffffffffffffffffffffffffffffffffff16815260200190815260200160002060000160029054906101000a900460ff169050919050565b6000600160008373ffffffffffffffffffffffffffffffffffffffff1673ffffffffffffffffffffffffffffffffffffffff16815260200190815260200160002060000160019054906101000a900460ff169050919050565b6000600160008373ffffffffffffffffffffffffffffffffffffffff1673ffffffffffffffffffffffffffffffffffffffff16815260200190815260200160002060000160009054906101000a900460ff169050919050565b6000600460009054906101000a900473ffffffffffffffffffffffffffffffffffffffff16905090565b60008060009054906101000a900473ffffffffffffffffffffffffffffffffffffffff16905090565b600160003373ffffffffffffffffffffffffffffffffffffffff1673ffffffffffffffffffffffffffffffffffffffff16815260200190815260200160002060000160019054906101000a900460ff16156109b157600280548060010182816109499190610e48565b916000526020600020906002020160006040805190810160405280858152602001868152509091909150600082015181600001908051906020019061098f929190610e7a565b5060208201518160010190805190602001906109ac929190610e7a565b505050505b5050565b6109bd610e34565b6109c5610e34565b6109cd610e34565b600160003373ffffffffffffffffffffffffffffffffffffffff1673ffffffffffffffffffffffffffffffffffffffff16815260200190815260200160002060000160009054906101000a900460ff1615610c43576003600285815481101515610a3357fe5b9060005260206000209060020201600001600286815481101515610a5357fe5b9060005260206000209060020201600101828054600181600116156101000203166002900480601f016020809104026020016040519081016040528092919081815260200182805460018160011615610100020316600290048015610af95780601f10610ace57610100808354040283529160200191610af9565b820191906000526020600020905b815481529060010190602001808311610adc57829003601f168201915b50505050509250818054600181600116156101000203166002900480601f016020809104026020016040519081016040528092919081815260200182805460018160011615610100020316600290048015610b955780601f10610b6a57610100808354040283529160200191610b95565b820191906000526020600020905b815481529060010190602001808311610b7857829003601f168201915b50505050509150808054600181600116156101000203166002900480601f016020809104026020016040519081016040528092919081815260200182805460018160011615610100020316600290048015610c315780601f10610c0657610100808354040283529160200191610c31565b820191906000526020600020905b815481529060010190602001808311610c1457829003601f168201915b50505050509050925092509250610c44565b5b9193909250565b6000610c55610efa565b600160003373ffffffffffffffffffffffffffffffffffffffff1673ffffffffffffffffffffffffffffffffffffffff16815260200190815260200160002060000160029054906101000a900460ff1615610e2457600160008873ffffffffffffffffffffffffffffffffffffffff1673ffffffffffffffffffffffffffffffffffffffff168152602001908152602001600020606060405190810160405290816000820160009054906101000a900460ff161515151581526020016000820160019054906101000a900460ff161515151581526020016000820160029054906101000a900460ff161515151581525050905082816040019015159081151581525050848160000190151590811515815250508381602001901515908115158152505080600160008973ffffffffffffffffffffffffffffffffffffffff1673ffffffffffffffffffffffffffffffffffffffff16815260200190815260200160002060008201518160000160006101000a81548160ff02191690831515021790555060208201518160000160016101000a81548160ff02191690831515021790555060408201518160000160026101000a81548160ff02191690831515021790555090505060019150610e29565b600091505b509695505050505050565b602060405190810160405280600081525090565b815481835581811511610e7557600202816002028360005260206000209182019101610e749190610f22565b5b505050565b828054600181600116156101000203166002900490600052602060002090601f016020900481019282601f10610ebb57805160ff1916838001178555610ee9565b82800160010185558215610ee9579182015b82811115610ee8578251825591602001919060010190610ecd565b5b509050610ef69190610f61565b5090565b6060604051908101604052806000151581526020016000151581526020016000151581525090565b610f5e91905b80821115610f5a5760008082016000610f419190610f86565b600182016000610f519190610f86565b50600201610f28565b5090565b90565b610f8391905b80821115610f7f576000816000905550600101610f67565b5090565b90565b50805460018160011615610100020316600290046000825580601f10610fac5750610fcb565b601f016020900490600052602060002090810190610fca9190610f61565b5b505600a165627a7a723058203b39b3dfcb6924db998f5dbb2cfb1d5caaac9a75ac61f0dca43c01bdd4de39fe0029a165627a7a72305820f023ccb123fa2983a31215f4a519acf0ec91ae9dbddd2552541faf229b77a1950029",
  "source": "pragma solidity ^0.4.11;\nimport './LearnerLearningProvider.sol';\nimport './UserIndex.sol';\n\ncontract ProviderIndex {\n    struct LearningRecordDescriptor {\n        address llpcAddress;\n        string recordType;\n    }\n\n    mapping(address => LearningRecordDescriptor[]) learners2LearningRecords;\n    mapping(address => bool) duplicateTracker;\n    mapping(address => bool) duplicateLearnerTracker;\n    address[] myLearners;\n    address _owner;\n\n    function ProviderIndex(address owner) public {\n        _owner = owner;\n    }\n\n    function insertLearningRecord(address learner, address llpcContract, string recordType) public payable {\n        LearnerLearningProvider llpc = LearnerLearningProvider(llpcContract);\n        if (llpc.getOwner() == _owner && !duplicateTracker[llpcContract] && llpc.getProvider() == learner) {\n            learners2LearningRecords[learner].push(LearningRecordDescriptor(llpcContract, recordType));\n            duplicateTracker[llpcContract] = true;\n            if (!duplicateLearnerTracker[learner]) {\n                myLearners.push(learner);\n                duplicateLearnerTracker[learner] = true;\n            }\n        }\n    }\n\n    function getLearners() public view returns (address[]) {\n        return myLearners;\n    }\n\n    function getLearningRecordsByLearner(address learner, uint start, uint end) public view returns (address[]) {\n        address[] memory res = new address[](end-start);\n        for (var index = start; index<learners2LearningRecords[learner].length && index <= end; index++) {\n            res[(start-index)] = learners2LearningRecords[learner][index].llpcAddress;\n        }\n        return res;\n    }\n\n    function getLearningRecordsByRecordType(address learner, uint start, uint end, string recordType) public view returns (address[]) {\n        address[] memory res = new address[](end-start);\n        for (var index = start; index<learners2LearningRecords[learner].length && index<=end; index++) {\n            if (keccak256(learners2LearningRecords[learner][index].recordType) == keccak256(recordType)) {\n                res[(start-index)] = learners2LearningRecords[learner][index].llpcAddress;\n            }\n        }\n        return res;\n    }\n\n    function getLearningRecordsByRecordTypeAndLearners(address[] learners, uint start, uint end, string recordType) public view returns (address[]) {\n        address[] memory res = new address[](end-start);\n        for (var index2 = start; index2 <= learners.length; index2++) {\n            for (var index = start; index < learners2LearningRecords[learners[index2]].length && index <= end; index++) {\n            if (keccak256(learners2LearningRecords[learners[index2]][index].recordType) == keccak256(recordType)) {\n                res[(start-index)] = learners2LearningRecords[learners[index2]][index].llpcAddress;\n            }\n        }\n        }\n        return res;\n    }\n\n    function createLearnerLearningProviderContract(address _owner, address _learner, \n    string _queryString, string _queryResultHash, string _recordType, address learnerIndexContract) public payable returns (address) {\n        address llpcAddress = new LearnerLearningProvider(_owner, _learner, _recordType);\n        LearnerLearningProvider llpc = LearnerLearningProvider(llpcAddress);\n        llpc.insertLearningRecord(_queryString, _queryResultHash);\n        insertLearningRecord(_learner, llpcAddress, _recordType);\n        UserIndex uIndex = UserIndex(learnerIndexContract);\n        uIndex.insertLearningRecord(_learner, llpcAddress, _recordType);\n        return llpcAddress;\n    }\n    \n}\n",
  "sourcePath": "/Users/admin/truffle-codes/contracts/ProviderIndex.sol",
  "compiler": {
    "name": "solc",
    "version": "0.4.18+commit.9cf6e910.Emscripten.clang"
  },
  "schemaVersion": "1.0.1",
  "updatedAt": "2018-01-07T05:24:46.531Z"
}