{
  "contractName": "ProviderIndex",
  "abi": [
    {
      "inputs": [
        {
          "name": "_owner",
          "type": "address"
        }
      ],
      "payable": false,
      "stateMutability": "nonpayable",
      "type": "constructor"
    },
    {
      "anonymous": false,
      "inputs": [
        {
          "indexed": true,
          "name": "sender",
          "type": "address"
        },
        {
          "indexed": true,
          "name": "participantAddress",
          "type": "address"
        },
        {
          "indexed": false,
          "name": "affectedContractAddress",
          "type": "address"
        },
        {
          "indexed": true,
          "name": "actionType",
          "type": "string"
        }
      ],
      "name": "ProviderIndexContractEvents",
      "type": "event"
    },
    {
      "constant": false,
      "inputs": [
        {
          "name": "learner",
          "type": "address"
        },
        {
          "name": "llpcContract",
          "type": "address"
        }
      ],
      "name": "insertLearningRecord",
      "outputs": [],
      "payable": true,
      "stateMutability": "payable",
      "type": "function"
    },
    {
      "constant": false,
      "inputs": [
        {
          "name": "staff",
          "type": "address"
        },
        {
          "name": "staff_type",
          "type": "uint8"
        },
        {
          "name": "joined",
          "type": "uint64"
        },
        {
          "name": "active",
          "type": "bool"
        }
      ],
      "name": "approveStaffMember",
      "outputs": [],
      "payable": true,
      "stateMutability": "payable",
      "type": "function"
    },
    {
      "constant": false,
      "inputs": [
        {
          "name": "staff",
          "type": "address"
        },
        {
          "name": "staff_type",
          "type": "uint8"
        },
        {
          "name": "left",
          "type": "uint64"
        }
      ],
      "name": "disapproveStaffMember",
      "outputs": [],
      "payable": true,
      "stateMutability": "payable",
      "type": "function"
    },
    {
      "constant": true,
      "inputs": [],
      "name": "getOwner",
      "outputs": [
        {
          "name": "_owner",
          "type": "address"
        }
      ],
      "payable": false,
      "stateMutability": "view",
      "type": "function"
    },
    {
      "constant": true,
      "inputs": [
        {
          "name": "learner",
          "type": "address"
        }
      ],
      "name": "getLearningRecordsByLearner",
      "outputs": [
        {
          "name": "",
          "type": "address[]"
        }
      ],
      "payable": false,
      "stateMutability": "view",
      "type": "function"
    },
    {
      "constant": true,
      "inputs": [
        {
          "name": "staff",
          "type": "address"
        }
      ],
      "name": "getStaffMember",
      "outputs": [
        {
          "name": "",
          "type": "address"
        },
        {
          "name": "",
          "type": "uint8[]"
        },
        {
          "name": "",
          "type": "uint64"
        },
        {
          "name": "",
          "type": "uint64"
        },
        {
          "name": "",
          "type": "bool"
        }
      ],
      "payable": false,
      "stateMutability": "view",
      "type": "function"
    },
    {
      "constant": true,
      "inputs": [
        {
          "name": "staff",
          "type": "address"
        }
      ],
      "name": "isStaffActive",
      "outputs": [
        {
          "name": "",
          "type": "bool"
        }
      ],
      "payable": false,
      "stateMutability": "view",
      "type": "function"
    },
    {
      "constant": true,
      "inputs": [],
      "name": "getStaff",
      "outputs": [
        {
          "name": "",
          "type": "address[]"
        }
      ],
      "payable": false,
      "stateMutability": "view",
      "type": "function"
    },
    {
      "constant": true,
      "inputs": [],
      "name": "getStaffCount",
      "outputs": [
        {
          "name": "",
          "type": "uint256"
        }
      ],
      "payable": false,
      "stateMutability": "view",
      "type": "function"
    },
    {
      "constant": true,
      "inputs": [],
      "name": "getLearners",
      "outputs": [
        {
          "name": "",
          "type": "address[]"
        }
      ],
      "payable": false,
      "stateMutability": "view",
      "type": "function"
    }
  ],
  "bytecode": "0x608060405234801561001057600080fd5b50604051602080611bf68339810180604052810190808051906020019092919050505080600460006101000a81548173ffffffffffffffffffffffffffffffffffffffff021916908373ffffffffffffffffffffffffffffffffffffffff16021790555060405180807f5049430000000000000000000000000000000000000000000000000000000000815250600301905060405180910390208173ffffffffffffffffffffffffffffffffffffffff163373ffffffffffffffffffffffffffffffffffffffff167fd239e5f47d817cdfabaff6e2ebe324ece68662b6130da0e0e0bf1148ce918f3930604051808273ffffffffffffffffffffffffffffffffffffffff1673ffffffffffffffffffffffffffffffffffffffff16815260200191505060405180910390a450611aab8061014b6000396000f3006080604052600436106100a4576000357c0100000000000000000000000000000000000000000000000000000000900463ffffffff1680631d49c03c146100a95780636124def614610115578063674f2cd81461017857806374b63c5d14610210578063893d20e81461026657806394d35431146102bd57806399870471146103145780639dca83f814610380578063ac4a64be146103db578063b99b0703146104e7575b600080fd5b3480156100b557600080fd5b506100be610512565b6040518080602001828103825283818151815260200191508051906020019060200280838360005b838110156101015780820151818401526020810190506100e6565b505050509050019250505060405180910390f35b610176600480360381019080803573ffffffffffffffffffffffffffffffffffffffff169060200190929190803560ff169060200190929190803567ffffffffffffffff1690602001909291908035151590602001909291905050506105fc565b005b34801561018457600080fd5b506101b9600480360381019080803573ffffffffffffffffffffffffffffffffffffffff169060200190929190505050610afe565b6040518080602001828103825283818151815260200191508051906020019060200280838360005b838110156101fc5780820151818401526020810190506101e1565b505050509050019250505060405180910390f35b610264600480360381019080803573ffffffffffffffffffffffffffffffffffffffff169060200190929190803573ffffffffffffffffffffffffffffffffffffffff169060200190929190505050610bca565b005b34801561027257600080fd5b5061027b610fa1565b604051808273ffffffffffffffffffffffffffffffffffffffff1673ffffffffffffffffffffffffffffffffffffffff16815260200191505060405180910390f35b610312600480360381019080803573ffffffffffffffffffffffffffffffffffffffff169060200190929190803560ff169060200190929190803567ffffffffffffffff169060200190929190505050610fcb565b005b34801561032057600080fd5b50610329611566565b6040518080602001828103825283818151815260200191508051906020019060200280838360005b8381101561036c578082015181840152602081019050610351565b505050509050019250505060405180910390f35b34801561038c57600080fd5b506103c1600480360381019080803573ffffffffffffffffffffffffffffffffffffffff169060200190929190505050611650565b604051808215151515815260200191505060405180910390f35b3480156103e757600080fd5b5061041c600480360381019080803573ffffffffffffffffffffffffffffffffffffffff1690602001909291905050506116a9565b604051808673ffffffffffffffffffffffffffffffffffffffff1673ffffffffffffffffffffffffffffffffffffffff168152602001806020018567ffffffffffffffff1667ffffffffffffffff1681526020018467ffffffffffffffff1667ffffffffffffffff16815260200183151515158152602001828103825286818151815260200191508051906020019060200280838360005b838110156104cf5780820151818401526020810190506104b4565b50505050905001965050505050505060405180910390f35b3480156104f357600080fd5b506104fc6118e0565b6040518082815260200191505060405180910390f35b6060600460009054906101000a900473ffffffffffffffffffffffffffffffffffffffff1673ffffffffffffffffffffffffffffffffffffffff163373ffffffffffffffffffffffffffffffffffffffff1614156105f85760068054806020026020016040519081016040528092919081815260200182805480156105ec57602002820191906000526020600020905b8160009054906101000a900473ffffffffffffffffffffffffffffffffffffffff1673ffffffffffffffffffffffffffffffffffffffff16815260200190600101908083116105a2575b505050505090506105f9565b5b90565b600460009054906101000a900473ffffffffffffffffffffffffffffffffffffffff1673ffffffffffffffffffffffffffffffffffffffff163373ffffffffffffffffffffffffffffffffffffffff161415610af357600073ffffffffffffffffffffffffffffffffffffffff16600160008673ffffffffffffffffffffffffffffffffffffffff1673ffffffffffffffffffffffffffffffffffffffff16815260200190815260200160002060000160009054906101000a900473ffffffffffffffffffffffffffffffffffffffff1673ffffffffffffffffffffffffffffffffffffffff161415610a0b5760068490806001815401808255809150509060018203906000526020600020016000909192909190916101000a81548173ffffffffffffffffffffffffffffffffffffffff021916908373ffffffffffffffffffffffffffffffffffffffff16021790555050600160008573ffffffffffffffffffffffffffffffffffffffff1673ffffffffffffffffffffffffffffffffffffffff16815260200190815260200160002060010183908060018154018082558091505090600182039060005260206000209060209182820401919006909192909190916101000a81548160ff021916908360ff1602179055505060a0604051908101604052808573ffffffffffffffffffffffffffffffffffffffff168152602001600160008773ffffffffffffffffffffffffffffffffffffffff1673ffffffffffffffffffffffffffffffffffffffff1681526020019081526020016000206001018054806020026020016040519081016040528092919081815260200182805480156108b157602002820191906000526020600020906000905b82829054906101000a900460ff1660ff168152602001906001019060208260000104928301926001038202915080841161087a5790505b505050505081526020018367ffffffffffffffff168152602001600067ffffffffffffffff168152602001821515815250600160008673ffffffffffffffffffffffffffffffffffffffff1673ffffffffffffffffffffffffffffffffffffffff16815260200190815260200160002060008201518160000160006101000a81548173ffffffffffffffffffffffffffffffffffffffff021916908373ffffffffffffffffffffffffffffffffffffffff1602179055506020820151816001019080519060200190610984929190611949565b5060408201518160020160006101000a81548167ffffffffffffffff021916908367ffffffffffffffff16021790555060608201518160020160086101000a81548167ffffffffffffffff021916908367ffffffffffffffff16021790555060808201518160020160106101000a81548160ff021916908315150217905550905050610aee565b600160008573ffffffffffffffffffffffffffffffffffffffff1673ffffffffffffffffffffffffffffffffffffffff16815260200190815260200160002060010183908060018154018082558091505090600182039060005260206000209060209182820401919006909192909190916101000a81548160ff021916908360ff1602179055505080600160008673ffffffffffffffffffffffffffffffffffffffff1673ffffffffffffffffffffffffffffffffffffffff16815260200190815260200160002060020160106101000a81548160ff0219169083151502179055505b610af8565b600080fd5b50505050565b60606000808373ffffffffffffffffffffffffffffffffffffffff1673ffffffffffffffffffffffffffffffffffffffff168152602001908152602001600020805480602002602001604051908101604052809291908181526020018280548015610bbe57602002820191906000526020600020905b8160009054906101000a900473ffffffffffffffffffffffffffffffffffffffff1673ffffffffffffffffffffffffffffffffffffffff1681526020019060010190808311610b74575b50505050509050919050565b600081905060001515600260008473ffffffffffffffffffffffffffffffffffffffff1673ffffffffffffffffffffffffffffffffffffffff16815260200190815260200160002060009054906101000a900460ff161515148015610d155750600115158173ffffffffffffffffffffffffffffffffffffffff1663edfb28f93360006040518363ffffffff167c0100000000000000000000000000000000000000000000000000000000028152600401808373ffffffffffffffffffffffffffffffffffffffff1673ffffffffffffffffffffffffffffffffffffffff1681526020018215151515815260200192505050602060405180830381600087803b158015610cd657600080fd5b505af1158015610cea573d6000803e3d6000fd5b505050506040513d6020811015610d0057600080fd5b81019080805190602001909291905050501515145b15610f9c576001600260008473ffffffffffffffffffffffffffffffffffffffff1673ffffffffffffffffffffffffffffffffffffffff16815260200190815260200160002060006101000a81548160ff0219169083151502179055506000808473ffffffffffffffffffffffffffffffffffffffff1673ffffffffffffffffffffffffffffffffffffffff1681526020019081526020016000208290806001815401808255809150509060018203906000526020600020016000909192909190916101000a81548173ffffffffffffffffffffffffffffffffffffffff021916908373ffffffffffffffffffffffffffffffffffffffff1602179055505060001515600360008573ffffffffffffffffffffffffffffffffffffffff1673ffffffffffffffffffffffffffffffffffffffff16815260200190815260200160002060009054906101000a900460ff1615151415610ed45760058390806001815401808255809150509060018203906000526020600020016000909192909190916101000a81548173ffffffffffffffffffffffffffffffffffffffff021916908373ffffffffffffffffffffffffffffffffffffffff160217905550505b60405180807f696e736572744c6561726e696e675265636f7264000000000000000000000000815250601401905060405180910390208373ffffffffffffffffffffffffffffffffffffffff163373ffffffffffffffffffffffffffffffffffffffff167fd239e5f47d817cdfabaff6e2ebe324ece68662b6130da0e0e0bf1148ce918f3930604051808273ffffffffffffffffffffffffffffffffffffffff1673ffffffffffffffffffffffffffffffffffffffff16815260200191505060405180910390a45b505050565b6000600460009054906101000a900473ffffffffffffffffffffffffffffffffffffffff16905090565b600080600460009054906101000a900473ffffffffffffffffffffffffffffffffffffffff1673ffffffffffffffffffffffffffffffffffffffff163373ffffffffffffffffffffffffffffffffffffffff161480156111115750600160008673ffffffffffffffffffffffffffffffffffffffff1673ffffffffffffffffffffffffffffffffffffffff16815260200190815260200160002060020160109054906101000a900460ff16806111105750600073ffffffffffffffffffffffffffffffffffffffff16600160008773ffffffffffffffffffffffffffffffffffffffff1673ffffffffffffffffffffffffffffffffffffffff16815260200190815260200160002060000160009054906101000a900473ffffffffffffffffffffffffffffffffffffffff1673ffffffffffffffffffffffffffffffffffffffff1614155b5b1561155a5760009150600090505b600160008673ffffffffffffffffffffffffffffffffffffffff1673ffffffffffffffffffffffffffffffffffffffff1681526020019081526020016000206001018054905081101561132d578360ff16600160008773ffffffffffffffffffffffffffffffffffffffff1673ffffffffffffffffffffffffffffffffffffffff168152602001908152602001600020600101828154811015156111bf57fe5b90600052602060002090602091828204019190069054906101000a900460ff1660ff16141561132057600160008673ffffffffffffffffffffffffffffffffffffffff1673ffffffffffffffffffffffffffffffffffffffff16815260200190815260200160002060010160018060008873ffffffffffffffffffffffffffffffffffffffff1673ffffffffffffffffffffffffffffffffffffffff168152602001908152602001600020600101805490500381548110151561127e57fe5b90600052602060002090602091828204019190069054906101000a900460ff16600160008773ffffffffffffffffffffffffffffffffffffffff1673ffffffffffffffffffffffffffffffffffffffff168152602001908152602001600020600101828154811015156112ed57fe5b90600052602060002090602091828204019190066101000a81548160ff021916908360ff1602179055506001915061132d565b808060010191505061111f565b811561144257600160008673ffffffffffffffffffffffffffffffffffffffff1673ffffffffffffffffffffffffffffffffffffffff16815260200190815260200160002060010160018060008873ffffffffffffffffffffffffffffffffffffffff1673ffffffffffffffffffffffffffffffffffffffff16815260200190815260200160002060010180549050038154811015156113c957fe5b90600052602060002090602091828204019190066101000a81549060ff0219169055600160008673ffffffffffffffffffffffffffffffffffffffff1673ffffffffffffffffffffffffffffffffffffffff16815260200190815260200160002060010180548091906001900361144091906119f0565b505b6000600160008773ffffffffffffffffffffffffffffffffffffffff1673ffffffffffffffffffffffffffffffffffffffff1681526020019081526020016000206001018054905014156115555782600160008773ffffffffffffffffffffffffffffffffffffffff1673ffffffffffffffffffffffffffffffffffffffff16815260200190815260200160002060020160086101000a81548167ffffffffffffffff021916908367ffffffffffffffff1602179055506000600160008773ffffffffffffffffffffffffffffffffffffffff1673ffffffffffffffffffffffffffffffffffffffff16815260200190815260200160002060020160106101000a81548160ff0219169083151502179055505b61155f565b600080fd5b5050505050565b6060600460009054906101000a900473ffffffffffffffffffffffffffffffffffffffff1673ffffffffffffffffffffffffffffffffffffffff163373ffffffffffffffffffffffffffffffffffffffff16141561164c57600580548060200260200160405190810160405280929190818152602001828054801561164057602002820191906000526020600020905b8160009054906101000a900473ffffffffffffffffffffffffffffffffffffffff1673ffffffffffffffffffffffffffffffffffffffff16815260200190600101908083116115f6575b5050505050905061164d565b5b90565b6000600160008373ffffffffffffffffffffffffffffffffffffffff1673ffffffffffffffffffffffffffffffffffffffff16815260200190815260200160002060020160109054906101000a900460ff169050919050565b600060606000806000600160008773ffffffffffffffffffffffffffffffffffffffff1673ffffffffffffffffffffffffffffffffffffffff16815260200190815260200160002060000160009054906101000a900473ffffffffffffffffffffffffffffffffffffffff16600160008873ffffffffffffffffffffffffffffffffffffffff1673ffffffffffffffffffffffffffffffffffffffff168152602001908152602001600020600101600160008973ffffffffffffffffffffffffffffffffffffffff1673ffffffffffffffffffffffffffffffffffffffff16815260200190815260200160002060020160009054906101000a900467ffffffffffffffff16600160008a73ffffffffffffffffffffffffffffffffffffffff1673ffffffffffffffffffffffffffffffffffffffff16815260200190815260200160002060020160089054906101000a900467ffffffffffffffff16600160008b73ffffffffffffffffffffffffffffffffffffffff1673ffffffffffffffffffffffffffffffffffffffff16815260200190815260200160002060020160109054906101000a900460ff16838054806020026020016040519081016040528092919081815260200182805480156118c657602002820191906000526020600020906000905b82829054906101000a900460ff1660ff168152602001906001019060208260000104928301926001038202915080841161188f5790505b505050505093509450945094509450945091939590929450565b6000600460009054906101000a900473ffffffffffffffffffffffffffffffffffffffff1673ffffffffffffffffffffffffffffffffffffffff163373ffffffffffffffffffffffffffffffffffffffff161415611945576006805490509050611946565b5b90565b82805482825590600052602060002090601f016020900481019282156119df5791602002820160005b838211156119b057835183826101000a81548160ff021916908360ff1602179055509260200192600101602081600001049283019260010302611972565b80156119dd5782816101000a81549060ff02191690556001016020816000010492830192600103026119b0565b505b5090506119ec9190611a2a565b5090565b815481835581811115611a2557601f016020900481601f01602090048360005260206000209182019101611a249190611a5a565b5b505050565b611a5791905b80821115611a5357600081816101000a81549060ff021916905550600101611a30565b5090565b90565b611a7c91905b80821115611a78576000816000905550600101611a60565b5090565b905600a165627a7a72305820aae7bbdfa00e5e5f0e934803c277fb147f542141873c227773dd3dd8b4c504060029",
  "source": "pragma solidity ^0.4.17;\nimport './LearnerLearningProvider.sol';\n\ncontract ProviderIndex {\n    event ProviderIndexContractEvents(address indexed sender, address indexed participantAddress,\n        address affectedContractAddress, string indexed actionType);\n\n    struct Staff {\n        address staff;\n        uint8 [] staff_type; // 0 = teacher\n        uint64 joined; // timestamp of recruitment date\n        uint64 left; // timestamp of withdrawal date\n        bool active;\n    }\n    mapping(address => address[]) learners2LearningRecords;\n    mapping(address => Staff) staffMembers;\n    mapping(address => bool) duplicateTracker;\n    mapping(address => bool) learnersDuplicateTracker;\n    address owner;\n    address [] learners;\n    address [] staffLUT; // staff members lookup table\n\n    constructor(address _owner) public {\n        owner = _owner;\n        emit ProviderIndexContractEvents(msg.sender, _owner, address(this), \"PIC\");\n    }\n\n    function insertLearningRecord(address learner, address llpcContract) public payable {\n        LearnerLearningProvider llpc = LearnerLearningProvider(llpcContract);\n        if ( duplicateTracker[llpcContract] == false && llpc.canWrite(msg.sender, false) == true) {\n            duplicateTracker[llpcContract] = true;\n            learners2LearningRecords[learner].push(llpcContract);\n            if(learnersDuplicateTracker[learner] == false) {\n                learners.push(learner);\n            }\n            emit ProviderIndexContractEvents(msg.sender, learner, address(this), \"insertLearningRecord\");\n        }\n    }\n\n    function approveStaffMember(address staff, uint8 staff_type, uint64 joined, bool active) public payable{\n        if(msg.sender == owner) {\n            if(staffMembers[staff].staff == address(0)) {\n                staffLUT.push(staff);\n                staffMembers[staff].staff_type.push(staff_type);\n                staffMembers[staff] = Staff(staff, staffMembers[staff].staff_type, joined, 0, active);\n            } else {\n                staffMembers[staff].staff_type.push(staff_type);\n                staffMembers[staff].active = active;\n            }\n        } else {\n            revert();\n        }\n    }\n\n    function disapproveStaffMember(address staff, uint8 staff_type, uint64 left) public payable{\n        if(msg.sender == owner && (staffMembers[staff].active || staffMembers[staff].staff != address(0))) {\n            bool deleted = false;\n            for(uint i = 0; i < staffMembers[staff].staff_type.length; i++) {\n                if (staffMembers[staff].staff_type[i] == staff_type) {\n                    // remove permission for this staff_type\n                    staffMembers[staff].staff_type[i] = staffMembers[staff].staff_type[staffMembers[staff].staff_type.length - 1];\n                    deleted = true;\n                    break;\n                }\n            }\n\n            if (deleted) {\n                delete staffMembers[staff].staff_type[staffMembers[staff].staff_type.length - 1];\n                staffMembers[staff].staff_type.length--;\n            }\n\n            if (staffMembers[staff].staff_type.length == 0) {\n                staffMembers[staff].left = left;\n                staffMembers[staff].active = false;\n            }\n\n        } else {\n            revert();\n        }\n    }\n\n    function getOwner() public view returns (address _owner) {\n        return owner;\n    }\n\n    function getLearningRecordsByLearner(address learner) public view returns (address[]) {\n        return learners2LearningRecords[learner];\n    }\n\n    function getStaffMember(address staff) public view returns (address, uint8 [], uint64, uint64, bool) {\n        return (staffMembers[staff].staff, staffMembers[staff].staff_type, staffMembers[staff].joined, staffMembers[staff].left, staffMembers[staff].active);\n    }\n\n    function isStaffActive(address staff) public view returns (bool) {\n        return staffMembers[staff].active;\n    }\n\n    function getStaff() public view returns (address []) {\n        if(msg.sender == owner) {\n            return staffLUT;\n        }\n    }\n\n    function getStaffCount() public view returns (uint) {\n        if(msg.sender == owner) {\n            return staffLUT.length;\n        }\n    }\n\n    function getLearners() public view returns (address []) {\n        if(msg.sender == owner) {\n            return learners;\n        }\n    }\n\n}\n",
  "sourcePath": "/Users/admin/truffle-codes/contracts/ProviderIndex.sol",
  "compiler": {
    "name": "solc",
    "version": "0.4.24+commit.e67f0147.Emscripten.clang"
  },
  "schemaVersion": "2.0.1",
  "updatedAt": "2019-07-26T13:01:59.650Z"
}