{
  "contractName": "Registrar",
  "abi": [
    {
      "constant": true,
      "inputs": [
        {
          "name": "participantAddress",
          "type": "address"
        },
        {
          "name": "_learner",
          "type": "address"
        },
        {
          "name": "_queryString",
          "type": "string"
        },
        {
          "name": "_queryResultHash",
          "type": "string"
        },
        {
          "name": "_recordType",
          "type": "string"
        }
      ],
      "name": "getStatus",
      "outputs": [
        {
          "name": "",
          "type": "uint8"
        }
      ],
      "payable": false,
      "stateMutability": "view",
      "type": "function"
    },
    {
      "constant": true,
      "inputs": [
        {
          "name": "participantAddress",
          "type": "address"
        }
      ],
      "name": "checkIsLearningProvider",
      "outputs": [
        {
          "name": "",
          "type": "bool"
        }
      ],
      "payable": false,
      "stateMutability": "view",
      "type": "function"
    },
    {
      "constant": false,
      "inputs": [
        {
          "name": "participantAddress",
          "type": "address"
        },
        {
          "name": "indexContract",
          "type": "address"
        }
      ],
      "name": "assignIndexContract",
      "outputs": [
        {
          "name": "",
          "type": "bool"
        }
      ],
      "payable": true,
      "stateMutability": "payable",
      "type": "function"
    },
    {
      "constant": true,
      "inputs": [
        {
          "name": "",
          "type": "address"
        },
        {
          "name": "indexContract",
          "type": "address"
        }
      ],
      "name": "registeredParticipants",
      "outputs": [
        {
          "name": "ethAddress",
          "type": "address"
        },
        {
          "name": "otherId",
          "type": "bytes"
        },
        {
          "name": "isLearningProvider",
          "type": "bool"
        },
        {
          "name": "indexContract",
          "type": "address"
        },
        {
          "name": "status",
          "type": "uint8"
        }
      ],
      "payable": false,
      "stateMutability": "view",
      "type": "function"
    },
    {
      "constant": false,
      "inputs": [
        {
          "name": "participantAddress",
          "type": "address"
        },
        {
          "name": "llpcContract",
          "type": "address"
        },
        {
          "name": "recordType",
          "type": "string"
        }
      ],
      "name": "unregistered",
      "outputs": [
        {
          "name": "",
          "type": "bool"
        },
        {
          "name": "otherId",
          "type": "bytes"
        },
        {
          "name": "isLearningProvider",
          "type": "bool"
        },
        {
          "name": "indexContract",
          "type": "address"
        },
        {
          "name": "status",
          "type": "uint8"
        }
      ],
      "payable": true,
      "stateMutability": "payable",
      "type": "function"
    },
    {
      "constant": false,
      "inputs": [
        {
          "name": "participantAddress",
          "type": "address"
        },
        {
          "name": "otherId",
          "type": "bytes"
        },
        {
          "name": "isLearningProvider",
          "type": "bool"
        },
        {
          "name": "indexContract",
          "type": "address"
        }
      ],
      "name": "register",
      "outputs": [
        {
          "name": "",
          "type": "bool"
        },
        {
          "name": "otherId",
          "type": "bytes"
        },
        {
          "name": "isLearningProvider",
          "type": "bool"
        },
        {
          "name": "indexContract",
          "type": "address"
        },
        {
          "name": "status",
          "type": "uint8"
        }
      ],
      "payable": true,
      "stateMutability": "payable",
      "type": "function"
    },
    {
      "constant": true,
      "inputs": [
        {
          "name": "participantAddress",
          "type": "address"
        },
        {
          "name": "otherId",
          "type": "bytes"
        },
        {
          "name": "isLearningProvider",
          "type": "bool"
        }
      ],
      "name": "getOtherId",
      "outputs": [
        {
          "name": "",
          "type": "bytes"
        }
      ],
      "payable": false,
      "stateMutability": "view",
      "type": "function"
    },
    {
      "constant": true,
      "inputs": [
        {
          "name": "participantAddress",
          "type": "address"
        },
        {
          "name": "otherId",
          "type": "bytes"
        },
        {
          "name": "isLearningProvider",
          "type": "bool"
        }
      ],
      "name": "getIndexContract",
      "outputs": [
        {
          "name": "",
          "type": "address"
        }
      ],
      "payable": false,
      "stateMutability": "view",
      "type": "function"
    },
    {
      "inputs": [
        {
          "name": "participantAddress",
          "type": "address"
        }
      ],
      "payable": false,
      "stateMutability": "nonpayable",
      "type": "constructor",
      "constant": true,
      "name": "getIndexContract",
      "outputs": [
        {
          "name": "",
          "type": "address"
        }
      ]
    },
    {
      "inputs": [
        {
          "name": "participantAddress",
          "type": "address"
        }
      ],
      "payable": false,
      "stateMutability": "nonpayable",
      "type": "constructor",
      "constant": true,
      "name": "getIndexContract",
      "outputs": [
        {
          "name": "",
          "type": "address"
        }
      ]
    },
    {
      "inputs": [],
      "payable": false,
      "stateMutability": "nonpayable",
      "type": "constructor"
    }
  ],
  "bytecode": "0x6060604052341561000f57600080fd5b336000806101000a81548173ffffffffffffffffffffffffffffffffffffffff021916908373ffffffffffffffffffffffffffffffffffffffff160217905550614f418061005e6000396000f30060606040526004361061008e576000357c0100000000000000000000000000000000000000000000000000000000900463ffffffff16806330ccebb51461009357806373020dc1146100e65780638aec31cf14610137578063980d52121461019c578063ba755c98146102e9578063c98f014f1461032f578063d1671b72146103c3578063f4e46c1c14610475575b600080fd5b341561009e57600080fd5b6100ca600480803573ffffffffffffffffffffffffffffffffffffffff169060200190919050506104ee565b604051808260ff1660ff16815260200191505060405180910390f35b34156100f157600080fd5b61011d600480803573ffffffffffffffffffffffffffffffffffffffff16906020019091905050610547565b604051808215151515815260200191505060405180910390f35b610182600480803573ffffffffffffffffffffffffffffffffffffffff1690602001909190803573ffffffffffffffffffffffffffffffffffffffff169060200190919050506105a0565b604051808215151515815260200191505060405180910390f35b34156101a757600080fd5b6101d3600480803573ffffffffffffffffffffffffffffffffffffffff1690602001909190505061068c565b604051808673ffffffffffffffffffffffffffffffffffffffff1673ffffffffffffffffffffffffffffffffffffffff16815260200180602001851515151581526020018473ffffffffffffffffffffffffffffffffffffffff1673ffffffffffffffffffffffffffffffffffffffff1681526020018360ff1660ff1681526020018281038252868181546001816001161561010002031660029004815260200191508054600181600116156101000203166002900480156102d65780601f106102ab576101008083540402835291602001916102d6565b820191906000526020600020905b8154815290600101906020018083116102b957829003601f168201915b5050965050505050505060405180910390f35b610315600480803573ffffffffffffffffffffffffffffffffffffffff1690602001909190505061071b565b604051808215151515815260200191505060405180910390f35b6103a9600480803573ffffffffffffffffffffffffffffffffffffffff1690602001909190803590602001908201803590602001908080601f0160208091040260200160405190810160405280939291908181526020018383808284378201915050505050509190803515159060200190919050506107e1565b604051808215151515815260200191505060405180910390f35b34156103ce57600080fd5b6103fa600480803573ffffffffffffffffffffffffffffffffffffffff16906020019091905050610eb5565b6040518080602001828103825283818151815260200191508051906020019080838360005b8381101561043a57808201518184015260208101905061041f565b50505050905090810190601f1680156104675780820380516001836020036101000a031916815260200191505b509250505060405180910390f35b341561048057600080fd5b6104ac600480803573ffffffffffffffffffffffffffffffffffffffff16906020019091905050610f9f565b604051808273ffffffffffffffffffffffffffffffffffffffff1673ffffffffffffffffffffffffffffffffffffffff16815260200191505060405180910390f35b6000600160008373ffffffffffffffffffffffffffffffffffffffff1673ffffffffffffffffffffffffffffffffffffffff16815260200190815260200160002060020160159054906101000a900460ff169050919050565b6000600160008373ffffffffffffffffffffffffffffffffffffffff1673ffffffffffffffffffffffffffffffffffffffff16815260200190815260200160002060020160009054906101000a900460ff169050919050565b60008060009054906101000a900473ffffffffffffffffffffffffffffffffffffffff1673ffffffffffffffffffffffffffffffffffffffff163373ffffffffffffffffffffffffffffffffffffffff1614156106815781600160008573ffffffffffffffffffffffffffffffffffffffff1673ffffffffffffffffffffffffffffffffffffffff16815260200190815260200160002060020160016101000a81548173ffffffffffffffffffffffffffffffffffffffff021916908373ffffffffffffffffffffffffffffffffffffffff16021790555060019050610686565b600090505b92915050565b60016020528060005260406000206000915090508060000160009054906101000a900473ffffffffffffffffffffffffffffffffffffffff169080600101908060020160009054906101000a900460ff16908060020160019054906101000a900473ffffffffffffffffffffffffffffffffffffffff16908060020160159054906101000a900460ff16905085565b60008060009054906101000a900473ffffffffffffffffffffffffffffffffffffffff1673ffffffffffffffffffffffffffffffffffffffff163373ffffffffffffffffffffffffffffffffffffffff1614156107d7576003600160008473ffffffffffffffffffffffffffffffffffffffff1673ffffffffffffffffffffffffffffffffffffffff16815260200190815260200160002060020160156101000a81548160ff021916908360ff160217905550600190506107dc565b600090505b919050565b60006107eb61100b565b600160008673ffffffffffffffffffffffffffffffffffffffff1673ffffffffffffffffffffffffffffffffffffffff16815260200190815260200160002060a060405190810160405290816000820160009054906101000a900473ffffffffffffffffffffffffffffffffffffffff1673ffffffffffffffffffffffffffffffffffffffff1673ffffffffffffffffffffffffffffffffffffffff168152602001600182018054600181600116156101000203166002900480601f0160208091040260200160405190810160405280929190818152602001828054600181600116156101000203166002900480156109255780601f106108fa57610100808354040283529160200191610925565b820191906000526020600020905b81548152906001019060200180831161090857829003601f168201915b505050505081526020016002820160009054906101000a900460ff161515151581526020016002820160019054906101000a900473ffffffffffffffffffffffffffffffffffffffff1673ffffffffffffffffffffffffffffffffffffffff1673ffffffffffffffffffffffffffffffffffffffff1681526020016002820160159054906101000a900460ff1660ff1660ff168152505090506000809054906101000a900473ffffffffffffffffffffffffffffffffffffffff1673ffffffffffffffffffffffffffffffffffffffff163373ffffffffffffffffffffffffffffffffffffffff161415610ea8576000816000015173ffffffffffffffffffffffffffffffffffffffff161415610bc35784816000019073ffffffffffffffffffffffffffffffffffffffff16908173ffffffffffffffffffffffffffffffffffffffff1681525050838160200181905250828160400190151590811515815250508215610b1e5784610a96611072565b808273ffffffffffffffffffffffffffffffffffffffff1673ffffffffffffffffffffffffffffffffffffffff168152602001915050604051809103906000f0801515610ae257600080fd5b816060019073ffffffffffffffffffffffffffffffffffffffff16908173ffffffffffffffffffffffffffffffffffffffff1681525050610bab565b84610b27611082565b808273ffffffffffffffffffffffffffffffffffffffff1673ffffffffffffffffffffffffffffffffffffffff168152602001915050604051809103906000f0801515610b7357600080fd5b816060019073ffffffffffffffffffffffffffffffffffffffff16908173ffffffffffffffffffffffffffffffffffffffff16815250505b6002816080019060ff16908160ff1681525050610d70565b838160200181905250828160400190151590811515815250508215610c735784610beb611072565b808273ffffffffffffffffffffffffffffffffffffffff1673ffffffffffffffffffffffffffffffffffffffff168152602001915050604051809103906000f0801515610c3757600080fd5b816060019073ffffffffffffffffffffffffffffffffffffffff16908173ffffffffffffffffffffffffffffffffffffffff1681525050610d00565b84610c7c611082565b808273ffffffffffffffffffffffffffffffffffffffff1673ffffffffffffffffffffffffffffffffffffffff168152602001915050604051809103906000f0801515610cc857600080fd5b816060019073ffffffffffffffffffffffffffffffffffffffff16908173ffffffffffffffffffffffffffffffffffffffff16815250505b6000809054906101000a900473ffffffffffffffffffffffffffffffffffffffff1673ffffffffffffffffffffffffffffffffffffffff163373ffffffffffffffffffffffffffffffffffffffff1614610d5b576002610d5e565b60015b816080019060ff16908160ff16815250505b80600160008773ffffffffffffffffffffffffffffffffffffffff1673ffffffffffffffffffffffffffffffffffffffff16815260200190815260200160002060008201518160000160006101000a81548173ffffffffffffffffffffffffffffffffffffffff021916908373ffffffffffffffffffffffffffffffffffffffff1602179055506020820151816001019080519060200190610e13929190611092565b5060408201518160020160006101000a81548160ff02191690831515021790555060608201518160020160016101000a81548173ffffffffffffffffffffffffffffffffffffffff021916908373ffffffffffffffffffffffffffffffffffffffff16021790555060808201518160020160156101000a81548160ff021916908360ff16021790555090505060019150610ead565b600091505b509392505050565b610ebd611112565b600160008373ffffffffffffffffffffffffffffffffffffffff1673ffffffffffffffffffffffffffffffffffffffff1681526020019081526020016000206001018054600181600116156101000203166002900480601f016020809104026020016040519081016040528092919081815260200182805460018160011615610100020316600290048015610f935780601f10610f6857610100808354040283529160200191610f93565b820191906000526020600020905b815481529060010190602001808311610f7657829003601f168201915b50505050509050919050565b6000600160008373ffffffffffffffffffffffffffffffffffffffff1673ffffffffffffffffffffffffffffffffffffffff16815260200190815260200160002060020160019054906101000a900473ffffffffffffffffffffffffffffffffffffffff169050919050565b60a060405190810160405280600073ffffffffffffffffffffffffffffffffffffffff16815260200161103c611126565b8152602001600015158152602001600073ffffffffffffffffffffffffffffffffffffffff168152602001600060ff1681525090565b604051612b5a8061116083390190565b60405161125c80613cba83390190565b828054600181600116156101000203166002900490600052602060002090601f016020900481019282601f106110d357805160ff1916838001178555611101565b82800160010185558215611101579182015b828111156111005782518255916020019190600101906110e5565b5b50905061110e919061113a565b5090565b602060405190810160405280600081525090565b602060405190810160405280600081525090565b61115c91905b80821115611158576000816000905550600101611140565b5090565b9056006060604052341561000f57600080fd5b604051602080612b5a8339810160405280805190602001909190505080600460006101000a81548173ffffffffffffffffffffffffffffffffffffffff021916908373ffffffffffffffffffffffffffffffffffffffff16021790555050612ade8061007c6000396000f3006060604052600436106200007f576000357c0100000000000000000000000000000000000000000000000000000000900463ffffffff1680631f49509614620000845780632a59f7ba14620001165780635762bc10146200028d57806363b3db42146200039657806399870471146200043b578063f9ac0e5914620004aa575b600080fd5b62000114600480803573ffffffffffffffffffffffffffffffffffffffff1690602001909190803573ffffffffffffffffffffffffffffffffffffffff1690602001909190803590602001908201803590602001908080601f0160208091040260200160405190810160405280939291908181526020018383808284378201915050505050509190505062000592565b005b6200024b600480803573ffffffffffffffffffffffffffffffffffffffff1690602001909190803573ffffffffffffffffffffffffffffffffffffffff1690602001909190803590602001908201803590602001908080601f0160208091040260200160405190810160405280939291908181526020018383808284378201915050505050509190803590602001908201803590602001908080601f0160208091040260200160405190810160405280939291908181526020018383808284378201915050505050509190803590602001908201803590602001908080601f0160208091040260200160405190810160405280939291908181526020018383808284378201915050505050509190803573ffffffffffffffffffffffffffffffffffffffff16906020019091905050620009f8565b604051808273ffffffffffffffffffffffffffffffffffffffff1673ffffffffffffffffffffffffffffffffffffffff16815260200191505060405180910390f35b34156200029957600080fd5b6200033d60048080359060200190820180359060200190808060200260200160405190810160405280939291908181526020018383602002808284378201915050505050509190803590602001909190803590602001909190803590602001908201803590602001908080601f0160208091040260200160405190810160405280939291908181526020018383808284378201915050505050509190505062000dcf565b6040518080602001828103825283818151815260200191508051906020019060200280838360005b838110156200038257808201518184015260208101905062000365565b505050509050019250505060405180910390f35b3415620003a257600080fd5b620003e2600480803573ffffffffffffffffffffffffffffffffffffffff16906020019091908035906020019091908035906020019091905050620010ef565b6040518080602001828103825283818151815260200191508051906020019060200280838360005b83811015620004275780820151818401526020810190506200040a565b505050509050019250505060405180910390f35b34156200044757600080fd5b6200045162001269565b6040518080602001828103825283818151815260200191508051906020019060200280838360005b838110156200049657808201518184015260208101905062000479565b505050509050019250505060405180910390f35b3415620004b657600080fd5b62000539600480803573ffffffffffffffffffffffffffffffffffffffff1690602001909190803590602001909190803590602001909190803590602001908201803590602001908080601f0160208091040260200160405190810160405280939291908181526020018383808284378201915050505050509190505062001301565b6040518080602001828103825283818151815260200191508051906020019060200280838360005b838110156200057e57808201518184015260208101905062000561565b505050509050019250505060405180910390f35b6000829050600460009054906101000a900473ffffffffffffffffffffffffffffffffffffffff1673ffffffffffffffffffffffffffffffffffffffff168173ffffffffffffffffffffffffffffffffffffffff1663893d20e86000604051602001526040518163ffffffff167c0100000000000000000000000000000000000000000000000000000000028152600401602060405180830381600087803b15156200063d57600080fd5b6102c65a03f115156200064f57600080fd5b5050506040518051905073ffffffffffffffffffffffffffffffffffffffff16148015620006c75750600160008473ffffffffffffffffffffffffffffffffffffffff1673ffffffffffffffffffffffffffffffffffffffff16815260200190815260200160002060009054906101000a900460ff16155b80156200078757508373ffffffffffffffffffffffffffffffffffffffff168173ffffffffffffffffffffffffffffffffffffffff1663483d45bd6000604051602001526040518163ffffffff167c0100000000000000000000000000000000000000000000000000000000028152600401602060405180830381600087803b15156200075357600080fd5b6102c65a03f115156200076557600080fd5b5050506040518051905073ffffffffffffffffffffffffffffffffffffffff16145b15620009f2576000808573ffffffffffffffffffffffffffffffffffffffff1673ffffffffffffffffffffffffffffffffffffffff1681526020019081526020016000208054806001018281620007df9190620015ba565b9160005260206000209060020201600060408051908101604052808773ffffffffffffffffffffffffffffffffffffffff16815260200186815250909190915060008201518160000160006101000a81548173ffffffffffffffffffffffffffffffffffffffff021916908373ffffffffffffffffffffffffffffffffffffffff160217905550602082015181600101908051906020019062000884929190620015ef565b5050505060018060008573ffffffffffffffffffffffffffffffffffffffff1673ffffffffffffffffffffffffffffffffffffffff16815260200190815260200160002060006101000a81548160ff021916908315150217905550600260008573ffffffffffffffffffffffffffffffffffffffff1673ffffffffffffffffffffffffffffffffffffffff16815260200190815260200160002060009054906101000a900460ff161515620009f1576003805480600101828162000949919062001676565b9160005260206000209001600086909190916101000a81548173ffffffffffffffffffffffffffffffffffffffff021916908373ffffffffffffffffffffffffffffffffffffffff160217905550506001600260008673ffffffffffffffffffffffffffffffffffffffff1673ffffffffffffffffffffffffffffffffffffffff16815260200190815260200160002060006101000a81548160ff0219169083151502179055505b5b50505050565b60008060008089898762000a0b620016a5565b808473ffffffffffffffffffffffffffffffffffffffff1673ffffffffffffffffffffffffffffffffffffffff1681526020018373ffffffffffffffffffffffffffffffffffffffff1673ffffffffffffffffffffffffffffffffffffffff16815260200180602001828103825283818151815260200191508051906020019080838360005b8381101562000aae57808201518184015260208101905062000a91565b50505050905090810190601f16801562000adc5780820380516001836020036101000a031916815260200191505b50945050505050604051809103906000f080151562000afa57600080fd5b92508291508173ffffffffffffffffffffffffffffffffffffffff16638e0777a789896040518363ffffffff167c0100000000000000000000000000000000000000000000000000000000028152600401808060200180602001838103835285818151815260200191508051906020019080838360005b8381101562000b8e57808201518184015260208101905062000b71565b50505050905090810190601f16801562000bbc5780820380516001836020036101000a031916815260200191505b50838103825284818151815260200191508051906020019080838360005b8381101562000bf757808201518184015260208101905062000bda565b50505050905090810190601f16801562000c255780820380516001836020036101000a031916815260200191505b50945050505050600060405180830381600087803b151562000c4657600080fd5b6102c65a03f1151562000c5857600080fd5b50505062000c6889848862000592565b8490508073ffffffffffffffffffffffffffffffffffffffff16631f4950968a85896040518463ffffffff167c0100000000000000000000000000000000000000000000000000000000028152600401808473ffffffffffffffffffffffffffffffffffffffff1673ffffffffffffffffffffffffffffffffffffffff1681526020018373ffffffffffffffffffffffffffffffffffffffff1673ffffffffffffffffffffffffffffffffffffffff16815260200180602001828103825283818151815260200191508051906020019080838360005b8381101562000d5b57808201518184015260208101905062000d3e565b50505050905090810190601f16801562000d895780820380516001836020036101000a031916815260200191505b50945050505050600060405180830381600087803b151562000daa57600080fd5b6102c65a03f1151562000dbc57600080fd5b5050508293505050509695505050505050565b62000dd9620016b6565b62000de3620016b6565b60008086860360405180591062000df75750595b908082528060200260200182016040525092508691505b875182111515620010e1578690505b600080898481518110151562000e2f57fe5b9060200190602002015173ffffffffffffffffffffffffffffffffffffffff1673ffffffffffffffffffffffffffffffffffffffff168152602001908152602001600020805490508110801562000e865750858111155b15620010d357846040518082805190602001908083835b60208310151562000ec4578051825260208201915060208101905060208303925062000e9d565b6001836020036101000a0380198251168184511680821785525050505050509050019150506040518091039020600019166000808a8581518110151562000f0757fe5b9060200190602002015173ffffffffffffffffffffffffffffffffffffffff1673ffffffffffffffffffffffffffffffffffffffff1681526020019081526020016000208281548110151562000f5957fe5b9060005260206000209060020201600101604051808280546001816001161561010002031660029004801562000fc95780601f1062000fa657610100808354040283529182019162000fc9565b820191906000526020600020905b81548152906001019060200180831162000fb4575b50509150506040518091039020600019161415620010c557600080898481518110151562000ff357fe5b9060200190602002015173ffffffffffffffffffffffffffffffffffffffff1673ffffffffffffffffffffffffffffffffffffffff168152602001908152602001600020818154811015156200104557fe5b906000526020600020906002020160000160009054906101000a900473ffffffffffffffffffffffffffffffffffffffff16838289038151811015156200108857fe5b9060200190602002019073ffffffffffffffffffffffffffffffffffffffff16908173ffffffffffffffffffffffffffffffffffffffff16815250505b808060010191505062000e1d565b818060010192505062000e0e565b829350505050949350505050565b620010f9620016b6565b62001103620016b6565b6000848403604051805910620011165750595b908082528060200260200182016040525091508490505b6000808773ffffffffffffffffffffffffffffffffffffffff1673ffffffffffffffffffffffffffffffffffffffff16815260200190815260200160002080549050811080156200117e5750838111155b156200125d576000808773ffffffffffffffffffffffffffffffffffffffff1673ffffffffffffffffffffffffffffffffffffffff16815260200190815260200160002081815481101515620011d057fe5b906000526020600020906002020160000160009054906101000a900473ffffffffffffffffffffffffffffffffffffffff16828287038151811015156200121357fe5b9060200190602002019073ffffffffffffffffffffffffffffffffffffffff16908173ffffffffffffffffffffffffffffffffffffffff168152505080806001019150506200112d565b81925050509392505050565b62001273620016b6565b6003805480602002602001604051908101604052809291908181526020018280548015620012f757602002820191906000526020600020905b8160009054906101000a900473ffffffffffffffffffffffffffffffffffffffff1673ffffffffffffffffffffffffffffffffffffffff1681526020019060010190808311620012ac575b5050505050905090565b6200130b620016b6565b62001315620016b6565b6000858503604051805910620013285750595b908082528060200260200182016040525091508590505b6000808873ffffffffffffffffffffffffffffffffffffffff1673ffffffffffffffffffffffffffffffffffffffff1681526020019081526020016000208054905081108015620013905750848111155b15620015ad57836040518082805190602001908083835b602083101515620013ce5780518252602082019150602081019050602083039250620013a7565b6001836020036101000a0380198251168184511680821785525050505050509050019150506040518091039020600019166000808973ffffffffffffffffffffffffffffffffffffffff1673ffffffffffffffffffffffffffffffffffffffff168152602001908152602001600020828154811015156200144b57fe5b90600052602060002090600202016001016040518082805460018160011615610100020316600290048015620014bb5780601f1062001498576101008083540402835291820191620014bb565b820191906000526020600020905b815481529060010190602001808311620014a6575b505091505060405180910390206000191614156200159f576000808873ffffffffffffffffffffffffffffffffffffffff1673ffffffffffffffffffffffffffffffffffffffff168152602001908152602001600020818154811015156200151f57fe5b906000526020600020906002020160000160009054906101000a900473ffffffffffffffffffffffffffffffffffffffff16828288038151811015156200156257fe5b9060200190602002019073ffffffffffffffffffffffffffffffffffffffff16908173ffffffffffffffffffffffffffffffffffffffff16815250505b80806001019150506200133f565b8192505050949350505050565b815481835581811511620015ea57600202816002028360005260206000209182019101620015e99190620016ca565b5b505050565b828054600181600116156101000203166002900490600052602060002090601f016020900481019282601f106200163257805160ff191683800117855562001663565b8280016001018555821562001663579182015b828111156200166257825182559160200191906001019062001645565b5b50905062001672919062001725565b5090565b815481835581811511620016a0578183600052602060002091820191016200169f919062001725565b5b505050565b604051611319806200179a83390190565b602060405190810160405280600081525090565b6200172291905b808211156200171e57600080820160006101000a81549073ffffffffffffffffffffffffffffffffffffffff02191690556001820160006200171491906200174d565b50600201620016d1565b5090565b90565b6200174a91905b80821115620017465760008160009055506001016200172c565b5090565b90565b50805460018160011615610100020316600290046000825580601f1062001775575062001796565b601f01602090049060005260206000209081019062001795919062001725565b5b5056006060604052341561000f57600080fd5b60405161131938038061131983398101604052808051906020019091908051906020019091908051820191905050826000806101000a81548173ffffffffffffffffffffffffffffffffffffffff021916908373ffffffffffffffffffffffffffffffffffffffff160217905550806003908051906020019061009392919061026b565b5060606040519081016040528060011515815260200160011515815260200160011515815250600160008473ffffffffffffffffffffffffffffffffffffffff1673ffffffffffffffffffffffffffffffffffffffff16815260200190815260200160002060008201518160000160006101000a81548160ff02191690831515021790555060208201518160000160016101000a81548160ff02191690831515021790555060408201518160000160026101000a81548160ff02191690831515021790555090505060606040519081016040528060011515815260200160011515815260200160011515815250600160003373ffffffffffffffffffffffffffffffffffffffff1673ffffffffffffffffffffffffffffffffffffffff16815260200190815260200160002060008201518160000160006101000a81548160ff02191690831515021790555060208201518160000160016101000a81548160ff02191690831515021790555060408201518160000160026101000a81548160ff02191690831515021790555090505033600460006101000a81548173ffffffffffffffffffffffffffffffffffffffff021916908373ffffffffffffffffffffffffffffffffffffffff160217905550505050610310565b828054600181600116156101000203166002900490600052602060002090601f016020900481019282601f106102ac57805160ff19168380011785556102da565b828001600101855582156102da579182015b828111156102d95782518255916020019190600101906102be565b5b5090506102e791906102eb565b5090565b61030d91905b808211156103095760008160009055506001016102f1565b5090565b90565b610ffa8061031f6000396000f3006060604052600436106100af576000357c0100000000000000000000000000000000000000000000000000000000900463ffffffff16806301e88208146100b45780630781f5c91461011b57806319ed0018146101a95780631ff2c99c146101d25780633239b71b1461022357806342087d4f14610274578063483d45bd146102c5578063893d20e81461031a5780638e0777a71461036f578063dbaf557f14610404578063df86ffcb14610578575b600080fd5b34156100bf57600080fd5b6100eb600480803573ffffffffffffffffffffffffffffffffffffffff1690602001909190505061061d565b60405180841515151581526020018315151515815260200182151515158152602001935050505060405180910390f35b341561012657600080fd5b61012e61066e565b6040518080602001828103825283818151815260200191508051906020019080838360005b8381101561016e578082015181840152602081019050610153565b50505050905090810190601f16801561019b5780820380516001836020036101000a031916815260200191505b509250505060405180910390f35b34156101b457600080fd5b6101bc610716565b6040518082815260200191505060405180910390f35b34156101dd57600080fd5b610209600480803573ffffffffffffffffffffffffffffffffffffffff16906020019091905050610782565b604051808215151515815260200191505060405180910390f35b341561022e57600080fd5b61025a600480803573ffffffffffffffffffffffffffffffffffffffff169060200190919050506107db565b604051808215151515815260200191505060405180910390f35b341561027f57600080fd5b6102ab600480803573ffffffffffffffffffffffffffffffffffffffff16906020019091905050610834565b604051808215151515815260200191505060405180910390f35b34156102d057600080fd5b6102d861088d565b604051808273ffffffffffffffffffffffffffffffffffffffff1673ffffffffffffffffffffffffffffffffffffffff16815260200191505060405180910390f35b341561032557600080fd5b61032d6108b7565b604051808273ffffffffffffffffffffffffffffffffffffffff1673ffffffffffffffffffffffffffffffffffffffff16815260200191505060405180910390f35b610402600480803590602001908201803590602001908080601f0160208091040260200160405190810160405280939291908181526020018383808284378201915050505050509190803590602001908201803590602001908080601f016020809104026020016040519081016040528093929190818152602001838380828437820191505050505050919050506108e0565b005b341561040f57600080fd5b61042560048080359060200190919050506109b5565b60405180806020018060200180602001848103845287818151815260200191508051906020019080838360005b8381101561046d578082015181840152602081019050610452565b50505050905090810190601f16801561049a5780820380516001836020036101000a031916815260200191505b50848103835286818151815260200191508051906020019080838360005b838110156104d35780820151818401526020810190506104b8565b50505050905090810190601f1680156105005780820380516001836020036101000a031916815260200191505b50848103825285818151815260200191508051906020019080838360005b8381101561053957808201518184015260208101905061051e565b50505050905090810190601f1680156105665780820380516001836020036101000a031916815260200191505b50965050505050505060405180910390f35b610603600480803573ffffffffffffffffffffffffffffffffffffffff1690602001909190803573ffffffffffffffffffffffffffffffffffffffff1690602001909190803573ffffffffffffffffffffffffffffffffffffffff16906020019091908035151590602001909190803515159060200190919080351515906020019091905050610c4b565b604051808215151515815260200191505060405180910390f35b60016020528060005260406000206000915090508060000160009054906101000a900460ff16908060000160019054906101000a900460ff16908060000160029054906101000a900460ff16905083565b610676610e34565b60038054600181600116156101000203166002900480601f01602080910402602001604051908101604052809291908181526020018280546001816001161561010002031660029004801561070c5780601f106106e15761010080835404028352916020019161070c565b820191906000526020600020905b8154815290600101906020018083116106ef57829003601f168201915b5050505050905090565b6000600160003373ffffffffffffffffffffffffffffffffffffffff1673ffffffffffffffffffffffffffffffffffffffff16815260200190815260200160002060000160009054906101000a900460ff161561077a57600280549050905061077f565b600090505b90565b6000600160008373ffffffffffffffffffffffffffffffffffffffff1673ffffffffffffffffffffffffffffffffffffffff16815260200190815260200160002060000160029054906101000a900460ff169050919050565b6000600160008373ffffffffffffffffffffffffffffffffffffffff1673ffffffffffffffffffffffffffffffffffffffff16815260200190815260200160002060000160019054906101000a900460ff169050919050565b6000600160008373ffffffffffffffffffffffffffffffffffffffff1673ffffffffffffffffffffffffffffffffffffffff16815260200190815260200160002060000160009054906101000a900460ff169050919050565b6000600460009054906101000a900473ffffffffffffffffffffffffffffffffffffffff16905090565b60008060009054906101000a900473ffffffffffffffffffffffffffffffffffffffff16905090565b600160003373ffffffffffffffffffffffffffffffffffffffff1673ffffffffffffffffffffffffffffffffffffffff16815260200190815260200160002060000160019054906101000a900460ff16156109b157600280548060010182816109499190610e48565b916000526020600020906002020160006040805190810160405280858152602001868152509091909150600082015181600001908051906020019061098f929190610e7a565b5060208201518160010190805190602001906109ac929190610e7a565b505050505b5050565b6109bd610e34565b6109c5610e34565b6109cd610e34565b600160003373ffffffffffffffffffffffffffffffffffffffff1673ffffffffffffffffffffffffffffffffffffffff16815260200190815260200160002060000160009054906101000a900460ff1615610c43576003600285815481101515610a3357fe5b9060005260206000209060020201600001600286815481101515610a5357fe5b9060005260206000209060020201600101828054600181600116156101000203166002900480601f016020809104026020016040519081016040528092919081815260200182805460018160011615610100020316600290048015610af95780601f10610ace57610100808354040283529160200191610af9565b820191906000526020600020905b815481529060010190602001808311610adc57829003601f168201915b50505050509250818054600181600116156101000203166002900480601f016020809104026020016040519081016040528092919081815260200182805460018160011615610100020316600290048015610b955780601f10610b6a57610100808354040283529160200191610b95565b820191906000526020600020905b815481529060010190602001808311610b7857829003601f168201915b50505050509150808054600181600116156101000203166002900480601f016020809104026020016040519081016040528092919081815260200182805460018160011615610100020316600290048015610c315780601f10610c0657610100808354040283529160200191610c31565b820191906000526020600020905b815481529060010190602001808311610c1457829003601f168201915b50505050509050925092509250610c44565b5b9193909250565b6000610c55610efa565b600160003373ffffffffffffffffffffffffffffffffffffffff1673ffffffffffffffffffffffffffffffffffffffff16815260200190815260200160002060000160029054906101000a900460ff1615610e2457600160008873ffffffffffffffffffffffffffffffffffffffff1673ffffffffffffffffffffffffffffffffffffffff168152602001908152602001600020606060405190810160405290816000820160009054906101000a900460ff161515151581526020016000820160019054906101000a900460ff161515151581526020016000820160029054906101000a900460ff161515151581525050905082816040019015159081151581525050848160000190151590811515815250508381602001901515908115158152505080600160008973ffffffffffffffffffffffffffffffffffffffff1673ffffffffffffffffffffffffffffffffffffffff16815260200190815260200160002060008201518160000160006101000a81548160ff02191690831515021790555060208201518160000160016101000a81548160ff02191690831515021790555060408201518160000160026101000a81548160ff02191690831515021790555090505060019150610e29565b600091505b509695505050505050565b602060405190810160405280600081525090565b815481835581811511610e7557600202816002028360005260206000209182019101610e749190610f22565b5b505050565b828054600181600116156101000203166002900490600052602060002090601f016020900481019282601f10610ebb57805160ff1916838001178555610ee9565b82800160010185558215610ee9579182015b82811115610ee8578251825591602001919060010190610ecd565b5b509050610ef69190610f61565b5090565b6060604051908101604052806000151581526020016000151581526020016000151581525090565b610f5e91905b80821115610f5a5760008082016000610f419190610f86565b600182016000610f519190610f86565b50600201610f28565b5090565b90565b610f8391905b80821115610f7f576000816000905550600101610f67565b5090565b90565b50805460018160011615610100020316600290046000825580601f10610fac5750610fcb565b601f016020900490600052602060002090810190610fca9190610f61565b5b505600a165627a7a72305820184f01bf1575d87e614c986d7ce187958e917171575f624f2e7bcfb8a5d79a150029a165627a7a72305820e100941e76b633370bdd2af0a0d2f0c8cd5297be396e13b11863cbadd8667e7b00296060604052341561000f57600080fd5b60405160208061125c8339810160405280805190602001909190505080600460006101000a81548173ffffffffffffffffffffffffffffffffffffffff021916908373ffffffffffffffffffffffffffffffffffffffff160217905550506111e08061007c6000396000f30060606040526004361061006d576000357c0100000000000000000000000000000000000000000000000000000000900463ffffffff1680631f495096146100725780633062f03b14610102578063a0fb2d72146101a2578063cbb598971461020c578063f9ac0e5914610310575b600080fd5b610100600480803573ffffffffffffffffffffffffffffffffffffffff1690602001909190803573ffffffffffffffffffffffffffffffffffffffff1690602001909190803590602001908201803590602001908080601f016020809104026020016040519081016040528093929190818152602001838380828437820191505050505050919050506103f3565b005b341561010d57600080fd5b61014b600480803573ffffffffffffffffffffffffffffffffffffffff1690602001909190803590602001909190803590602001909190505061084b565b6040518080602001828103825283818151815260200191508051906020019060200280838360005b8381101561018e578082015181840152602081019050610173565b505050509050019250505060405180910390f35b34156101ad57600080fd5b6101b56109bb565b6040518080602001828103825283818151815260200191508051906020019060200280838360005b838110156101f85780820151818401526020810190506101dd565b505050509050019250505060405180910390f35b341561021757600080fd5b6102b960048080359060200190820180359060200190808060200260200160405190810160405280939291908181526020018383602002808284378201915050505050509190803590602001909190803590602001909190803590602001908201803590602001908080601f01602080910402602001604051908101604052809392919081815260200183838082843782019150505050505091905050610a4f565b6040518080602001828103825283818151815260200191508051906020019060200280838360005b838110156102fc5780820151818401526020810190506102e1565b505050509050019250505060405180910390f35b341561031b57600080fd5b61039c600480803573ffffffffffffffffffffffffffffffffffffffff1690602001909190803590602001909190803590602001909190803590602001908201803590602001908080601f01602080910402602001604051908101604052809392919081815260200183838082843782019150505050505091905050610d58565b6040518080602001828103825283818151815260200191508051906020019060200280838360005b838110156103df5780820151818401526020810190506103c4565b505050509050019250505060405180910390f35b6000829050600460009054906101000a900473ffffffffffffffffffffffffffffffffffffffff1673ffffffffffffffffffffffffffffffffffffffff168173ffffffffffffffffffffffffffffffffffffffff1663893d20e86000604051602001526040518163ffffffff167c0100000000000000000000000000000000000000000000000000000000028152600401602060405180830381600087803b151561049d57600080fd5b6102c65a03f115156104ae57600080fd5b5050506040518051905073ffffffffffffffffffffffffffffffffffffffff161480156105255750600160008473ffffffffffffffffffffffffffffffffffffffff1673ffffffffffffffffffffffffffffffffffffffff16815260200190815260200160002060009054906101000a900460ff16155b80156105e257508373ffffffffffffffffffffffffffffffffffffffff168173ffffffffffffffffffffffffffffffffffffffff1663483d45bd6000604051602001526040518163ffffffff167c0100000000000000000000000000000000000000000000000000000000028152600401602060405180830381600087803b15156105af57600080fd5b6102c65a03f115156105c057600080fd5b5050506040518051905073ffffffffffffffffffffffffffffffffffffffff16145b15610845576000808573ffffffffffffffffffffffffffffffffffffffff1673ffffffffffffffffffffffffffffffffffffffff16815260200190815260200160002080548060010182816106379190610fff565b9160005260206000209060020201600060408051908101604052808773ffffffffffffffffffffffffffffffffffffffff16815260200186815250909190915060008201518160000160006101000a81548173ffffffffffffffffffffffffffffffffffffffff021916908373ffffffffffffffffffffffffffffffffffffffff16021790555060208201518160010190805190602001906106da929190611031565b5050505060018060008573ffffffffffffffffffffffffffffffffffffffff1673ffffffffffffffffffffffffffffffffffffffff16815260200190815260200160002060006101000a81548160ff021916908315150217905550600260008573ffffffffffffffffffffffffffffffffffffffff1673ffffffffffffffffffffffffffffffffffffffff16815260200190815260200160002060009054906101000a900460ff161515610844576003805480600101828161079c91906110b1565b9160005260206000209001600086909190916101000a81548173ffffffffffffffffffffffffffffffffffffffff021916908373ffffffffffffffffffffffffffffffffffffffff160217905550506001600260008673ffffffffffffffffffffffffffffffffffffffff1673ffffffffffffffffffffffffffffffffffffffff16815260200190815260200160002060006101000a81548160ff0219169083151502179055505b5b50505050565b6108536110dd565b61085b6110dd565b600084840360405180591061086d5750595b908082528060200260200182016040525091508490505b6000808773ffffffffffffffffffffffffffffffffffffffff1673ffffffffffffffffffffffffffffffffffffffff16815260200190815260200160002080549050811080156108d45750838111155b156109af576000808773ffffffffffffffffffffffffffffffffffffffff1673ffffffffffffffffffffffffffffffffffffffff1681526020019081526020016000208181548110151561092457fe5b906000526020600020906002020160000160009054906101000a900473ffffffffffffffffffffffffffffffffffffffff168282870381518110151561096657fe5b9060200190602002019073ffffffffffffffffffffffffffffffffffffffff16908173ffffffffffffffffffffffffffffffffffffffff16815250508080600101915050610884565b81925050509392505050565b6109c36110dd565b6003805480602002602001604051908101604052809291908181526020018280548015610a4557602002820191906000526020600020905b8160009054906101000a900473ffffffffffffffffffffffffffffffffffffffff1673ffffffffffffffffffffffffffffffffffffffff16815260200190600101908083116109fb575b5050505050905090565b610a576110dd565b610a5f6110dd565b600080868603604051805910610a725750595b908082528060200260200182016040525092508691505b875182111515610d4a578690505b6000808984815181101515610aa857fe5b9060200190602002015173ffffffffffffffffffffffffffffffffffffffff1673ffffffffffffffffffffffffffffffffffffffff1681526020019081526020016000208054905081108015610afe5750858111155b15610d3d57846040518082805190602001908083835b602083101515610b395780518252602082019150602081019050602083039250610b14565b6001836020036101000a0380198251168184511680821785525050505050509050019150506040518091039020600019166000808a85815181101515610b7b57fe5b9060200190602002015173ffffffffffffffffffffffffffffffffffffffff1673ffffffffffffffffffffffffffffffffffffffff16815260200190815260200160002082815481101515610bcc57fe5b90600052602060002090600202016001016040518082805460018160011615610100020316600290048015610c385780601f10610c16576101008083540402835291820191610c38565b820191906000526020600020905b815481529060010190602001808311610c24575b50509150506040518091039020600019161415610d30576000808984815181101515610c6057fe5b9060200190602002015173ffffffffffffffffffffffffffffffffffffffff1673ffffffffffffffffffffffffffffffffffffffff16815260200190815260200160002081815481101515610cb157fe5b906000526020600020906002020160000160009054906101000a900473ffffffffffffffffffffffffffffffffffffffff1683828903815181101515610cf357fe5b9060200190602002019073ffffffffffffffffffffffffffffffffffffffff16908173ffffffffffffffffffffffffffffffffffffffff16815250505b8080600101915050610a97565b8180600101925050610a89565b829350505050949350505050565b610d606110dd565b610d686110dd565b6000858503604051805910610d7a5750595b908082528060200260200182016040525091508590505b6000808873ffffffffffffffffffffffffffffffffffffffff1673ffffffffffffffffffffffffffffffffffffffff1681526020019081526020016000208054905081108015610de15750848111155b15610ff257836040518082805190602001908083835b602083101515610e1c5780518252602082019150602081019050602083039250610df7565b6001836020036101000a0380198251168184511680821785525050505050509050019150506040518091039020600019166000808973ffffffffffffffffffffffffffffffffffffffff1673ffffffffffffffffffffffffffffffffffffffff16815260200190815260200160002082815481101515610e9857fe5b90600052602060002090600202016001016040518082805460018160011615610100020316600290048015610f045780601f10610ee2576101008083540402835291820191610f04565b820191906000526020600020905b815481529060010190602001808311610ef0575b50509150506040518091039020600019161415610fe5576000808873ffffffffffffffffffffffffffffffffffffffff1673ffffffffffffffffffffffffffffffffffffffff16815260200190815260200160002081815481101515610f6657fe5b906000526020600020906002020160000160009054906101000a900473ffffffffffffffffffffffffffffffffffffffff1682828803815181101515610fa857fe5b9060200190602002019073ffffffffffffffffffffffffffffffffffffffff16908173ffffffffffffffffffffffffffffffffffffffff16815250505b8080600101915050610d91565b8192505050949350505050565b81548183558181151161102c5760020281600202836000526020600020918201910161102b91906110f1565b5b505050565b828054600181600116156101000203166002900490600052602060002090601f016020900481019282601f1061107257805160ff19168380011785556110a0565b828001600101855582156110a0579182015b8281111561109f578251825591602001919060010190611084565b5b5090506110ad9190611147565b5090565b8154818355818115116110d8578183600052602060002091820191016110d79190611147565b5b505050565b602060405190810160405280600081525090565b61114491905b8082111561114057600080820160006101000a81549073ffffffffffffffffffffffffffffffffffffffff0219169055600182016000611137919061116c565b506002016110f7565b5090565b90565b61116991905b8082111561116557600081600090555060010161114d565b5090565b90565b50805460018160011615610100020316600290046000825580601f1061119257506111b1565b601f0160209004906000526020600020908101906111b09190611147565b5b505600a165627a7a72305820805a0e60f7f813656ed9bf4baaae4d124dacde690dbb438821fba3c7c14ef9560029a165627a7a72305820bfaae81c923853611079acaacd02965baee5146e8414d7e77cc343cc1d31fbfb0029",
  "source": "pragma solidity ^0.4.11;\nimport './UserIndex.sol';\nimport './ProviderIndex.sol';\n\ncontract Registrar {\n\n    struct Participant {\n        address ethAddress;\n        bytes otherId;\n        bool isLearningProvider;\n        address indexContract;\n        uint8 status; // 0 = rejected 1 = approved 2 = pending 3 = unregistered\n    }\n    \n    address owner;\n    mapping(address => Participant) public registeredParticipants;\n    \n    function Registrar() {\n        owner = msg.sender;\n    }\n\n    function getOtherId(address participantAddress) public constant returns(bytes) {\n        return registeredParticipants[participantAddress].otherId; \n    }\n    \n    function getIndexContract(address participantAddress) public constant returns (address) {\n        return registeredParticipants[participantAddress].indexContract;\n    }\n    \n    function getStatus(address participantAddress) public constant returns (uint8) {\n        return registeredParticipants[participantAddress].status;\n    }\n    \n    function checkIsLearningProvider(address participantAddress) public constant returns (bool) {\n        return registeredParticipants[participantAddress].isLearningProvider;\n    }\n    \n    function unregistered(address participantAddress) public payable returns (bool) {\n        if (msg.sender==owner) {\n            registeredParticipants[participantAddress].status = 3;\n            return true;\n        }else {\n            return false;\n        }\n    }\n    \n    function register(address participantAddress, bytes otherId, bool isLearningProvider) public payable returns (bool) {\n        Participant memory participant = registeredParticipants[participantAddress];\n        // Needs rewrite because only the creator can register learners\n       if (msg.sender == owner ) {\n           if (participant.ethAddress == 0) {\n                participant.ethAddress = participantAddress;\n                participant.otherId = otherId;\n                participant.isLearningProvider = isLearningProvider;\n                if(isLearningProvider) {\n                participant.indexContract = new ProviderIndex(participantAddress);\n                }else {\n                participant.indexContract = new UserIndex(participantAddress);\n                }\n                participant.status = 2;\n            } else {\n                //already registered;\n                participant.otherId = otherId;\n                participant.isLearningProvider = isLearningProvider;\n                if(isLearningProvider) {\n                participant.indexContract = new ProviderIndex(participantAddress);\n                }else {\n                participant.indexContract = new UserIndex(participantAddress);\n                }\n                participant.status = msg.sender==owner?1:2;\n            }\n            registeredParticipants[participantAddress] = participant;\n            return true;\n       }\n       return false;\n    }\n    \n    function assignIndexContract(address participantAddress, address indexContract) public payable returns (bool) {\n        if (msg.sender == owner) {\n            registeredParticipants[participantAddress].indexContract = indexContract;\n            return true;\n        }else {\n            return false;\n        }\n    }\n\n}\n",
  "sourcePath": "/Users/admin/truffle-codes/contracts/Registrar.sol",
  "compiler": {
    "name": "solc",
    "version": "0.4.18+commit.9cf6e910.Emscripten.clang"
  },
  "schemaVersion": "1.0.1",
  "updatedAt": "2018-01-06T22:01:06.217Z"
}