{
  "contractName": "Registrar",
  "abi": [
    {
      "constant": true,
      "inputs": [
        {
          "name": "participantAddress",
          "type": "address"
        }
      ],
      "name": "getStatus",
      "outputs": [
        {
          "name": "",
          "type": "uint8"
        }
      ],
      "payable": false,
      "stateMutability": "view",
      "type": "function"
    },
    {
      "constant": true,
      "inputs": [
        {
          "name": "participantAddress",
          "type": "address"
        }
      ],
      "name": "checkIsLearningProvider",
      "outputs": [
        {
          "name": "",
          "type": "bool"
        }
      ],
      "payable": false,
      "stateMutability": "view",
      "type": "function"
    },
    {
      "constant": false,
      "inputs": [
        {
          "name": "participantAddress",
          "type": "address"
        },
        {
          "name": "indexContract",
          "type": "address"
        }
      ],
      "name": "assignIndexContract",
      "outputs": [
        {
          "name": "",
          "type": "bool"
        }
      ],
      "payable": true,
      "stateMutability": "payable",
      "type": "function"
    },
    {
      "constant": true,
      "inputs": [
        {
          "name": "",
          "type": "address"
        }
      ],
      "name": "registeredParticipants",
      "outputs": [
        {
          "name": "ethAddress",
          "type": "address"
        },
        {
          "name": "otherId",
          "type": "bytes"
        },
        {
          "name": "isLearningProvider",
          "type": "bool"
        },
        {
          "name": "indexContract",
          "type": "address"
        },
        {
          "name": "status",
          "type": "uint8"
        }
      ],
      "payable": false,
      "stateMutability": "view",
      "type": "function"
    },
    {
      "constant": false,
      "inputs": [
        {
          "name": "participantAddress",
          "type": "address"
        }
      ],
      "name": "unregistered",
      "outputs": [
        {
          "name": "",
          "type": "bool"
        }
      ],
      "payable": true,
      "stateMutability": "payable",
      "type": "function"
    },
    {
      "constant": false,
      "inputs": [
        {
          "name": "participantAddress",
          "type": "address"
        },
        {
          "name": "otherId",
          "type": "bytes"
        },
        {
          "name": "isLearningProvider",
          "type": "bool"
        },
        {
          "name": "indexContract",
          "type": "address"
        }
      ],
      "name": "register",
      "outputs": [
        {
          "name": "",
          "type": "bool"
        }
      ],
      "payable": true,
      "stateMutability": "payable",
      "type": "function"
    },
    {
      "constant": true,
      "inputs": [
        {
          "name": "participantAddress",
          "type": "address"
        }
      ],
      "name": "getOtherId",
      "outputs": [
        {
          "name": "",
          "type": "bytes"
        }
      ],
      "payable": false,
      "stateMutability": "view",
      "type": "function"
    },
    {
      "constant": true,
      "inputs": [
        {
          "name": "participantAddress",
          "type": "address"
        }
      ],
      "name": "getIndexContract",
      "outputs": [
        {
          "name": "",
          "type": "address"
        }
      ],
      "payable": false,
      "stateMutability": "view",
      "type": "function"
    },
    {
      "inputs": [],
      "payable": false,
      "stateMutability": "nonpayable",
      "type": "constructor"
    }
  ],
  "bytecode": "0x6060604052341561000f57600080fd5b336000806101000a81548173ffffffffffffffffffffffffffffffffffffffff021916908373ffffffffffffffffffffffffffffffffffffffff1602179055506122d98061005e6000396000f30060606040526004361061008e576000357c0100000000000000000000000000000000000000000000000000000000900463ffffffff16806330ccebb51461009357806373020dc1146100e65780638aec31cf14610137578063980d52121461019c578063ba755c98146102e9578063cc27b32a1461032f578063d1671b72146103e2578063f4e46c1c14610494575b600080fd5b341561009e57600080fd5b6100ca600480803573ffffffffffffffffffffffffffffffffffffffff1690602001909190505061050d565b604051808260ff1660ff16815260200191505060405180910390f35b34156100f157600080fd5b61011d600480803573ffffffffffffffffffffffffffffffffffffffff16906020019091905050610566565b604051808215151515815260200191505060405180910390f35b610182600480803573ffffffffffffffffffffffffffffffffffffffff1690602001909190803573ffffffffffffffffffffffffffffffffffffffff169060200190919050506105bf565b604051808215151515815260200191505060405180910390f35b34156101a757600080fd5b6101d3600480803573ffffffffffffffffffffffffffffffffffffffff169060200190919050506106ab565b604051808673ffffffffffffffffffffffffffffffffffffffff1673ffffffffffffffffffffffffffffffffffffffff16815260200180602001851515151581526020018473ffffffffffffffffffffffffffffffffffffffff1673ffffffffffffffffffffffffffffffffffffffff1681526020018360ff1660ff1681526020018281038252868181546001816001161561010002031660029004815260200191508054600181600116156101000203166002900480156102d65780601f106102ab576101008083540402835291602001916102d6565b820191906000526020600020905b8154815290600101906020018083116102b957829003601f168201915b5050965050505050505060405180910390f35b610315600480803573ffffffffffffffffffffffffffffffffffffffff1690602001909190505061073a565b604051808215151515815260200191505060405180910390f35b6103c8600480803573ffffffffffffffffffffffffffffffffffffffff1690602001909190803590602001908201803590602001908080601f01602080910402602001604051908101604052809392919081815260200183838082843782019150505050505091908035151590602001909190803573ffffffffffffffffffffffffffffffffffffffff16906020019091905050610800565b604051808215151515815260200191505060405180910390f35b34156103ed57600080fd5b610419600480803573ffffffffffffffffffffffffffffffffffffffff16906020019091905050610db7565b6040518080602001828103825283818151815260200191508051906020019080838360005b8381101561045957808201518184015260208101905061043e565b50505050905090810190601f1680156104865780820380516001836020036101000a031916815260200191505b509250505060405180910390f35b341561049f57600080fd5b6104cb600480803573ffffffffffffffffffffffffffffffffffffffff16906020019091905050610ea1565b604051808273ffffffffffffffffffffffffffffffffffffffff1673ffffffffffffffffffffffffffffffffffffffff16815260200191505060405180910390f35b6000600160008373ffffffffffffffffffffffffffffffffffffffff1673ffffffffffffffffffffffffffffffffffffffff16815260200190815260200160002060020160159054906101000a900460ff169050919050565b6000600160008373ffffffffffffffffffffffffffffffffffffffff1673ffffffffffffffffffffffffffffffffffffffff16815260200190815260200160002060020160009054906101000a900460ff169050919050565b60008060009054906101000a900473ffffffffffffffffffffffffffffffffffffffff1673ffffffffffffffffffffffffffffffffffffffff163373ffffffffffffffffffffffffffffffffffffffff1614156106a05781600160008573ffffffffffffffffffffffffffffffffffffffff1673ffffffffffffffffffffffffffffffffffffffff16815260200190815260200160002060020160016101000a81548173ffffffffffffffffffffffffffffffffffffffff021916908373ffffffffffffffffffffffffffffffffffffffff160217905550600190506106a5565b600090505b92915050565b60016020528060005260406000206000915090508060000160009054906101000a900473ffffffffffffffffffffffffffffffffffffffff169080600101908060020160009054906101000a900460ff16908060020160019054906101000a900473ffffffffffffffffffffffffffffffffffffffff16908060020160159054906101000a900460ff16905085565b60008060009054906101000a900473ffffffffffffffffffffffffffffffffffffffff1673ffffffffffffffffffffffffffffffffffffffff163373ffffffffffffffffffffffffffffffffffffffff1614156107f6576003600160008473ffffffffffffffffffffffffffffffffffffffff1673ffffffffffffffffffffffffffffffffffffffff16815260200190815260200160002060020160156101000a81548160ff021916908360ff160217905550600190506107fb565b600090505b919050565b600061080a610f0d565b6000600160008873ffffffffffffffffffffffffffffffffffffffff1673ffffffffffffffffffffffffffffffffffffffff16815260200190815260200160002060a060405190810160405290816000820160009054906101000a900473ffffffffffffffffffffffffffffffffffffffff1673ffffffffffffffffffffffffffffffffffffffff1673ffffffffffffffffffffffffffffffffffffffff168152602001600182018054600181600116156101000203166002900480601f0160208091040260200160405190810160405280929190818152602001828054600181600116156101000203166002900480156109465780601f1061091b57610100808354040283529160200191610946565b820191906000526020600020905b81548152906001019060200180831161092957829003601f168201915b505050505081526020016002820160009054906101000a900460ff161515151581526020016002820160019054906101000a900473ffffffffffffffffffffffffffffffffffffffff1673ffffffffffffffffffffffffffffffffffffffff1673ffffffffffffffffffffffffffffffffffffffff1681526020016002820160159054906101000a900460ff1660ff1660ff168152505091506000809054906101000a900473ffffffffffffffffffffffffffffffffffffffff1673ffffffffffffffffffffffffffffffffffffffff163373ffffffffffffffffffffffffffffffffffffffff161415610da8576000826000015173ffffffffffffffffffffffffffffffffffffffff161415610af85786826000019073ffffffffffffffffffffffffffffffffffffffff16908173ffffffffffffffffffffffffffffffffffffffff16815250508582602001819052508482604001901515908115158152505083826060019073ffffffffffffffffffffffffffffffffffffffff16908173ffffffffffffffffffffffffffffffffffffffff16815250506002826080019060ff16908160ff1681525050610c70565b8582602001819052508482604001901515908115158152505084610b705786610b1f610f74565b808273ffffffffffffffffffffffffffffffffffffffff1673ffffffffffffffffffffffffffffffffffffffff168152602001915050604051809103906000f0801515610b6b57600080fd5b610bc6565b86610b79610f74565b808273ffffffffffffffffffffffffffffffffffffffff1673ffffffffffffffffffffffffffffffffffffffff168152602001915050604051809103906000f0801515610bc557600080fd5b5b905080826060019073ffffffffffffffffffffffffffffffffffffffff16908173ffffffffffffffffffffffffffffffffffffffff16815250506000809054906101000a900473ffffffffffffffffffffffffffffffffffffffff1673ffffffffffffffffffffffffffffffffffffffff163373ffffffffffffffffffffffffffffffffffffffff1614610c5b576002610c5e565b60015b826080019060ff16908160ff16815250505b81600160008973ffffffffffffffffffffffffffffffffffffffff1673ffffffffffffffffffffffffffffffffffffffff16815260200190815260200160002060008201518160000160006101000a81548173ffffffffffffffffffffffffffffffffffffffff021916908373ffffffffffffffffffffffffffffffffffffffff1602179055506020820151816001019080519060200190610d13929190610f84565b5060408201518160020160006101000a81548160ff02191690831515021790555060608201518160020160016101000a81548173ffffffffffffffffffffffffffffffffffffffff021916908373ffffffffffffffffffffffffffffffffffffffff16021790555060808201518160020160156101000a81548160ff021916908360ff16021790555090505060019250610dad565b600092505b5050949350505050565b610dbf611004565b600160008373ffffffffffffffffffffffffffffffffffffffff1673ffffffffffffffffffffffffffffffffffffffff1681526020019081526020016000206001018054600181600116156101000203166002900480601f016020809104026020016040519081016040528092919081815260200182805460018160011615610100020316600290048015610e955780601f10610e6a57610100808354040283529160200191610e95565b820191906000526020600020905b815481529060010190602001808311610e7857829003601f168201915b50505050509050919050565b6000600160008373ffffffffffffffffffffffffffffffffffffffff1673ffffffffffffffffffffffffffffffffffffffff16815260200190815260200160002060020160019054906101000a900473ffffffffffffffffffffffffffffffffffffffff169050919050565b60a060405190810160405280600073ffffffffffffffffffffffffffffffffffffffff168152602001610f3e611018565b8152602001600015158152602001600073ffffffffffffffffffffffffffffffffffffffff168152602001600060ff1681525090565b60405161125c8061105283390190565b828054600181600116156101000203166002900490600052602060002090601f016020900481019282601f10610fc557805160ff1916838001178555610ff3565b82800160010185558215610ff3579182015b82811115610ff2578251825591602001919060010190610fd7565b5b509050611000919061102c565b5090565b602060405190810160405280600081525090565b602060405190810160405280600081525090565b61104e91905b8082111561104a576000816000905550600101611032565b5090565b9056006060604052341561000f57600080fd5b60405160208061125c8339810160405280805190602001909190505080600460006101000a81548173ffffffffffffffffffffffffffffffffffffffff021916908373ffffffffffffffffffffffffffffffffffffffff160217905550506111e08061007c6000396000f30060606040526004361061006d576000357c0100000000000000000000000000000000000000000000000000000000900463ffffffff1680631f495096146100725780635762bc101461010257806363b3db421461020657806399870471146102a6578063f9ac0e5914610310575b600080fd5b610100600480803573ffffffffffffffffffffffffffffffffffffffff1690602001909190803573ffffffffffffffffffffffffffffffffffffffff1690602001909190803590602001908201803590602001908080601f016020809104026020016040519081016040528093929190818152602001838380828437820191505050505050919050506103f3565b005b341561010d57600080fd5b6101af60048080359060200190820180359060200190808060200260200160405190810160405280939291908181526020018383602002808284378201915050505050509190803590602001909190803590602001909190803590602001908201803590602001908080601f0160208091040260200160405190810160405280939291908181526020018383808284378201915050505050509190505061084b565b6040518080602001828103825283818151815260200191508051906020019060200280838360005b838110156101f25780820151818401526020810190506101d7565b505050509050019250505060405180910390f35b341561021157600080fd5b61024f600480803573ffffffffffffffffffffffffffffffffffffffff16906020019091908035906020019091908035906020019091905050610b54565b6040518080602001828103825283818151815260200191508051906020019060200280838360005b83811015610292578082015181840152602081019050610277565b505050509050019250505060405180910390f35b34156102b157600080fd5b6102b9610cc4565b6040518080602001828103825283818151815260200191508051906020019060200280838360005b838110156102fc5780820151818401526020810190506102e1565b505050509050019250505060405180910390f35b341561031b57600080fd5b61039c600480803573ffffffffffffffffffffffffffffffffffffffff1690602001909190803590602001909190803590602001909190803590602001908201803590602001908080601f01602080910402602001604051908101604052809392919081815260200183838082843782019150505050505091905050610d58565b6040518080602001828103825283818151815260200191508051906020019060200280838360005b838110156103df5780820151818401526020810190506103c4565b505050509050019250505060405180910390f35b6000829050600460009054906101000a900473ffffffffffffffffffffffffffffffffffffffff1673ffffffffffffffffffffffffffffffffffffffff168173ffffffffffffffffffffffffffffffffffffffff1663893d20e86000604051602001526040518163ffffffff167c0100000000000000000000000000000000000000000000000000000000028152600401602060405180830381600087803b151561049d57600080fd5b6102c65a03f115156104ae57600080fd5b5050506040518051905073ffffffffffffffffffffffffffffffffffffffff161480156105255750600160008473ffffffffffffffffffffffffffffffffffffffff1673ffffffffffffffffffffffffffffffffffffffff16815260200190815260200160002060009054906101000a900460ff16155b80156105e257508373ffffffffffffffffffffffffffffffffffffffff168173ffffffffffffffffffffffffffffffffffffffff1663483d45bd6000604051602001526040518163ffffffff167c0100000000000000000000000000000000000000000000000000000000028152600401602060405180830381600087803b15156105af57600080fd5b6102c65a03f115156105c057600080fd5b5050506040518051905073ffffffffffffffffffffffffffffffffffffffff16145b15610845576000808573ffffffffffffffffffffffffffffffffffffffff1673ffffffffffffffffffffffffffffffffffffffff16815260200190815260200160002080548060010182816106379190610fff565b9160005260206000209060020201600060408051908101604052808773ffffffffffffffffffffffffffffffffffffffff16815260200186815250909190915060008201518160000160006101000a81548173ffffffffffffffffffffffffffffffffffffffff021916908373ffffffffffffffffffffffffffffffffffffffff16021790555060208201518160010190805190602001906106da929190611031565b5050505060018060008573ffffffffffffffffffffffffffffffffffffffff1673ffffffffffffffffffffffffffffffffffffffff16815260200190815260200160002060006101000a81548160ff021916908315150217905550600260008573ffffffffffffffffffffffffffffffffffffffff1673ffffffffffffffffffffffffffffffffffffffff16815260200190815260200160002060009054906101000a900460ff161515610844576003805480600101828161079c91906110b1565b9160005260206000209001600086909190916101000a81548173ffffffffffffffffffffffffffffffffffffffff021916908373ffffffffffffffffffffffffffffffffffffffff160217905550506001600260008673ffffffffffffffffffffffffffffffffffffffff1673ffffffffffffffffffffffffffffffffffffffff16815260200190815260200160002060006101000a81548160ff0219169083151502179055505b5b50505050565b6108536110dd565b61085b6110dd565b60008086860360405180591061086e5750595b908082528060200260200182016040525092508691505b875182111515610b46578690505b60008089848151811015156108a457fe5b9060200190602002015173ffffffffffffffffffffffffffffffffffffffff1673ffffffffffffffffffffffffffffffffffffffff16815260200190815260200160002080549050811080156108fa5750858111155b15610b3957846040518082805190602001908083835b6020831015156109355780518252602082019150602081019050602083039250610910565b6001836020036101000a0380198251168184511680821785525050505050509050019150506040518091039020600019166000808a8581518110151561097757fe5b9060200190602002015173ffffffffffffffffffffffffffffffffffffffff1673ffffffffffffffffffffffffffffffffffffffff168152602001908152602001600020828154811015156109c857fe5b90600052602060002090600202016001016040518082805460018160011615610100020316600290048015610a345780601f10610a12576101008083540402835291820191610a34565b820191906000526020600020905b815481529060010190602001808311610a20575b50509150506040518091039020600019161415610b2c576000808984815181101515610a5c57fe5b9060200190602002015173ffffffffffffffffffffffffffffffffffffffff1673ffffffffffffffffffffffffffffffffffffffff16815260200190815260200160002081815481101515610aad57fe5b906000526020600020906002020160000160009054906101000a900473ffffffffffffffffffffffffffffffffffffffff1683828903815181101515610aef57fe5b9060200190602002019073ffffffffffffffffffffffffffffffffffffffff16908173ffffffffffffffffffffffffffffffffffffffff16815250505b8080600101915050610893565b8180600101925050610885565b829350505050949350505050565b610b5c6110dd565b610b646110dd565b6000848403604051805910610b765750595b908082528060200260200182016040525091508490505b6000808773ffffffffffffffffffffffffffffffffffffffff1673ffffffffffffffffffffffffffffffffffffffff1681526020019081526020016000208054905081108015610bdd5750838111155b15610cb8576000808773ffffffffffffffffffffffffffffffffffffffff1673ffffffffffffffffffffffffffffffffffffffff16815260200190815260200160002081815481101515610c2d57fe5b906000526020600020906002020160000160009054906101000a900473ffffffffffffffffffffffffffffffffffffffff1682828703815181101515610c6f57fe5b9060200190602002019073ffffffffffffffffffffffffffffffffffffffff16908173ffffffffffffffffffffffffffffffffffffffff16815250508080600101915050610b8d565b81925050509392505050565b610ccc6110dd565b6003805480602002602001604051908101604052809291908181526020018280548015610d4e57602002820191906000526020600020905b8160009054906101000a900473ffffffffffffffffffffffffffffffffffffffff1673ffffffffffffffffffffffffffffffffffffffff1681526020019060010190808311610d04575b5050505050905090565b610d606110dd565b610d686110dd565b6000858503604051805910610d7a5750595b908082528060200260200182016040525091508590505b6000808873ffffffffffffffffffffffffffffffffffffffff1673ffffffffffffffffffffffffffffffffffffffff1681526020019081526020016000208054905081108015610de15750848111155b15610ff257836040518082805190602001908083835b602083101515610e1c5780518252602082019150602081019050602083039250610df7565b6001836020036101000a0380198251168184511680821785525050505050509050019150506040518091039020600019166000808973ffffffffffffffffffffffffffffffffffffffff1673ffffffffffffffffffffffffffffffffffffffff16815260200190815260200160002082815481101515610e9857fe5b90600052602060002090600202016001016040518082805460018160011615610100020316600290048015610f045780601f10610ee2576101008083540402835291820191610f04565b820191906000526020600020905b815481529060010190602001808311610ef0575b50509150506040518091039020600019161415610fe5576000808873ffffffffffffffffffffffffffffffffffffffff1673ffffffffffffffffffffffffffffffffffffffff16815260200190815260200160002081815481101515610f6657fe5b906000526020600020906002020160000160009054906101000a900473ffffffffffffffffffffffffffffffffffffffff1682828803815181101515610fa857fe5b9060200190602002019073ffffffffffffffffffffffffffffffffffffffff16908173ffffffffffffffffffffffffffffffffffffffff16815250505b8080600101915050610d91565b8192505050949350505050565b81548183558181151161102c5760020281600202836000526020600020918201910161102b91906110f1565b5b505050565b828054600181600116156101000203166002900490600052602060002090601f016020900481019282601f1061107257805160ff19168380011785556110a0565b828001600101855582156110a0579182015b8281111561109f578251825591602001919060010190611084565b5b5090506110ad9190611147565b5090565b8154818355818115116110d8578183600052602060002091820191016110d79190611147565b5b505050565b602060405190810160405280600081525090565b61114491905b8082111561114057600080820160006101000a81549073ffffffffffffffffffffffffffffffffffffffff0219169055600182016000611137919061116c565b506002016110f7565b5090565b90565b61116991905b8082111561116557600081600090555060010161114d565b5090565b90565b50805460018160011615610100020316600290046000825580601f1061119257506111b1565b601f0160209004906000526020600020908101906111b09190611147565b5b505600a165627a7a72305820f90ac0b4a281e8b61a6800765f7fa6ee8987dbeddbbccad49c085c7ae74774140029a165627a7a7230582024f86bec0bc2f29662b7a0ff9ec5c1a396f821be5d2812f0dee8b475d2da257a0029",
  "source": "pragma solidity ^0.4.7;\nimport './UserIndex.sol';\nimport './ProviderIndex.sol';\n\ncontract Registrar {\n\n    struct Participant {\n        address ethAddress;\n        bytes otherId;\n        bool isLearningProvider;\n        address indexContract;\n        uint8 status; // 0 = rejected 1 = approved 2 = pending 3 = unregistered\n    }\n    \n    address owner;\n    mapping(address => Participant) public registeredParticipants;\n    \n    function Registrar() {\n        owner = msg.sender;\n    }\n\n    function getOtherId(address participantAddress) public constant returns(bytes) {\n        return registeredParticipants[participantAddress].otherId; \n    }\n    \n    function getIndexContract(address participantAddress) public constant returns (address) {\n        return registeredParticipants[participantAddress].indexContract;\n    }\n    \n    function getStatus(address participantAddress) public constant returns (uint8) {\n        return registeredParticipants[participantAddress].status;\n    }\n    \n    function checkIsLearningProvider(address participantAddress) public constant returns (bool) {\n        return registeredParticipants[participantAddress].isLearningProvider;\n    }\n    \n    function unregistered(address participantAddress) public payable returns (bool) {\n        if (msg.sender==owner) {\n            registeredParticipants[participantAddress].status = 3;\n            return true;\n        }else {\n            return false;\n        }\n    }\n    \n    function register(address participantAddress, bytes otherId, bool isLearningProvider, address indexContract) public payable returns (bool) {\n        Participant memory participant = registeredParticipants[participantAddress];\n       if (msg.sender == owner ) {\n           if (participant.ethAddress == 0) {\n                participant.ethAddress = participantAddress;\n                participant.otherId = otherId;\n                participant.isLearningProvider = isLearningProvider;\n                participant.indexContract = indexContract;\n                participant.status = 2;\n            } else {\n                //already registered;\n                participant.otherId = otherId;\n                participant.isLearningProvider = isLearningProvider;\n                address index = isLearningProvider? new ProviderIndex(participantAddress) : new ProviderIndex(participantAddress);\n                participant.indexContract = index;\n                participant.status = msg.sender==owner?1:2;\n            }\n            registeredParticipants[participantAddress] = participant;\n            return true;\n       }\n       return false;\n    }\n    \n    function assignIndexContract(address participantAddress, address indexContract) public payable returns (bool) {\n        if (msg.sender == owner) {\n            registeredParticipants[participantAddress].indexContract = indexContract;\n            return true;\n        }else {\n            return false;\n        }\n    }\n}\n",
  "sourcePath": "/Users/admin/truffle-codes/contracts/Registrar.sol",
  "compiler": {
    "name": "solc",
    "version": "0.4.18+commit.9cf6e910.Emscripten.clang"
  },
  "schemaVersion": "1.0.1",
  "updatedAt": "2017-12-10T08:46:24.093Z"
}