{
  "contractName": "Registrar",
  "abi": [
    {
      "constant": true,
      "inputs": [
        {
          "name": "participantAddress",
          "type": "address"
        }
      ],
      "name": "getStatus",
      "outputs": [
        {
          "name": "",
          "type": "uint8"
        }
      ],
      "payable": false,
      "stateMutability": "view",
      "type": "function"
    },
    {
      "constant": true,
      "inputs": [
        {
          "name": "participantAddress",
          "type": "address"
        }
      ],
      "name": "checkIsLearningProvider",
      "outputs": [
        {
          "name": "",
          "type": "bool"
        }
      ],
      "payable": false,
      "stateMutability": "view",
      "type": "function"
    },
    {
      "constant": false,
      "inputs": [
        {
          "name": "participantAddress",
          "type": "address"
        },
        {
          "name": "indexContract",
          "type": "address"
        }
      ],
      "name": "assignIndexContract",
      "outputs": [
        {
          "name": "",
          "type": "bool"
        }
      ],
      "payable": true,
      "stateMutability": "payable",
      "type": "function"
    },
    {
      "constant": true,
      "inputs": [
        {
          "name": "",
          "type": "address"
        }
      ],
      "name": "registeredParticipants",
      "outputs": [
        {
          "name": "ethAddress",
          "type": "address"
        },
        {
          "name": "otherId",
          "type": "bytes"
        },
        {
          "name": "isLearningProvider",
          "type": "bool"
        },
        {
          "name": "indexContract",
          "type": "address"
        },
        {
          "name": "status",
          "type": "uint8"
        }
      ],
      "payable": false,
      "stateMutability": "view",
      "type": "function"
    },
    {
      "constant": false,
      "inputs": [
        {
          "name": "participantAddress",
          "type": "address"
        }
      ],
      "name": "unregistered",
      "outputs": [
        {
          "name": "",
          "type": "bool"
        }
      ],
      "payable": true,
      "stateMutability": "payable",
      "type": "function"
    },
    {
      "constant": false,
      "inputs": [
        {
          "name": "participantAddress",
          "type": "address"
        },
        {
          "name": "otherId",
          "type": "bytes"
        },
        {
          "name": "isLearningProvider",
          "type": "bool"
        },
        {
          "name": "indexContract",
          "type": "address"
        }
      ],
      "name": "register",
      "outputs": [
        {
          "name": "",
          "type": "bool"
        }
      ],
      "payable": true,
      "stateMutability": "payable",
      "type": "function"
    },
    {
      "constant": true,
      "inputs": [
        {
          "name": "participantAddress",
          "type": "address"
        }
      ],
      "name": "getOtherId",
      "outputs": [
        {
          "name": "",
          "type": "bytes"
        }
      ],
      "payable": false,
      "stateMutability": "view",
      "type": "function"
    },
    {
      "constant": true,
      "inputs": [
        {
          "name": "participantAddress",
          "type": "address"
        }
      ],
      "name": "getIndexContract",
      "outputs": [
        {
          "name": "",
          "type": "address"
        }
      ],
      "payable": false,
      "stateMutability": "view",
      "type": "function"
    },
    {
      "inputs": [],
      "payable": false,
      "stateMutability": "nonpayable",
      "type": "constructor"
    }
  ],
  "bytecode": "0x6060604052341561000f57600080fd5b336000806101000a81548173ffffffffffffffffffffffffffffffffffffffff021916908373ffffffffffffffffffffffffffffffffffffffff160217905550610fb38061005e6000396000f30060606040526004361061008e576000357c0100000000000000000000000000000000000000000000000000000000900463ffffffff16806330ccebb51461009357806373020dc1146100e65780638aec31cf14610137578063980d52121461019c578063ba755c98146102e9578063cc27b32a1461032f578063d1671b72146103e2578063f4e46c1c14610494575b600080fd5b341561009e57600080fd5b6100ca600480803573ffffffffffffffffffffffffffffffffffffffff1690602001909190505061050d565b604051808260ff1660ff16815260200191505060405180910390f35b34156100f157600080fd5b61011d600480803573ffffffffffffffffffffffffffffffffffffffff16906020019091905050610566565b604051808215151515815260200191505060405180910390f35b610182600480803573ffffffffffffffffffffffffffffffffffffffff1690602001909190803573ffffffffffffffffffffffffffffffffffffffff169060200190919050506105bf565b604051808215151515815260200191505060405180910390f35b34156101a757600080fd5b6101d3600480803573ffffffffffffffffffffffffffffffffffffffff169060200190919050506106ab565b604051808673ffffffffffffffffffffffffffffffffffffffff1673ffffffffffffffffffffffffffffffffffffffff16815260200180602001851515151581526020018473ffffffffffffffffffffffffffffffffffffffff1673ffffffffffffffffffffffffffffffffffffffff1681526020018360ff1660ff1681526020018281038252868181546001816001161561010002031660029004815260200191508054600181600116156101000203166002900480156102d65780601f106102ab576101008083540402835291602001916102d6565b820191906000526020600020905b8154815290600101906020018083116102b957829003601f168201915b5050965050505050505060405180910390f35b610315600480803573ffffffffffffffffffffffffffffffffffffffff1690602001909190505061073a565b604051808215151515815260200191505060405180910390f35b6103c8600480803573ffffffffffffffffffffffffffffffffffffffff1690602001909190803590602001908201803590602001908080601f01602080910402602001604051908101604052809392919081815260200183838082843782019150505050505091908035151590602001909190803573ffffffffffffffffffffffffffffffffffffffff16906020019091905050610800565b604051808215151515815260200191505060405180910390f35b34156103ed57600080fd5b610419600480803573ffffffffffffffffffffffffffffffffffffffff16906020019091905050610cfd565b6040518080602001828103825283818151815260200191508051906020019080838360005b8381101561045957808201518184015260208101905061043e565b50505050905090810190601f1680156104865780820380516001836020036101000a031916815260200191505b509250505060405180910390f35b341561049f57600080fd5b6104cb600480803573ffffffffffffffffffffffffffffffffffffffff16906020019091905050610de7565b604051808273ffffffffffffffffffffffffffffffffffffffff1673ffffffffffffffffffffffffffffffffffffffff16815260200191505060405180910390f35b6000600160008373ffffffffffffffffffffffffffffffffffffffff1673ffffffffffffffffffffffffffffffffffffffff16815260200190815260200160002060020160159054906101000a900460ff169050919050565b6000600160008373ffffffffffffffffffffffffffffffffffffffff1673ffffffffffffffffffffffffffffffffffffffff16815260200190815260200160002060020160009054906101000a900460ff169050919050565b60008060009054906101000a900473ffffffffffffffffffffffffffffffffffffffff1673ffffffffffffffffffffffffffffffffffffffff163373ffffffffffffffffffffffffffffffffffffffff1614156106a05781600160008573ffffffffffffffffffffffffffffffffffffffff1673ffffffffffffffffffffffffffffffffffffffff16815260200190815260200160002060020160016101000a81548173ffffffffffffffffffffffffffffffffffffffff021916908373ffffffffffffffffffffffffffffffffffffffff160217905550600190506106a5565b600090505b92915050565b60016020528060005260406000206000915090508060000160009054906101000a900473ffffffffffffffffffffffffffffffffffffffff169080600101908060020160009054906101000a900460ff16908060020160019054906101000a900473ffffffffffffffffffffffffffffffffffffffff16908060020160159054906101000a900460ff16905085565b60008060009054906101000a900473ffffffffffffffffffffffffffffffffffffffff1673ffffffffffffffffffffffffffffffffffffffff163373ffffffffffffffffffffffffffffffffffffffff1614156107f6576003600160008473ffffffffffffffffffffffffffffffffffffffff1673ffffffffffffffffffffffffffffffffffffffff16815260200190815260200160002060020160156101000a81548160ff021916908360ff160217905550600190506107fb565b600090505b919050565b600061080a610e53565b600160008773ffffffffffffffffffffffffffffffffffffffff1673ffffffffffffffffffffffffffffffffffffffff16815260200190815260200160002060a060405190810160405290816000820160009054906101000a900473ffffffffffffffffffffffffffffffffffffffff1673ffffffffffffffffffffffffffffffffffffffff1673ffffffffffffffffffffffffffffffffffffffff168152602001600182018054600181600116156101000203166002900480601f0160208091040260200160405190810160405280929190818152602001828054600181600116156101000203166002900480156109445780601f1061091957610100808354040283529160200191610944565b820191906000526020600020905b81548152906001019060200180831161092757829003601f168201915b505050505081526020016002820160009054906101000a900460ff161515151581526020016002820160019054906101000a900473ffffffffffffffffffffffffffffffffffffffff1673ffffffffffffffffffffffffffffffffffffffff1673ffffffffffffffffffffffffffffffffffffffff1681526020016002820160159054906101000a900460ff1660ff1660ff168152505090506000809054906101000a900473ffffffffffffffffffffffffffffffffffffffff1673ffffffffffffffffffffffffffffffffffffffff163373ffffffffffffffffffffffffffffffffffffffff161415610cef576000816000015173ffffffffffffffffffffffffffffffffffffffff161415610af65785816000019073ffffffffffffffffffffffffffffffffffffffff16908173ffffffffffffffffffffffffffffffffffffffff16815250508481602001819052508381604001901515908115158152505082816060019073ffffffffffffffffffffffffffffffffffffffff16908173ffffffffffffffffffffffffffffffffffffffff16815250506002816080019060ff16908160ff1681525050610bb7565b848160200181905250838160400190151590811515815250506000809054906101000a900473ffffffffffffffffffffffffffffffffffffffff1673ffffffffffffffffffffffffffffffffffffffff163373ffffffffffffffffffffffffffffffffffffffff1614610b6a576002610b6d565b60015b816080019060ff16908160ff168152505082816060019073ffffffffffffffffffffffffffffffffffffffff16908173ffffffffffffffffffffffffffffffffffffffff16815250505b80600160008873ffffffffffffffffffffffffffffffffffffffff1673ffffffffffffffffffffffffffffffffffffffff16815260200190815260200160002060008201518160000160006101000a81548173ffffffffffffffffffffffffffffffffffffffff021916908373ffffffffffffffffffffffffffffffffffffffff1602179055506020820151816001019080519060200190610c5a929190610eba565b5060408201518160020160006101000a81548160ff02191690831515021790555060608201518160020160016101000a81548173ffffffffffffffffffffffffffffffffffffffff021916908373ffffffffffffffffffffffffffffffffffffffff16021790555060808201518160020160156101000a81548160ff021916908360ff16021790555090505060019150610cf4565b600091505b50949350505050565b610d05610f3a565b600160008373ffffffffffffffffffffffffffffffffffffffff1673ffffffffffffffffffffffffffffffffffffffff1681526020019081526020016000206001018054600181600116156101000203166002900480601f016020809104026020016040519081016040528092919081815260200182805460018160011615610100020316600290048015610ddb5780601f10610db057610100808354040283529160200191610ddb565b820191906000526020600020905b815481529060010190602001808311610dbe57829003601f168201915b50505050509050919050565b6000600160008373ffffffffffffffffffffffffffffffffffffffff1673ffffffffffffffffffffffffffffffffffffffff16815260200190815260200160002060020160019054906101000a900473ffffffffffffffffffffffffffffffffffffffff169050919050565b60a060405190810160405280600073ffffffffffffffffffffffffffffffffffffffff168152602001610e84610f4e565b8152602001600015158152602001600073ffffffffffffffffffffffffffffffffffffffff168152602001600060ff1681525090565b828054600181600116156101000203166002900490600052602060002090601f016020900481019282601f10610efb57805160ff1916838001178555610f29565b82800160010185558215610f29579182015b82811115610f28578251825591602001919060010190610f0d565b5b509050610f369190610f62565b5090565b602060405190810160405280600081525090565b602060405190810160405280600081525090565b610f8491905b80821115610f80576000816000905550600101610f68565b5090565b905600a165627a7a72305820f0a1564b067fbf6ca95a1a8534b7d05f4a698399e503d0a6411d246e9a07cb0e0029",
  "source": "pragma solidity ^0.4.11;\nimport './UserIndex.sol';\nimport './ProviderIndex.sol';\n\ncontract Registrar {\n\n    struct Participant {\n        address ethAddress;\n        bytes otherId;\n        bool isLearningProvider;\n        address indexContract;\n        uint8 status; // 0 = rejected 1 = approved 2 = pending 3 = unregistered\n    }\n    \n    address owner;\n    mapping(address => Participant) public registeredParticipants;\n    \n    function Registrar() {\n        owner = msg.sender;\n    }\n\n    function getOtherId(address participantAddress) public constant returns(bytes) {\n        return registeredParticipants[participantAddress].otherId; \n    }\n    \n    function getIndexContract(address participantAddress) public constant returns (address) {\n        return registeredParticipants[participantAddress].indexContract;\n    }\n    \n    function getStatus(address participantAddress) public constant returns (uint8) {\n        return registeredParticipants[participantAddress].status;\n    }\n    \n    function checkIsLearningProvider(address participantAddress) public constant returns (bool) {\n        return registeredParticipants[participantAddress].isLearningProvider;\n    }\n    \n    function unregistered(address participantAddress) public payable returns (bool) {\n        if (msg.sender==owner) {\n            registeredParticipants[participantAddress].status = 3;\n            return true;\n        }else {\n            return false;\n        }\n    }\n    \n    function register(address participantAddress, bytes otherId, bool isLearningProvider, address indexContract) public payable returns (bool) {\n        Participant memory participant = registeredParticipants[participantAddress];\n        // Needs rewrite because only the creator can register learners\n       if (msg.sender == owner ) {\n           if (participant.ethAddress == 0) {\n                participant.ethAddress = participantAddress;\n                participant.otherId = otherId;\n                participant.isLearningProvider = isLearningProvider;\n                participant.indexContract = indexContract;\n                participant.status = 2;\n            } else {\n                //already registered;\n                participant.otherId = otherId;\n                participant.isLearningProvider = isLearningProvider;\n                participant.status = msg.sender==owner?1:2;\n                participant.indexContract = indexContract;\n            }\n            registeredParticipants[participantAddress] = participant;\n            return true;\n       }\n       return false;\n    }\n    \n    function assignIndexContract(address participantAddress, address indexContract) public payable returns (bool) {\n        if (msg.sender == owner) {\n            registeredParticipants[participantAddress].indexContract = indexContract;\n            return true;\n        }else {\n            return false;\n        }\n    }\n}\n",
  "sourcePath": "/Users/admin/truffle-codes/contracts/Registrar.sol",
  "compiler": {
    "name": "solc",
    "version": "0.4.18+commit.9cf6e910.Emscripten.clang"
  },
  "schemaVersion": "1.0.1",
  "updatedAt": "2018-01-07T10:11:36.525Z"
}