{
  "contractName": "Registrar",
  "abi": [
    {
      "inputs": [],
      "payable": false,
      "stateMutability": "nonpayable",
      "type": "constructor"
    },
    {
      "anonymous": false,
      "inputs": [
        {
          "indexed": true,
          "name": "sender",
          "type": "address"
        },
        {
          "indexed": true,
          "name": "participantAddress",
          "type": "address"
        },
        {
          "indexed": false,
          "name": "affectedContractAddress",
          "type": "address"
        },
        {
          "indexed": true,
          "name": "actionType",
          "type": "string"
        }
      ],
      "name": "RegistrarContractEvents",
      "type": "event"
    },
    {
      "constant": true,
      "inputs": [
        {
          "name": "userId",
          "type": "bytes"
        },
        {
          "name": "accessToken",
          "type": "bytes"
        }
      ],
      "name": "findUserAddress",
      "outputs": [
        {
          "name": "",
          "type": "address"
        }
      ],
      "payable": false,
      "stateMutability": "view",
      "type": "function"
    },
    {
      "constant": true,
      "inputs": [
        {
          "name": "userId",
          "type": "bytes"
        },
        {
          "name": "schoolBOLLAddress",
          "type": "address"
        },
        {
          "name": "accessToken",
          "type": "bytes"
        }
      ],
      "name": "findUserAddress",
      "outputs": [
        {
          "name": "",
          "type": "address"
        }
      ],
      "payable": false,
      "stateMutability": "view",
      "type": "function"
    },
    {
      "constant": true,
      "inputs": [
        {
          "name": "participantAddress",
          "type": "address"
        }
      ],
      "name": "getIndexContract",
      "outputs": [
        {
          "name": "",
          "type": "address"
        }
      ],
      "payable": false,
      "stateMutability": "view",
      "type": "function"
    },
    {
      "constant": true,
      "inputs": [
        {
          "name": "participantAddress",
          "type": "address"
        }
      ],
      "name": "getStatus",
      "outputs": [
        {
          "name": "",
          "type": "uint8"
        }
      ],
      "payable": false,
      "stateMutability": "view",
      "type": "function"
    },
    {
      "constant": true,
      "inputs": [
        {
          "name": "participantAddress",
          "type": "address"
        }
      ],
      "name": "checkIsLearningProvider",
      "outputs": [
        {
          "name": "",
          "type": "bool"
        }
      ],
      "payable": false,
      "stateMutability": "view",
      "type": "function"
    },
    {
      "constant": false,
      "inputs": [
        {
          "name": "participantAddress",
          "type": "address"
        },
        {
          "name": "accessToken",
          "type": "bytes"
        }
      ],
      "name": "unregistered",
      "outputs": [
        {
          "name": "",
          "type": "bool"
        }
      ],
      "payable": true,
      "stateMutability": "payable",
      "type": "function"
    },
    {
      "constant": false,
      "inputs": [
        {
          "name": "schoolAddress",
          "type": "address"
        },
        {
          "name": "approved",
          "type": "bool"
        },
        {
          "name": "accessToken",
          "type": "bytes"
        }
      ],
      "name": "approveInstitute",
      "outputs": [],
      "payable": true,
      "stateMutability": "payable",
      "type": "function"
    },
    {
      "constant": false,
      "inputs": [
        {
          "name": "participantAddress",
          "type": "address"
        },
        {
          "name": "isLearningProvider",
          "type": "bool"
        },
        {
          "name": "indexContract",
          "type": "address"
        },
        {
          "name": "accessToken",
          "type": "bytes"
        }
      ],
      "name": "register",
      "outputs": [
        {
          "name": "",
          "type": "bool"
        }
      ],
      "payable": true,
      "stateMutability": "payable",
      "type": "function"
    },
    {
      "constant": false,
      "inputs": [
        {
          "name": "userId",
          "type": "bytes"
        },
        {
          "name": "bollAddress",
          "type": "address"
        },
        {
          "name": "accessToken",
          "type": "bytes"
        }
      ],
      "name": "pairUserIdWithBOLLAddress",
      "outputs": [],
      "payable": true,
      "stateMutability": "payable",
      "type": "function"
    },
    {
      "constant": false,
      "inputs": [
        {
          "name": "participantAddress",
          "type": "address"
        },
        {
          "name": "indexContract",
          "type": "address"
        },
        {
          "name": "accessToken",
          "type": "bytes"
        }
      ],
      "name": "assignIndexContract",
      "outputs": [
        {
          "name": "",
          "type": "bool"
        }
      ],
      "payable": true,
      "stateMutability": "payable",
      "type": "function"
    },
    {
      "constant": true,
      "inputs": [
        {
          "name": "accessToken",
          "type": "bytes"
        }
      ],
      "name": "isApprovedInstitute",
      "outputs": [
        {
          "name": "",
          "type": "bool"
        }
      ],
      "payable": false,
      "stateMutability": "view",
      "type": "function"
    },
    {
      "constant": true,
      "inputs": [
        {
          "name": "accessToken",
          "type": "bytes"
        },
        {
          "name": "providerAddress",
          "type": "address"
        }
      ],
      "name": "isApprovedInstitute",
      "outputs": [
        {
          "name": "",
          "type": "bool"
        }
      ],
      "payable": false,
      "stateMutability": "view",
      "type": "function"
    }
  ],
  "bytecode": "0x608060405234801561001057600080fd5b50336000806101000a81548173ffffffffffffffffffffffffffffffffffffffff021916908373ffffffffffffffffffffffffffffffffffffffff16021790555060405180807f5243000000000000000000000000000000000000000000000000000000000000815250600201905060405180910390203373ffffffffffffffffffffffffffffffffffffffff163373ffffffffffffffffffffffffffffffffffffffff167f6c51e7a470eededda77811ed129f254b7cb9c16d620443568a7430d004a1b6de30604051808273ffffffffffffffffffffffffffffffffffffffff1673ffffffffffffffffffffffffffffffffffffffff16815260200191505060405180910390a46119ff806101276000396000f3006080604052600436106100ba576000357c0100000000000000000000000000000000000000000000000000000000900463ffffffff1680631a6c442c146100bf57806330ccebb5146101ae578063343fc8381461020b57806341154d621461028c578063429cfeca1461034c57806342a6e550146103d457806373020dc114610468578063b575c15b146104c3578063c51ea53b14610585578063d98fea7314610694578063f15ea0f714610735578063f4e46c1c146107e9575b600080fd5b3480156100cb57600080fd5b5061016c600480360381019080803590602001908201803590602001908080601f0160208091040260200160405190810160405280939291908181526020018383808284378201915050505050509192919290803590602001908201803590602001908080601f016020809104026020016040519081016040528093929190818152602001838380828437820191505050505050919291929050505061086c565b604051808273ffffffffffffffffffffffffffffffffffffffff1673ffffffffffffffffffffffffffffffffffffffff16815260200191505060405180910390f35b3480156101ba57600080fd5b506101ef600480360381019080803573ffffffffffffffffffffffffffffffffffffffff169060200190929190505050610881565b604051808260ff1660ff16815260200191505060405180910390f35b34801561021757600080fd5b50610272600480360381019080803590602001908201803590602001908080601f01602080910402602001604051908101604052809392919081815260200183838082843782019150505050505091929192905050506108da565b604051808215151515815260200191505060405180910390f35b610332600480360381019080803573ffffffffffffffffffffffffffffffffffffffff169060200190929190803515159060200190929190803573ffffffffffffffffffffffffffffffffffffffff169060200190929190803590602001908201803590602001908080601f0160208091040260200160405190810160405280939291908181526020018383808284378201915050505050509192919290505050610a51565b604051808215151515815260200191505060405180910390f35b6103d2600480360381019080803573ffffffffffffffffffffffffffffffffffffffff169060200190929190803515159060200190929190803590602001908201803590602001908080601f0160208091040260200160405190810160405280939291908181526020018383808284378201915050505050509192919290505050610ec0565b005b61044e600480360381019080803573ffffffffffffffffffffffffffffffffffffffff169060200190929190803590602001908201803590602001908080601f0160208091040260200160405190810160405280939291908181526020018383808284378201915050505050509192919290505050611078565b604051808215151515815260200191505060405180910390f35b34801561047457600080fd5b506104a9600480360381019080803573ffffffffffffffffffffffffffffffffffffffff16906020019092919050505061121c565b604051808215151515815260200191505060405180910390f35b610583600480360381019080803590602001908201803590602001908080601f0160208091040260200160405190810160405280939291908181526020018383808284378201915050505050509192919290803573ffffffffffffffffffffffffffffffffffffffff169060200190929190803590602001908201803590602001908080601f0160208091040260200160405190810160405280939291908181526020018383808284378201915050505050509192919290505050611275565b005b34801561059157600080fd5b50610652600480360381019080803590602001908201803590602001908080601f0160208091040260200160405190810160405280939291908181526020018383808284378201915050505050509192919290803573ffffffffffffffffffffffffffffffffffffffff169060200190929190803590602001908201803590602001908080601f016020809104026020016040519081016040528093929190818152602001838380828437820191505050505050919291929050505061143a565b604051808273ffffffffffffffffffffffffffffffffffffffff1673ffffffffffffffffffffffffffffffffffffffff16815260200191505060405180910390f35b3480156106a057600080fd5b5061071b600480360381019080803590602001908201803590602001908080601f0160208091040260200160405190810160405280939291908181526020018383808284378201915050505050509192919290803573ffffffffffffffffffffffffffffffffffffffff169060200190929190505050611583565b604051808215151515815260200191505060405180910390f35b6107cf600480360381019080803573ffffffffffffffffffffffffffffffffffffffff169060200190929190803573ffffffffffffffffffffffffffffffffffffffff169060200190929190803590602001908201803590602001908080601f01602080910402602001604051908101604052809392919081815260200183838082843782019150505050505091929192905050506116fb565b604051808215151515815260200191505060405180910390f35b3480156107f557600080fd5b5061082a600480360381019080803573ffffffffffffffffffffffffffffffffffffffff169060200190929190505050611868565b604051808273ffffffffffffffffffffffffffffffffffffffff1673ffffffffffffffffffffffffffffffffffffffff16815260200191505060405180910390f35b600061087983338461143a565b905092915050565b6000600160008373ffffffffffffffffffffffffffffffffffffffff1673ffffffffffffffffffffffffffffffffffffffff16815260200190815260200160002060010160149054906101000a900460ff169050919050565b6000600260003373ffffffffffffffffffffffffffffffffffffffff1673ffffffffffffffffffffffffffffffffffffffff16815260200190815260200160002060000160009054906101000a900460ff168015610a4a5750816040518082805190602001908083835b6020831015156109695780518252602082019150602081019050602083039250610944565b6001836020036101000a038019825116818451168082178552505050505050905001915050604051809103902060001916600260003373ffffffffffffffffffffffffffffffffffffffff1673ffffffffffffffffffffffffffffffffffffffff1681526020019081526020016000206001016040518082805460018160011615610100020316600290048015610a375780601f10610a15576101008083540402835291820191610a37565b820191906000526020600020905b815481529060010190602001808311610a23575b5050915050604051809103902060001916145b9050919050565b6000610a5b6118d4565b610a64836108da565b15610eb257600160008773ffffffffffffffffffffffffffffffffffffffff1673ffffffffffffffffffffffffffffffffffffffff168152602001908152602001600020608060405190810160405290816000820160009054906101000a900473ffffffffffffffffffffffffffffffffffffffff1673ffffffffffffffffffffffffffffffffffffffff1673ffffffffffffffffffffffffffffffffffffffff1681526020016000820160149054906101000a900460ff161515151581526020016001820160009054906101000a900473ffffffffffffffffffffffffffffffffffffffff1673ffffffffffffffffffffffffffffffffffffffff1673ffffffffffffffffffffffffffffffffffffffff1681526020016001820160149054906101000a900460ff1660ff1660ff168152505090508573ffffffffffffffffffffffffffffffffffffffff163373ffffffffffffffffffffffffffffffffffffffff16148015610bd25750845b80610c1357508573ffffffffffffffffffffffffffffffffffffffff163373ffffffffffffffffffffffffffffffffffffffff1614158015610c12575084155b5b15610eb1576000816000015173ffffffffffffffffffffffffffffffffffffffff161415610c745785816000019073ffffffffffffffffffffffffffffffffffffffff16908173ffffffffffffffffffffffffffffffffffffffff16815250505b848160200190151590811515815250506001816060019060ff16908160ff168152505083816040019073ffffffffffffffffffffffffffffffffffffffff16908173ffffffffffffffffffffffffffffffffffffffff168152505080600160008873ffffffffffffffffffffffffffffffffffffffff1673ffffffffffffffffffffffffffffffffffffffff16815260200190815260200160002060008201518160000160006101000a81548173ffffffffffffffffffffffffffffffffffffffff021916908373ffffffffffffffffffffffffffffffffffffffff16021790555060208201518160000160146101000a81548160ff02191690831515021790555060408201518160010160006101000a81548173ffffffffffffffffffffffffffffffffffffffff021916908373ffffffffffffffffffffffffffffffffffffffff16021790555060608201518160010160146101000a81548160ff021916908360ff16021790555090505060405180807f7265676973746572000000000000000000000000000000000000000000000000815250600801905060405180910390208673ffffffffffffffffffffffffffffffffffffffff163373ffffffffffffffffffffffffffffffffffffffff167f6c51e7a470eededda77811ed129f254b7cb9c16d620443568a7430d004a1b6de30604051808273ffffffffffffffffffffffffffffffffffffffff1673ffffffffffffffffffffffffffffffffffffffff16815260200191505060405180910390a460019150610eb7565b5b600091505b50949350505050565b6000809054906101000a900473ffffffffffffffffffffffffffffffffffffffff1673ffffffffffffffffffffffffffffffffffffffff163373ffffffffffffffffffffffffffffffffffffffff161415611073576040805190810160405280831515815260200182815250600260008573ffffffffffffffffffffffffffffffffffffffff1673ffffffffffffffffffffffffffffffffffffffff16815260200190815260200160002060008201518160000160006101000a81548160ff0219169083151502179055506020820151816001019080519060200190610fa792919061192e565b5090505060405180807f617070726f7665496e7374697475746500000000000000000000000000000000815250601001905060405180910390208373ffffffffffffffffffffffffffffffffffffffff163373ffffffffffffffffffffffffffffffffffffffff167f6c51e7a470eededda77811ed129f254b7cb9c16d620443568a7430d004a1b6de30604051808273ffffffffffffffffffffffffffffffffffffffff1673ffffffffffffffffffffffffffffffffffffffff16815260200191505060405180910390a45b505050565b6000611083826108da565b80156110e0575060018060008573ffffffffffffffffffffffffffffffffffffffff1673ffffffffffffffffffffffffffffffffffffffff16815260200190815260200160002060010160149054906101000a900460ff1660ff16145b15611211576003600160008573ffffffffffffffffffffffffffffffffffffffff1673ffffffffffffffffffffffffffffffffffffffff16815260200190815260200160002060010160146101000a81548160ff021916908360ff16021790555060405180807f756e726567697374657265640000000000000000000000000000000000000000815250600c01905060405180910390208373ffffffffffffffffffffffffffffffffffffffff163373ffffffffffffffffffffffffffffffffffffffff167f6c51e7a470eededda77811ed129f254b7cb9c16d620443568a7430d004a1b6de30604051808273ffffffffffffffffffffffffffffffffffffffff1673ffffffffffffffffffffffffffffffffffffffff16815260200191505060405180910390a460019050611216565b600090505b92915050565b6000600160008373ffffffffffffffffffffffffffffffffffffffff1673ffffffffffffffffffffffffffffffffffffffff16815260200190815260200160002060000160149054906101000a900460ff169050919050565b61127e816108da565b156114355781600260003373ffffffffffffffffffffffffffffffffffffffff1673ffffffffffffffffffffffffffffffffffffffff168152602001908152602001600020600201846040518082805190602001908083835b6020831015156112fc57805182526020820191506020810190506020830392506112d7565b6001836020036101000a038019825116818451168082178552505050505050905001915050908152602001604051809103902060006101000a81548173ffffffffffffffffffffffffffffffffffffffff021916908373ffffffffffffffffffffffffffffffffffffffff16021790555060405180807f7061697255736572496457697468424f4c4c4164647265737300000000000000815250601901905060405180910390208273ffffffffffffffffffffffffffffffffffffffff163373ffffffffffffffffffffffffffffffffffffffff167f6c51e7a470eededda77811ed129f254b7cb9c16d620443568a7430d004a1b6de30604051808273ffffffffffffffffffffffffffffffffffffffff1673ffffffffffffffffffffffffffffffffffffffff16815260200191505060405180910390a45b505050565b6000611445826108da565b1561157b57600260008473ffffffffffffffffffffffffffffffffffffffff1673ffffffffffffffffffffffffffffffffffffffff16815260200190815260200160002060000160009054906101000a900460ff161561157257600260008473ffffffffffffffffffffffffffffffffffffffff1673ffffffffffffffffffffffffffffffffffffffff168152602001908152602001600020600201846040518082805190602001908083835b60208310151561151757805182526020820191506020810190506020830392506114f2565b6001836020036101000a038019825116818451168082178552505050505050905001915050908152602001604051809103902060009054906101000a900473ffffffffffffffffffffffffffffffffffffffff16905061157c565b6000905061157c565b5b9392505050565b6000600260008373ffffffffffffffffffffffffffffffffffffffff1673ffffffffffffffffffffffffffffffffffffffff16815260200190815260200160002060000160009054906101000a900460ff1680156116f35750826040518082805190602001908083835b60208310151561161257805182526020820191506020810190506020830392506115ed565b6001836020036101000a038019825116818451168082178552505050505050905001915050604051809103902060001916600260008473ffffffffffffffffffffffffffffffffffffffff1673ffffffffffffffffffffffffffffffffffffffff16815260200190815260200160002060010160405180828054600181600116156101000203166002900480156116e05780601f106116be5761010080835404028352918201916116e0565b820191906000526020600020905b8154815290600101906020018083116116cc575b5050915050604051809103902060001916145b905092915050565b6000611706826108da565b1561185c5782600160008673ffffffffffffffffffffffffffffffffffffffff1673ffffffffffffffffffffffffffffffffffffffff16815260200190815260200160002060010160006101000a81548173ffffffffffffffffffffffffffffffffffffffff021916908373ffffffffffffffffffffffffffffffffffffffff16021790555060405180807f61737369676e496e646578436f6e747261637400000000000000000000000000815250601301905060405180910390208473ffffffffffffffffffffffffffffffffffffffff163373ffffffffffffffffffffffffffffffffffffffff167f6c51e7a470eededda77811ed129f254b7cb9c16d620443568a7430d004a1b6de30604051808273ffffffffffffffffffffffffffffffffffffffff1673ffffffffffffffffffffffffffffffffffffffff16815260200191505060405180910390a460019050611861565b600090505b9392505050565b6000600160008373ffffffffffffffffffffffffffffffffffffffff1673ffffffffffffffffffffffffffffffffffffffff16815260200190815260200160002060010160009054906101000a900473ffffffffffffffffffffffffffffffffffffffff169050919050565b608060405190810160405280600073ffffffffffffffffffffffffffffffffffffffff168152602001600015158152602001600073ffffffffffffffffffffffffffffffffffffffff168152602001600060ff1681525090565b828054600181600116156101000203166002900490600052602060002090601f016020900481019282601f1061196f57805160ff191683800117855561199d565b8280016001018555821561199d579182015b8281111561199c578251825591602001919060010190611981565b5b5090506119aa91906119ae565b5090565b6119d091905b808211156119cc5760008160009055506001016119b4565b5090565b905600a165627a7a723058208b1ed9adfbfb0b1e44501390e126779b50f7e35129fa22cf104b3b96c3408dab0029",
  "source": "pragma solidity ^0.4.17;\n\ncontract Registrar {\n    event RegistrarContractEvents(address indexed sender, address indexed participantAddress,\n        address affectedContractAddress, string indexed actionType);\n\n    struct Participant {\n        address ethAddress;\n        bool isLearningProvider;\n        address indexContract;\n        uint8 status; // 0 = unregistered, 1 = approved, 2 = pending\n    }\n\n    struct SchoolsUsersRegistry {\n        bool isApproved;\n        bytes accessToken;\n        mapping(bytes => address) schoolId2BOLLAddress;\n    }\n\n    address owner;\n    mapping(address => Participant) private registeredParticipants;\n    mapping(address => SchoolsUsersRegistry) private schoolsUsersRegistry;\n\n    constructor() public {\n        owner = msg.sender;\n        emit RegistrarContractEvents(msg.sender, msg.sender, address(this), \"RC\");\n    }\n\n    function findUserAddress(bytes userId, address schoolBOLLAddress, bytes accessToken) public view returns (address) {\n        if (isApprovedInstitute(accessToken)) {\n            if (schoolsUsersRegistry[schoolBOLLAddress].isApproved) {\n                //emit RegistrarContractEvents(msg.sender, schoolBOLLAddress, address(this), \"findUserAddress\");\n                return schoolsUsersRegistry[schoolBOLLAddress].schoolId2BOLLAddress[userId];\n            }\n            return 0;\n        }\n    }\n\n    function findUserAddress(bytes userId, bytes accessToken) public view returns (address) {\n        return findUserAddress(userId, msg.sender, accessToken);\n    }\n\n    function getIndexContract(address participantAddress) public constant returns (address) {\n        //emit RegistrarContractEvents(msg.sender, participantAddress, address(this), \"getIndexContract\");\n        return registeredParticipants[participantAddress].indexContract;\n    }\n\n    function getStatus(address participantAddress) public constant returns (uint8) {\n        //emit RegistrarContractEvents(msg.sender, participantAddress, address(this), \"getStatus\");\n        return registeredParticipants[participantAddress].status;\n    }\n\n    function checkIsLearningProvider(address participantAddress) public constant returns (bool) {\n        //emit RegistrarContractEvents(msg.sender, participantAddress, address(this), \"checkIsLearningProvider\");\n        return registeredParticipants[participantAddress].isLearningProvider;\n    }\n\n    // ToDo who can deregister a user?\n    function unregistered(address participantAddress, bytes accessToken) public payable returns (bool) {\n        if (isApprovedInstitute(accessToken) && registeredParticipants[participantAddress].status == 1) {\n            registeredParticipants[participantAddress].status = 3;\n            emit RegistrarContractEvents(msg.sender, participantAddress, address(this), \"unregistered\");\n            return true;\n        } else {\n            return false;\n        }\n    }\n    // must be sent by the school ToDo change to allow schools to register other schools via consensus\n    function approveInstitute(address schoolAddress, bool approved, bytes accessToken) public payable {\n        if (msg.sender == owner) {\n            schoolsUsersRegistry[schoolAddress] = SchoolsUsersRegistry(approved, accessToken);\n            emit RegistrarContractEvents(msg.sender, schoolAddress, address(this), \"approveInstitute\");\n        }\n    }\n    //\n    function register(address participantAddress, bool isLearningProvider, address indexContract, bytes accessToken) public payable returns (bool) {\n        if (isApprovedInstitute(accessToken)) {\n            Participant memory participant = registeredParticipants[participantAddress];\n            // Needs rewrite because only the creator can register learners\n            if ((msg.sender == participantAddress && isLearningProvider) ||\n                (msg.sender != participantAddress && !isLearningProvider)) {\n                if (participant.ethAddress == 0) {\n                    participant.ethAddress = participantAddress;\n                }\n\n                participant.isLearningProvider = isLearningProvider;\n                participant.status = 1;\n                participant.indexContract = indexContract;\n\n                registeredParticipants[participantAddress] = participant;\n                emit RegistrarContractEvents(msg.sender, participantAddress, address(this), \"register\");\n\n                return true;\n            }\n        }\n        return false;\n    }\n    // must be sent/signed by school\n    function pairUserIdWithBOLLAddress(bytes userId, address bollAddress, bytes accessToken) public payable {\n        if (isApprovedInstitute(accessToken)) {\n            schoolsUsersRegistry[msg.sender].schoolId2BOLLAddress[userId] = bollAddress;\n            emit RegistrarContractEvents(msg.sender, bollAddress, address(this), \"pairUserIdWithBOLLAddress\");\n        }\n\n    }\n\n    function assignIndexContract(address participantAddress, address indexContract, bytes accessToken) public payable returns (bool) {\n        if (isApprovedInstitute(accessToken)) {\n            registeredParticipants[participantAddress].indexContract = indexContract;\n            emit RegistrarContractEvents(msg.sender, participantAddress, address(this), \"assignIndexContract\");\n            return true;\n        } else {\n            return false;\n        }\n    }\n\n    function isApprovedInstitute(bytes accessToken) public view returns (bool) {\n        //emit RegistrarContractEvents(msg.sender, msg.sender, address(this), \"isApprovedInstitute\");\n        return schoolsUsersRegistry[msg.sender].isApproved &&\n        keccak256(schoolsUsersRegistry[msg.sender].accessToken) == keccak256(accessToken);\n    }\n\n    function isApprovedInstitute(bytes accessToken, address providerAddress) public view returns (bool) {\n        //emit RegistrarContractEvents(msg.sender, providerAddress, address(this), \"isApprovedInstitute\");\n        return schoolsUsersRegistry[providerAddress].isApproved &&\n        keccak256(schoolsUsersRegistry[providerAddress].accessToken) == keccak256(accessToken);\n    }\n}\n",
  "sourcePath": "/Users/admin/truffle-codes/contracts/Registrar.sol",
  "compiler": {
    "name": "solc",
    "version": "0.4.24+commit.e67f0147.Emscripten.clang"
  },
  "schemaVersion": "2.0.1",
  "updatedAt": "2019-06-04T10:53:04.132Z"
}