{
  "contractName": "UserIndex",
  "abi": [
    {
      "constant": true,
      "inputs": [
        {
          "name": "recordType",
          "type": "string"
        },
        {
          "name": "llpcContract",
          "type": "address"
        },
        {
          "name": "recordType",
          "type": "string"
        }
      ],
      "name": "getRecordTypeLLPC",
      "outputs": [
        {
          "name": "",
          "type": "address"
        }
      ],
      "payable": false,
      "stateMutability": "view",
      "type": "function"
    },
    {
      "constant": false,
      "inputs": [
        {
          "name": "provider",
          "type": "address"
        },
        {
          "name": "llpcContract",
          "type": "address"
        },
        {
          "name": "recordType",
          "type": "string"
        }
      ],
      "name": "insertLearningRecord",
      "outputs": [
        {
          "name": "",
          "type": "address[]"
        }
      ],
      "payable": true,
      "stateMutability": "payable",
      "type": "function"
    },
    {
      "constant": true,
      "inputs": [
        {
          "name": "provider",
          "type": "address"
        },
        {
          "name": "start",
          "type": "uint256"
        },
        {
          "name": "end",
          "type": "uint256"
        }
      ],
      "name": "getLearningRecordsByProvider",
      "outputs": [
        {
          "name": "",
          "type": "address[]"
        }
      ],
      "payable": false,
      "stateMutability": "view",
      "type": "function"
    },
    {
      "constant": true,
      "inputs": [
        {
          "name": "providers",
          "type": "address[]"
        },
        {
          "name": "start",
          "type": "uint256"
        },
        {
          "name": "end",
          "type": "uint256"
        },
        {
          "name": "recordType",
          "type": "string"
        }
      ],
      "name": "getLearningProviders",
      "outputs": [
        {
          "name": "",
          "type": "address[]"
        }
      ],
      "payable": false,
      "stateMutability": "view",
      "type": "function"
    },
    {
      "constant": true,
      "inputs": [
        {
          "name": "",
          "type": "address"
        },
        {
          "name": "start",
          "type": "uint256"
        },
        {
          "name": "end",
          "type": "uint256"
        },
        {
          "name": "recordType",
          "type": "string"
        }
      ],
      "name": "duplicateTracker",
      "outputs": [
        {
          "name": "",
          "type": "bool"
        }
      ],
      "payable": false,
      "stateMutability": "view",
      "type": "function"
    },
    {
      "inputs": [
        {
          "name": "providers",
          "type": "address[]"
        },
        {
          "name": "start",
          "type": "uint256"
        },
        {
          "name": "end",
          "type": "uint256"
        },
        {
          "name": "recordType",
          "type": "string"
        }
      ],
      "payable": false,
      "stateMutability": "view",
      "type": "function",
      "constant": true,
      "name": "getLearningRecordsByRecordTypeAndProviders",
      "outputs": [
        {
          "name": "",
          "type": "address[]"
        }
      ]
    },
    {
      "constant": true,
      "inputs": [
        {
          "name": "",
          "type": "address"
        }
      ],
      "name": "duplicateProviderTracker",
      "outputs": [
        {
          "name": "",
          "type": "bool"
        }
      ],
      "payable": false,
      "stateMutability": "view",
      "type": "function"
    },
    {
      "constant": true,
      "inputs": [
        {
          "name": "provider",
          "type": "address"
        },
        {
          "name": "start",
          "type": "uint256"
        },
        {
          "name": "end",
          "type": "uint256"
        },
        {
          "name": "recordType",
          "type": "string"
        }
      ],
      "name": "getLearningRecordsByRecordType",
      "outputs": [
        {
          "name": "",
          "type": "address[]"
        }
      ],
      "payable": false,
      "stateMutability": "view",
      "type": "function"
    },
    {
      "inputs": [
        {
          "name": "_owner",
          "type": "address"
        }
      ],
      "payable": false,
      "stateMutability": "nonpayable",
      "type": "constructor"
    }
  ],
  "bytecode": "0x6060604052341561000f57600080fd5b6040516020806117898339810160405280805190602001909190505080600560006101000a81548173ffffffffffffffffffffffffffffffffffffffff021916908373ffffffffffffffffffffffffffffffffffffffff1602179055505061170d8061007c6000396000f30060606040526004361061008e576000357c0100000000000000000000000000000000000000000000000000000000900463ffffffff16806316d71c1c146100935780631f495096146101305780633062f03b146101c0578063a0fb2d7214610260578063b4b12419146102ca578063cbb598971461031b578063cebda5b01461041f578063f9ac0e5914610470575b600080fd5b341561009e57600080fd5b6100ee600480803590602001908201803590602001908080601f01602080910402602001604051908101604052809392919081815260200183838082843782019150505050505091905050610553565b604051808273ffffffffffffffffffffffffffffffffffffffff1673ffffffffffffffffffffffffffffffffffffffff16815260200191505060405180910390f35b6101be600480803573ffffffffffffffffffffffffffffffffffffffff1690602001909190803573ffffffffffffffffffffffffffffffffffffffff1690602001909190803590602001908201803590602001908080601f016020809104026020016040519081016040528093929190818152602001838380828437820191505050505050919050506105e8565b005b34156101cb57600080fd5b610209600480803573ffffffffffffffffffffffffffffffffffffffff16906020019091908035906020019091908035906020019091905050610d38565b6040518080602001828103825283818151815260200191508051906020019060200280838360005b8381101561024c578082015181840152602081019050610231565b505050509050019250505060405180910390f35b341561026b57600080fd5b610273610ea8565b6040518080602001828103825283818151815260200191508051906020019060200280838360005b838110156102b657808201518184015260208101905061029b565b505050509050019250505060405180910390f35b34156102d557600080fd5b610301600480803573ffffffffffffffffffffffffffffffffffffffff16906020019091905050610f3c565b604051808215151515815260200191505060405180910390f35b341561032657600080fd5b6103c860048080359060200190820180359060200190808060200260200160405190810160405280939291908181526020018383602002808284378201915050505050509190803590602001909190803590602001909190803590602001908201803590602001908080601f01602080910402602001604051908101604052809392919081815260200183838082843782019150505050505091905050610f5c565b6040518080602001828103825283818151815260200191508051906020019060200280838360005b8381101561040b5780820151818401526020810190506103f0565b505050509050019250505060405180910390f35b341561042a57600080fd5b610456600480803573ffffffffffffffffffffffffffffffffffffffff16906020019091905050611265565b604051808215151515815260200191505060405180910390f35b341561047b57600080fd5b6104fc600480803573ffffffffffffffffffffffffffffffffffffffff1690602001909190803590602001909190803590602001909190803590602001908201803590602001908080601f01602080910402602001604051908101604052809392919081815260200183838082843782019150505050505091905050611285565b6040518080602001828103825283818151815260200191508051906020019060200280838360005b8381101561053f578082015181840152602081019050610524565b505050509050019250505060405180910390f35b60006002826040518082805190602001908083835b60208310151561058d5780518252602082019150602081019050602083039250610568565b6001836020036101000a038019825116818451168082178552505050505050905001915050908152602001604051809103902060009054906101000a900473ffffffffffffffffffffffffffffffffffffffff169050919050565b6000829050600560009054906101000a900473ffffffffffffffffffffffffffffffffffffffff1673ffffffffffffffffffffffffffffffffffffffff168173ffffffffffffffffffffffffffffffffffffffff1663893d20e86000604051602001526040518163ffffffff167c0100000000000000000000000000000000000000000000000000000000028152600401602060405180830381600087803b151561069257600080fd5b6102c65a03f115156106a357600080fd5b5050506040518051905073ffffffffffffffffffffffffffffffffffffffff1614801561071a5750600160008473ffffffffffffffffffffffffffffffffffffffff1673ffffffffffffffffffffffffffffffffffffffff16815260200190815260200160002060009054906101000a900460ff16155b80156107e057508073ffffffffffffffffffffffffffffffffffffffff16633239b71b336000604051602001526040518263ffffffff167c0100000000000000000000000000000000000000000000000000000000028152600401808273ffffffffffffffffffffffffffffffffffffffff1673ffffffffffffffffffffffffffffffffffffffff168152602001915050602060405180830381600087803b15156107c457600080fd5b6102c65a03f115156107d557600080fd5b505050604051805190505b80156109645750600073ffffffffffffffffffffffffffffffffffffffff166002836040518082805190602001908083835b6020831015156108375780518252602082019150602081019050602083039250610812565b6001836020036101000a038019825116818451168082178552505050505050905001915050908152602001604051809103902060009054906101000a900473ffffffffffffffffffffffffffffffffffffffff1673ffffffffffffffffffffffffffffffffffffffff16148061096357508273ffffffffffffffffffffffffffffffffffffffff166002836040518082805190602001908083835b6020831015156108f757805182526020820191506020810190506020830392506108d2565b6001836020036101000a038019825116818451168082178552505050505050905001915050908152602001604051809103902060009054906101000a900473ffffffffffffffffffffffffffffffffffffffff1673ffffffffffffffffffffffffffffffffffffffff16145b5b15610d32576000808573ffffffffffffffffffffffffffffffffffffffff1673ffffffffffffffffffffffffffffffffffffffff16815260200190815260200160002080548060010182816109b9919061152c565b9160005260206000209060020201600060408051908101604052808773ffffffffffffffffffffffffffffffffffffffff16815260200186815250909190915060008201518160000160006101000a81548173ffffffffffffffffffffffffffffffffffffffff021916908373ffffffffffffffffffffffffffffffffffffffff1602179055506020820151816001019080519060200190610a5c92919061155e565b5050505060018060008573ffffffffffffffffffffffffffffffffffffffff1673ffffffffffffffffffffffffffffffffffffffff16815260200190815260200160002060006101000a81548160ff021916908315150217905550600360008573ffffffffffffffffffffffffffffffffffffffff1673ffffffffffffffffffffffffffffffffffffffff16815260200190815260200160002060009054906101000a900460ff161515610bc65760048054806001018281610b1e91906115de565b9160005260206000209001600086909190916101000a81548173ffffffffffffffffffffffffffffffffffffffff021916908373ffffffffffffffffffffffffffffffffffffffff160217905550506001600360008673ffffffffffffffffffffffffffffffffffffffff1673ffffffffffffffffffffffffffffffffffffffff16815260200190815260200160002060006101000a81548160ff0219169083151502179055505b600073ffffffffffffffffffffffffffffffffffffffff166002836040518082805190602001908083835b602083101515610c165780518252602082019150602081019050602083039250610bf1565b6001836020036101000a038019825116818451168082178552505050505050905001915050908152602001604051809103902060009054906101000a900473ffffffffffffffffffffffffffffffffffffffff1673ffffffffffffffffffffffffffffffffffffffff161415610d3157826002836040518082805190602001908083835b602083101515610cbf5780518252602082019150602081019050602083039250610c9a565b6001836020036101000a038019825116818451168082178552505050505050905001915050908152602001604051809103902060006101000a81548173ffffffffffffffffffffffffffffffffffffffff021916908373ffffffffffffffffffffffffffffffffffffffff1602179055505b5b50505050565b610d4061160a565b610d4861160a565b6000848403604051805910610d5a5750595b908082528060200260200182016040525091508490505b6000808773ffffffffffffffffffffffffffffffffffffffff1673ffffffffffffffffffffffffffffffffffffffff1681526020019081526020016000208054905081108015610dc15750838111155b15610e9c576000808773ffffffffffffffffffffffffffffffffffffffff1673ffffffffffffffffffffffffffffffffffffffff16815260200190815260200160002081815481101515610e1157fe5b906000526020600020906002020160000160009054906101000a900473ffffffffffffffffffffffffffffffffffffffff1682828703815181101515610e5357fe5b9060200190602002019073ffffffffffffffffffffffffffffffffffffffff16908173ffffffffffffffffffffffffffffffffffffffff16815250508080600101915050610d71565b81925050509392505050565b610eb061160a565b6004805480602002602001604051908101604052809291908181526020018280548015610f3257602002820191906000526020600020905b8160009054906101000a900473ffffffffffffffffffffffffffffffffffffffff1673ffffffffffffffffffffffffffffffffffffffff1681526020019060010190808311610ee8575b5050505050905090565b60016020528060005260406000206000915054906101000a900460ff1681565b610f6461160a565b610f6c61160a565b600080868603604051805910610f7f5750595b908082528060200260200182016040525092508691505b875182111515611257578690505b6000808984815181101515610fb557fe5b9060200190602002015173ffffffffffffffffffffffffffffffffffffffff1673ffffffffffffffffffffffffffffffffffffffff168152602001908152602001600020805490508110801561100b5750858111155b1561124a57846040518082805190602001908083835b6020831015156110465780518252602082019150602081019050602083039250611021565b6001836020036101000a0380198251168184511680821785525050505050509050019150506040518091039020600019166000808a8581518110151561108857fe5b9060200190602002015173ffffffffffffffffffffffffffffffffffffffff1673ffffffffffffffffffffffffffffffffffffffff168152602001908152602001600020828154811015156110d957fe5b906000526020600020906002020160010160405180828054600181600116156101000203166002900480156111455780601f10611123576101008083540402835291820191611145565b820191906000526020600020905b815481529060010190602001808311611131575b5050915050604051809103902060001916141561123d57600080898481518110151561116d57fe5b9060200190602002015173ffffffffffffffffffffffffffffffffffffffff1673ffffffffffffffffffffffffffffffffffffffff168152602001908152602001600020818154811015156111be57fe5b906000526020600020906002020160000160009054906101000a900473ffffffffffffffffffffffffffffffffffffffff168382890381518110151561120057fe5b9060200190602002019073ffffffffffffffffffffffffffffffffffffffff16908173ffffffffffffffffffffffffffffffffffffffff16815250505b8080600101915050610fa4565b8180600101925050610f96565b829350505050949350505050565b60036020528060005260406000206000915054906101000a900460ff1681565b61128d61160a565b61129561160a565b60008585036040518059106112a75750595b908082528060200260200182016040525091508590505b6000808873ffffffffffffffffffffffffffffffffffffffff1673ffffffffffffffffffffffffffffffffffffffff168152602001908152602001600020805490508110801561130e5750848111155b1561151f57836040518082805190602001908083835b6020831015156113495780518252602082019150602081019050602083039250611324565b6001836020036101000a0380198251168184511680821785525050505050509050019150506040518091039020600019166000808973ffffffffffffffffffffffffffffffffffffffff1673ffffffffffffffffffffffffffffffffffffffff168152602001908152602001600020828154811015156113c557fe5b906000526020600020906002020160010160405180828054600181600116156101000203166002900480156114315780601f1061140f576101008083540402835291820191611431565b820191906000526020600020905b81548152906001019060200180831161141d575b50509150506040518091039020600019161415611512576000808873ffffffffffffffffffffffffffffffffffffffff1673ffffffffffffffffffffffffffffffffffffffff1681526020019081526020016000208181548110151561149357fe5b906000526020600020906002020160000160009054906101000a900473ffffffffffffffffffffffffffffffffffffffff16828288038151811015156114d557fe5b9060200190602002019073ffffffffffffffffffffffffffffffffffffffff16908173ffffffffffffffffffffffffffffffffffffffff16815250505b80806001019150506112be565b8192505050949350505050565b81548183558181151161155957600202816002028360005260206000209182019101611558919061161e565b5b505050565b828054600181600116156101000203166002900490600052602060002090601f016020900481019282601f1061159f57805160ff19168380011785556115cd565b828001600101855582156115cd579182015b828111156115cc5782518255916020019190600101906115b1565b5b5090506115da9190611674565b5090565b815481835581811511611605578183600052602060002091820191016116049190611674565b5b505050565b602060405190810160405280600081525090565b61167191905b8082111561166d57600080820160006101000a81549073ffffffffffffffffffffffffffffffffffffffff02191690556001820160006116649190611699565b50600201611624565b5090565b90565b61169691905b8082111561169257600081600090555060010161167a565b5090565b90565b50805460018160011615610100020316600290046000825580601f106116bf57506116de565b601f0160209004906000526020600020908101906116dd9190611674565b5b505600a165627a7a72305820dacee94986287ea25305c133061fd09723cb8de932947d3787d15080193a31960029",
  "source": "pragma solidity ^0.4.11;\nimport './LearnerLearningProvider.sol';\n\ncontract UserIndex {\n    struct LearningRecordDescriptor {\n        address llpcAddress;\n        string recordType;\n    }\n\n    mapping(address => LearningRecordDescriptor[]) providers2LearningRecords;\n    mapping(address => bool) public duplicateTracker;\n    mapping(string => address) private recordType2LLPC;\n    mapping(address => bool) public duplicateProviderTracker;\n    address[] private myLearningProviders;\n    address owner;\n\n    function UserIndex(address _owner) public {\n        owner = _owner;\n    }\n\n    function insertLearningRecord(address provider, address llpcContract, string recordType) public payable {\n        LearnerLearningProvider llpc = LearnerLearningProvider(llpcContract);\n        if (llpc.getOwner() == owner && !duplicateTracker[llpcContract] && llpc.canWrite(msg.sender) &&\n          (recordType2LLPC[recordType]== address(0) || recordType2LLPC[recordType] == llpcContract)) {\n            providers2LearningRecords[provider].push(LearningRecordDescriptor(llpcContract, recordType));\n            duplicateTracker[llpcContract] = true;\n            if(!duplicateProviderTracker[provider]){\n                myLearningProviders.push(provider);\n                duplicateProviderTracker[provider] = true;\n            }\n            if(recordType2LLPC[recordType] == address(0)) {\n                recordType2LLPC[recordType] = llpcContract;\n            }\n        }\n    }\n\n    function getLearningProviders() public view returns (address[]) {\n        return myLearningProviders;\n    }\n\n    function getRecordTypeLLPC(string recordType) public view returns (address) {\n        return recordType2LLPC[recordType];\n    }\n\n    function getLearningRecordsByProvider(address provider, uint start, uint end) public view returns (address[]) {\n        address[] memory res = new address[](end-start);\n        for (var index = start; index<providers2LearningRecords[provider].length && index <= end; index++) {\n            res[(start-index)] = providers2LearningRecords[provider][index].llpcAddress;\n        }\n        return res;\n    }\n\n    function getLearningRecordsByRecordType(address provider, uint start, uint end, string recordType) public view returns (address[]) {\n        address[] memory res = new address[](end-start);\n        for (var index = start; index<providers2LearningRecords[provider].length && index<=end; index++) {\n            if (keccak256(providers2LearningRecords[provider][index].recordType) == keccak256(recordType)) {\n                res[(start-index)] = providers2LearningRecords[provider][index].llpcAddress;\n            }\n        }\n        return res;\n    }\n\n    function getLearningRecordsByRecordTypeAndProviders(address[] providers, uint start, uint end, string recordType) public view returns (address[]) {\n        address[] memory res = new address[](end-start);\n        for (var index2 = start; index2 <= providers.length; index2++) {\n            for (var index = start; index < providers2LearningRecords[providers[index2]].length && index <= end; index++) {\n            if (keccak256(providers2LearningRecords[providers[index2]][index].recordType) == keccak256(recordType)) {\n                res[(start-index)] = providers2LearningRecords[providers[index2]][index].llpcAddress;\n            }\n        }\n        }\n        return res;\n    }\n    \n}\n",
  "sourcePath": "/Users/admin/truffle-codes/contracts/UserIndex.sol",
  "compiler": {
    "name": "solc",
    "version": "0.4.18+commit.9cf6e910.Emscripten.clang"
  },
  "schemaVersion": "1.0.1",
  "updatedAt": "2018-01-09T03:54:51.226Z"
}