{
  "contractName": "UserIndex",
  "abi": [
    {
      "constant": false,
      "inputs": [
        {
          "name": "provider",
          "type": "address"
        },
        {
          "name": "llpcContract",
          "type": "address"
        },
        {
          "name": "recordType",
          "type": "string"
        }
      ],
      "name": "insertLearningRecord",
      "outputs": [],
      "payable": true,
      "stateMutability": "payable",
      "type": "function"
    },
    {
      "constant": true,
      "inputs": [
        {
          "name": "provider",
          "type": "address"
        },
        {
          "name": "start",
          "type": "uint256"
        },
        {
          "name": "end",
          "type": "uint256"
        }
      ],
      "name": "getLearningRecordsByProvider",
      "outputs": [
        {
          "name": "",
          "type": "address[]"
        }
      ],
      "payable": false,
      "stateMutability": "view",
      "type": "function"
    },
    {
      "constant": true,
      "inputs": [],
      "name": "getLearningProviders",
      "outputs": [
        {
          "name": "",
          "type": "address[]"
        }
      ],
      "payable": false,
      "stateMutability": "view",
      "type": "function"
    },
    {
      "constant": true,
      "inputs": [
        {
          "name": "providers",
          "type": "address[]"
        },
        {
          "name": "start",
          "type": "uint256"
        },
        {
          "name": "end",
          "type": "uint256"
        },
        {
          "name": "recordType",
          "type": "string"
        }
      ],
      "name": "getLearningRecordsByRecordTypeAndProviders",
      "outputs": [
        {
          "name": "",
          "type": "address[]"
        }
      ],
      "payable": false,
      "stateMutability": "view",
      "type": "function"
    },
    {
      "constant": true,
      "inputs": [
        {
          "name": "provider",
          "type": "address"
        },
        {
          "name": "start",
          "type": "uint256"
        },
        {
          "name": "end",
          "type": "uint256"
        },
        {
          "name": "recordType",
          "type": "string"
        }
      ],
      "name": "getLearningRecordsByRecordType",
      "outputs": [
        {
          "name": "",
          "type": "address[]"
        }
      ],
      "payable": false,
      "stateMutability": "view",
      "type": "function"
    },
    {
      "inputs": [
        {
          "name": "owner",
          "type": "address"
        }
      ],
      "payable": false,
      "stateMutability": "nonpayable",
      "type": "constructor"
    }
  ],
  "bytecode": "0x6060604052341561000f57600080fd5b60405160208061125c8339810160405280805190602001909190505080600460006101000a81548173ffffffffffffffffffffffffffffffffffffffff021916908373ffffffffffffffffffffffffffffffffffffffff160217905550506111e08061007c6000396000f30060606040526004361061006d576000357c0100000000000000000000000000000000000000000000000000000000900463ffffffff1680631f495096146100725780633062f03b14610102578063a0fb2d72146101a2578063cbb598971461020c578063f9ac0e5914610310575b600080fd5b610100600480803573ffffffffffffffffffffffffffffffffffffffff1690602001909190803573ffffffffffffffffffffffffffffffffffffffff1690602001909190803590602001908201803590602001908080601f016020809104026020016040519081016040528093929190818152602001838380828437820191505050505050919050506103f3565b005b341561010d57600080fd5b61014b600480803573ffffffffffffffffffffffffffffffffffffffff1690602001909190803590602001909190803590602001909190505061084b565b6040518080602001828103825283818151815260200191508051906020019060200280838360005b8381101561018e578082015181840152602081019050610173565b505050509050019250505060405180910390f35b34156101ad57600080fd5b6101b56109bb565b6040518080602001828103825283818151815260200191508051906020019060200280838360005b838110156101f85780820151818401526020810190506101dd565b505050509050019250505060405180910390f35b341561021757600080fd5b6102b960048080359060200190820180359060200190808060200260200160405190810160405280939291908181526020018383602002808284378201915050505050509190803590602001909190803590602001909190803590602001908201803590602001908080601f01602080910402602001604051908101604052809392919081815260200183838082843782019150505050505091905050610a4f565b6040518080602001828103825283818151815260200191508051906020019060200280838360005b838110156102fc5780820151818401526020810190506102e1565b505050509050019250505060405180910390f35b341561031b57600080fd5b61039c600480803573ffffffffffffffffffffffffffffffffffffffff1690602001909190803590602001909190803590602001909190803590602001908201803590602001908080601f01602080910402602001604051908101604052809392919081815260200183838082843782019150505050505091905050610d58565b6040518080602001828103825283818151815260200191508051906020019060200280838360005b838110156103df5780820151818401526020810190506103c4565b505050509050019250505060405180910390f35b6000829050600460009054906101000a900473ffffffffffffffffffffffffffffffffffffffff1673ffffffffffffffffffffffffffffffffffffffff168173ffffffffffffffffffffffffffffffffffffffff1663893d20e86000604051602001526040518163ffffffff167c0100000000000000000000000000000000000000000000000000000000028152600401602060405180830381600087803b151561049d57600080fd5b6102c65a03f115156104ae57600080fd5b5050506040518051905073ffffffffffffffffffffffffffffffffffffffff161480156105255750600160008473ffffffffffffffffffffffffffffffffffffffff1673ffffffffffffffffffffffffffffffffffffffff16815260200190815260200160002060009054906101000a900460ff16155b80156105e257508373ffffffffffffffffffffffffffffffffffffffff168173ffffffffffffffffffffffffffffffffffffffff1663483d45bd6000604051602001526040518163ffffffff167c0100000000000000000000000000000000000000000000000000000000028152600401602060405180830381600087803b15156105af57600080fd5b6102c65a03f115156105c057600080fd5b5050506040518051905073ffffffffffffffffffffffffffffffffffffffff16145b15610845576000808573ffffffffffffffffffffffffffffffffffffffff1673ffffffffffffffffffffffffffffffffffffffff16815260200190815260200160002080548060010182816106379190610fff565b9160005260206000209060020201600060408051908101604052808773ffffffffffffffffffffffffffffffffffffffff16815260200186815250909190915060008201518160000160006101000a81548173ffffffffffffffffffffffffffffffffffffffff021916908373ffffffffffffffffffffffffffffffffffffffff16021790555060208201518160010190805190602001906106da929190611031565b5050505060018060008573ffffffffffffffffffffffffffffffffffffffff1673ffffffffffffffffffffffffffffffffffffffff16815260200190815260200160002060006101000a81548160ff021916908315150217905550600260008573ffffffffffffffffffffffffffffffffffffffff1673ffffffffffffffffffffffffffffffffffffffff16815260200190815260200160002060009054906101000a900460ff161515610844576003805480600101828161079c91906110b1565b9160005260206000209001600086909190916101000a81548173ffffffffffffffffffffffffffffffffffffffff021916908373ffffffffffffffffffffffffffffffffffffffff160217905550506001600260008673ffffffffffffffffffffffffffffffffffffffff1673ffffffffffffffffffffffffffffffffffffffff16815260200190815260200160002060006101000a81548160ff0219169083151502179055505b5b50505050565b6108536110dd565b61085b6110dd565b600084840360405180591061086d5750595b908082528060200260200182016040525091508490505b6000808773ffffffffffffffffffffffffffffffffffffffff1673ffffffffffffffffffffffffffffffffffffffff16815260200190815260200160002080549050811080156108d45750838111155b156109af576000808773ffffffffffffffffffffffffffffffffffffffff1673ffffffffffffffffffffffffffffffffffffffff1681526020019081526020016000208181548110151561092457fe5b906000526020600020906002020160000160009054906101000a900473ffffffffffffffffffffffffffffffffffffffff168282870381518110151561096657fe5b9060200190602002019073ffffffffffffffffffffffffffffffffffffffff16908173ffffffffffffffffffffffffffffffffffffffff16815250508080600101915050610884565b81925050509392505050565b6109c36110dd565b6003805480602002602001604051908101604052809291908181526020018280548015610a4557602002820191906000526020600020905b8160009054906101000a900473ffffffffffffffffffffffffffffffffffffffff1673ffffffffffffffffffffffffffffffffffffffff16815260200190600101908083116109fb575b5050505050905090565b610a576110dd565b610a5f6110dd565b600080868603604051805910610a725750595b908082528060200260200182016040525092508691505b875182111515610d4a578690505b6000808984815181101515610aa857fe5b9060200190602002015173ffffffffffffffffffffffffffffffffffffffff1673ffffffffffffffffffffffffffffffffffffffff1681526020019081526020016000208054905081108015610afe5750858111155b15610d3d57846040518082805190602001908083835b602083101515610b395780518252602082019150602081019050602083039250610b14565b6001836020036101000a0380198251168184511680821785525050505050509050019150506040518091039020600019166000808a85815181101515610b7b57fe5b9060200190602002015173ffffffffffffffffffffffffffffffffffffffff1673ffffffffffffffffffffffffffffffffffffffff16815260200190815260200160002082815481101515610bcc57fe5b90600052602060002090600202016001016040518082805460018160011615610100020316600290048015610c385780601f10610c16576101008083540402835291820191610c38565b820191906000526020600020905b815481529060010190602001808311610c24575b50509150506040518091039020600019161415610d30576000808984815181101515610c6057fe5b9060200190602002015173ffffffffffffffffffffffffffffffffffffffff1673ffffffffffffffffffffffffffffffffffffffff16815260200190815260200160002081815481101515610cb157fe5b906000526020600020906002020160000160009054906101000a900473ffffffffffffffffffffffffffffffffffffffff1683828903815181101515610cf357fe5b9060200190602002019073ffffffffffffffffffffffffffffffffffffffff16908173ffffffffffffffffffffffffffffffffffffffff16815250505b8080600101915050610a97565b8180600101925050610a89565b829350505050949350505050565b610d606110dd565b610d686110dd565b6000858503604051805910610d7a5750595b908082528060200260200182016040525091508590505b6000808873ffffffffffffffffffffffffffffffffffffffff1673ffffffffffffffffffffffffffffffffffffffff1681526020019081526020016000208054905081108015610de15750848111155b15610ff257836040518082805190602001908083835b602083101515610e1c5780518252602082019150602081019050602083039250610df7565b6001836020036101000a0380198251168184511680821785525050505050509050019150506040518091039020600019166000808973ffffffffffffffffffffffffffffffffffffffff1673ffffffffffffffffffffffffffffffffffffffff16815260200190815260200160002082815481101515610e9857fe5b90600052602060002090600202016001016040518082805460018160011615610100020316600290048015610f045780601f10610ee2576101008083540402835291820191610f04565b820191906000526020600020905b815481529060010190602001808311610ef0575b50509150506040518091039020600019161415610fe5576000808873ffffffffffffffffffffffffffffffffffffffff1673ffffffffffffffffffffffffffffffffffffffff16815260200190815260200160002081815481101515610f6657fe5b906000526020600020906002020160000160009054906101000a900473ffffffffffffffffffffffffffffffffffffffff1682828803815181101515610fa857fe5b9060200190602002019073ffffffffffffffffffffffffffffffffffffffff16908173ffffffffffffffffffffffffffffffffffffffff16815250505b8080600101915050610d91565b8192505050949350505050565b81548183558181151161102c5760020281600202836000526020600020918201910161102b91906110f1565b5b505050565b828054600181600116156101000203166002900490600052602060002090601f016020900481019282601f1061107257805160ff19168380011785556110a0565b828001600101855582156110a0579182015b8281111561109f578251825591602001919060010190611084565b5b5090506110ad9190611147565b5090565b8154818355818115116110d8578183600052602060002091820191016110d79190611147565b5b505050565b602060405190810160405280600081525090565b61114491905b8082111561114057600080820160006101000a81549073ffffffffffffffffffffffffffffffffffffffff0219169055600182016000611137919061116c565b506002016110f7565b5090565b90565b61116991905b8082111561116557600081600090555060010161114d565b5090565b90565b50805460018160011615610100020316600290046000825580601f1061119257506111b1565b601f0160209004906000526020600020908101906111b09190611147565b5b505600a165627a7a72305820e4ec3fd1076b9908c89ba7b9cddcd05e09046a48e5b6e88893e041dc71aafca20029",
  "source": "pragma solidity ^0.4.11;\nimport './LearnerLearningProvider.sol';\n\ncontract UserIndex {\n    struct LearningRecordDescriptor {\n        address llpcAddress;\n        string recordType;\n    }\n\n    mapping(address => LearningRecordDescriptor[]) providers2LearningRecords;\n    mapping(address => bool) duplicateTracker;\n    mapping(address => bool) duplicateProviderTracker;\n    address[] myLearningProviders;\n    address _owner;\n\n    function UserIndex(address owner) public {\n        _owner = owner;\n    }\n\n    function insertLearningRecord(address provider, address llpcContract, string recordType) public payable {\n        LearnerLearningProvider llpc = LearnerLearningProvider(llpcContract);\n        if (llpc.getOwner() == _owner && !duplicateTracker[llpcContract] && llpc.getProvider() == provider) {\n            providers2LearningRecords[provider].push(LearningRecordDescriptor(llpcContract, recordType));\n            duplicateTracker[llpcContract] = true;\n            if(!duplicateProviderTracker[provider]){\n                myLearningProviders.push(provider);\n                duplicateProviderTracker[provider] = true;\n            }\n        }\n    }\n\n    function getLearningProviders() public view returns (address[]) {\n        return myLearningProviders;\n    }\n\n    function getLearningRecordsByProvider(address provider, uint start, uint end) public view returns (address[]) {\n        address[] memory res = new address[](end-start);\n        for (var index = start; index<providers2LearningRecords[provider].length && index <= end; index++) {\n            res[(start-index)] = providers2LearningRecords[provider][index].llpcAddress;\n        }\n        return res;\n    }\n\n    function getLearningRecordsByRecordType(address provider, uint start, uint end, string recordType) public view returns (address[]) {\n        address[] memory res = new address[](end-start);\n        for (var index = start; index<providers2LearningRecords[provider].length && index<=end; index++) {\n            if (keccak256(providers2LearningRecords[provider][index].recordType) == keccak256(recordType)) {\n                res[(start-index)] = providers2LearningRecords[provider][index].llpcAddress;\n            }\n        }\n        return res;\n    }\n\n    function getLearningRecordsByRecordTypeAndProviders(address[] providers, uint start, uint end, string recordType) public view returns (address[]) {\n        address[] memory res = new address[](end-start);\n        for (var index2 = start; index2 <= providers.length; index2++) {\n            for (var index = start; index < providers2LearningRecords[providers[index2]].length && index <= end; index++) {\n            if (keccak256(providers2LearningRecords[providers[index2]][index].recordType) == keccak256(recordType)) {\n                res[(start-index)] = providers2LearningRecords[providers[index2]][index].llpcAddress;\n            }\n        }\n        }\n        return res;\n    }\n    \n}\n",
  "sourcePath": "/Users/admin/truffle-codes/contracts/UserIndex.sol",
  "compiler": {
    "name": "solc",
    "version": "0.4.18+commit.9cf6e910.Emscripten.clang"
  },
  "schemaVersion": "1.0.1",
  "updatedAt": "2018-01-06T21:20:16.254Z"
}