{
  "contractName": "UserIndex",
  "abi": [
    {
      "constant": true,
      "inputs": [
        {
          "name": "provider",
          "type": "address"
        }
      ],
      "name": "getLearningRecordsByProvider",
      "outputs": [
        {
          "name": "",
          "type": "address[]"
        }
      ],
      "payable": false,
      "stateMutability": "view",
      "type": "function"
    },
    {
      "constant": false,
      "inputs": [
        {
          "name": "provider",
          "type": "address"
        },
        {
          "name": "llpcContract",
          "type": "address"
        },
        {
          "name": "recordType",
          "type": "bytes"
        }
      ],
      "name": "insertLearningRecord",
      "outputs": [],
      "payable": true,
      "stateMutability": "payable",
      "type": "function"
    },
    {
      "constant": true,
      "inputs": [
        {
          "name": "recordType",
          "type": "bytes"
        }
      ],
      "name": "getRecordTypeLLPC",
      "outputs": [
        {
          "name": "",
          "type": "address"
        }
      ],
      "payable": false,
      "stateMutability": "view",
      "type": "function"
    },
    {
      "constant": true,
      "inputs": [],
      "name": "getOwner",
      "outputs": [
        {
          "name": "_owner",
          "type": "address"
        }
      ],
      "payable": false,
      "stateMutability": "view",
      "type": "function"
    },
    {
      "constant": true,
      "inputs": [
        {
          "name": "",
          "type": "address"
        }
      ],
      "name": "duplicateTracker",
      "outputs": [
        {
          "name": "",
          "type": "bool"
        }
      ],
      "payable": false,
      "stateMutability": "view",
      "type": "function"
    },
    {
      "constant": true,
      "inputs": [
        {
          "name": "recordType",
          "type": "bytes"
        }
      ],
      "name": "getLearningRecordsByRecordType",
      "outputs": [
        {
          "name": "",
          "type": "address"
        }
      ],
      "payable": false,
      "stateMutability": "view",
      "type": "function"
    },
    {
      "constant": true,
      "inputs": [
        {
          "name": "",
          "type": "address"
        }
      ],
      "name": "duplicateProviderTracker",
      "outputs": [
        {
          "name": "",
          "type": "bool"
        }
      ],
      "payable": false,
      "stateMutability": "view",
      "type": "function"
    },
    {
      "constant": true,
      "inputs": [],
      "name": "getProviders",
      "outputs": [
        {
          "name": "",
          "type": "address[]"
        }
      ],
      "payable": false,
      "stateMutability": "view",
      "type": "function"
    },
    {
      "inputs": [
        {
          "name": "_owner",
          "type": "address"
        }
      ],
      "payable": false,
      "stateMutability": "nonpayable",
      "type": "constructor"
    }
  ],
  "bytecode": "0x6060604052341561000f57600080fd5b604051602080610f5e8339810160405280805190602001909190505080600460006101000a81548173ffffffffffffffffffffffffffffffffffffffff021916908373ffffffffffffffffffffffffffffffffffffffff16021790555050610ee28061007c6000396000f30060606040526004361061008e576000357c0100000000000000000000000000000000000000000000000000000000900463ffffffff1680630ed6e95e1461009357806357cf4860146101215780636d450801146101b1578063893d20e81461024e578063b4b12419146102a3578063b4e3145e146102f4578063cebda5b014610391578063edc922a9146103e2575b600080fd5b341561009e57600080fd5b6100ca600480803573ffffffffffffffffffffffffffffffffffffffff1690602001909190505061044c565b6040518080602001828103825283818151815260200191508051906020019060200280838360005b8381101561010d5780820151818401526020810190506100f2565b505050509050019250505060405180910390f35b6101af600480803573ffffffffffffffffffffffffffffffffffffffff1690602001909190803573ffffffffffffffffffffffffffffffffffffffff1690602001909190803590602001908201803590602001908080601f0160208091040260200160405190810160405280939291908181526020018383808284378201915050505050509190505061051e565b005b34156101bc57600080fd5b61020c600480803590602001908201803590602001908080601f01602080910402602001604051908101604052809392919081815260200183838082843782019150505050505091905050610c29565b604051808273ffffffffffffffffffffffffffffffffffffffff1673ffffffffffffffffffffffffffffffffffffffff16815260200191505060405180910390f35b341561025957600080fd5b610261610cbe565b604051808273ffffffffffffffffffffffffffffffffffffffff1673ffffffffffffffffffffffffffffffffffffffff16815260200191505060405180910390f35b34156102ae57600080fd5b6102da600480803573ffffffffffffffffffffffffffffffffffffffff16906020019091905050610ce8565b604051808215151515815260200191505060405180910390f35b34156102ff57600080fd5b61034f600480803590602001908201803590602001908080601f01602080910402602001604051908101604052809392919081815260200183838082843782019150505050505091905050610d08565b604051808273ffffffffffffffffffffffffffffffffffffffff1673ffffffffffffffffffffffffffffffffffffffff16815260200191505060405180910390f35b341561039c57600080fd5b6103c8600480803573ffffffffffffffffffffffffffffffffffffffff16906020019091905050610d9d565b604051808215151515815260200191505060405180910390f35b34156103ed57600080fd5b6103f5610dbd565b6040518080602001828103825283818151815260200191508051906020019060200280838360005b8381101561043857808201518184015260208101905061041d565b505050509050019250505060405180910390f35b610454610e51565b6000808373ffffffffffffffffffffffffffffffffffffffff1673ffffffffffffffffffffffffffffffffffffffff16815260200190815260200160002080548060200260200160405190810160405280929190818152602001828054801561051257602002820191906000526020600020905b8160009054906101000a900473ffffffffffffffffffffffffffffffffffffffff1673ffffffffffffffffffffffffffffffffffffffff16815260200190600101908083116104c8575b50505050509050919050565b6000829050600460009054906101000a900473ffffffffffffffffffffffffffffffffffffffff1673ffffffffffffffffffffffffffffffffffffffff168173ffffffffffffffffffffffffffffffffffffffff1663893d20e86000604051602001526040518163ffffffff167c0100000000000000000000000000000000000000000000000000000000028152600401602060405180830381600087803b15156105c857600080fd5b6102c65a03f115156105d957600080fd5b5050506040518051905073ffffffffffffffffffffffffffffffffffffffff16148015610656575060001515600160008573ffffffffffffffffffffffffffffffffffffffff1673ffffffffffffffffffffffffffffffffffffffff16815260200190815260200160002060009054906101000a900460ff161515145b80156107235750600115158173ffffffffffffffffffffffffffffffffffffffff16633239b71b336000604051602001526040518263ffffffff167c0100000000000000000000000000000000000000000000000000000000028152600401808273ffffffffffffffffffffffffffffffffffffffff1673ffffffffffffffffffffffffffffffffffffffff168152602001915050602060405180830381600087803b151561070457600080fd5b6102c65a03f1151561071557600080fd5b505050604051805190501515145b80156108a75750600073ffffffffffffffffffffffffffffffffffffffff166002836040518082805190602001908083835b60208310151561077a5780518252602082019150602081019050602083039250610755565b6001836020036101000a038019825116818451168082178552505050505050905001915050908152602001604051809103902060009054906101000a900473ffffffffffffffffffffffffffffffffffffffff1673ffffffffffffffffffffffffffffffffffffffff1614806108a657508273ffffffffffffffffffffffffffffffffffffffff166002836040518082805190602001908083835b60208310151561083a5780518252602082019150602081019050602083039250610815565b6001836020036101000a038019825116818451168082178552505050505050905001915050908152602001604051809103902060009054906101000a900473ffffffffffffffffffffffffffffffffffffffff1673ffffffffffffffffffffffffffffffffffffffff16145b5b15610c235760018060008573ffffffffffffffffffffffffffffffffffffffff1673ffffffffffffffffffffffffffffffffffffffff16815260200190815260200160002060006101000a81548160ff021916908315150217905550600073ffffffffffffffffffffffffffffffffffffffff166002836040518082805190602001908083835b602083101515610953578051825260208201915060208101905060208303925061092e565b6001836020036101000a038019825116818451168082178552505050505050905001915050908152602001604051809103902060009054906101000a900473ffffffffffffffffffffffffffffffffffffffff1673ffffffffffffffffffffffffffffffffffffffff161415610a6e57826002836040518082805190602001908083835b6020831015156109fc57805182526020820191506020810190506020830392506109d7565b6001836020036101000a038019825116818451168082178552505050505050905001915050908152602001604051809103902060006101000a81548173ffffffffffffffffffffffffffffffffffffffff021916908373ffffffffffffffffffffffffffffffffffffffff1602179055505b6000808573ffffffffffffffffffffffffffffffffffffffff1673ffffffffffffffffffffffffffffffffffffffff1681526020019081526020016000208054806001018281610abe9190610e65565b9160005260206000209001600083909190916101000a81548173ffffffffffffffffffffffffffffffffffffffff021916908373ffffffffffffffffffffffffffffffffffffffff1602179055505060001515600360008673ffffffffffffffffffffffffffffffffffffffff1673ffffffffffffffffffffffffffffffffffffffff16815260200190815260200160002060009054906101000a900460ff1615151415610c225760058054806001018281610b7a9190610e65565b9160005260206000209001600086909190916101000a81548173ffffffffffffffffffffffffffffffffffffffff021916908373ffffffffffffffffffffffffffffffffffffffff160217905550506001600360008673ffffffffffffffffffffffffffffffffffffffff1673ffffffffffffffffffffffffffffffffffffffff16815260200190815260200160002060006101000a81548160ff0219169083151502179055505b5b50505050565b60006002826040518082805190602001908083835b602083101515610c635780518252602082019150602081019050602083039250610c3e565b6001836020036101000a038019825116818451168082178552505050505050905001915050908152602001604051809103902060009054906101000a900473ffffffffffffffffffffffffffffffffffffffff169050919050565b6000600460009054906101000a900473ffffffffffffffffffffffffffffffffffffffff16905090565b60016020528060005260406000206000915054906101000a900460ff1681565b60006002826040518082805190602001908083835b602083101515610d425780518252602082019150602081019050602083039250610d1d565b6001836020036101000a038019825116818451168082178552505050505050905001915050908152602001604051809103902060009054906101000a900473ffffffffffffffffffffffffffffffffffffffff169050919050565b60036020528060005260406000206000915054906101000a900460ff1681565b610dc5610e51565b6005805480602002602001604051908101604052809291908181526020018280548015610e4757602002820191906000526020600020905b8160009054906101000a900473ffffffffffffffffffffffffffffffffffffffff1673ffffffffffffffffffffffffffffffffffffffff1681526020019060010190808311610dfd575b5050505050905090565b602060405190810160405280600081525090565b815481835581811511610e8c57818360005260206000209182019101610e8b9190610e91565b5b505050565b610eb391905b80821115610eaf576000816000905550600101610e97565b5090565b905600a165627a7a723058208326aecdc277b980685427f4c42b3a33c2929e8906b40b06255f85c0943d8fd40029",
  "source": "pragma solidity ^0.4.17;\nimport './LearnerLearningProvider.sol';\n\ncontract UserIndex {\n\n    mapping(address => address[]) providers2LearningRecords;\n    mapping(address => bool) public duplicateTracker;\n    mapping(bytes => address) recordType2LLPC;\n    mapping(address => bool) public duplicateProviderTracker;\n    address owner;\n    address[] providers;\n\n    function UserIndex(address _owner) public {\n        owner = _owner;\n    }\n\n    function insertLearningRecord(address provider, address llpcContract, bytes recordType) public payable {\n        LearnerLearningProvider llpc = LearnerLearningProvider(llpcContract);\n        if (llpc.getOwner() == owner && duplicateTracker[llpcContract] == false && llpc.canWrite(msg.sender) == true &&\n          (recordType2LLPC[recordType]== address(0) || recordType2LLPC[recordType] == llpcContract)) {\n            duplicateTracker[llpcContract] = true;\n            if(recordType2LLPC[recordType] == address(0)) {\n                recordType2LLPC[recordType] = llpcContract;\n            }\n            providers2LearningRecords[provider].push(llpc);\n            if(duplicateProviderTracker[provider] == false) {\n                providers.push(provider);\n                duplicateProviderTracker[provider] = true;\n            }\n        }\n    }\n\n    function getOwner() public view returns (address _owner) {\n        return owner;\n    }\n\n    function getRecordTypeLLPC(bytes recordType) public view returns (address) {\n        return recordType2LLPC[recordType];\n    }\n\n    function getLearningRecordsByProvider(address provider) public view returns (address[]) {\n        return providers2LearningRecords[provider];\n    }\n\n    function getLearningRecordsByRecordType(bytes recordType) public view returns (address) {\n        return recordType2LLPC[recordType];\n    }\n\n    function getProviders() public view returns (address[]) {\n        return providers;\n    }\n    \n}\n",
  "sourcePath": "/Users/admin/truffle-codes/contracts/UserIndex.sol",
  "compiler": {
    "name": "solc",
    "version": "0.4.18+commit.9cf6e910.Emscripten.clang"
  },
  "schemaVersion": "1.0.1",
  "updatedAt": "2018-01-11T03:42:04.390Z"
}