{
  "contractName": "UserIndex",
  "abi": [
    {
      "constant": true,
      "inputs": [
        {
          "name": "provider",
          "type": "address"
        },
        {
          "name": "start",
          "type": "uint256"
        },
        {
          "name": "end",
          "type": "uint256"
        }
      ],
      "name": "getLearningRecordsByProvider",
      "outputs": [
        {
          "name": "",
          "type": "address[]"
        }
      ],
      "payable": false,
      "stateMutability": "view",
      "type": "function"
    },
    {
      "constant": false,
      "inputs": [
        {
          "name": "providerAddress",
          "type": "address"
        }
      ],
      "name": "insertLearningProvider",
      "outputs": [],
      "payable": true,
      "stateMutability": "payable",
      "type": "function"
    },
    {
      "constant": false,
      "inputs": [
        {
          "name": "provider",
          "type": "address"
        },
        {
          "name": "llpcContract",
          "type": "address"
        },
        {
          "name": "recordType",
          "type": "bytes"
        }
      ],
      "name": "insertLearningRecord",
      "outputs": [],
      "payable": true,
      "stateMutability": "payable",
      "type": "function"
    },
    {
      "constant": true,
      "inputs": [
        {
          "name": "recordType",
          "type": "bytes"
        }
      ],
      "name": "getRecordTypeLLPC",
      "outputs": [
        {
          "name": "",
          "type": "address"
        }
      ],
      "payable": false,
      "stateMutability": "view",
      "type": "function"
    },
    {
      "constant": true,
      "inputs": [],
      "name": "getOwner",
      "outputs": [
        {
          "name": "_owner",
          "type": "address"
        }
      ],
      "payable": false,
      "stateMutability": "view",
      "type": "function"
    },
    {
      "constant": true,
      "inputs": [
        {
          "name": "provider",
          "type": "address"
        },
        {
          "name": "start",
          "type": "uint256"
        },
        {
          "name": "end",
          "type": "uint256"
        },
        {
          "name": "recordType",
          "type": "bytes"
        }
      ],
      "name": "getLearningRecordsByRecordType",
      "outputs": [
        {
          "name": "",
          "type": "address[]"
        }
      ],
      "payable": false,
      "stateMutability": "view",
      "type": "function"
    },
    {
      "constant": true,
      "inputs": [],
      "name": "getLearningProviders",
      "outputs": [
        {
          "name": "",
          "type": "address[]"
        }
      ],
      "payable": false,
      "stateMutability": "view",
      "type": "function"
    },
    {
      "constant": true,
      "inputs": [
        {
          "name": "providers",
          "type": "address[]"
        },
        {
          "name": "start",
          "type": "uint256"
        },
        {
          "name": "end",
          "type": "uint256"
        },
        {
          "name": "recordType",
          "type": "bytes"
        }
      ],
      "name": "getLearningRecordsByRecordTypeAndProviders",
      "outputs": [
        {
          "name": "",
          "type": "address[]"
        }
      ],
      "payable": false,
      "stateMutability": "view",
      "type": "function"
    },
    {
      "constant": true,
      "inputs": [
        {
          "name": "",
          "type": "address"
        }
      ],
      "name": "duplicateTracker",
      "outputs": [
        {
          "name": "",
          "type": "bool"
        }
      ],
      "payable": false,
      "stateMutability": "view",
      "type": "function"
    },
    {
      "constant": true,
      "inputs": [
        {
          "name": "",
          "type": "address"
        }
      ],
      "name": "duplicateProviderTracker",
      "outputs": [
        {
          "name": "",
          "type": "bool"
        }
      ],
      "payable": false,
      "stateMutability": "view",
      "type": "function"
    },
    {
      "inputs": [
        {
          "name": "_owner",
          "type": "address"
        }
      ],
      "payable": false,
      "stateMutability": "nonpayable",
      "type": "constructor"
    }
  ],
  "bytecode": "0x6060604052341561000f57600080fd5b6040516020806118298339810160405280805190602001909190505080600560006101000a81548173ffffffffffffffffffffffffffffffffffffffff021916908373ffffffffffffffffffffffffffffffffffffffff160217905550506117ad8061007c6000396000f3006060604052600436106100a4576000357c0100000000000000000000000000000000000000000000000000000000900463ffffffff1680633062f03b146100a957806352fa8ea71461014957806357cf4860146101775780636d45080114610207578063893d20e8146102a45780639767d70d146102f9578063a0fb2d72146103dc578063a987a49814610446578063b4b124191461054a578063cebda5b01461059b575b600080fd5b34156100b457600080fd5b6100f2600480803573ffffffffffffffffffffffffffffffffffffffff169060200190919080359060200190919080359060200190919050506105ec565b6040518080602001828103825283818151815260200191508051906020019060200280838360005b8381101561013557808201518184015260208101905061011a565b505050509050019250505060405180910390f35b610175600480803573ffffffffffffffffffffffffffffffffffffffff1690602001909190505061075c565b005b610205600480803573ffffffffffffffffffffffffffffffffffffffff1690602001909190803573ffffffffffffffffffffffffffffffffffffffff1690602001909190803590602001908201803590602001908080601f01602080910402602001604051908101604052809392919081815260200183838082843782019150505050505091905050610811565b005b341561021257600080fd5b610262600480803590602001908201803590602001908080601f01602080910402602001604051908101604052809392919081815260200183838082843782019150505050505091905050610e6b565b604051808273ffffffffffffffffffffffffffffffffffffffff1673ffffffffffffffffffffffffffffffffffffffff16815260200191505060405180910390f35b34156102af57600080fd5b6102b7610f00565b604051808273ffffffffffffffffffffffffffffffffffffffff1673ffffffffffffffffffffffffffffffffffffffff16815260200191505060405180910390f35b341561030457600080fd5b610385600480803573ffffffffffffffffffffffffffffffffffffffff1690602001909190803590602001909190803590602001909190803590602001908201803590602001908080601f01602080910402602001604051908101604052809392919081815260200183838082843782019150505050505091905050610f2a565b6040518080602001828103825283818151815260200191508051906020019060200280838360005b838110156103c85780820151818401526020810190506103ad565b505050509050019250505060405180910390f35b34156103e757600080fd5b6103ef6111d1565b6040518080602001828103825283818151815260200191508051906020019060200280838360005b83811015610432578082015181840152602081019050610417565b505050509050019250505060405180910390f35b341561045157600080fd5b6104f360048080359060200190820180359060200190808060200260200160405190810160405280939291908181526020018383602002808284378201915050505050509190803590602001909190803590602001909190803590602001908201803590602001908080601f01602080910402602001604051908101604052809392919081815260200183838082843782019150505050505091905050611265565b6040518080602001828103825283818151815260200191508051906020019060200280838360005b8381101561053657808201518184015260208101905061051b565b505050509050019250505060405180910390f35b341561055557600080fd5b610581600480803573ffffffffffffffffffffffffffffffffffffffff1690602001909190505061156e565b604051808215151515815260200191505060405180910390f35b34156105a657600080fd5b6105d2600480803573ffffffffffffffffffffffffffffffffffffffff1690602001909190505061158e565b604051808215151515815260200191505060405180910390f35b6105f46115ae565b6105fc6115ae565b600084840360405180591061060e5750595b908082528060200260200182016040525091508490505b6000808773ffffffffffffffffffffffffffffffffffffffff1673ffffffffffffffffffffffffffffffffffffffff16815260200190815260200160002080549050811080156106755750838111155b15610750576000808773ffffffffffffffffffffffffffffffffffffffff1673ffffffffffffffffffffffffffffffffffffffff168152602001908152602001600020818154811015156106c557fe5b906000526020600020906002020160000160009054906101000a900473ffffffffffffffffffffffffffffffffffffffff168282870381518110151561070757fe5b9060200190602002019073ffffffffffffffffffffffffffffffffffffffff16908173ffffffffffffffffffffffffffffffffffffffff16815250508080600101915050610625565b81925050509392505050565b60001515600360008373ffffffffffffffffffffffffffffffffffffffff1673ffffffffffffffffffffffffffffffffffffffff16815260200190815260200160002060009054906101000a900460ff161515141561080e576001600360008373ffffffffffffffffffffffffffffffffffffffff1673ffffffffffffffffffffffffffffffffffffffff16815260200190815260200160002060006101000a81548160ff0219169083151502179055505b50565b600061081b6115c2565b839150600560009054906101000a900473ffffffffffffffffffffffffffffffffffffffff1673ffffffffffffffffffffffffffffffffffffffff168273ffffffffffffffffffffffffffffffffffffffff1663893d20e86000604051602001526040518163ffffffff167c0100000000000000000000000000000000000000000000000000000000028152600401602060405180830381600087803b15156108c357600080fd5b6102c65a03f115156108d457600080fd5b5050506040518051905073ffffffffffffffffffffffffffffffffffffffff16148015610951575060001515600160008673ffffffffffffffffffffffffffffffffffffffff1673ffffffffffffffffffffffffffffffffffffffff16815260200190815260200160002060009054906101000a900460ff161515145b8015610a1e5750600115158273ffffffffffffffffffffffffffffffffffffffff16633239b71b336000604051602001526040518263ffffffff167c0100000000000000000000000000000000000000000000000000000000028152600401808273ffffffffffffffffffffffffffffffffffffffff1673ffffffffffffffffffffffffffffffffffffffff168152602001915050602060405180830381600087803b15156109ff57600080fd5b6102c65a03f11515610a1057600080fd5b505050604051805190501515145b8015610ba25750600073ffffffffffffffffffffffffffffffffffffffff166002846040518082805190602001908083835b602083101515610a755780518252602082019150602081019050602083039250610a50565b6001836020036101000a038019825116818451168082178552505050505050905001915050908152602001604051809103902060009054906101000a900473ffffffffffffffffffffffffffffffffffffffff1673ffffffffffffffffffffffffffffffffffffffff161480610ba157508373ffffffffffffffffffffffffffffffffffffffff166002846040518082805190602001908083835b602083101515610b355780518252602082019150602081019050602083039250610b10565b6001836020036101000a038019825116818451168082178552505050505050905001915050908152602001604051809103902060009054906101000a900473ffffffffffffffffffffffffffffffffffffffff1673ffffffffffffffffffffffffffffffffffffffff16145b5b15610e645760408051908101604052808573ffffffffffffffffffffffffffffffffffffffff1681526020018481525090506000808673ffffffffffffffffffffffffffffffffffffffff1673ffffffffffffffffffffffffffffffffffffffff1681526020019081526020016000208054806001018281610c2491906115f8565b9160005260206000209060020201600083909190915060008201518160000160006101000a81548173ffffffffffffffffffffffffffffffffffffffff021916908373ffffffffffffffffffffffffffffffffffffffff1602179055506020820151816001019080519060200190610c9d92919061162a565b5050505060018060008673ffffffffffffffffffffffffffffffffffffffff1673ffffffffffffffffffffffffffffffffffffffff16815260200190815260200160002060006101000a81548160ff021916908315150217905550600073ffffffffffffffffffffffffffffffffffffffff166002846040518082805190602001908083835b602083101515610d485780518252602082019150602081019050602083039250610d23565b6001836020036101000a038019825116818451168082178552505050505050905001915050908152602001604051809103902060009054906101000a900473ffffffffffffffffffffffffffffffffffffffff1673ffffffffffffffffffffffffffffffffffffffff161415610e6357836002846040518082805190602001908083835b602083101515610df15780518252602082019150602081019050602083039250610dcc565b6001836020036101000a038019825116818451168082178552505050505050905001915050908152602001604051809103902060006101000a81548173ffffffffffffffffffffffffffffffffffffffff021916908373ffffffffffffffffffffffffffffffffffffffff1602179055505b5b5050505050565b60006002826040518082805190602001908083835b602083101515610ea55780518252602082019150602081019050602083039250610e80565b6001836020036101000a038019825116818451168082178552505050505050905001915050908152602001604051809103902060009054906101000a900473ffffffffffffffffffffffffffffffffffffffff169050919050565b6000600560009054906101000a900473ffffffffffffffffffffffffffffffffffffffff16905090565b610f326115ae565b610f3a6115ae565b6000858503604051805910610f4c5750595b908082528060200260200182016040525091508590505b6000808873ffffffffffffffffffffffffffffffffffffffff1673ffffffffffffffffffffffffffffffffffffffff1681526020019081526020016000208054905081108015610fb35750848111155b156111c457836040518082805190602001908083835b602083101515610fee5780518252602082019150602081019050602083039250610fc9565b6001836020036101000a0380198251168184511680821785525050505050509050019150506040518091039020600019166000808973ffffffffffffffffffffffffffffffffffffffff1673ffffffffffffffffffffffffffffffffffffffff1681526020019081526020016000208281548110151561106a57fe5b906000526020600020906002020160010160405180828054600181600116156101000203166002900480156110d65780601f106110b45761010080835404028352918201916110d6565b820191906000526020600020905b8154815290600101906020018083116110c2575b505091505060405180910390206000191614156111b7576000808873ffffffffffffffffffffffffffffffffffffffff1673ffffffffffffffffffffffffffffffffffffffff1681526020019081526020016000208181548110151561113857fe5b906000526020600020906002020160000160009054906101000a900473ffffffffffffffffffffffffffffffffffffffff168282880381518110151561117a57fe5b9060200190602002019073ffffffffffffffffffffffffffffffffffffffff16908173ffffffffffffffffffffffffffffffffffffffff16815250505b8080600101915050610f63565b8192505050949350505050565b6111d96115ae565b600480548060200260200160405190810160405280929190818152602001828054801561125b57602002820191906000526020600020905b8160009054906101000a900473ffffffffffffffffffffffffffffffffffffffff1673ffffffffffffffffffffffffffffffffffffffff1681526020019060010190808311611211575b5050505050905090565b61126d6115ae565b6112756115ae565b6000808686036040518059106112885750595b908082528060200260200182016040525092508691505b875182111515611560578690505b60008089848151811015156112be57fe5b9060200190602002015173ffffffffffffffffffffffffffffffffffffffff1673ffffffffffffffffffffffffffffffffffffffff16815260200190815260200160002080549050811080156113145750858111155b1561155357846040518082805190602001908083835b60208310151561134f578051825260208201915060208101905060208303925061132a565b6001836020036101000a0380198251168184511680821785525050505050509050019150506040518091039020600019166000808a8581518110151561139157fe5b9060200190602002015173ffffffffffffffffffffffffffffffffffffffff1673ffffffffffffffffffffffffffffffffffffffff168152602001908152602001600020828154811015156113e257fe5b9060005260206000209060020201600101604051808280546001816001161561010002031660029004801561144e5780601f1061142c57610100808354040283529182019161144e565b820191906000526020600020905b81548152906001019060200180831161143a575b5050915050604051809103902060001916141561154657600080898481518110151561147657fe5b9060200190602002015173ffffffffffffffffffffffffffffffffffffffff1673ffffffffffffffffffffffffffffffffffffffff168152602001908152602001600020818154811015156114c757fe5b906000526020600020906002020160000160009054906101000a900473ffffffffffffffffffffffffffffffffffffffff168382890381518110151561150957fe5b9060200190602002019073ffffffffffffffffffffffffffffffffffffffff16908173ffffffffffffffffffffffffffffffffffffffff16815250505b80806001019150506112ad565b818060010192505061129f565b829350505050949350505050565b60016020528060005260406000206000915054906101000a900460ff1681565b60036020528060005260406000206000915054906101000a900460ff1681565b602060405190810160405280600081525090565b6040805190810160405280600073ffffffffffffffffffffffffffffffffffffffff1681526020016115f26116aa565b81525090565b8154818355818115116116255760020281600202836000526020600020918201910161162491906116be565b5b505050565b828054600181600116156101000203166002900490600052602060002090601f016020900481019282601f1061166b57805160ff1916838001178555611699565b82800160010185558215611699579182015b8281111561169857825182559160200191906001019061167d565b5b5090506116a69190611714565b5090565b602060405190810160405280600081525090565b61171191905b8082111561170d57600080820160006101000a81549073ffffffffffffffffffffffffffffffffffffffff02191690556001820160006117049190611739565b506002016116c4565b5090565b90565b61173691905b8082111561173257600081600090555060010161171a565b5090565b90565b50805460018160011615610100020316600290046000825580601f1061175f575061177e565b601f01602090049060005260206000209081019061177d9190611714565b5b505600a165627a7a72305820bb41a366c7066747f66d48d69a08255eb8840c5fe70c3b863eb16a013ac71c570029",
  "source": "pragma solidity ^0.4.11;\nimport './LearnerLearningProvider.sol';\n\ncontract UserIndex {\n    struct LearningRecordDescriptor {\n        address llpcAddress;\n        bytes recordType;\n    }\n\n    mapping(address => LearningRecordDescriptor[]) providers2LearningRecords;\n    mapping(address => bool) public duplicateTracker;\n    mapping(bytes => address) recordType2LLPC;\n    mapping(address => bool) public duplicateProviderTracker;\n    address[] myLearningProviders;\n    address owner;\n\n    function UserIndex(address _owner) public {\n        owner = _owner;\n    }\n\n    function insertLearningRecord(address provider, address llpcContract, bytes recordType) public payable {\n        LearnerLearningProvider llpc = LearnerLearningProvider(llpcContract);\n        if (llpc.getOwner() == owner && duplicateTracker[llpcContract] == false && llpc.canWrite(msg.sender) == true &&\n          (recordType2LLPC[recordType]== address(0) || recordType2LLPC[recordType] == llpcContract)) {\n              LearningRecordDescriptor memory ld = LearningRecordDescriptor(llpcContract, recordType);\n            providers2LearningRecords[provider].push(ld);\n            duplicateTracker[llpcContract] = true;\n            if(recordType2LLPC[recordType] == address(0)) {\n                recordType2LLPC[recordType] = llpcContract;\n            }\n        }\n    }\n\n    function insertLearningProvider(address providerAddress) public payable {\n            if(duplicateProviderTracker[providerAddress] == false){\n                //myLearningProviders.push(providerAddress);\n                duplicateProviderTracker[providerAddress] = true;\n            }\n    }\n\n    function getOwner() public view returns (address _owner) {\n        return owner;\n    }\n\n    function getLearningProviders() public view returns (address[]) {\n        return myLearningProviders;\n    }\n\n    function getRecordTypeLLPC(bytes recordType) public view returns (address) {\n        return recordType2LLPC[recordType];\n    }\n\n    function getLearningRecordsByProvider(address provider, uint start, uint end) public view returns (address[]) {\n        address[] memory res = new address[](end-start);\n        for (var index = start; index<providers2LearningRecords[provider].length && index <= end; index++) {\n            res[(start-index)] = providers2LearningRecords[provider][index].llpcAddress;\n        }\n        return res;\n    }\n\n    function getLearningRecordsByRecordType(address provider, uint start, uint end, bytes recordType) public view returns (address[]) {\n        address[] memory res = new address[](end-start);\n        for (var index = start; index<providers2LearningRecords[provider].length && index<=end; index++) {\n            if (keccak256(providers2LearningRecords[provider][index].recordType) == keccak256(recordType)) {\n                res[(start-index)] = providers2LearningRecords[provider][index].llpcAddress;\n            }\n        }\n        return res;\n    }\n\n    function getLearningRecordsByRecordTypeAndProviders(address[] providers, uint start, uint end, bytes recordType) public view returns (address[]) {\n        address[] memory res = new address[](end-start);\n        for (var index2 = start; index2 <= providers.length; index2++) {\n            for (var index = start; index < providers2LearningRecords[providers[index2]].length && index <= end; index++) {\n            if (keccak256(providers2LearningRecords[providers[index2]][index].recordType) == keccak256(recordType)) {\n                res[(start-index)] = providers2LearningRecords[providers[index2]][index].llpcAddress;\n            }\n        }\n        }\n        return res;\n    }\n    \n}\n",
  "sourcePath": "/Users/admin/truffle-codes/contracts/UserIndex.sol",
  "compiler": {
    "name": "solc",
    "version": "0.4.18+commit.9cf6e910.Emscripten.clang"
  },
  "schemaVersion": "1.0.1",
  "updatedAt": "2018-01-10T03:39:18.130Z"
}