{
  "contractName": "UserIndex",
  "abi": [
    {
      "inputs": [
        {
          "name": "_owner",
          "type": "address"
        }
      ],
      "payable": false,
      "stateMutability": "nonpayable",
      "type": "constructor"
    },
    {
      "anonymous": false,
      "inputs": [
        {
          "indexed": true,
          "name": "sender",
          "type": "address"
        },
        {
          "indexed": true,
          "name": "participantAddress",
          "type": "address"
        },
        {
          "indexed": false,
          "name": "affectedContractAddress",
          "type": "address"
        },
        {
          "indexed": true,
          "name": "actionType",
          "type": "string"
        }
      ],
      "name": "UserIndexContractEvents",
      "type": "event"
    },
    {
      "constant": false,
      "inputs": [
        {
          "name": "provider",
          "type": "address"
        },
        {
          "name": "llpcContract",
          "type": "address"
        },
        {
          "name": "recordType",
          "type": "bytes"
        }
      ],
      "name": "insertLearningRecord",
      "outputs": [],
      "payable": true,
      "stateMutability": "payable",
      "type": "function"
    },
    {
      "constant": false,
      "inputs": [
        {
          "name": "from",
          "type": "address"
        },
        {
          "name": "format",
          "type": "uint8"
        },
        {
          "name": "url",
          "type": "bytes"
        },
        {
          "name": "hash",
          "type": "bytes"
        },
        {
          "name": "school",
          "type": "address"
        },
        {
          "name": "confidential",
          "type": "bool"
        },
        {
          "name": "registrarContract",
          "type": "address"
        }
      ],
      "name": "insertTestimonial",
      "outputs": [],
      "payable": true,
      "stateMutability": "payable",
      "type": "function"
    },
    {
      "constant": true,
      "inputs": [],
      "name": "getOwner",
      "outputs": [
        {
          "name": "_owner",
          "type": "address"
        }
      ],
      "payable": false,
      "stateMutability": "view",
      "type": "function"
    },
    {
      "constant": true,
      "inputs": [
        {
          "name": "provider",
          "type": "address"
        }
      ],
      "name": "getLearningRecordsByProvider",
      "outputs": [
        {
          "name": "",
          "type": "address[]"
        }
      ],
      "payable": false,
      "stateMutability": "view",
      "type": "function"
    },
    {
      "constant": true,
      "inputs": [
        {
          "name": "recordType",
          "type": "bytes"
        }
      ],
      "name": "getLearningRecordsByRecordType",
      "outputs": [
        {
          "name": "",
          "type": "address"
        }
      ],
      "payable": false,
      "stateMutability": "view",
      "type": "function"
    },
    {
      "constant": true,
      "inputs": [],
      "name": "getProviders",
      "outputs": [
        {
          "name": "",
          "type": "address[]"
        }
      ],
      "payable": false,
      "stateMutability": "view",
      "type": "function"
    },
    {
      "constant": true,
      "inputs": [],
      "name": "getTestimonialsCount",
      "outputs": [
        {
          "name": "",
          "type": "uint256"
        }
      ],
      "payable": false,
      "stateMutability": "view",
      "type": "function"
    },
    {
      "constant": true,
      "inputs": [
        {
          "name": "index",
          "type": "uint256"
        }
      ],
      "name": "getTestimonial",
      "outputs": [
        {
          "name": "",
          "type": "address"
        },
        {
          "name": "",
          "type": "uint8"
        },
        {
          "name": "",
          "type": "bytes"
        },
        {
          "name": "",
          "type": "bytes"
        },
        {
          "name": "",
          "type": "address"
        },
        {
          "name": "",
          "type": "bool"
        }
      ],
      "payable": false,
      "stateMutability": "view",
      "type": "function"
    }
  ],
  "bytecode": "0x608060405234801561001057600080fd5b506040516020806119938339810180604052810190808051906020019092919050505080600560006101000a81548173ffffffffffffffffffffffffffffffffffffffff021916908373ffffffffffffffffffffffffffffffffffffffff16021790555060405180807f5549430000000000000000000000000000000000000000000000000000000000815250600301905060405180910390208173ffffffffffffffffffffffffffffffffffffffff163373ffffffffffffffffffffffffffffffffffffffff167f520bb60d32ee049a46928d43474583ce97c799dec4eb8e0c656afefdb5eb3e6d30604051808273ffffffffffffffffffffffffffffffffffffffff1673ffffffffffffffffffffffffffffffffffffffff16815260200191505060405180910390a4506118488061014b6000396000f30060806040526004361061008e576000357c0100000000000000000000000000000000000000000000000000000000900463ffffffff1680630ed6e95e1461009357806326168eed1461012b578063287b8a3c146102bb57806357cf4860146102e6578063893d20e814610382578063b4e3145e146103d9578063bdaaae1f14610482578063edc922a91461059d575b600080fd5b34801561009f57600080fd5b506100d4600480360381019080803573ffffffffffffffffffffffffffffffffffffffff169060200190929190505050610609565b6040518080602001828103825283818151815260200191508051906020019060200280838360005b838110156101175780820151818401526020810190506100fc565b505050509050019250505060405180910390f35b34801561013757600080fd5b50610156600480360381019080803590602001909291905050506106d5565b604051808773ffffffffffffffffffffffffffffffffffffffff1673ffffffffffffffffffffffffffffffffffffffff1681526020018660ff1660ff16815260200180602001806020018573ffffffffffffffffffffffffffffffffffffffff1673ffffffffffffffffffffffffffffffffffffffff16815260200184151515158152602001838103835287818151815260200191508051906020019080838360005b838110156102145780820151818401526020810190506101f9565b50505050905090810190601f1680156102415780820380516001836020036101000a031916815260200191505b50838103825286818151815260200191508051906020019080838360005b8381101561027a57808201518184015260208101905061025f565b50505050905090810190601f1680156102a75780820380516001836020036101000a031916815260200191505b509850505050505050505060405180910390f35b3480156102c757600080fd5b506102d0610949565b6040518082815260200191505060405180910390f35b610380600480360381019080803573ffffffffffffffffffffffffffffffffffffffff169060200190929190803573ffffffffffffffffffffffffffffffffffffffff169060200190929190803590602001908201803590602001908080601f0160208091040260200160405190810160405280939291908181526020018383808284378201915050505050509192919290505050610956565b005b34801561038e57600080fd5b50610397611175565b604051808273ffffffffffffffffffffffffffffffffffffffff1673ffffffffffffffffffffffffffffffffffffffff16815260200191505060405180910390f35b3480156103e557600080fd5b50610440600480360381019080803590602001908201803590602001908080601f016020809104026020016040519081016040528093929190818152602001838380828437820191505050505050919291929050505061119f565b604051808273ffffffffffffffffffffffffffffffffffffffff1673ffffffffffffffffffffffffffffffffffffffff16815260200191505060405180910390f35b61059b600480360381019080803573ffffffffffffffffffffffffffffffffffffffff169060200190929190803560ff169060200190929190803590602001908201803590602001908080601f0160208091040260200160405190810160405280939291908181526020018383808284378201915050505050509192919290803590602001908201803590602001908080601f0160208091040260200160405190810160405280939291908181526020018383808284378201915050505050509192919290803573ffffffffffffffffffffffffffffffffffffffff169060200190929190803515159060200190929190803573ffffffffffffffffffffffffffffffffffffffff1690602001909291905050506112db565b005b3480156105a957600080fd5b506105b2611641565b6040518080602001828103825283818151815260200191508051906020019060200280838360005b838110156105f55780820151818401526020810190506105da565b505050509050019250505060405180910390f35b60606000808373ffffffffffffffffffffffffffffffffffffffff1673ffffffffffffffffffffffffffffffffffffffff1681526020019081526020016000208054806020026020016040519081016040528092919081815260200182805480156106c957602002820191906000526020600020905b8160009054906101000a900473ffffffffffffffffffffffffffffffffffffffff1673ffffffffffffffffffffffffffffffffffffffff168152602001906001019080831161067f575b50505050509050919050565b6000806060806000806001878154811015156106ed57fe5b906000526020600020906004020160000160009054906101000a900473ffffffffffffffffffffffffffffffffffffffff1660018881548110151561072e57fe5b906000526020600020906004020160000160149054906101000a900460ff1660018981548110151561075c57fe5b906000526020600020906004020160010160018a81548110151561077c57fe5b906000526020600020906004020160020160018b81548110151561079c57fe5b906000526020600020906004020160030160009054906101000a900473ffffffffffffffffffffffffffffffffffffffff1660018c8154811015156107dd57fe5b906000526020600020906004020160030160149054906101000a900460ff16838054600181600116156101000203166002900480601f0160208091040260200160405190810160405280929190818152602001828054600181600116156101000203166002900480156108915780601f1061086657610100808354040283529160200191610891565b820191906000526020600020905b81548152906001019060200180831161087457829003601f168201915b50505050509350828054600181600116156101000203166002900480601f01602080910402602001604051908101604052809291908181526020018280546001816001161561010002031660029004801561092d5780601f106109025761010080835404028352916020019161092d565b820191906000526020600020905b81548152906001019060200180831161091057829003601f168201915b5050505050925095509550955095509550955091939550919395565b6000600180549050905090565b6000829050600560009054906101000a900473ffffffffffffffffffffffffffffffffffffffff1673ffffffffffffffffffffffffffffffffffffffff168173ffffffffffffffffffffffffffffffffffffffff1663893d20e86040518163ffffffff167c0100000000000000000000000000000000000000000000000000000000028152600401602060405180830381600087803b1580156109f857600080fd5b505af1158015610a0c573d6000803e3d6000fd5b505050506040513d6020811015610a2257600080fd5b810190808051906020019092919050505073ffffffffffffffffffffffffffffffffffffffff16148015610aa6575060001515600260008573ffffffffffffffffffffffffffffffffffffffff1673ffffffffffffffffffffffffffffffffffffffff16815260200190815260200160002060009054906101000a900460ff161515145b8015610b985750600115158173ffffffffffffffffffffffffffffffffffffffff1663edfb28f93360006040518363ffffffff167c0100000000000000000000000000000000000000000000000000000000028152600401808373ffffffffffffffffffffffffffffffffffffffff1673ffffffffffffffffffffffffffffffffffffffff1681526020018215151515815260200192505050602060405180830381600087803b158015610b5957600080fd5b505af1158015610b6d573d6000803e3d6000fd5b505050506040513d6020811015610b8357600080fd5b81019080805190602001909291905050501515145b8015610d1c5750600073ffffffffffffffffffffffffffffffffffffffff166003836040518082805190602001908083835b602083101515610bef5780518252602082019150602081019050602083039250610bca565b6001836020036101000a038019825116818451168082178552505050505050905001915050908152602001604051809103902060009054906101000a900473ffffffffffffffffffffffffffffffffffffffff1673ffffffffffffffffffffffffffffffffffffffff161480610d1b57508273ffffffffffffffffffffffffffffffffffffffff166003836040518082805190602001908083835b602083101515610caf5780518252602082019150602081019050602083039250610c8a565b6001836020036101000a038019825116818451168082178552505050505050905001915050908152602001604051809103902060009054906101000a900473ffffffffffffffffffffffffffffffffffffffff1673ffffffffffffffffffffffffffffffffffffffff16145b5b1561116a576001600260008573ffffffffffffffffffffffffffffffffffffffff1673ffffffffffffffffffffffffffffffffffffffff16815260200190815260200160002060006101000a81548160ff021916908315150217905550600073ffffffffffffffffffffffffffffffffffffffff166003836040518082805190602001908083835b602083101515610dc95780518252602082019150602081019050602083039250610da4565b6001836020036101000a038019825116818451168082178552505050505050905001915050908152602001604051809103902060009054906101000a900473ffffffffffffffffffffffffffffffffffffffff1673ffffffffffffffffffffffffffffffffffffffff161415610ee457826003836040518082805190602001908083835b602083101515610e725780518252602082019150602081019050602083039250610e4d565b6001836020036101000a038019825116818451168082178552505050505050905001915050908152602001604051809103902060006101000a81548173ffffffffffffffffffffffffffffffffffffffff021916908373ffffffffffffffffffffffffffffffffffffffff1602179055505b6000808573ffffffffffffffffffffffffffffffffffffffff1673ffffffffffffffffffffffffffffffffffffffff1681526020019081526020016000208390806001815401808255809150509060018203906000526020600020016000909192909190916101000a81548173ffffffffffffffffffffffffffffffffffffffff021916908373ffffffffffffffffffffffffffffffffffffffff1602179055505060001515600460008673ffffffffffffffffffffffffffffffffffffffff1673ffffffffffffffffffffffffffffffffffffffff16815260200190815260200160002060009054906101000a900460ff161515141561109e5760068490806001815401808255809150509060018203906000526020600020016000909192909190916101000a81548173ffffffffffffffffffffffffffffffffffffffff021916908373ffffffffffffffffffffffffffffffffffffffff160217905550506001600460008673ffffffffffffffffffffffffffffffffffffffff1673ffffffffffffffffffffffffffffffffffffffff16815260200190815260200160002060006101000a81548160ff0219169083151502179055505b60405180807f696e736572744c6561726e696e675265636f7264000000000000000000000000815250601401905060405180910390208473ffffffffffffffffffffffffffffffffffffffff163373ffffffffffffffffffffffffffffffffffffffff167f520bb60d32ee049a46928d43474583ce97c799dec4eb8e0c656afefdb5eb3e6d30604051808273ffffffffffffffffffffffffffffffffffffffff1673ffffffffffffffffffffffffffffffffffffffff16815260200191505060405180910390a461116f565b600080fd5b50505050565b6000600560009054906101000a900473ffffffffffffffffffffffffffffffffffffffff16905090565b6000806000803373ffffffffffffffffffffffffffffffffffffffff1673ffffffffffffffffffffffffffffffffffffffff16815260200190815260200160002080549050118061123d57503373ffffffffffffffffffffffffffffffffffffffff16600560009054906101000a900473ffffffffffffffffffffffffffffffffffffffff1673ffffffffffffffffffffffffffffffffffffffff16145b156112d5576003826040518082805190602001908083835b60208310151561127a5780518252602082019150602081019050602083039250611255565b6001836020036101000a038019825116818451168082178552505050505050905001915050908152602001604051809103902060009054906101000a900473ffffffffffffffffffffffffffffffffffffffff1690506112d6565b5b919050565b6000808291508173ffffffffffffffffffffffffffffffffffffffff1663f4e46c1c866040518263ffffffff167c0100000000000000000000000000000000000000000000000000000000028152600401808273ffffffffffffffffffffffffffffffffffffffff1673ffffffffffffffffffffffffffffffffffffffff168152602001915050602060405180830381600087803b15801561137c57600080fd5b505af1158015611390573d6000803e3d6000fd5b505050506040513d60208110156113a657600080fd5b810190808051906020019092919050505090508073ffffffffffffffffffffffffffffffffffffffff16639dca83f88a6040518263ffffffff167c0100000000000000000000000000000000000000000000000000000000028152600401808273ffffffffffffffffffffffffffffffffffffffff1673ffffffffffffffffffffffffffffffffffffffff168152602001915050602060405180830381600087803b15801561145457600080fd5b505af1158015611468573d6000803e3d6000fd5b505050506040513d602081101561147e57600080fd5b81019080805190602001909291905050501561163157600160c0604051908101604052808b73ffffffffffffffffffffffffffffffffffffffff1681526020018a60ff1681526020018981526020018881526020018773ffffffffffffffffffffffffffffffffffffffff1681526020018615158152509080600181540180825580915050906001820390600052602060002090600402016000909192909190915060008201518160000160006101000a81548173ffffffffffffffffffffffffffffffffffffffff021916908373ffffffffffffffffffffffffffffffffffffffff16021790555060208201518160000160146101000a81548160ff021916908360ff16021790555060408201518160010190805190602001906115a4929190611777565b5060608201518160020190805190602001906115c1929190611777565b5060808201518160030160006101000a81548173ffffffffffffffffffffffffffffffffffffffff021916908373ffffffffffffffffffffffffffffffffffffffff16021790555060a08201518160030160146101000a81548160ff021916908315150217905550505050611636565b600080fd5b505050505050505050565b606060008060003373ffffffffffffffffffffffffffffffffffffffff1673ffffffffffffffffffffffffffffffffffffffff1681526020019081526020016000208054905011806116e057503373ffffffffffffffffffffffffffffffffffffffff16600560009054906101000a900473ffffffffffffffffffffffffffffffffffffffff1673ffffffffffffffffffffffffffffffffffffffff16145b1561177357600680548060200260200160405190810160405280929190818152602001828054801561176757602002820191906000526020600020905b8160009054906101000a900473ffffffffffffffffffffffffffffffffffffffff1673ffffffffffffffffffffffffffffffffffffffff168152602001906001019080831161171d575b50505050509050611774565b5b90565b828054600181600116156101000203166002900490600052602060002090601f016020900481019282601f106117b857805160ff19168380011785556117e6565b828001600101855582156117e6579182015b828111156117e55782518255916020019190600101906117ca565b5b5090506117f391906117f7565b5090565b61181991905b808211156118155760008160009055506001016117fd565b5090565b905600a165627a7a72305820a4bcbc22a3d7855ff33bfdb898b7f73567582b362844f6428870b091ea27b6870029",
  "source": "pragma solidity ^0.4.17;\nimport './LearnerLearningProvider.sol';\nimport './ProviderIndex.sol';\nimport './Registrar.sol';\n\ncontract UserIndex {\n    event UserIndexContractEvents(address indexed sender, address indexed participantAddress,\n        address affectedContractAddress, string indexed actionType);\n    struct Testimonial {\n        address from;\n        uint8 format; // 0 = certificate, 1 = recommendation letter, 2 = others\n        bytes url;\n        bytes hash;\n        address school;\n        bool confidential;\n    }\n    mapping(address => address[]) providers2LearningRecords;\n    Testimonial [] testimonials;\n    mapping(address => bool) duplicateTracker;\n    mapping(bytes => address) recordType2LLPC;\n\n    mapping(address => bool) duplicateProviderTracker;\n    address owner;\n    address[] providers;\n\n    constructor(address _owner) public {\n        owner = _owner;\n        emit UserIndexContractEvents(msg.sender, _owner, address(this), \"UIC\");\n    }\n\n    function insertLearningRecord(address provider, address llpcContract, bytes recordType) public payable {\n        LearnerLearningProvider llpc = LearnerLearningProvider(llpcContract);\n        if (llpc.getOwner() == owner && duplicateTracker[llpcContract] == false && llpc.canWrite(msg.sender, false) == true &&\n        (recordType2LLPC[recordType]== address(0) || recordType2LLPC[recordType] == llpcContract)) {\n            duplicateTracker[llpcContract] = true;\n            if(recordType2LLPC[recordType] == address(0)) {\n                recordType2LLPC[recordType] = llpcContract;\n            }\n            providers2LearningRecords[provider].push(llpcContract);\n            if(duplicateProviderTracker[provider] == false) {\n                providers.push(provider);\n                duplicateProviderTracker[provider] = true;\n            }\n            emit UserIndexContractEvents(msg.sender, provider, address(this), \"insertLearningRecord\");\n        } else {\n            revert();\n        }\n    }\n\n    function insertTestimonial(address from, uint8 format, bytes url, bytes hash, address school, bool confidential, address registrarContract) public payable {\n        Registrar registrar = Registrar(registrarContract);\n        ProviderIndex pi = ProviderIndex(address(registrar.getIndexContract(school)));\n        if (pi.isStaffActive(from)) {\n            testimonials.push(Testimonial(from, format, url, hash, school, confidential));\n        } else {\n            revert();\n        }\n    }\n\n    function getOwner() public view returns (address _owner) {\n        return owner;\n    }\n\n    function getLearningRecordsByProvider(address provider) public view returns (address[]) {\n        return providers2LearningRecords[provider];\n    }\n\n    function getLearningRecordsByRecordType(bytes recordType) public view returns (address) {\n        if(providers2LearningRecords[msg.sender].length > 0 || owner == msg.sender) {\n            return recordType2LLPC[recordType];\n        }\n    }\n\n    function getProviders() public view returns (address[]) {\n        if(providers2LearningRecords[msg.sender].length > 0 || owner == msg.sender) {\n            return providers;\n        }\n    }\n\n    function getTestimonialsCount() public view returns (uint) {\n        return testimonials.length;\n    }\n\n    function getTestimonial(uint index) public view returns (address, uint8, bytes, bytes, address, bool) {\n        return (testimonials[index].from, testimonials[index].format, testimonials[index].url, testimonials[index].hash, testimonials[index].school, testimonials[index].confidential);\n    }\n\n}\n",
  "sourcePath": "/Users/admin/truffle-codes/contracts/UserIndex.sol",
  "compiler": {
    "name": "solc",
    "version": "0.4.24+commit.e67f0147.Emscripten.clang"
  },
  "schemaVersion": "2.0.1",
  "updatedAt": "2019-07-26T13:01:59.632Z"
}